:103800007BC00000AEC0000092C0000090C000006D
:103810008EC000008CC000008AC0000088C000007C
:1038200086C0000084C0000082C0000080C000008C
:103830007EC000007CC000007AC0000078C000009C
:1038400076C0000074C0000072C0000070C00000AC
:103850006EC000006CC000006AC0000068C00000BC
:1038600066C0000064C0000062C0000060C00000CC
:103870005EC000005CC000005AC0000004030904E0
:1038800012036F0062006400650076002E00610084
:103890007400100348004900440042006F006F00AC
:1038A00074001201100100000008C016DF050001BD
:1038B0000102000109022200010100803209040016
:1038C000000103000000092101010001222100077D
:1038D0000581030800C80600FF0901A101150026A3
:1038E000FF007508850195060900B2020185029561
:1038F000830900B20201C00011241FBECFEFD4E043
:10390000DEBFCDBF11E0A0E0B1E0E6EEFEE302C015
:1039100005900D92AA30B107D9F711E0AAE0B1E005
:1039200001C01D92AB33B107E1F743D1DAC268CFD2
:10393000A82FB92F80E090E041E050EA609530E098
:1039400009C02D9182279795879510F08427952798
:10395000305EC8F36F5FA8F30895EADF8D939D93FF
:103960000895CF93CFB7CF93DF93C3954C9BE9F7DF
:103970004C9B0BC04C9B09C04C9B07C04C9B05C08B
:103980004C9B03C04C9B01C08BC06F93C0911E0128
:10399000DD27CB5DDE4F2F9365E54C9B03C02F9158
:1039A0006F91E6CF0F931F934F9320E040E15F9319
:1039B00009B1047104FB27F93F9350E03BE039C0A3
:1039C000147140642F77012F5F5F1EC0406819B1EA
:1039D00014712F7752501FC0406409B12F770471C2
:1039E000D1F15F5F00C023C0406219B12F7714711D
:1039F00091F15F5F00C025C004711027515012F48F
:103A00005D5F0000115027952C3F19B1C8F6147165
:103A10000127015027952C3FC8F64227499309B149
:103A2000047110274F73115027952C3FA8F6469527
:103A3000469519B1147179F00127015027952C3F53
:103A400098F66B5A60F3315009B1B0F600C011E03E
:103A50001CBB002719C03B503195C31BD04011E05F
:103A60001CBB0881033C09F10B34F9F020911C01C7
:103A70001981110F1213EDCF4A81441F093651F1FC
:103A80000D3211F0013E29F7009323013F915F9120
:103A90004F911F910F912F916F91CCB3C0FD65CFC6
:103AA000DF91CF91CFBFCF91189520912301222391
:103AB00069F310912101112349F534304AF1309313
:103AC000210120931D0110911E013BE0311B309319
:103AD0001E011EC0009121010130C4F40AE54F709F
:103AE000A9F43091000134FD14C000930001C1E13C
:103AF000D1E013C0052710E000C000000BB91AC0C8
:103B0000052710E0221F1DC010E021C04AE502C0B9
:103B100032ED432FC4E1D0E032E01AB114615C9A77
:103B20000BB11AB954E120E865E320FF05270BB972
:103B3000279517951C3FF0F66695B8F7B1F720FF6B
:103B400005270BB9279517951C3FD0F62795179594
:103B500017FF052700001C3F0BB9B0F629913A95D5
:103B600019F70B7E10912201110FC651D0400BB9ED
:103B700011F010931C0111E01CBB00611AB11B7EF7
:103B8000402F4B7E54E05A95F1F70BB91AB94BB957
:103B90007DCFF89481E180935700E8951DBA10928B
:103BA000690081E085BF15BEE0910F01F091100121
:103BB00009955E9A85E38A95F1F704B601FE8EC1F8
:103BC00014BE4E998BC181E085BF82E085BF809194
:103BD0006900836080936900E89A549A20E0A89570
:103BE00080EA9FE00197F1F72150C9F75498789443
:103BF000FF2400E0A89590912101392F335037FD23
:103C000019C180911E01ACE0B0E0A81BB109AB5D09
:103C1000BE4F80911D018D3209F0BDC0383009F0D2
:103C200007C183EC809311018AE580930001109213
:103C30000A012C91822F807611969C9111978823EE
:103C4000E1F0993079F412968C911297823031F428
:103C500010920D0127FD8CC09FEF8CC081E08093F6
:103C60000E013DC1913009F03AC182E091E090939C
:103C7000200180931F0127E081C012968C9112973A
:103C800010921A01992331F410921B018AE191E0FC
:103C900022E069C0953019F48093220161C096300A
:103CA00009F04EC013968C911397813019F482EA73
:103CB00098E31DC0823041F484EB98E39093200197
:103CC00080931F0122E238C0833009F512968C914F
:103CD0001297882341F48CE798E390932001809316
:103CE0001F0124E029C0813041F480E898E39093DB
:103CF000200180931F0122E11FC08230E1F482E99C
:103D000098E39093200180931F0120E115C0813238
:103D100041F486EC98E39093200180931F0129E001
:103D20000BC0823241F486ED98E39093200180939A
:103D30001F0121E201C020E080E480930A011EC03F
:103D4000983019F484E291E009C0993019F4809315
:103D5000240106C09A3021F48AE191E021E003C0F9
:103D60008AE191E020E09093200180931F0106C03A
:103D700016969C9180E880930A010AC017968C9150
:103D80001797882321F416969C91921708F0922F8A
:103D9000909301014DC080910A0187FF49C0C091F5
:103DA0000B01D0910C0180910D01882349F41196EB
:103DB000CC9111971296DC9112971496392F3750A7
:103DC000632F680F60930D01AE014F7751F4F894A3
:103DD00083E0FE0180935700E895789407B600FCD5
:103DE000FDCFF894AE018D919C91119721E0FE01D9
:103DF0000C0120935700E895112478942296FE0137
:103E0000EF7751F4F89485E0FA0180935700E89534
:103E1000789407B600FCFDCF325011F01296D4CF43
:103E2000D0930C01C0930B0167FF02C010920101F7
:103E3000109221018091000184FF3CC0809101011A
:103E40008F3FC1F1182F893008F018E0811B809353
:103E500001018091110198E88927809311011123B4
:103E6000E1F0E0911F01F091200180910A0186FFAD
:103E700009C0912FA2E1B1E084918D9331969150C8
:103E8000D9F707C0912FA2E1B1E081918D939150B4
:103E9000E1F7F0932001E0931F0182E191E0612FAF
:103EA0005CDD612F6C5F6C3019F08FEF8093010146
:103EB0006093000194E189B1847131F49150D9F794
:103EC0001092220110921C0180910E01882321F092
:103ED000FA9411F4015011F04E9B8CCE5ADE20E082
:063EE0004DCFF894FFCF66
:0A3EE6005AFF0180000040000000B8
:0400000300003800C1
:00000001FF
