:100000000C9476000C947D180C9493000C9493003F
:100010000C9493000C9493000C9493000C94930014
:100020000C9493000C9493000C9493000C94930004
:100030000C9493000C9493000C9493000C949300F4
:100040000C9493000C9493000C9493000C949300E4
:100050000C9493000C9493000C9493000C949300D4
:100060000C9493000C9493000C9493000C949300C4
:100070000C9493000C9493000C94930009021200CA
:10008000010100806409040000000000000012016A
:100090001001FF000008C016DC050102010200018A
:1000A0001E0349004E004C00200052006500740001
:1000B00072006F002D00500072006F0067002A036D
:1000C00049006E00660069006E00690074006500FA
:1000D0004E00650073004C006900760065007300F7
:1000E0002E0063006F006D000403090411241FBE7D
:1000F000CFEFD4E0DEBFCDBF11E0A0E0B1E0E8E893
:10010000F3E302C005900D92A630B107D9F723E0C2
:10011000A6E0B1E001C01D92A43EB207E1F70E9443
:1001200091190C94C2190C94000080E00895089570
:100130000F931F93CF93DF93EC01FB01D901009143
:100140004D0110914E01888187FF09C08E818C93EB
:10015000442399F00481158180E883831DC08FEFCB
:100160008C938E8180933801442309F44BC07093A3
:100170006A036093690380E9F0CFE0912501F09173
:1001800026018381883DA1F50481158180E8838360
:10019000E0912501F09126011782E0912501F0916F
:1001A000260183818039F1F48A81813711F080340E
:1001B000C9F4E0916903F0916A030480F581E02DB0
:1001C0008C818083E0916903F0916A030480F5815A
:1001D000E02D8D818183E0916903F0916A0387812D
:1001E0008E5F8783C801DF91CF911F910F91089592
:1001F000803D11F41C92CCCF8FEF8C9380E10E9454
:10020000E611C6CFE0912501F0912601838181118D
:1002100006C0F0936A03E093690380E9B8CF883998
:1002200069F7E8CFE9E5F1E08FEF819391E0E936F6
:10023000F907D9F780934C0180932B0180934B01F0
:1002400080932A0180933C018093180180933B01A5
:100250008093170181E00C94E611CF93DF93FC01AA
:1002600050E0CA01820F911D4197E4F52223E1F18C
:1002700083818F3FD9F582818F3FD1F5DA01A75A6B
:10028000BE4FED0180E099919F3FA1F58F5F28134C
:10029000FACF62831382982F9295990F907E915096
:1002A0009683178210861182108211861286138619
:1002B000148615861686178695E0440F551F9A9565
:1002C000E1F72091000130910101420F531F558346
:1002D000448390E06D939F5F8913FCCF80E0DF91B2
:1002E000CF9108958EEBFBCF82ECF9CF8FEBF7CF58
:1002F00080ECF5CF81ECF3CFCF93DF93DC01EB0102
:100300009A0112969C91129780ED890F803318F50F
:1003100013968C911397813041F0E8F08230A9F068
:100320008330B1F085EB888346C0E8E2F1E0913597
:1003300009F476C048F5913309F449C078F499235B
:10034000B9F19033E1F184EBEECFE9E3F1E0EFCFE7
:10035000E5E1F1E0ECCFE9E4F1E0E9CF933309F432
:1003600046C0E8F1903579F7188286E08983868166
:100370008A8383818B8387818C8380858D8382812F
:100380008E8387858F8317C0903808F05FC09037C1
:1003900008F055C0903679F19136C9F1923599F649
:1003A000188282E0898380818A8381818B8303C064
:1003B0000E9412011882CE01DF91CF910895149608
:1003C0008C91149715969C9191878287F3CF149600
:1003D0008C91149715969C9193878487EBCF1496F4
:1003E0008C91149715969C9195878687E3CF1496E8
:1003F0008C918787DFCF188281E089831496ED91F5
:10040000FC911597E75AFE4F80818A83D4CF1882DA
:1004100081E08983E0912501F09126018381F5CF68
:10042000188286E0898381858A8382858B83838590
:100430008C8384858D8385858E838685A3CF40E0DC
:10044000BF01CD01DF91CF910C949800892F877067
:10045000813049F0F8F0823001F1833009F062CF49
:10046000E5E1F1E002C0E8E2F1E0903808F4A3CF62
:100470009838B0F09059983008F09DCF18821396B4
:100480008C911397808714968D919C9115979183E9
:10049000808391CFE9E4F1E0E8CFE9E3F1E0E5CF53
:1004A00014964C91149715966C91159713962C9160
:1004B000CF010E942D0137CF90914C0180912B01EB
:1004C0008F3F79F481E09F3F09F480E090913C01F7
:1004D0009F3F09F083E0909118019F3F09F084E06D
:1004E000089582E0F3CF623059F421E08934920715
:1004F00049F121E08832920789F489E491E00EC045
:10050000633069F421E089349207E1F021E0883218
:100510009207D9F021E08933920779F30895643086
:10052000E9F721E08934920769F021E088329207E7
:1005300061F021E08933920759F021E0853192077B
:1005400069F7DBCF88E291E0089589E391E00895AF
:1005500085E191E008951F93CF93DF930E94EC1102
:10056000823D09F071C00E945C028093060189E41B
:1005700091E090932601809325010E94EC11823D29
:10058000A1F4D09106018091250190912601C1E04E
:10059000CD1708F45FC0909326018093250120E8D1
:1005A000FC01238380ED0E94E6110E94EC11823F42
:1005B00041F480EF0E94E611E0912501F0912601BF
:1005C00013820E94EC11C82F803DE1F48091250137
:1005D00090912601FC0123812038A1F4609106014D
:1005E0000E9473029093260180932501FC011782DB
:1005F000C3830E944403E0912501F09126018823E2
:1006000071F183830E94EC11182F803FC9F4C091CF
:100610002501D09126018B81883991F460910601E2
:10062000CE010E9473029093260180932501FC0164
:1006300013821B83CE010E94D5088823C9F08B83C7
:10064000DF91CF911F9108950E94EC11823F09F034
:1006500094CF89CF6D2F0E947302CF5F99CF2085F1
:1006600080819181820F911D9183808388EDC9CF14
:1006700084EF8B83288588819981820F911D9983CE
:100680008883DECF88E80895CF92DF92EF920F93B0
:100690001F93CF93DF931F92CDB7DEB76C01DC01C0
:1006A0000D911C911197602F1996EC918E2F90E06F
:1006B000FC017097E631F10508F017C1EE59FC4FC7
:1006C0000C94BC19DD032E044E045104750475040A
:1006D0007504750475047504750475047504750452
:1006E00075047504780385039F03B203B903CE0331
:1006F000F6016585603108F002C1F0E16F9FB0013D
:100700001124602B0FEFD60120C0D6011D966C91ED
:100710001D97862F837C8111F2C0602B0FEF1696F8
:100720002C91169712964C91129714968D919C913C
:1007300015970E94340EF601878380E0D7C0D6015A
:100740001D966C911D97602B0FEF16962C911697A6
:1007500012964C91129714968D919C9115970E9428
:10076000FC0DE9CFD6011D966C911D97862F807CDC
:10077000D2CFD6011D966C911D97602BEE24EA9482
:1007800016960C91169712962C91129740E014969B
:100790008D919C9115970E941E15CDCFD6011D9667
:1007A0006C911D97602BEE24EA9416960C91169787
:1007B00012962C91129741E0EACFD6011D968C91AA
:1007C0008E31E1F4202F2F7BB80146E076956795B6
:1007D0004A95E1F780E090EC29830E949A0D2981E7
:1007E000622F60680FEFF601268142818481958136
:1007F0000E94FC0DD60117968C939FCF8C31A1F4EB
:1008000061E880E090E50E949A0DB801660F672FBD
:10081000661F770B719580E090E80E949A0D60E06A
:1008200080E090E50E949A0DF6018585102F8F31AA
:1008300039F010680FEFF60126814281612FD6CF83
:100840001F7810686081718124E0769567952A95FC
:10085000E1F780E090E50E949A0DECCFF6018585E6
:100860008E3F09F06ACFB80195E0769567959A9525
:10087000E1F78FEF9FE30E94C40D602F6F710FEFC0
:10088000D60116962C91169712964C9112971496A3
:100890008D919C9115970E946C0E4DCF602F6066D4
:1008A00031CFD6011D968C91811119C0602F6068DF
:1008B000000F012F001F110B1195202F8FEF84B90E
:1008C00025B95F9A5F9814B8EE24EA94F601068180
:1008D000228140E0848195810E941E158BCF81305A
:1008E00069F7212F2F732064E9CF83EC0F90DF91FC
:1008F000CF911F910F91EF90DF90CF90089584ECEE
:10090000F5CFCF92DF92EF92FF920F931F93CF9389
:10091000DF937B016A01DB011796CC91D0E0082FB1
:1009200010E0102F0027D70116968C91169790E0B3
:100930008C179D0760F41796CC9380E0DF91CF91E0
:100940001F910F91FF90EF90DF90CF900895CE010F
:100950009927D7011496ED91FC911597E80FF91F8F
:100960006081802B912BF60109952196DCCF4F9267
:100970005F926F927F928F929F92AF92BF92CF922F
:10098000DF92EF92FF920F931F93CF93DF934A0171
:100990003901E8015F80A52CB12C8501162B8E81D1
:1009A000851598F45F8280E0DF91CF911F910F91C0
:1009B000FF90EF90DF90CF90BF90AF909F908F907F
:1009C0007F906F905F904F9008956AEAC401F7019D
:1009D000099565E5C301F701099560EAC401F701CE
:1009E0000995EC81FD81EA0DFB1D6081C801F701CD
:1009F00009950E945E17C801F6010995482EC801A5
:100A0000F60109954812F5CFCACF2F923F924F9227
:100A10005F926F927F928F929F92AF92BF92CF928E
:100A2000DF92EF92FF920F931F93CF93DF93CDB797
:100A3000DEB727970FB6F894DEBF0FBECDBF582E96
:100A40004A013C832B831F830E83D80117964C9059
:100A5000042D10E070E0F62FEE27FA83E983252CB1
:100A6000312CF7E92F1AF2E03F0AAE81BF811696CA
:100A70008C91169790E080179107E0F417964C92AE
:100A800080E027960FB6F894DEBF0FBECDBFDF9192
:100A9000CF911F910F91FF90EF90DF90CF90BF907B
:100AA000AF909F908F907F906F905F904F903F900E
:100AB0002F90089560E089E69DEF0E949A0D6AEA02
:100AC000C401F701099565E58B819C81F7010995C2
:100AD00060EAC401F7010995652DC1010E949A0DD4
:100AE000642C712CA980BA80A628B728AE81BF815A
:100AF0001496ED91FC911597E60DF71D6081C501E7
:100B0000F70109950E945E17C501F6010995282F86
:100B1000C5012D83F60109952D812813F3CFAE81F0
:100B2000BF8114968D919C911597680E791EF301E3
:100B30008081281307C043940F5F1F4F5198599A23
:100B4000599893CF519A599A90CF2F923F924F92A2
:100B50005F926F927F928F929F92AF92BF92CF924D
:100B6000DF92EF92FF920F931F93CF93DF9300D00A
:100B700000D01F92CDB7DEB7382E4A0129011D8360
:100B80000C83D80117962C90022D10E070E0F62F00
:100B9000EE27FA83E983AC81BD8116968C91169776
:100BA00090E080179107D8F417962C9280E00F9070
:100BB0000F900F900F900F90DF91CF911F910F9199
:100BC000FF90EF90DF90CF90BF90AF909F908F906D
:100BD0007F906F905F904F903F902F90089561E0CD
:100BE00080E090EC0E949A0D6AEAC401F701099531
:100BF00060E080E090EC0E949A0D65E5C201F7018B
:100C0000099561E080E090EC0E949A0D60EAC401D1
:100C1000F7010995632D80E090EC0E949A0D622CFB
:100C2000712CA980BA80A628B728AC81BD81149602
:100C3000ED91FC911597E60DF71D6081C501F70157
:100C400009950E945E17C501F6010995282FC50177
:100C50002B83F60109952B812813F3CFAC81BD813D
:100C600014968D919C911597680E791EF3018081E1
:100C7000281307C023940F5F1F4F5198599A599812
:100C80008ACF519A599A87CF3F924F925F926F9233
:100C90007F928F929F92AF92BF92CF92DF92EF920C
:100CA000FF920F931F93CF93DF93482E662E7A0106
:100CB000E901DA0117965C90A52CB12C6AEA8AEA60
:100CC0009AE8F901099565E585E595E8FE0109953C
:100CD00060E28AEA9AE8FE010995712C762C662476
:100CE000D70116968C91169790E08A159B0520F5F2
:100CF00017965C9260E980E090E8FE01099560E05B
:100D000080E090E8FE01099560EF80E090E8FE0148
:100D1000099580E0DF91CF911F910F91FF90EF90A7
:100D2000DF90CF90BF90AF909F908F907F906F900B
:100D30005F904F903F90089564E580E090E50E94B9
:100D40009A0D852C912C6401C628D72860EAC6012B
:100D5000FE010995D7011496ED91FC911597E80DC8
:100D6000F91D6081C601FE0109950E945E17C6014A
:100D7000F8010995382EC601F80109953812F5CF0A
:100D8000D70114968D919C911597880E991EF401A8
:100D90008081381208C05394FFEFAF1ABF0A5198F0
:100DA000599A59989DCF61E880E090E50E949A0D8C
:100DB000642D80E090E80E949A0D64E580E090E563
:100DC0000E949A0D519A599A8BCF4F925F926F92CF
:100DD0007F928F929F92AF92BF92CF92DF92EF92CB
:100DE000FF920F931F93CF93DF93662E7A01E90151
:100DF000DA0117965C90A52CB12C6AEA8AEA9AE887
:100E0000F901099565E585E595E8FE01099560E23A
:100E10008AEA9AE8FE010995712C762C6624D7019E
:100E200016968C91169790E08A159B0518F51796E3
:100E30005C9260E980E090E8FE01099560E080E066
:100E400090E8FE01099560EF80E090E8FE010995C9
:100E500080E0DF91CF911F910F91FF90EF90DF9095
:100E6000CF90BF90AF909F908F907F906F905F904A
:100E70004F900895852C912C6401C628D72860EAEC
:100E8000C601FE010995D7011496ED91FC911597C5
:100E9000E80DF91D6081C601FE0109950E945E17EB
:100EA000C601F8010995482EC601F80109954812B6
:100EB000F5CFD70114968D919C911597880E991EA8
:100EC000F4018081481208C05394FFEFAF1ABF0AA3
:100ED0005198599A5998A3CF519A599AA0CF4F92A5
:100EE0005F926F927F928F929F92AF92BF92CF92BA
:100EF000DF92EF92FF920F931F93CF93DF93662EB3
:100F00007A01E901DA0117965C90A52CB12C6AEA06
:100F10008AEA9AE0F901099565E585E595E0FE0123
:100F2000099560E28AEA9AE0FE010995712C762C17
:100F30006624D70116968C91169790E08A159B052A
:100F400018F517965C9260E980E090E0FE01099543
:100F500060E080E090E0FE01099560EF80E090E0C5
:100F6000FE01099580E0DF91CF911F910F91FF90D5
:100F7000EF90DF90CF90BF90AF909F908F907F9039
:100F80006F905F904F900895852C912C6401C62836
:100F9000D72860EAC601FE010995D7011496ED91A4
:100FA000FC911597E80DF91D6081C601FE010995B8
:100FB0000E945E17C601F8010995482EC601F80186
:100FC00009954812F5CFD70114968D919C911597EC
:100FD000880E991EF4018081481208C05394FFEFD7
:100FE000AF1ABF0A5198599A5998A3CF519A599A52
:100FF000A0CF4F925F927F928F929F92AF92BF92BB
:10100000CF92DF92EF92FF920F931F93CF93DF93D4
:10101000A62E6A01E901DA011796EC90F12CA89549
:1010200000000000000000000000000000000000C0
:10103000000040E06AEA8AEA9AE8F901099540E08E
:1010400065E585E595E8FE01099540E060E28AEAFC
:101050009AE8FE010995B12CBA2CAA24D60116965D
:101060008C91169790E08E159F0530F51796EC92AF
:1010700040E060E980E090E8FE01099540E060E032
:1010800080E090E8FE01099540E060EF80E090E8A4
:10109000FE010995000080E0DF91CF911F910F9133
:1010A000FF90EF90DF90CF90BF90AF909F908F9088
:1010B0007F905F904F90089560E080EA0E940F1546
:1010C0002701552442018A289B28D6011496ED91C8
:1010D000FC911597E40DF51D40E06081C401FE010F
:1010E0000995000000000000000000000000000062
:1010F00000000000A8950E945E1760E0C401F8019E
:101100000995782E0000000000000000000000009B
:10111000000000000000D6011496ED91FC91159797
:10112000E40DF51D80817816C1F00000000000007C
:1011300000000000000000000000000060E0C401AA
:10114000F801099578120DC00000000000000000B1
:1011500000000000000000000000FFEFEF1AFF0A8F
:101160007DCF000000000000000000000000000033
:10117000000000000000000000000000000000006F
:10118000000000000000000000000000000000005F
:10119000000000000000000000000000000060E00F
:1011A000C401F8010995782EC9CFBF92CF92DF9282
:1011B000EF92FF920F931F93CF93DF93EC01B880D0
:1011C0008985823109F43CC138F48031A9F081313C
:1011D00009F4E6C083EC06C0833109F439C18431D7
:1011E000C9F780E0DF91CF911F910F91FF90EF90B1
:1011F000DF90CF90BF9008958D85811107C046EC98
:101200005EE0BE0180E88B0D0E9481048D858130F7
:1012100039F444E15FE0BE0180E88B0D0E94810457
:101220008D85833039F445E75FE0BE0180E88B0DA2
:101230000E9481048D85843039F44CEF5FE0BE015B
:1012400080E88B0D0E9481048D858A3039F44FE44B
:1012500050E1BE0180E88B0D0E9481048D858D3F99
:10126000D1F46B2D6F736068B62E8881998116E07A
:10127000969587951A95E1F708E8C02E0DE0D02ED7
:101280009FE5E92E9DE0F92E8E012AEA3AE245E536
:1012900055E50E9405058D858E31D1F46B2D6F7358
:1012A0006068B62E88819981F6E096958795FA95C3
:1012B000E1F7A8E8CA2EADE0DA2EBAE9EB2EBDE0E0
:1012C000FB2E8E012AEA3AEA45E555E90E94A5057A
:1012D0008D858C3031F56B2D6F716068B62EE8808E
:1012E000F98065E0F694E7946A95E1F765EA80E0B5
:1012F00090E60E949A0D6E2D8FEF9FEF0E949A0D3F
:1013000078E8C72E7DE0D72EEAE9EE2EEDE0FE2E3E
:101310008E012AEA3AEA45E555ED6B2D80E00E9400
:10132000B7048D858C3101F5E880F980EE0CEF2C47
:10133000EE1CFF08F19461E880E090E50E949A0DB0
:101340006E2D80E090E80E949A0D64E580E090E5C3
:101350000E949A0D08E81DE02AE93DE0AE016B2DE0
:1013600060688E2D0E9444068D858F3109F039CF3B
:10137000E880F98044E0F694E7944A95E1F76E2D11
:1013800080E090E50E949A0D6B2D6F78606808E808
:101390001DE02AE93DE0AE018E2D0E94E50621CF39
:1013A0008D85811106C04DEE5EE0BE018B2D0E9441
:1013B00081048D85813031F441E45FE0BE018B2DE5
:1013C0000E9481048D85823031F440EB5FE0BE01E4
:1013D0008B2D0E9481048D85843031F448E250E1E8
:1013E000BE018B2D0E9481048D858A3031F44CE73B
:1013F00050E1BE018B2D0E9481048D858B3031F42C
:1014000049EB50E1BE018B2D0E9481048D858E3FFA
:1014100009F0E7CE6881798135E0769567953A9550
:10142000E1F78FEF9FE30E94C40D6B2D6F7108ED04
:101430001DE02AEE3DE0AE0180E00E946F07D1CEB4
:101440004AE95DE0BE0180E68B0D0E948104C9CEB1
:101450008D85843039F44FE555E1BE0180E88B0D70
:101460000E9481048D85853031F44FE555E1BE0140
:101470008B2D0E9481048D85863039F44CE855E12E
:10148000BE0180E88B0D0E9481048D85873031F488
:101490004CE855E1BE018B2D0E9481048D858111A0
:1014A00019C08B2D8068B82E88819981880F892F6B
:1014B000881F990B91959FEF94B985B95F9A5F98B2
:1014C00014B80AED14E126EF34E1AE016B2D80E093
:1014D0000E94F9078D85813009F083CE89818F7351
:1014E00080649FEF94B985B95F9A5F9814B80AED4C
:1014F00014E126EF34E1AE016B2D80E00E94F90784
:1015000070CE882321F0813041F480E0089591E08D
:10151000F90190839AEA918308958FEA08958AEAFF
:1015200008950895882321F0813041F480E00895E2
:1015300091E0F90190839AEA9183089580EB0895F0
:101540008AEA089508953898409A3998419A3A98C5
:10155000429A3C98449A3D98459A3E98469A5398A8
:101560005B9A55985D9A3B98439A3F98479A57984B
:101570005F9A5098589814B88FEF85B93F9A47985A
:1015800081B911B882B914B885B914B885B9519820
:10159000599A08950E94A30A399A419A389A409814
:1015A0003A9A429A3C9A449A3D9A459A14B88FEFD7
:1015B00085B914B885B914B885B93F9A479881B9E7
:1015C00012B884B915B8479A479814B808950E947C
:1015D000A30A399A419A3C9A449A3D9A459A589A54
:1015E000509A14B88FEF85B914B885B914B885B975
:1015F0003F9A479881B912B884B915B8479A479865
:1016000014B814B885B9579A5F9884B915B85F9A19
:101610005F9814B80895823081F0833061F0813092
:10162000A1F40898109A1092B90380E290E0909388
:10163000B8038093B70380E008955098589A88E0E3
:101640008093B90389E290E0F2CF87E90895813071
:1016500049F414B88FEF85B9579A5F980E94A00B90
:1016600080E0089588E908955898509A000089B15B
:101670005098589880FD22C05098589A59B149B155
:10168000000039B10000000029B100000000000096
:1016900099B1000000000000000089B150985898EE
:1016A00050FD0EC040FD0EC030FD0EC020FD0EC02E
:1016B00090FD0EC080FD0EC080EE089580EF08956D
:1016C00080E0089581E0089583E0089586E008951C
:1016D0008AE008958FE008950F931F93CF93C82F4A
:1016E000842F8901C230F9F030F4CC2389F0C13065
:1016F000B1F0C6E90FC0C430F1F0C0F0C038C9F78E
:1017000081E0F90180830E94340BF801818309C0D4
:101710000E94A30A8C2FCF911F910F9108950E94D0
:10172000CA0AC0E0F7CF0E94E70AFBCFCF911F9112
:101730000F910C940B0BCF911F910F910C94270BD1
:10174000109214018FEF84B915B85F9A5F9814B89E
:101750005098589A80E880936C0310927A03EBE7D4
:10176000F3E0119283E0EB39F807D9F7089560911F
:101770007A03813109F441C0109214019FEF94B9AA
:101780009091140195B95F9A5F9814B820E070E0C9
:101790003FEF8032C9F4E72FF0E0E558FC4F40817D
:1017A00050E0022E02C0559547950A94E2F740FF9B
:1017B00028C092E034B995B95F9A5F9814B82F5F4A
:1017C000283011F47F5F20E0492F446034B945B9D7
:1017D0005F9A5F9814B8615034B995B95F9A5F9871
:1017E00014B86111D6CF909314014093270134B9F6
:1017F00015B85F9A5F9814B8089592E09093140119
:10180000BDCF90E0D7CF0F931F93CF93DF9350912D
:101810007A03B0917B03813109F46BC010921401FB
:101820009FEF94B99091140195B95F9A5F9814B89D
:1018300020E030E07FEFC1E0D0E0803281F4EB2F98
:10184000F0E0022E02C0F595E7950A94E2F7E0FF7A
:1018500054C0916074B995B95F9A5F9814B86032BA
:10186000B1F4211105C0E32FF0E0E558FC4F1082E0
:10187000489B0DC0E32FF0E0E558FC4FA0818E019E
:10188000022E01C0000F0A94EAF7A02BA08351504A
:10189000442341F0511106C0926074B995B95F9A22
:1018A0005F9814B8A92FA46074B9A5B95F9A5F981E
:1018B00014B874B995B95F9A5F9814B82F5F28303F
:1018C00039F43F5FE32FF0E0E558FC4FB08120E0B2
:1018D0005111B3CF90931401A09327018FEF84B9D6
:1018E00015B85F9A5F9814B8DF91CF911F910F914F
:1018F000089591E09093140193CF9E7FABCF809198
:101900006C038338D1F580916D03883009F463C08E
:10191000C0F4833009F445C030F4813079F182306D
:10192000A1F18EEE28C0863009F44AC008F04EC0FE
:101930008430B9F781E880936C0341E060E281E193
:1019400036C08F30C1F148F48D3031F18E3049F717
:1019500081E880936C0340E028C0803849F08F3FD5
:1019600049F08031F1F681E880936C0340E02CC0AF
:101970000C94A00B80EF80936C03089581E8809312
:101980006C0380E20E94B70B14C081E880936C0363
:1019900041E060E080E20BC081E880936C0340E0AE
:1019A000F8CF81E880936C0341E060E280E10E941F
:1019B000030C82E8E0CF81E880936C0340E0BECF67
:1019C00081E880936C0341E060E2E4CF81E880939A
:1019D0006C0380E1D7CF81E880936C0381E1D2CFA3
:1019E000CF93DF93E901843061F138F48230E1F084
:1019F00008F58130A1F087E80FC0873039F128F46D
:101A00008530C9F740937A0306C0883021F18038C9
:101A100091F70E94A00B80E0DF91CF910895909103
:101A20006D0399838883F7CF40936D0383E8809398
:101A30006C03F1CF40936D0383E880936C030E94A5
:101A40007F0C80916C03898381E0ECCF40937B0312
:101A500050937C03E0CF80917B03898380917C034A
:101A60008A8380917D038B8380917E038C83809118
:101A70007F038D83809180038E8386E0D3CF88237C
:101A800021F0813041F480E0089591E0F9019083E4
:101A90009AEA9183089582EB08958AEA0895089559
:101AA00082B98FEF84B995B9479A479814B884B929
:101AB00065B9509A58985098589A14B8089582B9B0
:101AC0008FEF84B995B9479A479814B884B965B926
:101AD000509A5898589A14B8089550985898409821
:101AE000419A429A82B92FEF24B995B9479A4798FB
:101AF00014B800000000409A97FD419800000000D3
:101B0000000000000000000083B14098419A089551
:101B100082B92FEF24B995B9479A479814B8409ADB
:101B200097FD4198000000000000000083B140983C
:101B3000419A08955098589882B92FEF24B995B9D1
:101B4000479A479814B8429824B965B9409A97FDC6
:101B50004198000000004098419A429A14B80895B4
:101B6000811520E2920708F4906882B98FEF84B95A
:101B700095B9479A479814B84498000000000000AF
:101B8000000083B1449A0895811520E2920708F479
:101B9000906882B98FEF84B995B9479A479814B87D
:101BA00084B965B9000045980000459A14B80895B5
:101BB00082B98FEF84B995B9479A479814B8409A7B
:101BC0004198449800000000000083B1449A409876
:101BD000419A089582B98FEF84B995B9479A479889
:101BE00014B84098419884B965B900004598000040
:101BF000459A14B8419A0895EF92FF920F93CF93AC
:101C0000DF9300D01F92CDB7DEB77C018FEF84B990
:101C100065B9479A479814B8409A67FD419842B908
:101C2000000080E0011117C00000000093B1F7012F
:101C3000E80FF11D90834F5F42B98F5F281790F72F
:101C40004098419A0F900F900F90DF91CF910F9194
:101C5000FF90EF9008952B834A8389830E945E173B
:101C600089814A812B81E2CFEF92FF920F93CF932C
:101C7000DF9300D01F92CDB7DEB77C01603208F44D
:101C800060688FEF84B965B9479A479814B844984B
:101C900042B9000080E0011116C00000000093B1BD
:101CA000F701E80FF11D90834F5F42B98F5F28174E
:101CB00090F7449A0F900F900F90DF91CF910F9172
:101CC000FF90EF9008952B834A8389830E945E17CB
:101CD00089814A812B81E3CFEF92FF920F93CF93BB
:101CE000DF9300D01F92CDB7DEB77C018FEF84B9B0
:101CF00065B9479A479814B8409A4198449842B9B0
:101D0000000080E0011118C00000000093B1F7014D
:101D1000E80FF11D90834F5F42B98F5F281790F74E
:101D2000449A4098419A0F900F900F90DF91CF9175
:101D30000F91FF90EF9008952B834A8389830E942F
:101D40005E1789814A812B81E1CF0F931F93CF9337
:101D5000DF938C01D62F442349F080E090E80E9465
:101D6000880D60E880E090E80E949A0DC5E0C80107
:101D70000E94880D6D2FC8010E949A0DD695C15002
:101D8000B1F7DF91CF911F910F9108951F93CF93DA
:101D9000DF93EC01162F6AEA85E595E50E94500D68
:101DA00065E58AEA9AE20E94500D60EA85E595E5CC
:101DB0000E94500D612FCE010E94500DCE010E9455
:101DC000880D182F0E945E17CE010E94880D1813EF
:101DD000F5CFDF91CF911F9108951F93CF93DF939C
:101DE000EC01162F6AEA85E595E10E94C40D65E5D0
:101DF0008AEA9AE00E94C40D60EA85E595E10E94B6
:101E0000C40D612FCE010E94C40DCE010E94B00D01
:101E1000182F0E945E17CE010E94B00D1813F5CF47
:101E2000DF91CF911F9108951F93CF93DF93EC0122
:101E3000162F40E065E080E090EC0E94A50E6AEA73
:101E400085E595E50E949A0D65E58AEA9AEA0E9481
:101E50009A0D60EA85E595E50E949A0D612FCE0105
:101E60000E949A0DCE010E94880D182F0E945E17C5
:101E7000CE010E94880D1813F5CFDF91CF911F91ED
:101E800008951F93CF93DF93EC01162F40E062E09B
:101E900080E090EA0E94A50E6AEA85E595E10E943D
:101EA000C40D65E58AEA9AE00E94C40D60EA85E502
:101EB00095E10E94C40D40E060919D0380E090EAAE
:101EC0000E94A50E612FCE010E94C40DCE010E947A
:101ED000B00D182F0E945E17CE010E94B00D18138E
:101EE000F5CFDF91CF911F9108951F93CF93DF938B
:101EF000EC01162F60E080919B0390919C030E945F
:101F00009A0D6AEA85E595E50E94500D65E58AEA35
:101F10009AE20E94500D60EA85E595E50E94500D19
:101F200090919D0320919B0330919C03692FA901FF
:101F3000490F511DCA010E949A0D612FCE010E94C6
:101F4000500DCE010E94880D182F0E945E17CE0101
:101F50000E94880D1813F5CFDF91CF911F9108953E
:101F60001F93CF93DF93EC01162F80919B039091E9
:101F70009C0362E002960E949A0D6AEA85E595E16B
:101F80000E94C40D80919B0390919C0361E0019697
:101F90000E949A0D65E58AEA9AE00E94C40D80913C
:101FA0009B0390919C0362E002960E949A0D60EA66
:101FB00085E595E10E94C40D90919D0320919B03BE
:101FC00030919C03692FA901490F511DCA010E943C
:101FD0009A0D612FCE010E94C40DCE010E94B00D5A
:101FE000182F0E945E17CE010E94B00D1813F5CF76
:101FF000DF91CF911F9108951F93CF93DF93EC0151
:10200000162F6AEA85E595ED0E949A0D65E58AEA44
:102010009AEA0E949A0D60EA85E595ED0E949A0D74
:10202000612FCE010E949A0D60E080E090E80E944E
:102030009A0DCE010E94880D182F0E945E17CE01C6
:102040000E94880D1813F5CFDF91CF911F9108954D
:102050001F93CF93DF93EC01162F6AEA85E595E194
:102060000E94C40D65E58AEA9AE10E94C40D60EA07
:1020700085E595E10E94C40D612FCE010E94C40D3B
:10208000CE010E94B00D182F0E945E17CE010E9453
:10209000B00D1813F5CFDF91CF911F9108951F93C5
:1020A000CF93DF93EC01162F6AEA8AEA9AEF0E9437
:1020B0009A0D65E585E595EF0E949A0D60EA8AEA3A
:1020C0009AEF0E949A0D612FCE010E949A0D6091A5
:1020D0009D0380E090EA0E949A0DCE010E94880D37
:1020E000182F0E945E17CE010E94880D1813F5CF9D
:1020F000DF91CF911F9108951F93CF93DF93EC0150
:10210000162F6AE080E090EB0E949A0D6AE080E072
:1021100090EC0E949A0D6AEA85E595E10E94C40D53
:1021200065E58AEA9AE00E94C40D60EA85E595E1DA
:102130000E94C40D60919D0380E090EB0E949A0D77
:1021400060919D0380E090EC0E949A0D612FCE017A
:102150000E94C40DCE010E94B00D182F0E945E1780
:10216000CE010E94B00D1813F5CFDF91CF911F91D2
:1021700008950F931F93CF93DF938C01D62FC091B7
:102180009D03C295C07F80919B0390919C0360E268
:1021900080960E949A0D6AEA85E595E10E94C40D39
:1021A00080919B0390919C0360E140960E949A0D60
:1021B00065E58AEA9AE00E94C40D80919B039091A4
:1021C0009C0360E280960E949A0D60EA85E595E1A5
:1021D0000E94C40D80919B0390919C036C2F8C0FE7
:1021E000911D0E949A0D6D2FC8010E94C40DC80157
:1021F0000E94B00DC82F0E945E17C8010E94B00D4A
:10220000C813F5CFDF91CF911F910F9108950F93D0
:102210001F93CF93C82FCA018901CD3009F486C01E
:1022200060F5C63009F466C0A0F4C23009F469C094
:1022300040F4CC2309F457C0C13009F45FC0C0EAB0
:1022400054C0C43009F460C0C530C9F70E94EA0D1B
:1022500053C0C93009F461C040F4C73009F46CC000
:10226000C83069F70E94281047C0CB3009F461C01C
:1022700008F456C00E94B9103FC0C13209F448C0EA
:10228000A0F4C03109F45BC040F4CE3009F44BC077
:10229000CF30A9F60E94410F2FC0C13109F452C0BE
:1022A000C03269F640939D0327C0C23809F455C077
:1022B00058F4C03809F449C0C13809F621E0F801E2
:1022C00020830E94880D46C0C53809F44CC0C6382A
:1022D00009F44FC0C43809F0B2CF21E0F8012083DF
:1022E0000E94D80D37C00E94500D8C2FCF911F91A6
:1022F0000F9108950E945F0DC0E0F7CF0E94C40DBA
:10230000FBCF0E949A0DF8CF40E00E94A50EF4CFBB
:1023100040939B0390939C03EFCF0E94C60EECCF9B
:102320000E94ED0EE9CF0E94140FE6CF0E94750FB8
:10233000E3CF0E94B00FE0CF0E94FC0FDDCF0E94E0
:102340004F10DACF0E947C10D7CF21E0F801208314
:102350000E946D0DF8018183CFCF21E0F801208329
:102360000E94B00DF7CF81E0F901808380919D0339
:10237000F2CF82E0F901808380919B038183809179
:102380009C038283B9CFCF93DF93FB01DC011296CC
:102390002C91222329F0203479F082ED808308C02B
:1023A0001082A0910201B0910301EC018C818C9309
:1023B000CF01DF91CF910895108281E08183A091B8
:1023C0000201B09103018C918283F2CFE09102016E
:1023D000F091030180830895E0910201F0910301DF
:1023E000808108950F931F93D901082F10E00831C1
:1023F000110508F0C2C2F801E050FE4E0C94BC1961
:102400003A1218127512D0121C136813B4135F1409
:10241000641469146C14701473147B14831487147B
:102420008A148E1497149E14A214AA14B114B5140D
:102430004631510508F0A3C2FA01EF5DFD4E0C9440
:10244000BC1937123D124112451249124D12511258
:10245000551259125D126112651269126D12BF1484
:10246000BF14BF14BF14BF14BF14BF147112389827
:10247000409A80E01F910F9108953998419A80E029
:10248000F9CF3A98429A80E0F5CF3B98439A80E0A2
:10249000F1CF3C98449A80E0EDCF3D98459A80E09A
:1024A000E9CF3E98469A80E0E5CF3F98479A80E092
:1024B000E1CF5098589A80E0DDCF5198599A80E04A
:1024C000D9CF53985B9A80E0D5CF55985D9A80E03C
:1024D000D1CF56985E9A80E0CDCF57985F9A80E032
:1024E000C9CF5098589A80E0C5CF4631510508F0C1
:1024F00048C2FA01E258FD4E0C94BC19941298128D
:102500009C12A012A412A812AC12B012B412B812EB
:10251000BC12C012C412C812C114C114C114C11417
:10252000C114C114C114CC123898409880E0A2CFD5
:102530003998419880E09ECF3A98429880E09ACFAF
:102540003B98439880E096CF3C98449880E092CFA7
:102550003D98459880E08ECF3E98469880E08ACF9F
:102560003F98479880E086CF5098589880E082CF77
:102570005198599880E07ECF53985B9880E07ACF4D
:1025800055985D9880E076CF56985E9880E072CF3F
:1025900057985F9880E06ECF5098589880E06ACF47
:1025A0004631510508F0EFC1FA01E752FD4E0C9497
:1025B000BC19EF12F212F512F812FB12FE120113FF
:1025C000041307130A130D13101313131613C31454
:1025D000C314C314C314C314C314C3141913389AF3
:1025E00080E048CF399A80E045CF3A9A80E042CFE8
:1025F0003B9A80E03FCF3C9A80E03CCF3D9A80E020
:1026000039CF3E9A80E036CF3F9A80E033CF509A60
:1026100080E030CF519A80E02DCF539A80E02ACFCE
:10262000559A80E027CF569A80E024CF579A80E0D1
:1026300021CF509A80E01ECF4631510508F0A5C148
:10264000FA01EB5DFC4E0C94BC193B133E13411395
:10265000441347134A134D1350135313561359136E
:102660005C135F136213C514C514C514C514C514D7
:10267000C514C5146513409880E0FCCE419880E0F5
:10268000F9CE429880E0F6CE439880E0F3CE4498AD
:1026900080E0F0CE459880E0EDCE469880E0EACE2E
:1026A000479880E0E7CE589880E0E4CE599880E0E3
:1026B000E1CE5B9880E0DECE5D9880E0DBCE5E9878
:1026C00080E0D8CE5F9880E0D5CE589880E0D2CE1A
:1026D0004631510508F05BC1FA01EF58FC4E0C94ED
:1026E000BC1987138A138D139013931396139913A0
:1026F0009C139F13A213A513A813AB13AE13C714F7
:10270000C714C714C714C714C714C714B113409A09
:1027100080E0B0CE419A80E0ADCE429A80E0AACE71
:10272000439A80E0A7CE449A80E0A4CE459A80E008
:10273000A1CE469A80E09ECE479A80E09BCE589AE2
:1027400080E098CE599A80E095CE5B9A80E092CE58
:102750005D9A80E08FCE5E9A80E08CCE5F9A80E0BA
:1027600089CE589A80E086CE82E08C93463151051E
:1027700008F0A2C0FA01E154FC4E0C94BC19D51328
:10278000DE13E713F013F91302140B1414141D14C1
:1027900026142F14381441144A145C145C145C146D
:1027A0005C145C145C145C14531486B18170119633
:1027B0008C93119712961C9280E05CCE86B1827049
:1027C00090E012969C938E93119780E053CE86B141
:1027D000847090E012969C938E93119780E04ACE7D
:1027E00086B1887090E012969C938E93119780E04A
:1027F00041CE86B1807190E012969C938E93119792
:1028000080E038CE86B1807290E012969C938E93D1
:10281000119780E02FCE86B1807490E012969C9341
:102820008E93119780E026CE86B1807890E0129644
:102830009C938E93119780E01DCE89B18170119683
:102840008C93119712961C9280E014CE89B18270FD
:1028500090E012969C938E93119780E00BCE89B1F5
:10286000887090E012969C938E93119780E002CE30
:1028700089B1807290E012969C938E93119780E0BC
:10288000F9CD89B1807490E012969C938E93119744
:1028900080E0F0CD89B1807890E012969C938E9381
:1028A000119780E0E7CD89B1817011968C931197D3
:1028B00012961C9280E0DECD1C928DE8DBCD14B820
:1028C0008FEF85B980E0D6CD14B88FEF85B980E061
:1028D000D1CD14B880E0CECD8FEF84B980E0CACDE1
:1028E00045B980E0C7CD83B111968C93119781E0F3
:1028F0008C9380E0BFCD14B88FEF85B93F9A47988D
:1029000081B980E0B7CD8FEF82B980E0B3CD11B847
:1029100080E0B0CD8FEF81B980E0ACCD42B98FEFD0
:1029200084B955B9479A479814B880E0A3CD14B834
:102930008FEF85B9579A5F9880E09CCD57985F9A42
:1029400080E098CD8FEF84B945B95F9A5F9814B84D
:1029500080E090CD14B88FEF85B9579A5F9880E0EA
:1029600089CD57985F9A80E085CD8FEF84B945B9BE
:102970005F9A5F9814B880E07DCD8CE87BCD8DE8C0
:1029800079CD8DE877CD8DE875CD8DE873CD8DE867
:1029900071CD882321F0813041F480E0089591E0E9
:1029A000F90190839AEA9183089581EB08958AEA68
:1029B0000895089582B98FEF84B995B9479A4798D9
:1029C00014B8611101C04198449800000000000053
:1029D00000000000000000000000000000000000F7
:1029E0000000000083B1449A419A089582B98FEFA4
:1029F00084B995B9479A479814B884B965B9459888
:102A0000411101C0419800000000000000000000DA
:102A1000000000000000459A419A14B808959FEF05
:102A200094B985B94598611101C041980000000032
:102A300000000000459A419A14B80895CF92DF92A1
:102A4000EF920F93CF93DF9300D0CDB7DEB76C0139
:102A50008FEF84B965B9479A479814B844984111E3
:102A600001C0419822B980E0E1101FC000000000C1
:102A70000000000000000000000000000000000056
:102A800093B1F601E80FF11D90832F5F22B98F5F9C
:102A9000081750F7449A419A0F900F90DF91CF9109
:102AA0000F91EF90DF90CF9008952A8389830E9441
:102AB0005E1700000000000089812A81DBCF1F9390
:102AC000CF93DF93EC01162F40E06AEA85E595E5A8
:102AD0000E94F61440E065E58AEA9AE20E94F61444
:102AE00040E060EA85E595E50E94F61440E0612F3C
:102AF000CE010E94F61460E0CE010E94DA14182F75
:102B00000E945E1760E0CE010E94DA141813F3CF22
:102B1000DF91CF911F9108951F93CF93DF93EC0125
:102B2000162F40E06AEA8AEA9AE80E94F61440E02A
:102B300065E585E595E80E94F61440E060EA8AEADA
:102B40009AE80E94F61440E0612FCE010E94F6142C
:102B500060E0CE010E94DA14182F0E945E1760E038
:102B6000CE010E94DA141813F3CFDF91CF911F9199
:102B700008950F931F93CF93DF93782FCA01E90134
:102B8000072F10E00730110580F5F801E653FA4EE3
:102B90000C94BC19D115EA15DD15E415E715F115EE
:102BA000E2159FEF94B985B95F9A5F9814B8872FA3
:102BB000DF91CF911F910F91089540E00E94F6148C
:102BC00070E0F5CF41E0FACF0E945F15F9CF0E9487
:102BD0008C15F6CF21E0288360E00E94DA14898307
:102BE000EFCF21E0288361E0F8CF7AEAE0CF880FC9
:102BF000991F880F991F20E030E02817390709F442
:102C00000895000000002F5F3F4FF7CF20E030E035
:102C10002817390709F40895000000002F5F3F4F7F
:102C2000F7CFCF93DF9380E190E00E94F715C4E0E7
:102C3000D0E084EF91E00E94F71584EF91E00E94CC
:102C4000F7152197B1F7C4E0D0E08AEF90E00E9439
:102C5000F7158AEF90E00E94F7152197B1F7DF9101
:102C6000CF91089580E190E00C94F715CF93DF9316
:102C70001F92CDB7DEB7F901813171F038F48130A0
:102C8000C1F078F08230C9F082E80FC08132A9F03B
:102C9000823299F08231C1F782E080831282118200
:102CA0000AC089830E94111689810F90DF91CF910C
:102CB00008950E94321680E0F8CF81E0808311826F
:102CC000FACF482F90E0982F882720E0411103C0C9
:102CD00021118068089520953FEF340F4323F6CFEC
:102CE00080E090E0089580E0089560E070E0CB011E
:102CF0000895CF93DF931F92CDB7DEB7DC018FEF3E
:102D0000809307011092080187E091E09093C90336
:102D10008093C80316968C91169789831196EC912F
:102D200011974E2F50E0FA013197EB30F10508F082
:102D30009BC0E356F94E0C94BC19A816B816C616DB
:102D4000D4161A1734172B17E216F016FE160C17A6
:102D500014964D915C91159728E031E013966C9193
:102D6000139712968C910E94F211809307016EC006
:102D700014964D915C91159728E031E013966C9173
:102D8000139712968C910E946C0BEFCF14964D9175
:102D90005C91159728E031E013966C911397129689
:102DA0008C910E940711E1CF14964D915C9115977B
:102DB00028E031E013966C91139712968C910E9443
:102DC000B915D3CF14964D915C91159728E031E059
:102DD00013966C91139712968C910E943616C5CF5C
:102DE00014964D915C91159728E031E013966C9103
:102DF000139712968C910E94F00CB7CF14964D91B8
:102E00005C91159728E031E013966C911397129618
:102E10008C910E949500A9CF14964D915C911597C5
:102E200028E031E013966C91139712968C910E94D2
:102E300042039BCFAE014F5F5F4F67E071E0CD0172
:102E40000E947C019093C9038093C80389810F90ED
:102E5000DF91CF910895AE014F5F5F4F67E071E062
:102E6000CD010E94C311EECF80E87FCFE0916903CE
:102E7000F0916A03278144815581322F360F231345
:102E800012C0E0916903F0916A038781860F8783FE
:102E900080913801861B8093380181110DC088E92B
:102EA000838381E00895FC017191CF01FA01E20F63
:102EB000F11D70832F5FE3CF80E00895CF93DF9300
:102EC0006091CA03635067FD91C08091C703CCE055
:102ED000D0E0C81BD109C253DC4F8091C6038D32AC
:102EE00009F0CFC0683009F07FC083EC8093BA034B
:102EF0008AE58093050110920F018881807679F030
:102F0000CE010E9479168F3F09F466C09F8191110E
:102F100069C09E81981708F065C0892F63C02A8117
:102F20001092C303998191110AC01092C40323EC3B
:102F300033E082E03093C9032093C803E7CF953094
:102F400029F42093CB0323EC33E0F4CF963099F5AA
:102F50009B81913059F48EE890E09093C90380935F
:102F6000C80382E190E490930F01D0CF923019F41E
:102F70008CE790E0F2CF9330A9F7211108C088EEDA
:102F800090E09093C9038093C80384E0EBCF213095
:102F900041F48EEB90E09093C9038093C8038AE2DA
:102FA000E1CF2230F9F680EA90E09093C903809354
:102FB000C8038EE1D7CF983059F0993019F4209397
:102FC000CD03C1CF81E09A3009F4BDCF80E0BBCF03
:102FD0002DEC33E081E0AECF988197FD8E8190E8B3
:102FE00090930F01809304011092CA038091050110
:102FF00084FF3AC0809104018F3FB1F1C82F89301E
:1030000008F0C8E08C1B809304018091BA0398E813
:1030100089278093BA03CC23D1F08091C803909183
:10302000C90320910F0126FF3FC0ABEBB3E0FC01C9
:103030002C2F34913D9331962150D9F701962FEFE3
:103040002C0F820F911D9093C9038093C8036C2F9E
:103050008BEB93E00E947918CC5FCC3019F08FEFA6
:1030600080930401C093050184E199B1947131F416
:103070008150D9F71092CB031092C503DF91CF9105
:10308000089580910F0187FFAFCFCE010E943617C0
:103090008F3F21F48EE180930501A6CF882309F4A8
:1030A000A3CF10920401A0CFEBEBF3E0DC012C2FB7
:1030B0003D9131932150E1F7C1CFE9E6F0E0808105
:1030C00082608083E89A0895A82FB92F80E090E06D
:1030D00041E050EA609530E009C02D918227979534
:1030E000879510F084279527305EC8F36F5FA8F3AB
:1030F0000895EADF8D939D930895CF93CFB7CF9333
:10310000DF93C3954C9BE9F74C9B0BC04C9B09C0CC
:103110004C9B07C04C9B05C04C9B03C04C9B01C003
:1031200089C06F93C091C703DD27C253DC4F2F9333
:1031300065E54C9B03C02F916F91E6CF0F931F93D2
:103140004F9320E040E15F9309B1047104FB27F93C
:103150003F9350E03BE039C0147140642F77012F5A
:103160005F5F1EC0406819B114712F7752501FC0A5
:10317000406409B12F770471D1F15F5F00C023C0B3
:10318000406219B12F77147191F15F5F00C025C0C3
:1031900004711027515012F45D5F00001150279503
:1031A0002C3F19B1C8F614710127015027952C3F07
:1031B000C8F64227499309B1047110274F73115083
:1031C00027952C3FA8F64695469519B1147179F0CC
:1031D0000127015027952C3F98F66B5A60F3315028
:1031E00009B1B0F600C011E01CBB002717C03B506E
:1031F0003195C31BD04011E01CBB0881033CF9F0A2
:103200000B34E9F02091C5031981110F1213EDCF92
:10321000093651F10D3211F0013E39F70093CC031C
:103220003F915F914F911F910F912F916F91CCB36F
:10323000C0FD67CFDF91CF91CFBFCF91189520917F
:10324000CC03222369F31091CA03112339F53430DA
:103250003AF13093CA032093C6031091C7033BE0B1
:10326000311B3093C7031CC00091CA030130B4F472
:103270000AE53091050134FD14C000930501CAEB45
:10328000D3E013C0052710E000C000000BB91AC03E
:10329000052710E0221F1DC010E021C04AE502C032
:1032A00032ED432FC4E1D0E032E01AB114615C9AF0
:1032B0000BB11AB954E120E865E320FF05270BB9EB
:1032C000279517951C3FF0F66695B8F7B1F720FFE4
:1032D00005270BB9279517951C3FD0F6279517950D
:1032E00017FF052700001C3F0BB9B0F629913A954E
:1032F00019F70B7E1091CB03110FC651D0400BB9BB
:1033000011F01093C50311E01CBB00611AB11B7EC4
:10331000402F4B7E54E05A95F1F70BB91AB94BB9CF
:103320007FCF9EE088E10FB6F894A8958093600067
:103330000FBE909360000E945D18549A80E0815007
:1033400099F4549878940E94A30A80EF80936C03B8
:10335000A8950E945E170E94AB0280916C03803F8B
:10336000B9F30E947F0CF4CFA895EFE9FFE0319705
:10337000F1F700C00000E3CFEE0FFF1F0590F491BE
:08338000E02D0994F894FFCF41
:0633880069019E03FF5ADB
:00000001FF
