:020000040800F2
:1000000000180020C1000008FD0000089934000815
:1000100000000000000000000000000000000000E0
:10002000000000000000000000000000FD000008CB
:100030000000000000000000FD000008FD000008B6
:10004000FD000008FD000008FD000008FD0000089C
:10005000FD000008FD000008FD000008FD0000088C
:10006000FD000008FD000008FD000008FD0000087C
:10007000FD000008FD000008FD000008FD0000086C
:10008000FD000008FD000008FD000008FD0000085C
:10009000FD000008FD000008FD000008FD0000084C
:1000A000FD000008FD000008FD000008FD0000083C
:1000B000FD000008FD000008FD0000080101000827
:1000C00009490A4A0A4B9B1A03DD043BC858D05021
:1000D000FBDC0849084A0020521A02DD043A885025
:1000E000FCDC02F02DF900009C4D0008000000200F
:1000F000300400203004002038070020FEE7C0460E
:10010000F0B5B94A89B0138801921BB2002B01DB0C
:1001100001F009FD1388B54A1A4080231343019A60
:100120001380019B1A8880231B011340B04A01D120
:1001300001F0C7FCAF49B04C0B68B04801330B600D
:1001400023787F211D008D43AD49AE4E0D70E188AF
:10015000018000203080602633401370AA4A157059
:10016000834201D100F0BDFEFF23A84ECAB2337016
:10017000A74B70701E600292607801380E2801D97A
:1001800001F04DFC04F020FD0F00FC053A08340995
:10019000F10A4B0C360C9909420AC90AEF0A720996
:1001A0007B0983098B09A078A3888C22192824D87D
:1001B0008022D20004F008FD1A0024004601260225
:1001C000EE028D031604D204EE04FA0402050A05B9
:1001D00013051C052A0532053A05420547055B054E
:1001E00071059205A705BE05D602E202B023894A31
:1001F0005B0351690B4353610022327000F06DFEC6
:10020000152B01D900F0ADFD18008023DB0004F0B0
:10021000DBFC160023002E00A805390044004F0027
:10022000A8055C00690073008000A805A8058D0082
:100230009A00A500B200BF00CC00D600E0009022DA
:10024000D205136874490B4013608023D1685B03A7
:100250000B43D3600022D0E790210123C9050A682F
:100260009A430A60CA681343CB600022C5E7902115
:100270000423C9050A689A430A60CA681343CB601D
:100280000022BAE790211023C9050A689A430A6040
:10029000CA681343CB600022AFE790214023C90511
:1002A0000A689A430A60CA681343CB600022A4E735
:1002B0009022D205136859490B4013608023D168FE
:1002C000DB040B43D360002297E79022D20513682A
:1002D00053490B4013608023D1685B010B43D3600B
:1002E00000228AE704234F490A689A430A60CA68D1
:1002F0001343CB60002280E79022D20513684A495D
:100300000B4013608023D168DB050B43D3600022D0
:1003100073E79022D205136844490B401360802391
:10032000D168DB020B43D360002266E79022D2053E
:1003300013683F490B4013608023D1685B000B4377
:10034000D360002259E79022D20511683948014054
:100350001160D1680B43D36000224EE79022D20592
:10036000136835490B4013608023D168DB010B43D0
:10037000D360002241E79022D205136827490B4041
:1003800013608023D168DB040B43D360002234E781
:100390009022D205136829490B4013608023D1684D
:1003A0005B050B43D360002227E701231D490A6840
:1003B0009A430A60CA681343CB6000221DE71023EA
:1003C0001F490A689A430A60CA681343CB60002237
:1003D00013E79021C9050A68164802400A60CA68F6
:1003E0001343CB60002208E7005C00408F0F000041
:1003F000FA06002098040020486000409E04002077
:10040000F8060020A2040020F9060020FC060020C7
:100410002C07002000100240FFFFEFFFFFFFFFFB53
:10042000FFEFFFFF00040048FFFFFFBFFFFFFBFFE0
:10043000FFFEFFFFFFFBFFFFFFBFFFFFFFFFFFEF21
:10044000000C0048152B01D900F08EFC180004F0B8
:10045000BBFB160021002C008B04370042004D002E
:100460008B04580063006D0078008B048B048300BC
:100470008E009900A400AF00BA00C400CE00902303
:10048000DB051968D14801401960DA680240DA607A
:100490000022B2E690230121DB051A688A431A6024
:1004A000DA688A43DA600022A7E690230421DB059C
:1004B0001A688A431A60DA688A43DA6000229CE686
:1004C00090231021DB051A688A431A60DA688A4390
:1004D000DA60002291E690234021DB051A688A4306
:1004E0001A60DA688A43DA60002286E69023DB0528
:1004F0001968B74801401960DA680240DA600022E2
:100500007BE69023DB051968B24801401960DA6880
:100510000240DA60002270E60421AF4B1A688A4379
:100520001A60DA688A43DA60002266E69023DB0507
:100530001968AA4801401960DA680240DA600022AE
:100540005BE69023DB051968A54801401960DA686D
:100550000240DA60002250E69023DB051968A148CA
:1005600001401960DA680240DA60002245E6902313
:10057000DB0519689C4801401960DA680240DA60BE
:1005800000223AE69023DB0519689848014019607B
:10059000DA680240DA6000222FE69023DB05196852
:1005A0008B4801401960DA680240DA60002224E6D4
:1005B0009023DB0519688E4801401960DA68024013
:1005C000DA60002219E60121834B1A688A431A6017
:1005D000DA688A43DA6000220FE61021854B1A6838
:1005E0008A431A60DA688A43DA60002205E69023BB
:1005F000DB0519687C4801401960DA680240DA605E
:100600000022FAE5152B00D9B1E3180004F0DCFA5A
:1006100016001F002700AF032F0037003F00AF0375
:100620004800510058006100AF03AF036A00730037
:100630007A0083008C0095009C00A3009022802308
:10064000D20511685B030B4313600022D5E59022AD
:100650000123D20511680B4313600022CDE59022DF
:100660000423D20511680B4313600022C5E59022D4
:100670001023D20511680B4313600022BDE59022C0
:100680004023D20511680B4313600022B5E5902288
:100690008023D2051168DB040B4313600022ACE514
:1006A00090228023D20511685B010B431360002266
:1006B000A3E50423484A11680B43136000229CE51C
:1006C00090228023D2051168DB050B4313600022C2
:1006D00093E590228023D2051168DB020B4313605F
:1006E00000228AE590228023D20511685B000B432B
:1006F0001360002281E59021C9050B681A430A6046
:1007000000227AE590228023D2051168DB010B4399
:100710001360002271E590228023D2051168DB046A
:100720000B431360002268E590228023D2051168F4
:100730005B050B43136000225FE50123264A116825
:100740000B431360002258E510232A4A11680B431B
:100750001360002251E59021C9050B681A430A6015
:1007600000224AE58D22082B00D046E59022D205D2
:10077000516838330B43536000223EE58D22082B2D
:1007800000D03AE590224021D20553688B43536054
:10079000002232E5152B00D9ECE2180004F014FA1F
:1007A0002C0031003700EA023D0043004900EA0214
:1007B000500056005B006200EA02EA0269006F0026
:1007C00075007B00820089008E009300FFFFEFFF21
:1007D000FFFFFFFBFFEFFFFF00040048FFFFFFBF2D
:1007E000FFFFFBFFFFFEFFFFFFFBFFFFFFBFFFFF62
:1007F000FFFFFFEF000C00489023DB059A62002208
:10080000FBE490230122DB059A620022F5E49023A9
:100810000222DB059A620022EFE490230422DB052A
:100820009A620022E9E490230822DB059A62002202
:10083000E3E4802290239201DB059A620022DCE44B
:1008400090234022DB059A620022D6E40222CC4BA0
:100850009A620022D1E4802290231202DB059A6280
:100860000022CAE4802290239200DB059A620022D3
:10087000C3E490231022DB059A620022BDE490239A
:100880002022DB059A620022B7E490238022DB0558
:100890009A620022B1E4802290239201DB059A62E1
:1008A0000022AAE480229023D201DB059A62002272
:1008B000A3E40122B24B9A6200229EE40422B14BCF
:1008C0009A62002299E490232022DB059A6200229A
:1008D00093E4152B00D950E2180004F075F91600C6
:1008E0001B0021004E0227002D0033004E023A006B
:1008F000400045004C004E024E02530059005F007C
:1009000065006C00730078007D009023DB059A6120
:10091000002272E490230122DB059A6100226CE43C
:1009200090230222DB059A61002266E490230422D0
:10093000DB059A61002260E490230822DB059A61BE
:1009400000225AE4802290239201DB059A61002262
:1009500053E490234022DB059A6100224DE40222F9
:10096000874B9A61002248E4802290231202DB0523
:100970009A61002241E4802290239200DB059A6173
:1009800000223AE490231022DB059A61002234E42D
:1009900090232022DB059A6100222EE490238022FE
:1009A000DB059A61002228E4802290239201DB0576
:1009B0009A61002221E480229023D201DB059A6112
:1009C00000221AE401226E4B9A61002215E40422EF
:1009D0006C4B9A61002210E490232022DB059A617F
:1009E00000220AE402227270152B00D9B1E018002F
:1009F00004F0D6F80B151EAF273039AF434C545DC9
:100A0000AFAF677079828C969EA690238022DB051B
:100A10001B69D200134073800022FFF7EEFB902386
:100A20000122DB051B69134073800022FFF7E5FB01
:100A300090230222DB051B69134073800022FFF71D
:100A4000DCFB90230422DB051B691340738000222A
:100A5000FFF7D3FB90230822DB051B69134073804B
:100A60000022FFF7CAFB90238022DB051B6992015D
:100A7000134073800022FFF7C0FB90234022DB0568
:100A80001B69134073800022FFF7B7FB02223C4B27
:100A90001B69134073800022FFF7AFFB9023DB0537
:100AA0001B690022DB0BDB037380FFF7A6FB90239F
:100AB0008022DB051B699200134073800022FFF740
:100AC0009CFB90231022DB051B69134073800022DE
:100AD000FFF793FB90232022DB051B6913407380F3
:100AE0000022FFF78AFB90238022DB051B6913405D
:100AF00073800022FFF781FB90238022DB051B69B6
:100B00009201134073800022FFF777FB902380222D
:100B1000DB051B69D201134073800022FFF76DFBD8
:100B20000122174B1B69134073800022FFF765FBFE
:100B30000422144B1B69134073800022FFF75DFBF6
:100B400090232022DB051B69134073800022FFF7EE
:100B500054FB00238D227370FFF74FFB80230A4A5A
:100B6000DB0251690B435361054A084913680B4086
:100B70001360D168064B0B43D3600022FFF73DFBA7
:100B800000040048000C004800100240FFFFAAAA21
:100B900000005555EB4AEC4913680B401360D168CF
:100BA000EA4B0B43D3600022FFF727FBE54AE649F7
:100BB00013680B4013600022FFF71FFBE14AE34B71
:100BC00011680B4313600022FFF717FBDD491B027E
:100BD0004A69D2B213434B610022FFF70EFBD94B97
:100BE00000221B691B0AB37001237370FFF705FB1A
:100BF0008023D74A1B0351690B435361D54AD64B17
:100C000011680B4313600022FFF7F7FAD14AD24B69
:100C1000D1680B43D3600022FFF7EFFACD4ACF49EA
:100C200013680B4013600022FFF7E7FAC94ACA4B6A
:100C300011680B4313600022FFF7DFFAC54A5361C6
:100C40000022FFF7DAFA8023C14A1B0351690B43E4
:100C50005361BC4AC24B11680B4313609022D2050A
:100C60001168C04B0B4313600022FFF7C6FAB54A68
:100C7000BB4BD1680B43D3609023DB05D868B949DF
:100C80000143D9601168B848014011601A68B7493A
:100C90000A401A600022FFF7B0FAF8228027A94D17
:100CA00098026969D20110403F025A023A40890510
:100CB0001043890D08439021686110205D08C90523
:100CC00028404A69AA4DDB012A4002438020C00126
:100CD000034013434B610022FFF78FFAC0239C4A65
:100CE000DB0251690B435361964AA24B11680B43D7
:100CF00013609022A023D20511685B030B4313609D
:100D00000022FFF77AFA8F4A9A4BD1680B43D360DF
:100D10009023A021DB05D86849030143D9601168FD
:100D20009548014011601A6894490A401A600022EF
:100D3000FFF763FAFF2183489D0042692940904DE7
:100D4000DB002A400A4342619022C020D205C00045
:100D5000516903408B4801400B4353610022FFF768
:100D60004CFA8D22FFF749FA8D22FFF746FA8D22C1
:100D7000FFF743FA8D22FFF740FA8D22FFF73DFA85
:100D8000A578A288032D00D16CE156D87E4B012DA9
:100D900060D000D8DBE1984790220121D20513688A
:100DA0000B4313601023916111680B4313600423FC
:100DB0004021936113680B43136008239361916191
:100DC000802311685B010B43136080236048DB02C2
:100DD00041695D4E0B435B4943610B6833400B60D7
:100DE000CD685A4B1D43CD600D6835400D60CD6810
:100DF0002B43CB60802345691B032B43554D436137
:100E00002E68554B33432B6000236B61C025466928
:100E1000ED02354345610D68564828430860A0201F
:100E200015684003284310604869554D28404861C3
:100E300051695448014051614DE0052D00D1B1E0A8
:100E400000D254E1072D00D1F0E0802D00D180E1E7
:100E5000962340E098479023DB051A682A431A60DE
:100E600080229D61196852030A431A60802204217E
:100E7000D2009A621A68344D0A431A6002229A61BB
:100E800018680E3202431A604022996119680A43B9
:100E90001A6008229A6180232D49DB024A691343B4
:100EA0004B61284B1A682A401A60D868274A1043B9
:100EB000D860186828401860D8680243DA60802338
:100EC0004A691B031343234A4B611168224B0B43AE
:100ED0001360002353612D4A13706A462C4B12890C
:100EE0001A802378602259B2002901DB00F0BAFD94
:100EF000134016D16278062A0FD16288110A02299E
:100F000001D100F08EFD032901D100F090FD214AAE
:100F1000012901D100F086FD03936A461C4B92899A
:100F20001A80019B1A881C4B13431C4A1A40C02389
:100F30009B015340019A9BB21380194B984700F0D4
:100F4000B2FDC04600040048FFFFAAAA00005555A4
:100F5000001002400008004855555555AAAAAAAAF3
:100F60000000505500010010FFFFAFAAFFFEFFEF89
:100F7000EFBF000050550000AFAAFFFFFFFFEBFFDF
:100F800003FF0000FFF90000ED210008FC0600202F
:100F9000A0040020F64B00088081FFFF8FBFFFFFF9
:100FA000DD330008C84B984790220121D205136811
:100FB000C64E0B4313601023916111680B431360FD
:100FC00004234021936113680B431360082393614A
:100FD0008023916211685B010B4313608023BC493D
:100FE000DB02486903434B61BA4B18683040186014
:100FF000DD68B9480543DD601D6835401D60DD686A
:101000002843D860802348691B0303434B61B349DD
:10101000B34B086803430B6000234B6180211068C9
:10102000C901014311608021916254E7A64B9847A2
:1010300090220121D205136840200B431360102336
:10104000916111680B43136004239361116801439C
:1010500011600821916111680B43136002239361B1
:101060009061ADE6D2B2022A21D00023032A00D13A
:1010700031E79723012A00D02DE7802394491B03F1
:10108000486903434B6195490B6893430B60CB68F8
:101090001343CB604B6813434B608A610B681A4360
:1010A00000230A608F4A13708F4A116013E7B02340
:1010B000874A5B03516940200B4353619023DB0552
:1010C0001A688A490A401A608022D968520111437D
:1010D000D960596801435960986119680A43082129
:1010E0001A60804A1170804A13600023F3E6D2B27E
:1010F0009823012A00D0EEE690210A207C4BC905F6
:1011000019607C4B05321A70724B7B4A13607B4A24
:1011100010707B4A013013607A4A10707A4A0130AD
:1011200013607A4A10708020694A00035569284389
:1011300050611D687648284318600868754B034362
:101140000B60B02351695B030B435361724B9847AB
:10115000CBE701279023402177708026DB05996239
:101160001A68760132431A60C04660481D691A68E1
:101170000D4002401A60DA680240DA60F022002D69
:1011800039D11A6802401A60DA681643DE601A69BB
:1011900004921A690592C0461A690692C046C04672
:1011A0001A699446C046C046C0461A690792C046AE
:1011B000C046C046C0461E691A6802401A60DA6816
:1011C0001040D860049B2A000B4214D1059B3A00C2
:1011D0000B4210D1069B02320B420CD10B00614630
:1011E0000332194207D107990432194203D105325B
:1011F0001E4200D1D132494B9A7076E7A578E1784A
:10120000A0880D2D00D1AEE027D8062D59D012D8D8
:10121000022D00D19CE006D8002D4ED0404B012D70
:1012200007D0A0254BE0042D00D193E03D4B052DC8
:10123000F7D1984725E0092D00D190E006D8072D79
:1012400000D192E0384B082DF3D0EAE7374B0B2D55
:10125000EFD0374BEDD9374BEBE7212D00D17BE0B9
:1012600011D8102D00D182E005D80E2D79D0324B47
:101270000F2DDED0D5E7112D7BD0202DD1D12F4BD6
:10128000187000251BE0822D00D1A0E009D8802D28
:1012900071D0812DC5D101237370294B9847B0704F
:1012A000EFE7852D00D196E0862D00D198E0842DC2
:1012B000B7D101237370234BF0E7234B9847357068
:1012C0000BE6224BB5E7C046ED210008FFFFAAAAB6
:1012D0000010024000040048000055550008004876
:1012E000555555550807002004070020FFEFFFFF64
:1012F0001C070020200700201407002018070020EA
:1013000024070020280700200C07002010070020D9
:10131000000050550001001029200008FC060020A4
:10132000491F00082D360008DD2F00085D31000838
:1013300021300008653000082933000888040020A7
:10134000751C00087D360008D11F0008B51C000878
:10135000C04B6EE7C04B6CE7C04B188091E7C04BA9
:1013600067E7C04B65E7C04B63E7C04B61E7C04B25
:101370005FE7C04B5DE7012290237270DB051968BF
:10138000BD4D29401960D9682940D96080210225C6
:10139000C90099629A619D61B84D6861C046C046B6
:1013A00000B29961002800DA9A62C046C046C04681
:1013B000C046C046C04690228021B14BD205C9002C
:1013C0001B69916201211B0A9161B37059E70123E6
:1013D0007370AC4B62E701237370AB4B1B78F4E77F
:1013E000022373709D4B1B88B3701B0AF37048E790
:1013F000A078E178A388AA22062801D9FEF7FDFE8D
:1014000003F0CEFB04291B2226312000FF219C483B
:101410009D00426929409D4DDB002A400A434261FC
:101420009022C020D205C000516903409848014075
:101430000B4353610022FEF7E0FE00221800954B9B
:101440009847F7E70122F9E71800934B9847F1E72F
:101450001800924BFAE70122002172701800904B9D
:101460009847B070E6E701217170F7E7A278002A8B
:101470001DD00023012A00D0AF2333702DE5A278C0
:10148000002A14D00023012AF7D0B023F5E7A27870
:10149000002A0CD00023012AEFD0B123EDE7A27877
:1014A000002A04D00023012AE7D0B223E5E7012374
:1014B0007370A933B3700023DFE7A578E278A188C1
:1014C000112D00D19BE007D8012D6AD0002D0FD03F
:1014D000022D7CD0822561E0212D00D185E0222DD6
:1014E00000D188E0122DF5D102231020737089E01D
:1014F000012631006B4D6C4F2A783B689140996210
:101500005A6810208A435A60684B984731002B78FC
:10151000042599400B003A68916151680B43536070
:10152000FA20624B4000984731005E4AFA20127858
:101530005D4F91403B68400099625A68013D8A4383
:101540005A605A4B98473100564B3A681B78ADB2F7
:1015500099400B00916151680B435360002DDFD11E
:101560000435FA20514B984701214E4E4E4F3278A8
:101570003B68914099625A68FA208A435A604B4B03
:101580009847012133783A6899400B00916151687E
:10159000013D0B43ADB25360002DE2D1444B1D70B1
:1015A0009BE429003F4E404F32783B68914099625E
:1015B0005A6810208A435A603C4B984732783B68FF
:1015C00095409D615A6815435D600025E6E701235B
:1015D000344A7370127837499340334A9BB2126889
:1015E0000020354DA847B070EFE70123002073704D
:1015F000324B9847F7E7012310207370F8E7022376
:10160000002073702E4B98477080DEE7A378A28885
:10161000042B1AD006D8022B5CD061D8012B0FD036
:1016200087232AE7072B64D003D8052BF8D1254B55
:1016300054E0082B62D0802BF2D1234B98473AE735
:10164000224A1278B270737035E7214B1B78B37061
:101650000123F8E7091C0008993900083404002028
:10166000E5320008893300087D3200083132000875
:10167000DD310008ED300008FFEFFFFF00080048F3
:1016800000040048991F00088804002003FF0000A0
:10169000FFF90000952E00088D2F00083D2F00084F
:1016A000F52E000808070020040700201536000862
:1016B000FC06002004000200D13900089D34000817
:1016C00061350008E504002029200008C40400203A
:1016D000E6040020B64B1A708322B64B1A70EAE675
:1016E000B34BB44D1A7083232B70B34B98472B78B0
:1016F000ADE7B24B1A70120A5A70DCE6AF4B1A789B
:10170000B2705A78F2709A783271DA7872711A7906
:10171000B2715B79F371062395E7A378A288022B57
:1017200015D0032B16D0012B1BD102488546024849
:10173000001C004778120020C5CAFF1F06000500E4
:101740000800070019C9FF1FEFBEADDEB3E69C4BD2
:101750001A60B0E69A4B18689A4B000410439847F9
:10176000A9E68A2389E6882387E6A2781300303B1E
:101770002F2B19D8E078032800D9CEE003F010FA17
:1017800014021012904B512A00D177E024D8312A4C
:1017900053D00BD8002A33D0302A49D0B42345E0A7
:1017A0008A4BF0E78A4BEEE78A4BECE7332A4ED0C0
:1017B00048D3502AF2D100223270063272701A7A5F
:1017C000B270DA78F2705A7A32719A7A72719A78C3
:1017D000B2715B7CF37145E07F2A00D983E0702A07
:1017E0005CD2602A36D0612A40D0522AD6D100225B
:1017F0001B883270B37002321B0A7270F37031E0D2
:10180000FF23754953540132102AFBD16E4A7149A6
:10181000D37093706E4ACB70D370937001228B702B
:101820006A49CB708B706D4B1A700023337019E0CE
:10183000A288110AD9721A73F7E7A288110A59739C
:101840009A73F2E7A288110AD9731A74EDE7A28895
:101850005A74EAE70023337001337370A3885E4A39
:10186000D35CB3705E4B1E60FFF737FB0023337011
:10187000013373705B4B1B68DB78F2E70022327038
:1018800006327270DA7AB2701A7BF2705A7B327159
:101890009A7B7271DA7BB2711B7C9BE74D4B51498D
:1018A0005E6823787F2B00D95BE168464E4B007A57
:1018B00018700868C378002B0ED000200290982B77
:1018C00005D156E100200290D02B00D151E1434BCD
:1018D00010301870FF2304E0444B18609023C3704D
:1018E0006F33029345E107201040032815D803F019
:1018F00057F916021812344B802AB3D3872A12D90B
:101900007032D2B2072AADD800223270E2789A72D1
:10191000A2881A80A6E72E4BEEE7B52386E72D4B6B
:10192000EAE72A4BE8E7A1880A0A0492E078C9B2FC
:101930004518BE22102D30DC043200282DD0DD7871
:10194000033AFF2D29D19D780132FF2D25D1224D5B
:101950000022AC46D5B2A84221D86A464501013DD5
:10196000127C1D724D012F009A700022204DDA70FA
:10197000ED195A729A721A80DA721A735A739A733C
:10198000DA731A745A745D6061446B461B7C8B5425
:101990000132D3B28342F8D30022327062E7674645
:1019A00001328D18013D7D5DFF2DD3D0C122F4E7BA
:1019B000C4040020E604002009210008C50400201A
:1019C00030040020C53900084C04002060040020C9
:1019D0007404002038040020E7040020A404002040
:1019E0002C0700208C040020940400209004002088
:1019F000F8040020A278002A04D0402A07D0D2227E
:101A0000327030E73270A188654A11702BE70022EE
:101A1000327001327270624A1278B27023E780230A
:101A20002BE5604A604B1A601223FFF775FAD2B2B9
:101A3000012A11D0002A09D0022A01D0FFF76CFA3E
:101A4000594B5A4A1A605A4BFFF766FA564B594A95
:101A50001A600423FFF760FA534B574A1A60574B3A
:101A6000FFF75AFA134208D16378052B05D1638832
:101A7000534A1370534ADBB21380019B524A1B88AE
:101A800001991340514A13439BB20B800021504BE4
:101A90001980019B1B881A434E4B1A404E4B5A40EB
:101AA000019B92B21A804D4BDA8F520507D58021E7
:101AB0004B4A11800022DA874A4B019A138009B001
:101AC000F0BD1278402AEED1474A1278002AEAD1B6
:101AD000464A1088464AC0B211684D7A4E68DAB25A
:101AE0005419E4B2904218D84A7A82184A72414A8C
:101AF00013781B1ADBB21370002B01D19833CB7013
:101B0000019B1A88314B13433B4A1A40C0239B0167
:101B10005340019A9BB21380C5E7384A9A1812784D
:101B200001333255DBE7019B1B881B06BBD5019BAC
:101B3000334A1B881340802212021343019A1380F8
:101B4000304B1B78802B01D1FFF7F7F91C4A137833
:101B5000002BA8D080210B4321490B800023137058
:101B6000A1E70868C378D82B00D0ABE6802346688D
:101B7000C3700B6800215972DB78902B00D071E69E
:101B8000712A00D06EE61A4BA2881B6859680A7049
:101B9000A2885968120A4A705A7A02325A7261E669
:101BA000A4040020E44B00082C070020604C00082F
:101BB0001E030000084C00080C4C00082A0300001B
:101BC0009C040020506000408F8EFFFF8080FFFF4C
:101BD00002600040BFBFFFFF30300000065C0040E5
:101BE0004C5C004020320000F906002006600040F6
:101BF00090040020940400208FBFFFFF4860004045
:101C00000F8FFFFFF80600209023DB0530B51C681E
:101C1000134D09022C401C60DA68124C2A40DA602D
:101C2000114A506102229A62104A00B215682C4390
:101C300014605469E4B2214351618021C900996163
:101C4000002801DA01209862C046C046996201214D
:101C5000996149189961136805490B40136030BDBB
:101C6000FFEFFFFF00005555000800480004004842
:101C7000FFFFAAAA0D4B802258619023D200DB05FA
:101C800000B29A61002801DA01229A62C046C04679
:101C9000C046C046064B802218699023D200DB055F
:101CA0009A620122000AC0B29A6170470008004897
:101CB000000400480D4B0E4A58610E4B090218688B
:101CC00002431A605A69D2B21143902259618021AD
:101CD000D205106849010143116040219162916170
:101CE0001A6805490A401A607047C0460008004853
:101CF0000000555500040048FFFFAAAAF0B5404B6C
:101D00008BB0089119783F4B09921B780190029390
:101D10003D4B019D1C683D4B3D481A7801231E0038
:101D200096403C4AA662102D5ED11278006893401E
:101D3000836201200200364B05901F68354B1B78EB
:101D40009A4003920200344B1B680693334B1B7876
:101D50009A4093B202000793314B1B689C46314B6B
:101D60001B789A40002304921A000198202806D17B
:101D7000029D05981D4105423ED00398B861089820
:101D800020280FD1002B01D11E48835406980569E5
:101D90000798054206D01B48855C05989840054386
:101DA0001848855409980139C9B2002802D0002981
:101DB00000D1A6616046049D0133DBB28561856276
:101DC000082B05D101320F4BD2B29B5C029300234A
:101DD0000029CAD10E4B1A680E4B197801238B408B
:101DE0009362A6620BB0F0BD019D112DA1D11278B6
:101DF0000068934083619CE70398B862BFE7C046E0
:101E0000E5040020C5040020240700202807002046
:101E100014070020180700201C07002020070020BE
:101E20000C07002010070020F7B51F4B1F491A7838
:101E30001F4B10282ED101241E780D68B440AC62CF
:101E4000012635000C6831001B7801969D40194B26
:101E50001B680093184B1B78994000238C4619008F
:101E600020280DD1154E019F765C1E413E4219D0AF
:101E7000A5610133DBB2082B02D100230131C9B2C5
:101E80006646009F013AD2B2BE61BE62002AE7D127
:101E9000A562F7BD1128D3D101241E780D68B44086
:101EA000AC61CDE7A562E4E7E5040020240700204B
:101EB000280700200C07002010070020C504002080
:101EC000F7B50D001600FF27000203B24C7A01930C
:101ED0002A7AE3B2A24202D26B720020FEBD200039
:101EE0006A683840D15C019B0134184380B2B04726
:101EF000A4B2EDE7022907D10F4B104A984218D03F
:101F0000904209D1180007E0032906D10A4B0B497A
:101F10000B4A98420BD1080070470429FCD1064BAC
:101F2000064A984205D006499042F4D0054A8842B4
:101F3000E6D11000F0E7C046380400204C04002031
:101F400060040020740400200E4B984202D88023C5
:101F50001B0218430C4B0D4A58610D4B09021868BF
:101F600002431A605A69D2B211435961C0469022A5
:101F70000821D2059162C04691611A6805490A405C
:101F80001A607047FF1F0000000800480000555508
:101F900000040048FFFFAAAA0A4B984202D88023F7
:101FA0001B021843084B042258619023DB059A62F8
:101FB000C046C046C046C046044908699A61000A46
:101FC000C0B27047FF1F000000080048000400482E
:101FD000104B114A10B558611068104B09020343A9
:101FE000136053690E4CDBB2194390235161802179
:101FF000DB0518684901084318604020986218689A
:1020000020401860D8680143D960136805490B4027
:10201000136010BD0008004800040048000055553A
:10202000FFEFFFFFFFFFAAAAF0B52C4B85B01968A0
:102030002B4B2C481B7800780193012302901E0043
:1020400018001F00019A029C9640A040264D274A86
:102050002D781268AF408E628446906224489D407D
:1020600000688762046803941C00AC402500039C50
:10207000254305604568019CBD4345609C401D00AB
:10208000A54008681C00284308604868B0434860C1
:102090001068029999408C4021000143604611600C
:1020A00051688143134851600078134A9840834037
:1020B00012681248116899431160D1680B43D360CC
:1020C00080220F4B1A70002319000E4A13701A1841
:1020D00001331170202BFAD105B0F0BD2407002088
:1020E00028070020180700201007002014070020F0
:1020F0000C070020200700201C070020C50400203A
:10210000E6040020E504002010B5334B1B78082BB3
:102110005DD016D8314C032B44D007D8012B2DD0DD
:10212000022B31D0EE222D4B1A7023E0062B44D027
:1021300049D8042BF6D181230122237020211120BC
:1021400027E00F2B34D008D8244C0D2B25D00E2B94
:10215000E8D181230022237027E0802B08D01F4C78
:10216000FF2B08D0102BDDD181230022237027E024
:102170001B4B984710BDF0232370FBE781232020E1
:102180002370184B984706E0812301220021237019
:102190002020154B98478223EEE7812300222370ED
:1021A0001100F5E781230122237020211020F0E7A0
:1021B00081230A4C00222370C0E78123012223706F
:1021C00020210800E5E7812310202370D9E781232F
:1021D000024C11202370D4E7C4040020E604002040
:1021E00029200008291E0008FD1C0008BC234749BF
:1021F000DB038A6AF0B513438B628B6A444A01247D
:1022000013408B6290238022DB051868D2010243C1
:102210001A6080229A61B0224869520302434A61DF
:102220001A683C483C4F02401A608022D86852032A
:1022300002430420DA601A68A2431A60DA68224373
:10224000DA601A6882431A60DA680243DA601022A0
:102250001D6895431D60DD682A43DA6040221D68D1
:1022600095431D60DD682A43DA601A682B4D2A40C9
:102270001A608022DD68D2042A43DA601A68284D89
:102280002A401A608022DD68D2052A43DA601A6883
:10229000244D2A4080251A60DA68ED022A43DA606C
:1022A000214A1668A6431660D6683443D4601E6877
:1022B0003E401E60DC683C40DC6080234C691B03B0
:1022C00023434B61194B1A4C1E681A4F26431E605C
:1022D0001E683E401E60DE683443DC604B691D436F
:1022E0004D611368144D2B401360D468134B1C438D
:1022F000D460116829401160D1680B43D360136822
:1023000083431360D3681843D060F0BD00100240CF
:10231000FFFFA1FFFFFFEFFFFFEFFFFFFFFFFFFB4F
:10232000FFFFFFBFFFFFFBFF00040048000800485D
:1023300055555555AAAAAAAAFFFFAAAA00005555A5
:102340009022CC4B12031968F0B50A431A60802220
:1023500089B0920219681142FCD0012259680A43DF
:102360005A608022596852020A435A608022596892
:1023700052030A435A608022196852040A431A60C1
:102380008022920419681142FCD011210220BA4A1D
:1023900011605A680E398A4302435A601A6B7D31C4
:1023A0000A431A638022DC6912042243DA6162B6AE
:1023B000B24B4025DA8FB24C8243DA87DA8F01388C
:1023C0008243DA870022AF48C2872280AE4C258044
:1023D000AE4C083525808025AD4C6D012580AD4C77
:1023E0002180C287AC49AD4A11808021AC4A0906E0
:1023F00011608022D98FD2000A43DA87A94AAA4BFA
:102400001A80AA4B9847F022A94B1A70A94E202394
:10241000327811009943D2292ED1A749A748C9780B
:10242000C3780224FF2904D1FF3B1C00631E9C419A
:10243000E4B2A34BDB78FF2B00D00324A14BDB7865
:10244000FF2B00D00424A04BA04F1C703860D22A70
:1024500012D10023012505E09D4B2100984701235F
:102460000135EDB2A542F7D3002B00D038608022B1
:102470003B68DA70D02333703378F22B05D1002219
:10248000023B3370914B1B68DA703578D02D01D048
:1024900000F08BFC8D4E3068C378802B01D000F0AB
:1024A00084FC894B19788A4B9847002330600400DC
:1024B000C57043720588C07AEEB21038152801D96C
:1024C00000F071FC02F080FB51008700D100160182
:1024D0006F046F046F046F046F046F046F046F0464
:1024E0006F046F046F046F041600240035003A0077
:1024F00040004A00E17BC4230F2901D900F054FCBD
:1025000009012943237AA278C9B26068714D0DE0B0
:10251000E17B3C230A009A438833002A01D000F073
:1025200043FC237AA27860686B4D3143A847607200
:1025300092E0237AA278E17B3143E6E7E17B3F2317
:102540000A009A438533E8E7227AE17BA378009278
:10255000002231436068614DA847E8E7E17B227AB9
:10256000A378314300920122F4E7E37B1E2B0BD1C9
:10257000C0202233AD09E9B29E430002584B984770
:10258000237AA2788021D7E71C2B0DD1A0208121AE
:10259000C001534FB8478020ED09E9B20002B847A7
:1025A000A0200021C001B8478021E27B49421F2AB8
:1025B00005D00E43F6B2237AA2783100A5E7702247
:1025C000A02096430E432188C0010909C9B2444B9B
:1025D000F6B29847EFE7E37BFE2B3DD16D09E9B2F8
:1025E0004048414B98471F2163680E409C463F4B33
:1025F00036025A698021D2B216439022C900D20510
:10260000A078277A5E6191610121FF2591620331F3
:1026100091625A692D022A4002435A61C046002243
:10262000334E0295C046654631690130090AA95406
:102630005969029DC0B2294001320143D2B25961A9
:102640009742EFD290230421DB0599618021C900D4
:1026500099620121996162721C4B1B6819889A7AF0
:1026600052181A80D822DA709FE3237AA278602168
:1026700062E7C0460010024000200240025C0040B9
:10268000505C0040065C0040006000400460004078
:10269000066000404C5C004020320000005C0040BE
:1026A00000E100E00080FFFF585C0040ED210008E1
:1026B000E6040020A40400204C040020380400207C
:1026C0006004002074040020300700208C040020E7
:1026D000F51E0008C53800083139000849380008DF
:1026E000091C0008FF3F0000491F000800080048BF
:1026F00000040048E37B002B20D18033ED091E430A
:10270000EBB20493FF20049BDD499B004A69034020
:10271000DC48024013434B61C0209021049BC90553
:10272000C000DB004A690340D748024013434B61B5
:10273000227AA3783100009200220BE7012BE1D12D
:102740004021AD04AD0E29430491DBE7F37B002B60
:1027500006D10298CD4A8038C0B23100CC4B9847A0
:10276000F37B012B06D10298CA4A8038C0B23100EF
:10277000C74B9847F37B032B06D10298C64A803893
:10278000C0B23100C24B9847F37B042B06D10298AC
:10279000C24A8038C0B23100BD4B9847F37B0A2B48
:1027A00006D10298BE4A8038C0B23100B84B984773
:1027B000F37BFD2B18D13F20029B034018008023A0
:1027C0001843338802909B0905936B461B7D069343
:1027D000777ABBB2039303021BB20793337A039A4F
:1027E000934200D3AAE07772F37B1E2B16D13F20D1
:1027F000029B0340180080231843338802909B09F2
:10280000DBB20593777ABBB2039303021BB2069344
:10281000337A039A934200D3D2E07772F37B0C2B86
:102820001AD11F20029B35880340180080231843CB
:102830000290C0206D09EDB2A521C001994CA047BE
:1028400029009948A047029B777A1D023D43337ABD
:10285000BB4200D3FBE07772F37B1C2B35D1A02069
:102860003388904CDB09DBB28121C0010593A0477E
:10287000802005990002A047A0205421C001A04754
:10288000777AAA21BBB289480393A047552188488B
:10289000A04720218548A0478023029A13431B02AA
:1028A0001BB20693337A039A7E4C934200D313E112
:1028B0008020902100027772A04780200021000232
:1028C000A0478020F0210002A047F37B1F2B2ED1D0
:1028D000A0203188734D0909C9B2C001A847747A94
:1028E000AA21A3B271480393A84755217048A8476D
:1028F0006E482021A84770238020029A40429A43C4
:10290000104340B203020293337A039A934200D3F6
:1029100023E18020747290210002624CA047802045
:1029200000210002A0478020F0210002A047F423EC
:102930003288F370B37A9B18338057E2594D0021E7
:102940005C48A8475C4CAA215C48A04755215C48DC
:10295000A047A0215948A0476B46187D594B0699BE
:10296000C01880B2A847079B3B439DB273682800FC
:10297000D95DA047C046544B28009847524B0400ED
:10298000280098478442F5D17368DA5D3C4BA24237
:102990000FD1039A1968013292B203920422914333
:1029A0001960D96801370A43DA600222FFB29A62DD
:1029B00014E7042219680A431A6002229A610DE79B
:1029C000C020384D01210002A847AA213F48A8474E
:1029D000C02000210002A84755213D48A847C0203B
:1029E00001210002A847A0213848A847C020059926
:1029F0000002A847069C73683C43A4B2D95D20003E
:102A0000A847C046304B200098472F4B05002000B8
:102A100098478542F5D17368DA5D194BAA420FD108
:102A2000039A1968013292B2039204229143196009
:102A3000D96801370A43DA600222FFB29A62E7E6F8
:102A4000042219680A431A6002229A61E0E6AA2168
:102A50002048A04755211E48A047A0211D48A04757
:102A600073682800D95DA047C046174B28009847D7
:102A7000154B039028009847039B8342F4D1E6E668
:102A80000004004803FF0000FFF90000E5320008E1
:102A9000C11E0008893300087D3200083132000869
:102AA000DD310008091C0008FFFF0000AA8A0000B1
:102AB0005585000069FD0000B51C00085555000053
:102AC000AA2A000069FDFFFF751C0008559500004B
:102AD000AAAA000055D50000A0205421C001A0479B
:102AE000069BA0213B439DB22800A04773682800A5
:102AF000D95DA047C046C44B28009847C24B04008C
:102B0000280098478442F5D17368C04DDB5DA3422D
:102B10000FD1039B2A6801339BB2039304239A438A
:102B20002A60EA6801371343EB600223FFB2AB620D
:102B3000B8E6A020B64C8121C001A04780200599AD
:102B40000002A047A0205421C001A04704232A6806
:102B500013432B600223AB61A4E6029FA02127430D
:102B6000BFB23800AA4DA84773683800195DA8475E
:102B7000C046A54B38009847A34B0500380098473E
:102B80008542F5D173681A5DA04BAA420FD104218A
:102B9000039A0134013292B203921A68E4B28A4372
:102BA0001A60DA680A43DA6002229A62ACE604210B
:102BB0001A680A431A6002229A61A5E6F37B002B89
:102BC00004D1944A31000298934B9847F37B012B30
:102BD00004D1924A310002988F4B9847F37B022B25
:102BE00004D18F4A310002988B4B9847F37B042B1A
:102BF00004D18C4A31000298874B9847F37B0A2B0B
:102C000004D1894A31000298834B9847F37B0B2B00
:102C100004D1864A310002987F4B9847F37BFE2B04
:102C200000D084E6318882484909C9B2814B98476F
:102C3000747A814DA3B2AA2180480393A8475521F5
:102C40007F48A8477D482021A8471F20029B0340BA
:102C50001B020293337A039A93420AD27472902130
:102C60000020754CA04700210800A047F02100205B
:102C70005CE6029FA021274338006F4DA847736888
:102C80003800195DA847C0466E4B380098476D4B19
:102C90000500380098478542F5D173681A5D5B4B93
:102CA000AA420FD10421039A0134013292B2039255
:102CB0001A68E4B28A431A60DA680A43DA600222C8
:102CC0009A62C7E704211A680A431A6002229A61CD
:102CD000C0E702984E4A603031004F4BC0B298476F
:102CE00025E6F37B042B06D10298574A8038C0B200
:102CF0003100494B9847F37B052B04D1524A3100F0
:102D00000298454B9847F37B062B06D102984F4A11
:102D10008038C0B23100404B9847F37B072B04D179
:102D20004A4A310002983C4B9847F37B002B1ED156
:102D3000FF24029A80331A4333883448DB09DBB21C
:102D400002929A0041692240414CDB0021400A4333
:102D500042619021C020C905C0004A6903403D4836
:102D6000024013434B61029831003B4B9847F37B81
:102D7000012B00D0DBE53388244A354851699B0498
:102D80009B0E01409B000B4390215361C9054B6989
:102D9000304A02981A4080239B0013434B61310054
:102DA0002D4B9847C3E5C323E3702C4B1C78F02CC4
:102DB0001CD12B4D2E68F378982B17D1294B30005E
:102DC0001978294B984700232860C3703378F47032
:102DD0000293F07A1038042806D801F0EBFEB7FC15
:102DE000EFFE7AFF82FFA8FDC323F3701F4B1B7811
:102DF000F02B01D1FFF70AFB832B01D0FFF706FB75
:102E00001B4B9847FFF702FB751C000800040048A5
:102E1000091C000821300008C11E000829330008E1
:102E20005D310008DD2F0008ED3000086530000836
:102E3000FF3F0000491F00082D360008AA0A0000C5
:102E4000550500007D3600088D2F00083D2F000835
:102E500003FF0000FFF90000B5360008A4040020BD
:102E60008C04002030070020F51E0008E604002036
:102E700009210008002302000002002A04D1002BCF
:102E800001D0802318437047DB43511EDBB20A4058
:102E9000F3E70000134B10B55861134B13481C683F
:102EA0000902204318605869C0B20143596190215A
:102EB0000820C9058862002A01D101328A62C04611
:102EC000C046C046C046C046C046C046C046902226
:102ED0000821D2059161073991611A6804490A40B5
:102EE0001A6010BD00080048000400480000555555
:102EF000FFFFAAAA0F4B58619023DB05002901D1DF
:102F000001229A6204229A62C046C046C046C04668
:102F1000C046C046C046C046C046C046C046C04681
:102F2000C046054908699A61000A033AC0B29A612D
:102F30007047C046000800480004004870B505000E
:102F40000E000E4C0022AA210D48A0470022552158
:102F50000C48A0470022A0210948A04700223100C8
:102F60002800A04700212800074CA0470600C046C3
:102F700000212800A0478642F4D170BD952E00089C
:102F8000AA8A000055850000F52E000870B50500DE
:102F90000E000E4C0022AA210D48A0470022552108
:102FA0000C48A0470022A0210948A0470022310078
:102FB0002800A04700212800074CA0470600C04673
:102FC00000212800A0478642F4D170BD952E00084C
:102FD00055550000AA2A0000F52E000870B505001E
:102FE0000E000B4CAA210B48A04755210A48A047C8
:102FF000A0210848A04731002800A0472800074C1E
:10300000A0470600C0462800A0478642F6D170BD02
:10301000491F000855150000AA1A0000991F000852
:1030200070B505000E000B4CAA210B48A047552196
:103030000A48A047A0210848A04731002800A0471F
:103040002800074CA0470600C0462800A04786423B
:10305000F6D170BD491F000855150000AA0A0000EE
:10306000991F0008F7B50700194E1A4B30881B78D6
:1030700020301B01DBB2184D019180B2202100935A
:10308000A847164CAA211648A047308810211030B6
:1030900080B2A84755211348A0473088202120300E
:1030A00080B2A847A0210E48A047009B3088190095
:1030B000C01880B2A84701993800A04738000A4CD0
:1030C000A0470500C0463800A0478542F6D1F7BDAD
:1030D0003404002088040020091C0008491F00084F
:1030E00055150000AA0A0000991F0008F7B5060050
:1030F000B020144D019100020A21A847C0200A21E6
:103100000002A847104CAA211048A047552110489A
:10311000A047A0210D48A047B0200E4F00023978EB
:10312000A847C02039780002A84701993000A0477D
:103130003000094CA0470500C0463000A04785423A
:10314000F6D1F7BD091C0008491F000855150000FD
:10315000AA0A000088040020991F0008F7B507009C
:10316000174E184D30880191023080B20221A847D5
:10317000154CAA211548A04730880121013080B2A2
:10318000A84755211248A04730880221023080B25A
:10319000A847A0210D48A0470E4B30881978401849
:1031A00080B2A84701993800A04738000A4CA047D0
:1031B0000500C0463800A0478542F6D1F7BDC0469D
:1031C00034040020091C0008491F000855150000A0
:1031D000AA0A000088040020991F000870B50500A5
:1031E0000E000E4CAA210E48A04755210D48A047BD
:1031F000A0210B48A04731002800A047A0200A4B7F
:1032000000021978A0472800084CA0470600C046D5
:103210002800A0478642F6D170BDC046091C0008B0
:10322000AAFA000055F5000088040020751C00086B
:1032300070B505000E000D4CAA210D48A047552180
:103240000C48A047A0210A48A04731002800A04709
:10325000802000210002A0472800074CA04706005C
:10326000C0462800A0478642F6D170BD091C000860
:1032700055D50000AAAA0000751C0008F7B5050086
:10328000114E019130880021104FB847104CAA21EF
:103290001048A04755211048A047A0210D48A0473D
:1032A0000E4B30881978401880B2B8470199280031
:1032B000A04728000A4CA0470600C0462800A047A7
:1032C0008642F6D1F7BDC04634040020091C000830
:1032D000D11F000855550000AA2A000088040020CC
:1032E000751C000870B505000E000B4CAA210B4898
:1032F000A04755210A48A047A0210848A04731000F
:103300002800A0472800074CA0470600C046280018
:10331000A0478642F6D170BDD11F00085555000068
:10332000AA2A0000751C0008F8B50500A0200F00AF
:10333000000202210E4EB0470E4CAA210E48A047B3
:1033400055210E48A047A0210B48A047A0200C4BB8
:1033500000021978B04739002800A0472800094C1E
:10336000A0470600C0462800A0478642F6D1F8BD17
:1033700099390008491F000855150000AA0A0000E5
:1033800088040020991F000870B50500C0200E00B9
:103390000D4B0521000298470C4CAA210C48A04770
:1033A00055210C48A047A0210948A047310028001A
:1033B000A0472800084CA0470600C0462800A047A8
:1033C0008642F6D170BDC04699390008091C000834
:1033D00055550000AAAA0000751C0008224B10B524
:1033E0001968224B224C1A8852085200505A214A1E
:1033F00010801A88023292B21A8052085200505A33
:103400001D4A10801A88023292B21A805208520065
:10341000505A1A4A10801A881948023292B21A80F9
:1034200052085200515A174A11801A8821880232D4
:1034300092B21A808A4210D908318A1A92B2028056
:1034400022881A801049114B0A881343104A1A40E7
:10345000302353409BB20B8010BD0E4C21888A4212
:10346000EAD808230380EDE72C070020A2040020FF
:10347000A0040020406000404260004044600040E2
:103480000260004046600040005C00408080FFFF1A
:10349000BF8FFFFF9E040020FEE70000F0B5012370
:1034A00002252B4F85B003923A7802910543934051
:1034B0000421A020274E2D04274C9BB229433268BB
:1034C000C001A047040001283ED13B7809209C4060
:1034D00005437830A3B232681F4C2900FF300195B4
:1034E000A047040001282FD13B7832689C40019905
:1034F000A3B20020184CA0470400012824D1029B4D
:10350000180A164B98473B7832689C400199A3B241
:10351000114CA0470400012816D16B46187A0F4BB6
:10352000984722003B7801999A400B4D93B232683C
:10353000A8470A4B039898473B7832689C4001990A
:10354000A3B2054CA0470400E0B205B0F0BDC046F0
:103550000807002004070020D1390008752E000854
:10356000F7B501230225274F00903A7801910543D2
:1035700093400421C020244E2D04244C9BB22943A7
:1035800032688001A0470400012838D109231D4377
:103590003B78C0209C403268A3B229001B4C4000FD
:1035A000A047040001282AD13B7832689C402900BA
:1035B000A3B20020154CA047040001281FD1019B95
:1035C000180A134B98473B7832689C402900A3B2F5
:1035D0000E4CA0470400012811D16B4618790C4B02
:1035E000984722003B789A4093B2009A14430922EC
:1035F000E1B209041143054C3268A0470400A0B2AF
:10360000FEBDC0460807002004070020D13900088D
:10361000752E00080023800080B2834200D17047DD
:10362000C046C04601339BB2F7E700000F4B30B5F0
:103630009022586180230124D205DB0093620C4B59
:1036400094621D680B480902284318605869C0B28B
:1036500001435961C04608219162C04691611968D1
:10366000054801401960946130BDC046000800481B
:103670000004004800005555FFFFAAAA0B4B10B5E7
:1036800080215861902301220424DB05C90099613F
:103690009A629C62C046C046C046054800699C616B
:1036A000000A9962C0B29A6110BDC0460008004885
:1036B00000040048F7B504000D004F7AC046C0462C
:1036C000C046C046C046C046C046C046C046574E2B
:1036D0000022AA215648B047002255215548B0473C
:1036E0002402002220215248B04723B20193FBB2AA
:1036F00000932B7ABB4215D26B4680201B784B4C33
:103700006B72002290210002A0470022802011004D
:103710000002A04780200022F0210002A047C046FE
:103720000020FEBD444B454A196808200A43FF218A
:103730001A605A690A40A02109020A435A6190227C
:103740000121D20590629162C046C046C046C04683
:10375000FF24906191611A6839493C400A401A601F
:10376000019B009A1C436B68A4B2995C2000002264
:103770002E4B9847C046C046C046C046C046C046CD
:10378000C046C046C046C046002120002D4B984789
:103790000600C046C046C046C046C046C046C046F9
:1037A000C046C0466B68009A9B5C834217D0C046F7
:1037B000C046C046C046C046C046C046C046C046D9
:1037C000002120001F4B9847B0420BD1C046C04695
:1037D000C046C046C046C046C046C046C046013787
:1037E000BFB284E7C046C046C046C046C046C046D9
:1037F000C046C046C046C046C046C046C046C04699
:10380000C046C046C046C046C046C046C046C04688
:10381000C046C046C046C046C046C046C046C04678
:1038200000212000074B98470600C9E7952E0008A5
:10383000AA8A000055850000000400480000555584
:10384000FFFFAAAAF52E0008F0B51C4D040005A83C
:10385000067868690902C0B20843686190200421B3
:10386000C00581622900002A01D101328262FF2550
:1038700000204A692D022A401A43114F4A61C0466E
:10388000C046C046C046C046C046C046C046C04608
:10389000C0463A690133120A22544A69DBB22A400F
:1038A00001301A43C0B24A61B042E8D990230422E1
:1038B000DB059A61033A9A61F0BDC04600080048F2
:1038C00000040048F0B5184C050060690E02C0B253
:1038D0003043606180269020F600C00549B28661C1
:1038E000002901DA01218162FF2661693602314037
:1038F00011436161C04600200C4FC0463969013256
:10390000090A29546169D2B2314001301143C0B271
:1039100061619842F1D990238022DB05D2009A623E
:1039200001229A61F0BDC04600080048000400482A
:10393000F0B5174C05000E0060691F2925D88021BD
:1039400031430902C0B20143616190210420FF2686
:10395000C905886261693602314011436161C04620
:1039600000200C4FC04639690132090A29546169A7
:10397000D2B2314001301143C0B261619842F1D9F5
:1039800090230422DB059A61F0BDC0B20902DAE798
:10399000000800480004004870B506000D0005242A
:1039A000064B3000013C9847E4B229003000044B3C
:1039B00098476D08002CF3D170BDC046751C0008F7
:1039C000091C00088047C0460000000000000000FD
:1039D000F0B5474680B4061C081C000C102801D521
:1039E000162700E004270007000F8046FF20014053
:1039F0005468251C1D439C43F60313850AD5C04615
:103A0000C046C046C046C046C046C04694801383E8
:103A1000958002E0012000F081F801390AD4381CB9
:103A200000F07CF8C046948013839580C046C04661
:103A30007600E2E7381C013800F070F894801383B8
:103A40009580042000F06AF8108A184001D0FF2009
:103A500061E0C046C046C046C046C046C0469480ED
:103A60009580108A184055D001200226B04552D0CA
:103A70000921168A1E40FCD1012000F04FF89480E5
:103A8000C0469580C04603E0C046C046C046C0461A
:103A9000948095807600108A1840EFF300804000F3
:103AA000C00F0643381C023800F038F89480958027
:103AB000022000F033F80139EAD513859480012003
:103AC00000F02CF813839580301C8021022399404C
:103AD0000E401BD1002341085E4149085E41490860
:103AE0005E4149085E4149085E4149085E41490816
:103AF0005E4149085E4149085E41760808D34008A6
:103B0000FF21084048400002013004E00E2002E09E
:103B1000092000E0002080BCB846F0BD0138FDD18E
:103B20007047C04603685A0003D45B005B08C018A6
:103B30007047802212061343F9E7C046F0B5574696
:103B40004E46DE464546E0B5814683B092460029A2
:103B500025D04B1E9B46002701935B46FB18DC0FCC
:103B6000E4184B466410E5005E193000FFF7DAFFF9
:103B7000019B8046A3420BD0280008304844FFF741
:103B8000D1FFD04506D80138504509D2671CE4E77B
:103B9000504505D9A74202D0631E9B46DDE70026AB
:103BA000300003B03CBC90469946A246AB46F0BDFF
:103BB000012809D0022805D0002801D00020704734
:103BC0000248FCE70248FAE70248F8E7D142000859
:103BD000E9420008DD42000830B5234B83B0050000
:103BE0008C1E002B2AD001A9200000E000BF002875
:103BF00020D001992200FFF7A1FF041E1AD0FFF781
:103C000091FF6368A864012B10D0201D002B1BDBE3
:103C1000FFF788FF0023E8642B650368002B17DBA0
:103C2000FFF780FF2861002003B030BD002305208E
:103C30002B61F9E7002309202B61F5E70B480C49BC
:103C4000091AC9100191D5E70123E8642B65E4E75F
:103C50001801000FFFF7ACFF2861002801D10930DF
:103C6000E2E70020E0E7C04600000000CC4C00087E
:103C70009C4D0008036810B50400DA0705D49B07C3
:103C80000FD5483000F084FC23685A070FD51A0777
:103C900014D5DB0604D42000D130FF3000F084FCC2
:103CA00010BD483000F070FC23685A07EFD42000A4
:103CB000D03000F071FC23681A07EAD4200051309C
:103CC000FF3000F06DFC2368E3E7C0460368002B7B
:103CD00000D01B1818007047092070477047C04675
:103CE00070B504000D0008E02B6C2A006361210010
:103CF000012023699847082807D1296C2000FFF785
:103D00006BFF0028F0D000F09FFE0728FBD10020B9
:103D1000296CFFF7E3FF281D00F020FCF0B5CE462C
:103D2000474680B5C368324C9846A544836906006F
:103D300014000431402205A8994600F08DFE0023AE
:103D400004AD296C30000493FFF746FF631E9C41CD
:103D500007000934002F15D0AB6B10216B644B4664
:103D600021430193C9B20095330032000120C047BE
:103D7000002833D13800F5239B009D440CBC9046AD
:103D80009946F0BDF0222B6C5200736129007CA88B
:103D900000F062FE7CAA31003369200098478A9BBC
:103DA00007006B6403934B46009501933200330088
:103DB00021000120C047002810D1F0227CA9520028
:103DC000280000F049FE082F06D1296C3000FFF7CB
:103DD00003FF09240700BDE7072F01D00927C9E722
:103DE0000020296CFFF77AFF05A800F0B7FBC0465A
:103DF0002CFCFFFF406C704770B5CB6BFAB00B64C6
:103E000004000E004022043103A800F025FE012327
:103E10005B42029306E002AA21002369984705004D
:103E200008280AD1129B200019000193FFF7D4FE45
:103E30000028F0D009207AB070BD02A8FFF71AFF61
:103E4000062DF7D131002000FFF74AFF10B582613F
:103E5000DA6BC1601A6419000022FFF75FFF10BD22
:103E6000436970B50B64C36804000D00002B04D0D7
:103E70000122FFF753FF00F0E7FD0A00236901006C
:103E800002209847072807D0082803D129002000DE
:103E9000FFF726FF00F0D8FD0020296CFFF71EFF7A
:103EA000281D00F05BFBC046C36810B5002B05D091
:103EB000CB6B00220B64FFF731FF10BDFFF79CFFB7
:103EC000FBE7C0467047C046836810B5002B02D0A0
:103ED00001000120984710BD10B5012907D0002925
:103EE00007D003390224012901D9200010BD012483
:103EF000FBE70224002BF8D10F2AF6D89200821893
:103F00005268029B00241A60EFE7C04600B585B0F6
:103F100003AB0A00009300210023FFF7DDFF0398A5
:103F200005B000BD10B5012907D0002907D003391D
:103F30000224012901D9200010BD0124FBE702243D
:103F4000002BF8D10F2AF6D8029B92001B6882182A
:103F500053600024EFE7C04600B585B003AB039281
:103F600000930A0000230021FFF7DCFF05B000BD2D
:103F700070B51A4CD36BA544136406000D0019A844
:103F8000111D402200F068FD01235B42189314E0EC
:103F90000C2118A802AAFFF7DFFF290018A8B047D4
:103FA000002812D1069B18AA02A90830019398474D
:103FB000040005280AD0092807D0289B02A8190068
:103FC0000193FFF709FE0028E2D0092418A8FFF7A3
:103FD00051FE200090239B009D4470BDC0FDFFFF5B
:103FE000F0B5DE464E464546574693460322E0B5B9
:103FF0001E0013008BB003400193CB6C0D001C1D01
:104000001B6808940793002E66D11B02079306AB2A
:104010005E731A73019B022B00D16EE02B6DDB07E0
:1040200047D40023A846B2460293083303400393C3
:104030002568002D00D137E15346022B49D0258851
:10404000668804340123370099469F4343469B6C9E
:104050000F219C4658466744FFF758FF00228742CD
:1040600006D82A004B469A43D719B84280414242AB
:1040700002230121760033400D402B43012B3ED01B
:10408000002B5AD0022B1CD1236801995F007F08B6
:10409000002965D1002A06D0039A002A00D188E0C1
:1040A000002F00D1AAE0002B65DB0137BF00E41927
:1040B000BEE700230293022E47DDFFF70DFE002826
:1040C00049D009200BB03CBC90469946A246AB466D
:1040D000F0BD66680834B5E7022E9BDC1A0C1B04A1
:1040E0000793022306A90B73FD3313409B00E418CA
:1040F000019B4A73022B00D090E7AC6B8EE7019BCB
:10410000002B3AD1002A16D02368DD0F63689A1C71
:10411000D7D0424658320692013300D1C6E0201D66
:10412000FFF7D4FD06AB01002A00404600E000BFC7
:10413000002800D0A7E008347AE7019B002B02D0CA
:10414000002A00D08BE0043472E707A9584600F03B
:10415000D1FA0028B5D1029B002B5DD10820B1E730
:1041600043460D2158461D6AFFF7D0FE854263D0B5
:104170002368002B99DA043497E743460D2158460B
:104180001D6AFFF7C3FE8542D5D143469B6A9C4218
:10419000D1D145462000FFF7C5FC0F21020058464B
:1041A000FFF7DAFE58462A000021FFF7D5FE072068
:1041B00088E7002F22D058235146434406AABA4626
:1041C000251D0026049405911F00914603E0043547
:1041D0002600A24514D028000697FFF777FD4B462E
:1041E000010000224046741C00E000BF0028EED011
:1041F0005746059B049C9A46B742B9D1454601E013
:104200004546049C0D215846FFF780FE069B286218
:104210006B62AC62062055E70F215846FFF776FE29
:104220000E2102005846FFF797FE5846274A0F21F5
:10423000FFF792FE072045E743469B6A9C4297D1D1
:10424000434642469F620023D36204331363231D17
:1042500053632368002B32DB0123029325E7200000
:10426000FFF760FC454604340600AC63404600E0BE
:1042700000BF002800D124E7584632000F21FFF785
:104280006BFE07201EE707000D2158464546FFF745
:104290003DFE2862022F0FD1069BEB6243462C3372
:1042A0006B62AC6206200DE7564604E70D215846C6
:1042B0004546FFF72BFE2862069B6B62F1E738004C
:1042C000013080004546201865E7C0460000000028
:1042D00010B50023FFF784FE10BDC04610B50123C2
:1042E000FFF77EFE10BDC04610B50223FFF778FE33
:1042F00010BDC046F0B5CE46474680B50600C3B0F7
:1043000014001D0001294ED0002933D003290AD002
:10431000042902D1002B00D189E0022043B00CBC5B
:1043200090469946F0BD032BF7D11404150C240CCC
:104330002B19102BF1D8082203681A4200D0E7E0AD
:1043400020AB1800984600F02DF9B36BED001A0071
:10435000002C09D0E400EA1A1C1942441968D15013
:1043600004339C42FAD12200B263404600F018F9AF
:104370000020D3E70220002BD0D100230127100416
:10438000B56B000C321D39009940084202D02968F3
:104390000435116001330432102BF4D10020A30442
:1043A000BCD4B563BAE71404170C240C012B5FD0FE
:1043B000052BB2D13B19202BAFD80F2F7DD9A146A9
:1043C000002C65D1002223009146B16B002B00DC4C
:1043D00088E020A88046FA00DB00521ACB1842443D
:1043E0000868505004318B42FAD119004B46002B1B
:1043F00010D04B4658003A00102F00D21022002354
:10440000103AD2006A448000CC58D450043383421E
:10441000FAD1C918012D5ED0B1630F2F74D94B4664
:10442000002BA5D0684600F0B7F8002076E7102AE8
:1044300000D972E7102203681A4245D120AB180058
:10444000984600F0B3F800230120B16B02009A40B7
:10445000144204D045460F689A00AF50043101332E
:10446000042BF3D14046B16300F09EF8002055E7DD
:104470003B19102B00D950E70F2F00D94DE700232F
:104480009946012233681A4230D14B46002B5AD04C
:10449000042233681A4242D1012D47D00F2F06D88B
:1044A00020AB180000F076F84B46002B8AD0684607
:1044B00000F074F81023DB1B87E7102BDFD91022E4
:1044C000524291469944DCE793430360D130FF3078
:1044D00000F06CF8B2E7043120A8B16300F054F8A2
:1044E00000201BE74B46002B84D193E71900914332
:1044F0000A003160052D1ED0032230009343336043
:10450000483000F043F8C0E720A800F041F886E703
:10451000934303605130FF3000F044F810E730005F
:1045200093433360D03000F039F8B5E720AB180082
:1045300000F02CF8BEE7022330001A433260483006
:1045400000F028F8A1E7012D03D00F2F00D939E79B
:10455000A6E720AB180000F019F833E7011C34314E
:1045600038C9043B9C461D60A646011C20313CC94D
:1045700090469946A246AB46011C0831FCC94168E9
:104580000068E54600BDC0467047C0467047C0465B
:104590007047C0467047C0467047C0467047C04627
:1045A0007047C0467047C0467047C0467047C04617
:1045B00001B401A801B585B0FFB408A841464A4638
:1045C00053465C4665463EC001A83EC80F98009021
:1045D00000230CB401A9FFF70FFC109B12B0184781
:1045E00001B401A801B585B0FFB408A841464A4608
:1045F00053465C4665463EC001A83EC80F980090F1
:1046000000230CB401A9FFF72BFC109B12B0184734
:1046100001B401A801B585B0FFB408A841464A46D7
:1046200053465C4665463EC001A83EC80F980090C0
:1046300000230CB401A9FFF737FC109B12B01847F8
:1046400001B401A801B585B0FFB408A841464A46A7
:1046500053465C4665463EC001A83EC80F98009090
:1046600000230CB401ABFFF7F1FB109B12B018470D
:1046700001B401A801B585B0FFB408A841464A4677
:1046800053465C4665463EC001A83EC80F98009060
:1046900000230CB401AAFFF76BFC109B12B0184763
:1046A000027A0300002A04D1427AB020002A07D1FE
:1046B0007047013A02720268100E12021A60F7E7A0
:1046C000013A5A725A68111D596003211268197211
:1046D000F2E7C04600B585B003AB00930C2200237F
:1046E0000021FFF7F9FB039805B000BD10B5FFF7F7
:1046F000F1FF10BDF0B557464E464546DE46002355
:10470000E0B587B003930F339846083B9946802362
:104710001B0306000F009A463800FFF7C1FF040094
:10472000B02821D0030632D4FF2583001D4005ABFD
:104730009B4600930D220023002130000435FFF733
:10474000CBFB63064CD5059B5D1B05955B46009333
:1047500000230D2200213000FFF7E4FB3800FFF7B3
:104760009FFF0400B028DDD1039B0024002B2FD134
:1047700005AD00950E2200213000FFF7ADFB00953E
:1047800000230F2200213000FFF7CCFB20E00300C4
:1047900042469343DBB2802B63D0902B25D0A02BD5
:1047A00032D0B02B45D0C02B00D173E003004A4675
:1047B0009343DBB2D02B0AD15346024001321A4355
:1047C000052301213000FFF795FD0028A4D009241E
:1047D000200007B03CBC90469946A246AB46F0BDCF
:1047E000059B9C4665440595B0E7833B03400D2B34
:1047F000EDD0424605AD0240009500230021300077
:10480000FFF76AFB0095A3E7FF234A461B01190047
:10481000824311410A001A40030702D58023DB01BD
:104820001A43002300213000FFF764FD0028CED199
:1048300072E7B1284AD0B2285ED0B32800D18BE00D
:10484000FC230340B42BC2D04A46534602400132F7
:104850001A43012101233000FFF74CFD0028B6D197
:104860005AE704023800FFF71BFF802520432D0282
:10487000A842ACD004010005020C00230021300046
:10488000FFF738FD0028A2D12C4200D144E70123D4
:10489000039341E7C6286AD0C7287CD003004A4664
:1048A0009343DBB2C02B00D18BE0C82800D18FE04E
:1048B000C92800D08BE73800FFF7F2FEF02302038F
:1048C0001B03134042460240013278E73800FFF7ED
:1048D000E7FE002800D17AE7030042469343DBB2AB
:1048E000002B00D073E7020000213000FFF702FD2B
:1048F000002800D06BE70FE705AB00939B460D2225
:10490000002300213000FFF7E7FA3800FFF7C8FE68
:1049100003066AD57F25B03C059B2840A0409C46F5
:104920006044059038000734FFF7BAFE0306F3D45D
:10493000812292009446863AFF3A1040A040059B9F
:10494000723A634418185B460590009300210023D7
:104950003000FFF7E7FADFE63800FFF7A1FEF023AB
:1049600002031B03134042460240013270E7380045
:10497000FFF796FEF02302031B031340424602405A
:1049800001321A43032303213000FFF7B3FC002850
:1049900000D01CE7C0E63800FFF782FE002800D1F7
:1049A00015E7030042469343DBB2002B00D00EE72D
:1049B000020004213000FFF79DFC002800D006E72C
:1049C000AAE64346A0221C40013412032243D9E741
:1049D0003800FFF765FE434602009A43D2B2103218
:1049E0001840120301300243EAE60224A0E7C04661
:1049F000030000B5DB6C85B05A6808001202019212
:104A00001A0001A908324A6003220A72DB794B724C
:104A1000FFF770FE05B000BD10B5FFF767FE806CB4
:104A200010BDC04610B5FFF761FEC26CD3799B0084
:104A30000833D01810BDC04610B500F005F8C046C8
:104A400010B5FFF7F9FFC04610B5062000F074F866
:104A5000012000F0A3F8C046F0B505000F2A2FD9B9
:104A60000B0003439B0734D116000C000300103EDB
:104A7000350901352D01451927681F6067685F609A
:104A8000A7689F60E7681034DF6010339D42F3D160
:104A90000F239E431036851989191340032B1AD909
:104AA0001E1F0023B4080134A400CF58EF50043374
:104AB000A342FAD10324A643331D2240C918ED189E
:104AC000002A05D00023CC5CEC5401339342FAD188
:104AD000F0BD0500F6E71A00F2E7C04670B5050024
:104AE0000C001F2922D8B7239B00C358002B14D0D9
:104AF0008A009B181A68002A0FD0012A0BD0511C7B
:104B000005D00021200019609047002070BD1623B9
:104B100003600120FAE70020F8E7280000F02AF8F7
:104B200022000100280000F011F8EFE716230360CF
:104B300001204042EAE7C04610B5034B0100186867
:104B4000FFF7CCFF10BDC04600000020002370B569
:104B5000074C050008001100236000F017F8431C03
:104B600000D070BD2368002BFBD02B60F9E7C04656
:104B70003407002010B500F001F810BD58220120C4
:104B8000014B40421A607047340700205822012030
:104B9000014B40421A60704734070020FEE7C046D0
:104BA00002B4714649084900095C49008E4402BCC0
:104BB0007047C04603B47146490840004900095E89
:104BC00049008E4403BC704703B471464908400055
:104BD0004900095A49008E4403BC7047F8B5C046E5
:104BE000F8B5C04609021200010100803209040034
:104BF00000000000000012010002FF000008C016C3
:104C0000DC05010201020001040309042A03490032
:104C10006E00660069006E006900740065004E0059
:104C2000650073004C0069007600650073002E007B
:104C300063006F006D000000000000000000000035
:104C40000000000000000000000000000000000064
:104C50000000000000000000000000000000000054
:104C60001E0349004E004C002000520065007400F5
:104C700072006F002D00500072006F00670000008E
:104C80000000000000000000000000000000000024
:0C4C900000000000000000000000000018
:104C9C0074B20181B0AB308000000000800A018149
:104CAC00B0B0ABF0000000003F020181B0AB30802F
:104CBC000000000080060181B0B0ABF000000000E5
:104CCC00F8ECFF7FB0B0B08050EEFF7F0100000029
:104CDC00FCEEFF7FB0A9028090EFFF7FB0B0A88000
:104CEC00E0EFFF7F01000000ECEFFF7FB0B0AA8087
:104CFC0020F0FF7F9CFFFF7FF0F0FF7F01000000A2
:104D0C00ECF0FF7FAA3F398038F1FF7FB0B0A8806C
:104D1C0044F1FF7FB0B0AA8084F1FF7FB0B0A880CF
:104D2C0098F1FF7F0100000094F1FF7FB0B0A880E4
:104D3C009CF1FF7F010000002CF2FF7FAA0FB280D4
:104D4C0094F2FF7F58FFFF7F7CF5FF7FB0B0A88007
:104D5C0098F5FF7F54FFFF7FF8F7FF7F01000000FD
:104D6C0068F9FF7F0084048078F9FF7FB0B0A880D9
:104D7C0078F9FF7F40FFFF7F6CFCFF7F008404808D
:104D8C008CFCFF7FB0B0A880A4FCFF7F010000006A
:104D9C00080000200000000000000000F4020020C9
:104DAC005C030020C4030020000000000000000091
:104DBC0000000000000000000000000000000000E7
:104DCC0000000000000000000000000000000000D7
:104DDC0000000000000000000000000000000000C7
:104DEC0000000000000000000000000000000000B7
:104DFC0000000000000000000000000000000000A7
:104E0C000000000000000000000000000000000096
:104E1C000000000000000000000000000000000086
:104E2C000000000000000000000000000000000076
:104E3C000000000000000000000000000000000066
:104E4C0001000000000000000E33CDAB34126DE603
:104E5C00ECDE05000B00000000000000000000006C
:104E6C000000000000000000000000000000000036
:104E7C000000000000000000000000000000000026
:104E8C000000000000000000000000000000000016
:104E9C000000000000000000000000000000000006
:04000005080000C12E
:00000001FF
