:100000000C94E8000C947D090C9405010C940501F6
:100010000C9405010C9405010C9405010C94050148
:100020000C9405010C9405010C9405010C94050138
:100030000C9405010C9405010C9405010C94050128
:100040000C9405010C9405010C9405010C94050118
:100050000C9405010C9405010C9405010C94050108
:100060000C9405010C9405010C9405010C940501F8
:100070000C9405010C9405010C940501CC05CE05EA
:10008000D105D305D605D805DB05DD05E005E2057C
:10009000E405E705E905EB05ED05EF05F105F305D9
:1000A000F5056D066D066D066D06F705F905FB0590
:1000B000FD0554065706670664066D066D066D0657
:1000C0006D06FF05010603060506070609060B0671
:1000D0000D060F061106130615066D066D066D0654
:1000E0006D06170619066B061B061D06210624065B
:1000F00028062B0631062E062A062D063006330664
:100100003506370639063B063D063F0641064306DF
:100110004506470649064B064D064F06510653064F
:10012000560659065B065D065F06610663066606AF
:100130006A067A067E067C06800686068D068F068F
:10014000910693069D06A006F406F606F806FA0642
:10015000FC06FE06000702070407060708070C074F
:10016000090212000101008096090400000000004D
:10017000000012011001FF000008C016DC0500029B
:10018000010200011E0349004E004C0020005200F5
:100190006500740072006F002D00500072006F0047
:1001A00067002A0349006E00660069006E0069005E
:1001B000740065004E00650073004C006900760015
:1001C000650073002E0063006F006D0004030904D6
:1001D00011241FBECFEFD4E0DEBFCDBF11E0A0E001
:1001E000B1E0E8E7F5E102C005900D92A230B10759
:1001F000D9F713E0A2E0B1E001C01D92AD38B1071C
:10020000E1F70E94910A0C94BA0A0C940000CF9274
:10021000DF92EF92FF92CF93DF93DB01F701E601CC
:10022000813579F1F0F4803509F04BC012968C914C
:100230001297808313968C911397818314968C91D7
:100240001497828315968C911597838316968C91BB
:100250001697848317968C911797858318968C919F
:100260002AC0803629F0813661F58091300105C0C1
:10027000A22FB0E0AF5ABE4F8C91808388818F5FF0
:100280001DC019968C91199780831A968C911A9794
:1002900081831B968C911B9782831C968C911C9753
:1002A00083831D968C911D9784831E968C911E9737
:1002B00085831F968C9186838881895F888380E0FF
:1002C00001C084EBDF91CF91FF90EF90DF90CF9052
:1002D0000895CF93DF93FC01DB01E9018091410197
:1002E0009091420120812078203849F4368138836A
:1002F000442309F445C08D919C9111970CC02FEFB8
:100300002883268120932F01442351F170936203A7
:100310006093610320E913962C93139714961C9213
:100320002281213711F02034F1F5A0916103B091C1
:1003300062030D90BC91A02D25812C93A0916103A7
:10034000B09162030D90BC91A02D248111962C9345
:10035000E0916103F091620324812E5F248323C026
:10036000A0911D01B0911E01B0936203A09361039F
:1003700020E913962C93A0911D01B0911E01CECFC0
:10038000A0911D01B0911E0113963C911397383D29
:1003900021F48D919C911197ECCF2FEF288320E1D0
:1003A00020933001E8CFDF91CF910895E1E5F1E0AE
:1003B0009FEF8FEF919321E0E136F207D1F7809321
:1003C000440180932201809347018093250180930B
:1003D000340180931001809337018093130181E0F1
:1003E000809330010895FB01803391F038F4882325
:1003F00061F08130B9F42093300112C0823371F082
:1004000050F0833379F427870BC00E94D60108C0CF
:100410004187228705C04387248702C045872687F6
:1004200080E0089584EB0895CF93DF93FC0150E0C2
:10043000CA01820F911D41970CF047C0222309F495
:1004400046C083818F3F09F044C086818F3F09F009
:1004500042C080E090E0EA01CF5ADE4F821750F4AC
:100460000196DE01A80FB91F11973C913F3FB1F3F0
:1004700081EC32C066831382822F8295880F807E42
:10048000815082831482158210861782118612860B
:1004900013861486158616861786CA0135E0880FDE
:1004A000991F3A95E1F78F599E4F9183808380E0A1
:1004B00090E04F5A5E4F821730F4FA01E80FF91FAF
:1004C00060830196F8CF80E007C08EEB05C082EC18
:1004D00003C08FEB01C080ECDF91CF9108950F93A3
:1004E000FB01642F422F202F803888F0883858F085
:1004F0008059883060F40583242F30E0362B308714
:10050000278380E005C0CF010F910C94140286EB85
:100510000F910895CF92DF92EF92FF920F93CF93B6
:10052000DF93FC01EB016A01828190ED980F90331B
:1005300070F49381913071F050F0923029F0933043
:10054000C1F56DE071E008C061E371E005C061E4F0
:1005500071E002C06FE171E0803768F4803580F4AB
:10056000803408F047C00381248145810E94F30153
:10057000888381E03CC0803868F4960140E03CC04C
:100580007E019FEFE91AF90A0381248145810E94C7
:1005900007013DC0982F97709130A1F080F0923004
:1005A00029F0933031F46DE071E00EC061E371E049
:1005B0000BC086E8888381E0D6018C9329C061E472
:1005C00071E002C06FE171E0803F50F4803C58F46C
:1005D0008038E0F00381248145810E946F0217C0BA
:1005E000883F40F013C0DB01CD91DC918681F6019C
:1005F00080830EC096014FEFCF01DF91CF910F9115
:10060000FF90EF90DF90CF900C94690185E888838C
:10061000CE01DF91CF910F91FF90EF90DF90CF90BF
:10062000089590914401809122018F3F29F481E047
:100630009F3F19F480E001C082E0909134019F3F18
:1006400009F083E0909110019F3F09F084E0089544
:10065000623049F421E08134920739F121E08F3191
:10066000920761F10895633069F421E081349207C3
:10067000E1F021E08F319207D9F021E08133920738
:10068000E9F008956430E1F421E08134920769F0E3
:1006900021E08F31920761F021E08133920759F018
:1006A00021E08D30920751F008958FE191E0089597
:1006B00081E391E008958DE091E0089581E491E077
:1006C0000895CF93DF93D09130018D2F8F7D823DA0
:1006D00001F50E941103C82F8093020121E431E04B
:1006E00030931E0120931D01D23D99F4C901D1E040
:1006F000DC1728F46C2F0E942803DF5FF9CF90935A
:100700001E0180931D0120E8FC01238380ED80936E
:10071000300180913001823F19F480EF80933001E5
:10072000C0913001C03D31F580911D0190911E01B5
:10073000FC0123812038F1F4609102010E9428031A
:1007400090931E0180931D01FC011482C3830E94BB
:10075000BD03E0911D01F0911E01882311F08383F8
:1007600009C088ED8383258187819085820F911D43
:1007700090878783DF91CF9108950F93CF93DF9375
:10078000EC016F8189858C3061F028F48A3039F072
:100790008B3081F002C08F3068F083EC0CC0606851
:1007A00001C060660FEF2A814E81888199810E9485
:1007B0008B058C8380E0DF91CF910F9108950F938B
:1007C0001F93CF93DF93EC011F8110689C818A8176
:1007D000981790F54AEA65E585E50E94B10445E57C
:1007E0006AEA8AE20E94B10440EA65E585E50E9472
:1007F000B1046C81E881F981E60FF11D4081812F00
:100800000E94B1046C81812F0E94D904082F6C8151
:10081000812F0E94D9040813F5CF8C81E881F981DA
:10082000E80FF11D9081091304C08F5F8C835998E4
:10083000CDCF519A599ACACF80E0DF91CF911F91C5
:100840000F91089511B88FEF82B914B885B917B810
:1008500088B98AB184718AB98BB18B6E8BB9509883
:1008600058985198599A08950E942204399A419AA9
:10087000389A40983A9A429A3C9A449A3D9A459AB4
:100880003F9A479A47988FEF84B915B8479A479887
:1008900014B812B881B914B885B908950E94220419
:1008A000399A419A3C9A449A3D9A459A509A589A54
:1008B0003F9A479A4798579A3B9A439A43988FEFA3
:1008C00084B915B8479A479814B884B915B8439AAB
:1008D000439814B812B881B914B885B90895813015
:1008E00049F028F0823051F40E944E0405C00E9465
:1008F000220402C00E94340480E0089586E908952D
:10090000FC0181E080835898509A000089B181836E
:1009100050985898908181818923891308C08AEA68
:1009200086838483828385E58583838308955098B5
:10093000589A89B1818389B1828389B1838389B1CE
:10094000848389B1858389B18683509858980895A6
:10095000803829F4CB010E94800480E0089587E963
:1009600008959FEF94B985B9479A479862B945B9F8
:100970005898509A5098589A14B808955098589882
:100980004098419A429A62B99FEF94B985B9479AC3
:10099000479814B800000000409A87FD4198000075
:1009A0000000000000000000000083B14098419A60
:1009B000089562B99FEF94B985B9479A479814B8DA
:1009C000409A87FD4198000000000000000083B1BC
:1009D0004098419A0895509858989FEF94B962B9F9
:1009E00085B9479A4798429845B9409A87FD4198FA
:1009F000000000004098419A429A14B808959FEF71
:100A000094B9803208F4806885B9479A479814B839
:100A100062B94498000000000000000083B1449ACD
:100A200008959FEF94B9803208F4806885B9479A99
:100A3000479862B945B9000045980000459A14B836
:100A40000895982F862F642F422F913049F028F077
:100A5000923051F40E94EB0405C00E94B10402C020
:100A60000E94110580E0089580EA08958FEF84B90F
:100A700084E085B9479A479829B188E085B9479AB3
:100A8000479889B1807214B891E0422F407225FDD9
:100A900090E031E0882311F030E002C0911114C0E1
:100AA00021E0411101C020E0811103C0222381F027
:100AB00003C0222329F00AC0332351F082E10895B4
:100AC000992331F083E1089580E1089581E108954B
:100AD0008FEF0895CF93DF93982F862F642FE9012E
:100AE000913869F028F4903891F40E94BE040CC04B
:100AF000923841F0933859F40E94360505C00E949F
:100B0000D90402C00E94FF04888380E001C081EA0A
:100B1000DF91CF910895EF92FF920F93CF93DF93E0
:100B200000D01F92CDB7DEB77C018FEF84B965B9D5
:100B3000479A479814B8409A67FD419842B980E0B7
:100B4000011103C00000000008C02B834A83898381
:100B50000E94540889814A812B8193B1F701E80FE3
:100B6000F11D90834F5F42B98F5F281748F7409877
:100B7000419A0F900F900F90DF91CF910F91FF90BE
:100B8000EF90089590E08B35910508F0A6C0FC0128
:100B9000E25CFF4F0C94B40A11B89AC08FEF81B990
:100BA00097C012B895C08FEF82B992C014B890C0A8
:100BB0008FEF84B98DC015B88BC08FEF85B988C011
:100BC00017B886C018B884C08FEF88B981C038982C
:100BD0007FC0389A7DC040987BC0409A79C03998D0
:100BE00077C0399A75C0419873C0419A71C03A98DC
:100BF0006FC03A9A6DC042986BC0429A69C03C98E7
:100C000067C03C9A65C0449863C0449A61C03D98EF
:100C10005FC03D9A5DC045985BC0459A59C03E98FB
:100C200057C03E9A55C0469853C0469A51C03F9807
:100C30004FC03F9A4DC0479A4BC08AB184718AB960
:100C400047C08BB1847102C08BB18B6E8BB940C031
:100C500050983EC05898509A3BC05098589A38C007
:100C60005098589835C0519833C0519A31C059980E
:100C70002FC0599A2DC053982BC0539A29C05B9806
:100C800027C05B9A25C0559823C0559A21C05D980E
:100C90001FC05D9A1DC056981BC0569A19C05E9819
:100CA00017C05E9A15C057983B9812C0579A3B9A46
:100CB0000FC057980DC0579A0BC05F9809C05F9A34
:100CC00007C05F9804C05F9A439A02C0439A439852
:100CD00080E00895479A4798FBCF8CE8089590E00C
:100CE000FC01E058F109EB30F105A0F5E756FF4FA4
:100CF0000C94B40A62B922C08FEF84B965B91EC0E2
:100D00008FEF84B965B9479A479805C08FEF84B9CA
:100D100065B9439A439814B811C061B90FC064B95A
:100D20000DC067B90BC09AB1862F846189238AB937
:100D30008AB16B7E682B6AB901C068B980E00895FA
:100D40009BB1862F846189238BB98BB16B7E682B15
:100D50006BB9F4CF8DE80895813A61F0823AB9F029
:100D6000803A11F58FEF84B965B9479A479814B85E
:100D700042B916C08FEF84B965B9479A479814B83D
:100D800042B967FF02C041980BC0419A09C042B9FD
:100D90008FEF84B9603230F415B8479A479814B889
:100DA00080E0089565B9F9CF8EE80895803B61F43D
:100DB00022B98FEF84B945B9479A479865B9439AE4
:100DC000439814B880E008958FE80895CF93DF9397
:100DD000EB0190E0805C91098C309105F8F48C5522
:100DE0009F4FFC010C94B40A80B113C083B111C0B1
:100DF00086B10FC089B10DC082B10BC085B109C0E9
:100E000088B107C08BB105C081B103C084B101C0F6
:100E100087B1888380E003C08AB1FBCF80E9DF918E
:100E2000CF9108950F93811102C0589A01C058982C
:100E30008FEF84B922B945B9479A479805B94598C3
:100E400000000000459A419A14B858980F910895EF
:100E50000F93022F813061F030F0823089F4242F1B
:100E6000462F60E008C0242F462F6FEF81E004C0BA
:100E7000242F462F6FEF80E00E94120780E001C010
:100E80008AEA0F9108950F93811102C0589A01C008
:100E900058988FEF84B902B925B9479A479845B950
:100EA000439A439814B844980000000000000000E2
:100EB00083B1449A419A58980F9108950F931F93C4
:100EC000CF93DF93E801813851F0823891F0803878
:100ED000A9F4022F242F462F6FEF81E005C0022FC7
:100EE000242F462F6FEF80E00E944307888380E025
:100EF00006C0022F242F462F60E0F5CF8BEADF914A
:100F0000CF911F910F9108950F931F93CF93DF936C
:100F10001F92CDB7DEB7FC0183E091E0909372039E
:100F2000809371031982808187FF02C081E08983E9
:100F30008181833009F44BC028F48130D1F08230B4
:100F4000C1F179C0853009F467C008F454C0863017
:100F500009F071C01092030180910B01809304018C
:100F6000E0916103F091620382818093050183E047
:100F700060C08281803B38F4803A88F4803858F42D
:100F80000E94C20559C0803C78F424814581638168
:100F90000E94D60651C064810E946F064DC04481F4
:100FA00065810E94AC0648C064E071E00E94E606DC
:100FB0001DC08281803818F40E946F043DC064E037
:100FC00071E00E94A8048093030188E032C082810E
:100FD000803830F42381448165810E9421052CC032
:100FE00024E031E0448165810E946A058093030119
:100FF00089818F5F1EC08281803830F423814481D3
:1010000065810E94280718C004E011E02481458111
:1010100063810E945E07EACFAE014F5F5F4F63E0DE
:1010200071E0CF010E948A02909372038093710352
:1010300005C0898303C080E88093030189810F90F4
:10104000DF91CF911F910F910895E0916103F0918D
:101050006203448120813181582FFC01742F781B59
:10106000972F9E0F8E2F851B861730F48191D90103
:10107000A90FB11D8C93F4CFE0916103F09162034D
:101080008481860F848390912F01961B90932F016A
:1010900010920B01640F8281861302C088E983835A
:1010A00081E0911180E00895CF93DF936091730305
:1010B000635067FDA4C080917003CCE0D0E0C81BF2
:1010C000D109C958DC4F80916F038D3209F085C07A
:1010D000683009F092C083EC809363038AE58093C3
:1010E000010110920C018881807621F0CE010E94CE
:1010F000840760C08A8110926C039981911106C0A7
:1011000010926D032CE633E082E050C0953019F464
:10111000809374033DC09630A9F59B81913019F4FA
:1011200082E791E004C0923041F480E691E0909330
:1011300072038093710382E121C09330F1F4811135
:1011400008C08CEC91E0909372038093710384E06B
:1011500015C0813041F482EA91E09093720380934C
:1011600071038AE20BC0823041F484E891E09093ED
:101170007203809371038EE101C080E090E490934C
:101180000C0118C0983079F0993031F480937603CF
:101190002CE633E080E00AC081E09A3009F080E07C
:1011A0002CE633E003C026E733E081E0309372039E
:1011B000209371038F3F39F4988197FD8E8190E8D9
:1011C00090930C0107C09F81911104C09E819817D4
:1011D00008F4892F8093000110C080910C0187FFD3
:1011E0000CC0CE010E9425088F3F21F48EE1809330
:1011F000010103C0811110920001109273038091CC
:10120000010184FF4DC0809100018F3F09F448C067
:10121000C82F893008F0C8E08C1B809300018091B2
:10122000630398E8892780936303CC2361F180915D
:1012300071039091720320910C0126FF12C0A4E665
:10124000B3E023E633E020953095280F391F4C2F6B
:101250004A0FF901EA0FFB1FE491ED934A13F9CF0E
:1012600009C0E4E6F3E0DC012C2F2E0F3D91319311
:101270002E13FCCF01962FEF2C0F820F911D909310
:101280007203809371036C2F84E693E00E947909C6
:10129000CC5FCC3019F08FEF80930001C093010137
:1012A00084E199B1947131F48150D9F710927403AB
:1012B00010926E03DF91CF910895E9E6F0E080810E
:1012C00082608083E89A0895A82FB92F80E090E08B
:1012D00041E050EA609530E009C02D918227979552
:1012E000879510F084279527305EC8F36F5FA8F3C9
:1012F0000895EADF8D939D930895CF93CFB7CF9351
:10130000DF93C3954C9BE9F74C9B0BC04C9B09C0EA
:101310004C9B07C04C9B05C04C9B03C04C9B01C021
:1013200089C06F93C0917003DD27C958DC4F2F939C
:1013300065E54C9B03C02F916F91E6CF0F931F93F0
:101340004F9320E040E15F9309B1047104FB27F95A
:101350003F9350E03BE039C0147140642F77012F78
:101360005F5F1EC0406819B114712F7752501FC0C3
:10137000406409B12F770471D1F15F5F00C023C0D1
:10138000406219B12F77147191F15F5F00C025C0E1
:1013900004711027515012F45D5F00001150279521
:1013A0002C3F19B1C8F614710127015027952C3F25
:1013B000C8F64227499309B1047110274F731150A1
:1013C00027952C3FA8F64695469519B1147179F0EA
:1013D0000127015027952C3F98F66B5A60F3315046
:1013E00009B1B0F600C011E01CBB002717C03B508C
:1013F0003195C31BD04011E01CBB0881033CF9F0C0
:101400000B34E9F020916E031981110F1213EDCF07
:10141000093651F10D3211F0013E39F70093750391
:101420003F915F914F911F910F912F916F91CCB38D
:10143000C0FD67CFDF91CF91CFBFCF91189520919D
:101440007503222369F310917303112339F53430A6
:101450003AF13093730320936F03109170033BE0D4
:10146000311B309370031CC0009173030130B4F43E
:101470000AE53091010134FD14C000930101C3E677
:10148000D3E013C0052710E000C000000BB91AC05C
:10149000052710E0221F1DC010E021C04AE502C050
:1014A00032ED432FC4E1D0E032E01AB114615C9A0E
:1014B0000BB11AB954E120E865E320FF05270BB909
:1014C000279517951C3FF0F66695B8F7B1F720FF02
:1014D00005270BB9279517951C3FD0F6279517952B
:1014E00017FF052700001C3F0BB9B0F629913A956C
:1014F00019F70B7E10917403110FC651D0400BB930
:1015000011F010936E0311E01CBB00611AB11B7E39
:10151000402F4B7E54E05A95F1F70BB91AB94BB9ED
:101520007FCF2EE088E190E00FB6F894A8958093E5
:1015300060000FBE209360000E945D09549A80E015
:10154000815041F0A895EFE9FFE03197F1F700C035
:101550000000F6CF54980E9422047894A8950E9427
:1015600054080E946103FACFEE0FFF1F0590F4911B
:08157000E02D0994F894FFCF6F
:02157800FF5A18
:00000001FF
