:100000000C94E8000C94020A0C9405010C94050170
:100010000C9405010C9405010C9405010C94050148
:100020000C9405010C9405010C9405010C94050138
:100030000C9405010C9405010C9405010C94050128
:100040000C9405010C9405010C9405010C94050118
:100050000C9405010C9405010C9405010C94050108
:100060000C9405010C9405010C9405010C940501F8
:100070000C9405010C9405010C940501310633061E
:10008000360638063B063D0640064206450647064C
:1000900049064C064E0650065206540656065806A9
:1000A0005A06D106D106D106D1065C065E06600668
:1000B0006206D106D106D106D10664066606680638
:1000C0006A066C066E067006720674067606780678
:1000D0007A067C067E0680068206840686068806E8
:1000E0008A068406860688068A068C06900693068B
:1000F00097069A06A0069D0699069C069F06A206EC
:10010000A406A606A806AA06AC06AE06B006B20667
:10011000B406B606B806BA06BC06BE06C006C206D7
:10012000C406C206C406C606C806C606C806CA066F
:10013000CE06DE06E206E006E406EA06F106F3066F
:10014000F506F706010704076F07710773077507C0
:10015000770779077B077D077F0781078307870775
:10016000090212000101008096090400000000004D
:10017000000012011001FF000008C016DC0500029B
:10018000010200011E0349004E004C0020005200F5
:100190006500740072006F002D00500072006F0047
:1001A00067002A0349006E00660069006E0069005E
:1001B000740065004E00650073004C006900760015
:1001C000650073002E0063006F006D0004030904D6
:1001D00011241FBECFEFD4E0DEBFCDBF11E0A0E001
:1001E000B1E0E2E8F6E102C005900D92A230B1075D
:1001F000D9F713E0A2E0B1E001C01D92AF38B1071A
:10020000E1F70E94160B0C943F0B0C940000CF9268
:10021000DF92EF92FF92CF93DF93DB01F701E601CC
:10022000813579F1F0F4803509F04BC012968C914C
:100230001297808313968C911397818314968C91D7
:100240001497828315968C911597838316968C91BB
:100250001697848317968C911797858318968C919F
:100260002AC0803629F0813661F58091320105C0BF
:10027000A22FB0E0AD5ABE4F8C91808388818F5FF2
:100280001DC019968C91199780831A968C911A9794
:1002900081831B968C911B9782831C968C911C9753
:1002A00083831D968C911D9784831E968C911E9737
:1002B00085831F968C9186838881895F888380E0FF
:1002C00001C084EBDF91CF91FF90EF90DF90CF9052
:1002D0000895CF93DF93FC01DB01E9018091430195
:1002E0009091440120812078203849F43681388368
:1002F000442309F445C08D919C9111970CC02FEFB8
:100300002883268120933101442351F170936403A3
:100310006093630320E913962C93139714961C9211
:100320002281213711F02034F1F5A0916303B091BF
:1003300064030D90BC91A02D25812C93A0916303A3
:10034000B09164030D90BC91A02D248111962C9343
:10035000E0916303F091640324812E5F248323C022
:10036000A0911F01B0912001B0936403A093630397
:1003700020E913962C93A0911F01B0912001CECFBC
:10038000A0911F01B091200113963C911397383D25
:1003900021F48D919C911197ECCF2FEF288320E1D0
:1003A00020933201E8CFDF91CF910895E3E5F1E0AA
:1003B0009FEF8FEF919321E0E336F207D1F780931F
:1003C0004601809324018093490180932701809303
:1003D000360180931201809339018093150181E0E9
:1003E000809332010895FB01803391F038F4882323
:1003F00061F08130B9F42093320112C0823371F080
:1004000050F0833379F427870BC00E94D60108C0CF
:100410004187228705C04387248702C045872687F6
:1004200080E0089584EB0895CF93DF93FC0150E0C2
:10043000CA01820F911D41970CF047C0222309F495
:1004400046C083818F3F09F044C086818F3F09F009
:1004500042C080E090E0EA01CD5ADE4F821750F4AE
:100460000196DE01A80FB91F11973C913F3FB1F3F0
:1004700081EC32C066831382822F8295880F807E42
:10048000815082831482158210861782118612860B
:1004900013861486158616861786CA0135E0880FDE
:1004A000991F3A95E1F78D599E4F9183808380E0A3
:1004B00090E04D5A5E4F821730F4FA01E80FF91FB1
:1004C00060830196F8CF80E007C08EEB05C082EC18
:1004D00003C08FEB01C080ECDF91CF9108950F93A3
:1004E000FB01642F422F202F803888F0883858F085
:1004F0008059883060F40583242F30E0362B308714
:10050000278380E005C0CF010F910C94140286EB85
:100510000F910895CF92DF92EF92FF920F93CF93B6
:10052000DF93FC01EB016A01828190ED980F90331B
:1005300070F49381913071F050F0923029F0933043
:10054000C1F56FE071E008C063E371E005C063E4EA
:1005500071E002C061E271E0803768F4803580F4B8
:10056000803408F047C00381248145810E94F30153
:10057000888381E03CC0803868F4960140E03CC04C
:100580007E019FEFE91AF90A0381248145810E94C7
:1005900007013DC0982F97709130A1F080F0923004
:1005A00029F0933031F46FE071E00EC063E371E045
:1005B0000BC086E8888381E0D6018C9329C063E470
:1005C00071E002C061E271E0803F50F4803C58F479
:1005D0008038E0F00381248145810E946F0217C0BA
:1005E000883F40F013C0DB01CD91DC918681F6019C
:1005F00080830EC096014FEFCF01DF91CF910F9115
:10060000FF90EF90DF90CF900C94690185E888838C
:10061000CE01DF91CF910F91FF90EF90DF90CF90BF
:10062000089590914601809124018F3F29F481E043
:100630009F3F19F480E001C082E0909136019F3F16
:1006400009F083E0909112019F3F09F084E0089542
:10065000623049F421E08334920739F121E081329C
:10066000920761F10895633069F421E083349207C1
:10067000E1F021E081329207D9F021E08333920743
:10068000E9F008956430E1F421E08334920769F0E1
:1006900021E08132920761F021E08333920759F023
:1006A00021E08F30920751F0089581E291E00895A2
:1006B00083E391E008958FE091E0089583E491E071
:1006C0000895CF93DF93D09132018D2F8F7D823D9E
:1006D00001F50E941103C82F8093020123E431E049
:1006E0003093200120931F01D23D99F4C901D1E03C
:1006F000DC1728F46C2F0E942803DF5FF9CF90935A
:10070000200180931F0120E8FC01238380ED80936A
:10071000320180913201823F19F480EF80933201DF
:10072000C0913201C03D31F580911F0190912001AF
:10073000FC0123812038F1F4609102010E9428031A
:100740009093200180931F01FC011482C3830E94B7
:10075000BD03E0911F01F0912001882311F08383F4
:1007600009C088ED8383258187819085820F911D43
:1007700090878783DF91CF9108950F93CF93DF9375
:10078000EC016F8189858C3061F028F48A3039F072
:100790008B3081F002C08F3068F083EC0CC0606851
:1007A00001C060660FEF2A814E81888199810E9485
:1007B000CD058C8380E0DF91CF910F9108950F9349
:1007C0001F93CF93DF93EC011F8110689C818A8176
:1007D000981790F54AEA65E585E50E94B40445E579
:1007E0006AEA8AE20E94B40440EA65E585E50E946F
:1007F000B4046C81E881F981E60FF11D4081812FFD
:100800000E94B4046C81812F0E94F304082F6C8134
:10081000812F0E94F3040813F5CF8C81E881F981C0
:10082000E80FF11D9081091304C08F5F8C835998E4
:10083000CDCF519A599ACACF80E0DF91CF911F91C5
:100840000F91089511B88FEF82B914B885B917B810
:1008500088B98AB184718AB98BB18B6E8BB9509883
:1008600058985198599A0895CF930E942204399A22
:10087000419A389A40983A9A429A3C9A449A3D9AB8
:10088000459A3F9A0E941A06CFEFC4B915B80E9444
:100890001A0614B812B8C1B914B8C5B9CF910895E1
:1008A000CF930E942204399A419A3C9A449A3D9AE5
:1008B000459A509A589A3F9A0E941A06579A0E944F
:1008C0000506CFEFC4B915B80E941A0614B8C4B90A
:1008D00015B80E94050614B812B8C1B914B8C5B944
:1008E000CF910895813049F028F0823051F40E9470
:1008F000500405C00E94220402C00E94340480E01B
:10090000089586E90895FC0181E080835898509A03
:10091000000089B181835098589890818181892302
:10092000891308C08AEA86838483828385E5858368
:10093000838308955098589A89B1818389B18283BD
:1009400089B1838389B1848389B1858389B18683A1
:10095000509858980895803829F4CB010E94830458
:1009600080E0089587E90895CF93DF9300D0CDB755
:10097000DEB79FEF94B985B94A8369830E941A064E
:10098000698162B94A8145B95898509A5098589AE5
:1009900014B80F900F90DF91CF910895CF93DF930C
:1009A0001F92CDB7DEB7509858984098419A429A16
:1009B00062B99FEF94B985B989830E941A0614B869
:1009C000000000008981409A87FD419800000000E6
:1009D000000000000000000083B14098419A0F9091
:1009E000DF91CF910895CF93DF931F92CDB7DEB7FC
:1009F00062B99FEF94B985B989830E941A0614B829
:100A0000409A898187FD41980000000000000000A5
:100A100083B14098419A0F90DF91CF910895CF9381
:100A2000DF9300D0CDB7DEB7509858989FEF94B9B8
:100A300062B985B94A8389830E941A0642984A811D
:100A400045B9409A898187FD41980000000040988F
:100A5000419A429A14B80F900F90DF91CF91089568
:100A6000CF93C62F9FEF94B9803208F4806885B980
:100A70000E941A0614B8C2B9449800000000000091
:100A8000000083B1449ACF910895CF93DF9300D0B3
:100A9000CDB7DEB79FEF94B9803208F4806885B98E
:100AA0004A8369830E941A06698162B94A8145B9FD
:100AB000000045980000459A14B80F900F90DF9100
:100AC000CF910895982F862F642F422F913049F0AF
:100AD00028F0923051F40E940F0505C00E94B40422
:100AE00002C00E94450580E0089580EA0895CF93F2
:100AF0008FEF84B984E085B90E941A06C9B1C0722B
:100B000088E085B90E941A0689B1807214B891E014
:100B1000C11190E031E0882311F030E002C0911162
:100B200014C021E0C11101C020E0811103C02223C3
:100B300081F003C0222329F00AC0332351F082E15F
:100B400009C0992331F083E105C080E103C081E150
:100B500001C08FEFCF910895CF93DF93982F862F09
:100B6000642FE901913869F028F4903891F40E94DB
:100B7000CE040CC0923841F0933859F40E947705A6
:100B800005C00E94F30402C00E943005888380E003
:100B900001C081EADF91CF910895CF92DF92FF9259
:100BA0000F931F93CF93DF931F92CDB7DEB76C01E6
:100BB000142FF22E8FEF84B965B969830E941A064B
:100BC00014B8409A698167FD419812B980E001111B
:100BD00003C00000000004C089830E94D9088981F5
:100BE00093B1F601E80FF11D90831F5F12B98F5F7B
:100BF000F81668F74098419A0F90DF91CF911F91B6
:100C00000F91FF90DF90CF90089585B180930301FD
:100C100082B19091040195B99FEF91B99091030130
:100C200092B93F9A4798479A47989091030195B98E
:100C300082B9089585B18093040182B19FEF91B983
:100C40009091030192B9479A479882B9089590E02C
:100C50008B35910508F0A5C0FC01E25CFF4F0C94B8
:100C6000390B11B899C08FEF81B996C012B894C0F2
:100C70008FEF82B991C014B88FC08FEF84B98CC048
:100C800015B88AC08FEF85B987C017B885C018B866
:100C900083C08FEF88B980C038987EC0389A7CC0F6
:100CA00040987AC0409A78C0399876C0399A74C012
:100CB000419872C0419A70C03A986EC03A9A6CC01E
:100CC00042986AC0429A68C03B9866C03B9A64C02A
:100CD000439862C0439A60C03C985EC03C9A5CC036
:100CE00044985AC0449A58C03D9856C03D9A54C042
:100CF000459852C0459A50C03E984EC03E9A4CC04E
:100D000046984AC0469A48C03F9846C03F9A44C059
:100D1000479842C0479A40C08AB184718AB93CC0A2
:100D20008BB1847102C08BB18B6E8BB935C050987A
:100D300033C05898509A30C05098589A2DC0509847
:100D400058982AC0519828C0519A26C0599824C052
:100D5000599A22C0539820C0539A1EC05B981CC059
:100D60005B9A1AC0559818C0559A16C05D9814C061
:100D70005D9A12C0569810C0569A0EC05E980CC06C
:100D80005E9A0AC0579808C0579A06C05F9804C078
:100D90005F9A02C00E94050680E008950E941A062C
:100DA000FBCF8CE8089590E0FC01E058F109EB30AE
:100DB000F105A0F5E756FF4F0C94390B62B922C03C
:100DC0008FEF84B965B91EC08FEF84B965B90E94F1
:100DD0001A0605C08FEF84B965B90E94050614B8DC
:100DE00011C061B90FC064B90DC067B90BC09AB129
:100DF000862F846189238AB98AB16B7E682B6AB990
:100E000001C068B980E008959BB1862F8461892371
:100E10008BB98BB16B7E682B6BB9F4CF8DE80895DD
:100E20001F93CF93DF931F92CDB7DEB7142F813A74
:100E300061F0823AC9F0803A21F58FEF84B965B943
:100E40000E941A0614B812B918C08FEF84B965B998
:100E500069830E941A0614B812B9698167FF02C03B
:100E600041980BC0419A09C042B98FEF84B96032F2
:100E700030F415B80E941A0614B880E003C065B9B2
:100E8000F9CF8EE80F90DF91CF911F910895CF9306
:100E9000DF931F92CDB7DEB7803B71F422B98FEF9D
:100EA00084B945B969830E941A06698165B90E94AF
:100EB000050614B880E001C08FE80F90DF91CF9154
:100EC0000895CF93DF93EB0190E0805C91098C3023
:100ED0009105F8F48C559F4FFC010C94390B80B1AF
:100EE00013C083B111C086B10FC089B10DC082B1EA
:100EF0000BC085B109C088B107C08BB105C081B1F5
:100F000003C084B101C087B1888380E003C08AB187
:100F1000FBCF80E9DF91CF9108950F93811102C03B
:100F2000589A01C058988FEF84B922B945B90E94E8
:100F30001A0605B9459800000000459A419A14B870
:100F400058980F9108950F93022F813061F030F07F
:100F5000823089F4242F462F60E008C0242F462FCA
:100F60006FEF81E004C0242F462F6FEF80E00E94D6
:100F70008D0780E001C08AEA0F9108950F93CF9307
:100F8000DF931F92CDB7DEB7811102C0589A01C01E
:100F900058988FEF84B902B925B949830E941A067F
:100FA000498145B90E94050614B844980000000024
:100FB0000000000083B1449A419A58980F90DF9145
:100FC000CF910F9108950F931F93CF93DF93E80173
:100FD000813851F0823891F08038A9F4022F242F03
:100FE000462F6FEF81E005C0022F242F462F6FEFB1
:100FF00080E00E94BE07888380E006C0022F242F75
:10100000462F60E0F5CF8BEADF91CF911F910F91D2
:1010100008950F931F93CF93DF931F92CDB7DEB741
:10102000FC0185E091E0909374038093730319822F
:10103000808187FF02C081E089838181833009F448
:101040004BC028F48130D1F08230C1F179C08530B5
:1010500009F467C008F454C0863009F071C01092DA
:10106000050180910D0180930601E0916303F091E9
:10107000640382818093070183E060C08281803BAA
:1010800038F4803A88F4803858F40E94270659C012
:10109000803C78F42481458163810E94470751C0D8
:1010A00064810E94D3064DC0448165810E9410076F
:1010B00048C066E071E00E9461071DC082818038EF
:1010C00018F40E9472043DC066E071E00E94AB0417
:1010D0008093050188E032C08281803830F423811A
:1010E000448165810E9462052CC026E031E0448184
:1010F00065810E94AC058093050189818F5F1EC0C8
:101100008281803830F42381448165810E94A30765
:1011100018C006E011E02481458163810E94E30745
:10112000EACFAE014F5F5F4F65E071E0CF010E94F3
:101130008A02909374038093730305C0898303C06C
:1011400080E88093050189810F90DF91CF911F91F5
:101150000F910895E0916303F0916403448120812D
:101160003181582FFC01742F781B972F9E0F8E2FE3
:10117000851B861730F48191D901A90FB11D8C937D
:10118000F4CFE0916303F09164038481860F84833C
:1011900090913101961B9093310110920D01640FD3
:1011A0008281861302C088E9838381E0911180E007
:1011B0000895CF93DF9360917503635067FDA4C0DA
:1011C00080917203CCE0D0E0C81BD109C758DC4F36
:1011D000809171038D3209F085C0683009F092C0AA
:1011E00083EC809365038AE58093010110920E01E0
:1011F0008881807621F0CE010E94090860C08A8132
:1012000010926E039981911106C010926F032EE621
:1012100033E082E050C0953019F4809376033DC0EE
:101220009630A9F59B81913019F482E791E004C0D2
:10123000923041F480E691E09093740380937303BD
:1012400082E121C09330F1F4811108C08CEC91E06F
:10125000909374038093730384E015C0813041F44C
:1012600082EA91E090937403809373038AE20BC047
:10127000823041F484E891E0909374038093730387
:101280008EE101C080E090E490930E0118C0983088
:1012900079F0993031F4809378032EE633E080E0E2
:1012A0000AC081E09A3009F080E02EE633E003C006
:1012B00028E733E081E030937403209373038F3F7A
:1012C00039F4988197FD8E8190E890930E0107C0C4
:1012D0009F81911104C09E81981708F4892F8093F3
:1012E000000110C080910E0187FF0CC0CE010E944A
:1012F000AA088F3F21F48EE18093010103C0811180
:1013000010920001109275038091010184FF4DC07D
:10131000809100018F3F09F448C0C82F893008F040
:10132000C8E08C1B809300018091650398E88927B1
:1013300080936503CC2361F18091730390917403D2
:1013400020910E0126FF12C0A6E6B3E025E633E0A9
:1013500020953095280F391F4C2F4A0FF901EA0FBD
:10136000FB1FE491ED934A13F9CF09C0E6E6F3E0E1
:10137000DC012C2F2E0F3D9131932E13FCCF0196C3
:101380002FEF2C0F820F911D9093740380937303A2
:101390006C2F86E693E00E94FE09CC5FCC3019F0FA
:1013A0008FEF80930001C093010184E199B19471A2
:1013B00031F48150D9F71092760310927003DF91C7
:1013C000CF910895E9E6F0E0808182608083E89A19
:1013D0000895A82FB92F80E090E041E050EA609591
:1013E00030E009C02D9182279795879510F08427CA
:1013F0009527305EC8F36F5FA8F30895EADF8D93F9
:101400009D930895CF93CFB7CF93DF93C3954C9B14
:10141000E9F74C9B0BC04C9B09C04C9B07C04C9BF5
:1014200005C04C9B03C04C9B01C089C06F93C09109
:101430007203DD27C758DC4F2F9365E54C9B03C033
:101440002F916F91E6CF0F931F934F9320E040E1D0
:101450005F9309B1047104FB27F93F9350E03BE02F
:1014600039C0147140642F77012F5F5F1EC0406840
:1014700019B114712F7752501FC0406409B12F77F2
:101480000471D1F15F5F00C023C0406219B12F77B2
:10149000147191F15F5F00C025C004711027515095
:1014A00012F45D5F0000115027952C3F19B1C8F66A
:1014B00014710127015027952C3FC8F64227499304
:1014C00009B1047110274F73115027952C3FA8F6CE
:1014D0004695469519B1147179F001270150279569
:1014E0002C3F98F66B5A60F3315009B1B0F600C04A
:1014F00011E01CBB002717C03B503195C31BD040E7
:1015000011E01CBB0881033CF9F00B34E9F0209199
:1015100070031981110F1213EDCF093651F10D32FD
:1015200011F0013E39F7009377033F915F914F919E
:101530001F910F912F916F91CCB3C0FD67CFDF91B9
:10154000CF91CFBFCF91189520917703222369F3D4
:1015500010917503112339F534303AF13093750346
:1015600020937103109172033BE0311B309372039F
:101570001CC0009175030130B4F40AE530910101FB
:1015800034FD14C000930101C5E6D3E013C0052764
:1015900010E000C000000BB91AC0052710E0221FA0
:1015A0001DC010E021C04AE502C032ED432FC4E166
:1015B000D0E032E01AB114615C9A0BB11AB954E16F
:1015C00020E865E320FF05270BB9279517951C3FF9
:1015D000F0F66695B8F7B1F720FF05270BB9279508
:1015E00017951C3FD0F62795179517FF0527000084
:1015F0001C3F0BB9B0F629913A9519F70B7E109163
:101600007603110FC651D0400BB911F0109370033F
:1016100011E01CBB00611AB11B7E402F4B7E54E0D1
:101620005A95F1F70BB91AB94BB97FCF2EE088E183
:1016300090E00FB6F894A895809360000FBE2093B9
:1016400060000E94E209549A80E0815041F0A89520
:10165000EFE9FFE03197F1F700C00000F6CF5498B2
:101660000E9422047894A8950E94D9080E946103E0
:10167000FACFEE0FFF1F0590F491E02D0994F89436
:02168000FFCF9A
:02168200FF5A0D
:00000001FF
