:100000000C94D1000C94930B0C94EE000C94EE0025
:100010000C94EE000C94EE000C94EE000C94EE00A8
:100020000C94EE000C94EE000C94EE000C94EE0098
:100030000C94EE000C94EE000C94EE000C94EE0088
:100040000C94EE000C94EE000C94EE000C94EE0078
:100050000C94EE000C94EE000C94EE000C94EE0068
:100060000C94EE000C94EE000C94EE000C94EE0058
:100070000C94EE000C94EE000C94EE00AE07B0076A
:10008000B307B507B807BA07BD07BF07C207C4075C
:10009000C607C907CB07CD07CF07D107D307D507B9
:1000A000D707AC07AC07AC07AC07D907DB07DD0700
:1000B000DF07AC07AC07AC07AC07E107E307E507D0
:1000C000E707E907EB07ED07EF07F107F307F50788
:1000D000F707F907FB07FD07FF07AC07AC07AC07FD
:1000E000AC07010803080508070809080D081008EF
:1000F000140817081D081A08160819081C081F08F4
:10010000210823082508270829082B082D082F086F
:10011000310833083508370839083B083D083F08DF
:100120004108AC07AC07AC07AC07460843084508D4
:100130004908040309042A0349006E0066006900A7
:100140006E006900740065004E00650073004C008D
:1001500069007600650073002E0063006F006D007B
:100160001E0349004E004C00200052006500740040
:1001700072006F002D00500072006F0067001201C6
:100180001001FF000008C016DC050002010200019A
:10019000090212000101008096090400000000001D
:1001A000000011241FBECFEFD4E0DEBFCDBF11E0B1
:1001B000A0E0B1E0E2E5F9E102C005900D92A430C3
:1001C000B107D9F713E0A4E0B1E001C01D92A73A4E
:1001D000B107E1F70E9462050C94A70C0C94000093
:1001E000CF92DF92EF92FF92CF93DF93FB01D70183
:1001F000E601813539F1803621F0803559F085EB03
:100200003EC0E22FF0E0EE5AFE4F80818C93888151
:100210008F5F33C082818C93838111968C93119769
:10022000848112968C931297858113968C931397E1
:10023000868114968C931497878115968C931597C5
:10024000808517C081858C93828511968C93119738
:10025000838512968C931297848513968C931397AB
:10026000858514968C931497868515968C9315978F
:10027000878516968C938881895F888380E0DF91DB
:10028000CF91FF90EF90DF90CF9008950F931F9341
:10029000CF93DF93FC01062F122FA42FB0E030E0A4
:1002A000C9018A0F9B1F419714F08EEB47C01123A1
:1002B00011F482EC43C083818F3F11F08FEB3EC07D
:1002C00086818F3F11F080EC39C0BD016E5A7E4FA0
:1002D000EB0190E006C089918F3F11F081EC2EC0B8
:1002E0009F5F9117C0F30683138295E0220F331F9F
:1002F0009A95E1F7822F81508283148215821086AD
:10030000178211861286138614861586168617861E
:1003100085E0AA0FBB1F8A95E1F7AE59BE4FB183A6
:10032000A08350E0410F511D4E5A5E4F03C0FB01A8
:100330000193BF0164177507D1F780E0DF91CF917A
:100340001F910F9108950F93FB01803828F0883892
:1003500028F08059883048F086EB10C0CB01642F1C
:10036000422F202F0E94460109C00583942F80E070
:1003700030E0822B932B9087878380E00F91089544
:10038000DC0190E009C0E0914201F0914301E90FE6
:10039000F11D80818D939F5F9617A8F30895DC016E
:1003A00090E009C0E0914201F0914301E90FF11D95
:1003B0008D9180839F5F9617A8F308952091450142
:1003C000809124018F3F11F092E004C090E02F3F14
:1003D00009F091E0809135018F3F09F093E0809121
:1003E00012018F3F09F094E0892F08959C0162303B
:1003F00049F481E022343807D1F081E02132380716
:1004000069F52AC0633069F481E02234380779F055
:1004100081E02132380791F081E022333807F1F48E
:100420001BC06430D9F481E02234380719F421E28A
:1004300031E014C081E02132380719F422E331E0C1
:100440000DC081E02233380719F42FE031E006C0F7
:1004500081E02F30380711F422E431E0C90108951A
:10046000E2E5F1E08FEF819391E0E236F907D9F709
:100470008093450180932401809348018093270154
:100480008093350180931201809338018093150188
:1004900081E00E941D070895FB01813399F08233AA
:1004A00028F4882349F0803329F409C0823369F0A5
:1004B000833379F084EB08950E94300208C04187AD
:1004C000228705C04387248702C04587268780E0AE
:1004D0000895278780E008950F931F93CF93DF93AC
:1004E000EC01FB01D9010091420110914301988177
:1004F0009078903819F48E818C9305C08FEF8C938F
:100500008E8180933101442311F5E0911F01F09118
:100510002001903851F48381883D21F400811181BC
:10052000938310C08FEF8C930AC08381882339F4A2
:10053000F0936303E093620380E9838303C080E167
:100540000E941D07E0911F01F09120010CC090381E
:1005500021F400811181938306C0F0936303E0933B
:10056000620380E983831482E0911F01F0912001EE
:1005700083818039F1F48A81813711F08034C9F4A4
:10058000E0916203F09163030190F081E02D8D8191
:100590008083E0916203F09163030190F081E02D8C
:1005A0008C818183E0916203F091630384818E5F8B
:1005B0008483C801DF91CF911F910F910895CF924D
:1005C000DF92EF92FF920F93CF93DF93DC01EB0169
:1005D0006A0112962C911297822F80538033B0F4C7
:1005E00013968C911397813041F0813078F08230EE
:1005F00039F0833009F053C006C061E271E008C0F1
:1006000062E371E005C06FE071E002C062E471E096
:10061000203728F42035A0F4203420F00FC02038F3
:10062000F8F021C0822F15964C91159714962C91B5
:10063000149713960C910E944C0232C0CD0157C002
:100640007E010894E11CF11C822F15964C911597A0
:1006500014962C91149713960C910E94F0004EC0A2
:10066000CD0140E045C0822F90E0877090708130CE
:10067000910579F0823091051CF4892BB1F00FC0FF
:100680008230910519F0039751F406C0E2E3F1E0DE
:100690000EC0E1E2F1E00BC0EFE0F1E008C086E857
:1006A000888381E0F60180832AC0E2E4F1E0203F04
:1006B00028F4203C98F4203800F103C0283FE8F4E7
:1006C00014C0822FBF0115964C91159714962C914A
:1006D000149713960C910E94A30110C02081918160
:1006E00016968C91F60180830CC0CD01BF014FEFAF
:1006F00096010E946C02282F04C085E888832C2F65
:100700009D2F822FDF91CF910F91FF90EF90DF907F
:10071000CF9008950F931F93CF93DF930E942307E9
:10072000823D21F00E942307823F51F40E94DE01A6
:100730008093040182E491E09093200180931F0153
:100740000E942307823DC1F40091040111E009C019
:10075000CF01602F0E94F6019093200180931F012A
:100760001F5FE0911F01F0912001101788F380E8CE
:10077000838380ED0E941D070E942307823F41F47E
:1007800080EF0E941D07E0911F01F091200113826C
:100790000E942307182F803D31F5E0911F01F09151
:1007A000200183818038F9F4CF01609104010E9417
:1007B000F601FC019093200180931F0114821383A2
:1007C0000E942704E0911F01F0912001882311F07D
:1007D000838309C088ED8383258187819085820F7B
:1007E000911D908787830E942307182F803F51F522
:1007F00080913101882331F5C0911F01D0912001F2
:100800008B818823F9F08FEF80933101CE016091C5
:1008100004010E94F601FC019093200180931F01C6
:1008200013821B83CE010E94AF04882311F08B83B7
:1008300009C084EF8B832D818F819885820F911D54
:1008400098878F83DF91CF911F910F9108950F9318
:10085000CF93DF93EC016F8189858C30A9F08D30C7
:1008600028F48A3039F08B3019F406C08F30A8F0A4
:1008700083EC14C0606809C0888199814E812A8107
:100880000FEF0E94740608C06066888199814E81CE
:100890002A810FEF0E94A6068C8380E0DF91CF9122
:1008A0000F9108958F929F92BF92CF92DF92EF9215
:1008B000FF920F931F93CF93DF93B62E6A017901B6
:1008C0004801DA0114968C91C82FD0E033C0E09132
:1008D0000001F0910101858166814781F701099549
:1008E000E0910001F0910101818562854385F70166
:1008F0000995E0910001F0910101858566854785A4
:10090000F7010995D601ED91FC91E00FF11D8B2DBA
:100910006C2F4081F70109950E94750A8B2D602F7D
:10092000F4010995182F8B2D602FF40109951817E4
:1009300099F721960C2FF601828190E08C179D0784
:1009400030F6C48380E0DF91CF911F910F91FF902B
:10095000EF90DF90CF90BF909F908F9008950F936E
:100960001F93FC01678181858B3089F08C3018F4EE
:100970008A3019F404C08F3090F083EC11C06068A5
:1009800080E0AF0124E835E00FEA15E006C080E022
:10099000AF012BEE35E005ED15E00E94520480E03A
:1009A0001F910F91089511B88FEF82B914B885B9CE
:1009B00017B888B98AB184718AB98BB18B6E8BB93B
:1009C000509858985198599A08950E94D304399A8A
:1009D000419A389A40983A9A429A3C9A449A3D9A57
:1009E000459A3F9A479A47988FEF84B915B8479A26
:1009F000479814B812B881B914B885B908950E94FF
:100A0000D304399A419A3C9A449A3D9A459A509A0D
:100A1000589A3F9A479A4798579A5F9A5F988FEFEC
:100A200084B915B8479A479814B884B915B85F9A2D
:100A30005F9814B812B881B914B885B90895813097
:100A400049F0813020F0823049F086E908950E9413
:100A5000D30402C00E94E50480E008950E94FF04D0
:100A600080E00895FC0181E080835898509A00004E
:100A700089B181835098589890818923891741F4CE
:100A80008AEA86838483828385E5858383830895C8
:100A90005098589A89B1818389B1828389B18383BF
:100AA00089B1848389B1858389B1868350985898A8
:100AB0000895803811F087E90895CB010E9432052E
:100AC00080E008952EE088E190E00FB6F894A895B4
:100AD000809360000FBE209360000E946E0A549ABB
:100AE00020E040EA5FE004C0A895CA010197F1F751
:100AF0002150D1F754980E94D3047894A8950E946D
:100B0000750A0E948A03FACF9FEF94B985B9479A74
:100B1000479862B945B95898509A5098589A14B85D
:100B20000895509858984098419A429A62B99FEF18
:100B300094B985B9479A479814B80000000087FF18
:100B400003C0409A419801C0409A00000000000094
:100B500000000000000083B14098419A089562B9F6
:100B60009FEF94B985B9479A479814B8409A87FD82
:100B70004198000000000000000083B14098419AB5
:100B80000895509858989FEF94B962B985B9479ADB
:100B90004798429845B9409A87FD41980000000067
:100BA0004098419A429A14B80895982F803220F4C0
:100BB0008FEF84B9906802C08FEF84B995B9479AD6
:100BC000479814B862B94498000000000000000083
:100BD00083B1449A0895982F8FEF84B9903208F426
:100BE000906895B9479A479862B945B90000459809
:100BF0000000459A14B80895813061F0813020F0EA
:100C0000823079F080EA0895862F642F422F0E9467
:100C1000840505C0862F642F422F0E94EB0580E0DB
:100C20000895862F642F422F0E94C10580E0089509
:100C30008FEF84B984E085B9479A479899B188E0E5
:100C400085B9479A479889B1807214B830E0492F26
:100C5000407295FF31E020E0882309F421E033233E
:100C600021F0222311F080E10895942F411191E0A9
:100C7000811181E0992321F0882311F081E1089509
:100C8000992321F0222311F082E10895332311F0FA
:100C9000882311F48FEF089583E10895CF93DF93B4
:100CA000E901813881F0823818F4803829F406C0CF
:100CB000823871F0833889F081EA13C0862F642F5F
:100CC0000E9491050CC0862F642F0E94AF0507C0BB
:100CD000862F642F0E94D50502C00E9418068883C3
:100CE00080E0DF91CF910895EF92FF920F931F93D1
:100CF000CF93DF93EC01F42EE22E603220F48FEFDD
:100D000084B9606802C08FEF84B965B9479A479883
:100D100014B84498F2B810E0002319F40000000061
:100D200002C00E94750A83B1FE01E10FF11D8083AC
:100D3000F394F2B81F5FE11678F7449A812FDF91A0
:100D4000CF911F910F91FF90EF900895EF92FF9236
:100D50000F931F93CF93DF93EC01F42EE22E8FEFCE
:100D600084B965B9479A479814B8409A67FD419885
:100D7000F2B810E0002319F40000000002C00E9445
:100D8000750A83B1FE01E10FF11D8083F394F2B87F
:100D90001F5FE11678F74098419A812FDF91CF913C
:100DA0001F910F91FF90EF900895833081F4613887
:100DB00041F0623819F0603851F406C025ED35E095
:100DC00008C02FEA35E005C021E935E002C02FEF69
:100DD0003FEFC9010895833079F4613051F06130FB
:100DE00028F0623049F421EC35E008C024E835E011
:100DF00005C02BEE35E002C02FEF3FEFC90108958B
:100E0000EF92FF920F931F93CF93DF93E801D701E7
:100E1000803411F083ED0AC0E0910001F0910101EE
:100E2000808188838C918F5F8C9380E0DF91CF915C
:100E30001F910F91FF90EF900895E0910001F091C4
:100E4000010180830895E0910001F091010180810A
:100E500008958330B9F1843048F4813089F0E0910D
:100E60000001F0910101823098F408C0853001F151
:100E7000853098F0863041F182ED0895408322C09C
:100E8000809100019091010163E10E94C0011AC0AC
:100E9000CF0163E10E94CF0115C0862F642F0E940D
:100EA000D506E0910001F0910101948B838B0AC07B
:100EB000862F642F0E94EB06E0910001F091010162
:100EC000968B858B80E00895862F642F0E94EB0619
:100ED000E0910001F0910101908F878B80E00895EF
:100EE0000F931F93CF93DF93FC01EB018A01828163
:100EF000803418F08038D8F40AC065814481238199
:100F00000E942907888381E0F801808312C0803421
:100F100011F083ED0DC0E0910001F091010180819D
:100F20008983FA0180818F5F808380E001C087E838
:100F30008883CE01DF91CF911F910F910895E82F03
:100F4000F0E0EB35F10540F4E25CFF4FEE0FFF1FE0
:100F50000590F491E02D09948CE8089511B897C09C
:100F60008FEF81B994C012B892C08FEF82B98FC051
:100F700014B88DC08FEF84B98AC015B888C08FEFC0
:100F800085B985C017B883C018B881C08FEF88B9FC
:100F90007EC038987CC0389A7AC0409878C0409A11
:100FA00076C0399874C0399A72C0419870C0419A1D
:100FB0006EC03A986CC03A9A6AC0429868C0429A29
:100FC00066C03B9864C03B9A62C0439860C0439A35
:100FD0005EC03C985CC03C9A5AC0449858C0449A41
:100FE00056C03D9854C03D9A52C0459850C0459A4D
:100FF0004EC03E984CC03E9A4AC0469848C0469A59
:1010000046C03F9844C03F9A42C0479840C0479A64
:101010003EC08AB184718AB93AC08BB1847102C072
:101020008BB18B6E8BB933C0509831C05898509AA1
:101030002EC05098589A2BC05098589828C0519854
:1010400026C0519A24C0599822C0599A20C053985A
:101050001EC0539A1CC05B981AC05B9A18C0559862
:1010600016C0559A14C05D9812C05D9A10C056986B
:101070000EC0569A0CC05E980AC05E9A08C0579877
:1010800006C0579A04C05F9A02C05F9A5F9880E0DA
:101090000895479A479880E00895853891F18638F9
:1010A00070F48238E9F0833828F48038B9F0813858
:1010B00099F418C08338C1F0843871F41BC08838A3
:1010C00031F1893828F48638F1F0873829F41DC0C9
:1010D000893839F18A3841F18DE8089562B922C022
:1010E0008FEF84B965B91EC08FEF84B965B9479A8F
:1010F000479805C08FEF84B965B95F9A5F9814B8B7
:1011000011C061B90FC064B90DC067B90BC08AB115
:10111000962F946198239AB98AB16B7E862B8AB9EF
:1011200001C068B980E008958BB1962F946198232F
:101130009BB98BB16B7E862B8BB980E00895813A89
:1011400071F0823AC9F0803A11F08EE808958FEF7D
:1011500084B965B9479A479814B842B917C08FEF58
:1011600084B965B9479A479814B842B967FF02C075
:1011700041980CC0419A0AC042B9603248F48FEFDE
:1011800084B9607865B9479A479814B880E00895A3
:101190008FEF84B965B9479A479814B880E00895ED
:1011A000803B11F08FE8089522B98FEF84B945B9DB
:1011B000479A479865B95F9A5F9814B880E0089598
:1011C000FB01853C59F1863C70F4823C09F1833C7B
:1011D00028F4803CC9F0813CA9F418C0833CD1F0CC
:1011E000843C81F419C0883CF9F0893C28F4863CA1
:1011F000B9F0873C39F416C08A3CD1F08A3CB0F093
:101200008B3CD1F080E9089580B113C083B111C047
:1012100086B10FC089B10DC082B10BC085B109C0C4
:1012200088B107C08BB105C081B103C084B101C0D2
:1012300087B1808380E008958AB1808380E008953B
:101240000F93882311F4589A01C058988FEF84B9EE
:1012500022B945B9479A479805B94598000000005A
:10126000459A419A14B858980F9108950F93962F64
:10127000342F022F813041F0813020F0823039F05C
:101280008AEA0CC081E001C080E06FEF02C080E01C
:1012900060E0492F232F0E94200980E00F910895DC
:1012A0000F93882311F4589A01C058988FEF84B98E
:1012B00002B925B9479A479845B95F9A5F9814B81B
:1012C0004498000000000000000083B1449A419A55
:1012D00058980F9108950F931F93CF93DF93962FF4
:1012E000342F522FE801813841F0823849F080389C
:1012F00011F08BEA0EC081E001C080E06FEF02C008
:1013000080E060E0492F232F052F0E945009888339
:1013100080E0DF91CF911F910F910895E0916203DA
:10132000F0916303748140815181DC0190E006C03B
:10133000FA01E80FF11D8D9180839F5F892F870F40
:101340009617B0F3E0916203F09163039481960FD6
:10135000948320913101261B2093310182818917CA
:1013600011F488E98383222311F080E0089588E94D
:10137000838381E008950F931F93DF93CF930F92A0
:10138000CDB7DEB7FC0185E091E090938C038093AC
:101390008B031982808187FF03C081E0898301C0AC
:1013A00019828181843009F454C0853040F4823040
:1013B00091F18330F0F5813009F086C00AC08630A3
:1013C00009F466C0863008F45AC0873009F07CC042
:1013D0006EC08281803B28F4803A68F4803820F027
:1013E00006C0803C68F012C00E949F076EC06481F6
:1013F0000E944D086AC0658144810E949F0865C0B3
:101400006381458124810E94D0085FC066E071E05D
:101410000E94E0082EC08281803818F40E941F05C7
:1014200054C066E071E00E9459058093050188E090
:1014300024C08281803830F46581448123810E94F8
:10144000FC0543C06581448126E031E00E944E06E0
:1014500010C08281803830F46581448123810E94EC
:10146000360933C063814581248106E011E00E9482
:101470006B098093050189818F5F898328C0CF0123
:1014800065E071E0AE014F5F5F4F0E94DF0217C061
:101490001092050180910D0180930601E091620395
:1014A000F091630382818093070183E0E6CFCF014F
:1014B00065E071E0AE014F5F5F4F0E94700790934F
:1014C0008C0380938B0303C080E88093050189819E
:1014D0000F90CF91DF911F910F910895E9E6F0E011
:1014E000808182608083E89A08951F93CF93DF9371
:1014F00060918D03635067FDA5C080918A03CCE0A5
:10150000D0E0C81BD109CF56DC4F809189038D32C2
:1015100009F085C0683009F093C083EC80937D03A7
:101520008AE58093020110920E018881807641F055
:10153000CE010E94BB09282F8F3F09F45FC065C010
:101540009A81109286038981882321F4109287035F
:1015500022E04DC0853019F490938E0347C0863049
:10156000B1F58B81813019F48EE791E004C08230AF
:1015700041F480E991E090938C0380938B0322E106
:1015800022C08330F9F48A81882341F482E391E018
:1015900090938C0380938B0324E015C0813041F439
:1015A00086E391E090938C0380938B032AE20BC037
:1015B000823041F480E691E090938C0380938B031A
:1015C0002EE101C020E080E480930E011EC088302F
:1015D00021F421E080E993E00CC0893019F4909364
:1015E000900304C08A3011F421E001C020E086E8B5
:1015F00093E090938C0380938B0307C0888187FDD1
:101600002E8180E880930E0106C08F81882319F413
:101610008E81821708F0822F8093030111C0809180
:101620000E0187FF0DC0CE010E948E098F3F21F46D
:101630008EE18093020104C0882311F0109203010F
:1016400010928D038091020184FF46C080910301B6
:101650008F3F09F441C0182F893008F018E0811B32
:101660008093030180917D0398E8892780937D030F
:10167000112321F120918B0330918C0380910E0175
:1016800086FF0AC0912FF901AEE7B3E084918D93F4
:1016900031969150D9F708C0912FD901EEE7F3E0C8
:1016A0008D9181939150E1F7C90101961150810FFD
:1016B000911D1F5F90938C0380938B038EE793E0C3
:1016C000612F0E948F0B612F6C5F6C3019F08FEFD0
:1016D000809303016093020194E189B1847131F434
:1016E0009150D9F710928E0310928803DF91CF9119
:1016F0001F910895A82FB92F80E090E041E050EAB3
:10170000609530E009C02D9182279795879510F05C
:1017100084279527305EC8F36F5FA8F30895EADF4A
:101720008D939D930895CF93CFB7CF93DF93C395B8
:101730004C9BE9F74C9B0BC04C9B09C04C9B07C0D2
:101740004C9B05C04C9B03C04C9B01C089C06F9350
:10175000C0918A03DD27CF56DC4F2F9365E54C9B64
:1017600003C02F916F91E6CF0F931F934F9320E00B
:1017700040E15F9309B1047104FB27F93F9350E006
:101780003BE039C0147140642F77012F5F5F1EC0AA
:10179000406819B114712F7752501FC0406409B1CD
:1017A0002F770471D1F15F5F00C023C0406219B18F
:1017B0002F77147191F15F5F00C025C0047110276D
:1017C000515012F45D5F0000115027952C3F19B164
:1017D000C8F614710127015027952C3FC8F64227FF
:1017E000499309B1047110274F73115027952C3F6D
:1017F000A8F64695469519B1147179F00127015064
:1018000027952C3F98F66B5A60F3315009B1B0F62A
:1018100000C011E01CBB002717C03B503195C31B13
:10182000D04011E01CBB0881033CF9F00B34E9F017
:10183000209188031981110F1213EDCF093651F150
:101840000D3211F0013E39F700938F033F915F9104
:101850004F911F910F912F916F91CCB3C0FD67CF26
:10186000DF91CF91CFBFCF91189520918F03222385
:1018700069F310918D03112339F534303AF1309327
:101880008D032093890310918A033BE0311B309331
:101890008A031CC000918D030130B4F40AE5309135
:1018A000020134FD14C000930201CDE7D3E013C060
:1018B000052710E000C000000BB91AC0052710E092
:1018C000221F1DC010E021C04AE502C032ED432FA7
:1018D000C4E1D0E032E01AB114615C9A0BB11AB9DC
:1018E00054E120E865E320FF05270BB927951795FC
:1018F0001C3FF0F66695B8F7B1F720FF05270BB946
:10190000279517951C3FD0F62795179517FF0527A4
:1019100000001C3F0BB9B0F629913A9519F70B7EE0
:1019200010918E03110FC651D0400BB911F01093D6
:10193000880311E01CBB00611AB11B7E402F4B7E57
:1019400054E05A95F1F70BB91AB94BB97FCFF89417
:02195000FFCFC7
:0419520064035AFFD1
:00000001FF
