:020000040800F2
:2000000000180020050800083505000839050008000000000000000000000000000000000B
:200020000000000000000000000000003505000800000000000000003505000835050008FA
:20004000350500083505000835050008350500083505000835050008350500083505000890
:20006000350500083505000835050008350500083505000835050008350500083505000870
:20008000350500083505000835050008350500083505000835050008350500083505000850
:2000A0003505000835050008350500083505000835050008350500083505000899010008D0
:2000C000284B10B51A88284B12041B881A43274B198849084900885A254908801988023164
:2000E00089B21980198849084900885A214908801988023189B21980198849084900885A58
:200100001D49088019881D48023189B21980198849084900895A1A4A11801A881949023299
:2001200092B21A801C880288944213D902881C880832121B92B20A80028892B21A801249CB
:20014000124B0A881343124A1A40302353409BB20B8010BD0F4804881A889442E6D30823DA
:200160000B80ECE70C6000400A600040046000404C6000404E6000405060004002600040BB
:20018000526000401A600040005C00408080FFFFBF8FFFFF006000409449F8B50B88944C30
:2001A000002B3AD00A88934B9A4234D100230225914A924F1380924A1380924A1380924A66
:2001C0001380924A1380924AD08FA843D087D08F013DA843D0878F481735FB8705808E48C1
:2001E000343505808D480835058080258C486D01058080258B4805808020FB878A4B000614
:2002000023808A4B18608023D08FDB000343D387874B884A1A8000230B8023881BB2002BE2
:2002200000DBC4E02388844A774F134080221343238023881B0500D49CE0804D7F232A78E6
:2002400011009943714B1980E9886B4B198000216C4B19803B88FF318B4313433B806023D6
:200260001A4208D08022764B12051B8828009B189847634B188060232A78134052B2002A87
:200280004DDA002B14D16A78062A0FD16A88110A02291AD003291BD0012920D1694B1226F5
:2002A000694A99B21180694A1B0C1380544B1E802288674B1343674A1A40C0239B01534036
:2002C0009BB22380FFF7FCFE47E05E4B1233E6E7D2B2012A0FD0002A03D0022A15D01E00A2
:2002E000E4E7584B584A243399B21180574A1B0C13800426DAE7534B534A283399B2118003
:20030000524A1B0C1380544ED0E74E4B4E4A7C3399B211804D4A1B0C1380504EC6E7002BAB
:2003200009D16B78052B06D13A886B88D2B21B0213439BB23B8000212388494A1340494A00
:2003400013439BB22380484B198023881A43474B1A40474B5A4092B22280284BDB8F5B05E8
:2003600007D580222F4B1A800023244AD3872E4B2380F8BD60213B880B40402BEDD13B88B4
:200380001342EAD1264A3B4B2C481B881188802212059B18C9B298472288324B13432D4AED
:2003A0001A40C0239B0153409BB22380D5E7802223881342D1D023882F490B4080210902C8
:2003C0000B432380114B1B88934200D17AE7FF200D4B19888143C0D01988090A0A4311495F
:2003E0000A801A8802401A80B7E7C0460E600040005C00403CA5000000600040065C0040E4
:2004000002600040046000400660004008600040025C0040505C0040186000401C6000404A
:200420001E6000404C5C00402032000000E100E0585C00400080FFFF8F0F000054600040FF
:20044000106000407C0400080A6000400C6000408081FFFF8FBFFFFF2A0300001E03000075
:200460008F8EFFFF8080FFFF1A600040BFBFFFFF30300000126000400F8FFFFF120100026A
:20048000FF000008C016DC05030201020001090212000101008032090400000000000000B7
:2004A000040309042A0349006E00660069006E006900740065004E00650073004C006900EA
:2004C0007600650073002E0063006F006D0000000000000000000000000000000000000061
:2004E0000000000000000000000000000000000000000000000000001E0349004E004C00F8
:20050000200052006500740072006F002D00500072006F00670000000000000000000000EA
:200520000000000000000000000000000000000000000000FEE7FFFF004801E02301ADDE00
:20054000FEE7C04602B4714649084900095C49008E4402BC7047C046411D00000061656129
:2005600062690001130000000536532D4D00060C074D09011901FFFF03B47146490840000D
:200580004900095A49008E4403BC7047411D00000061656162690001130000000536532DFF
:2005A0004D00060C074D09011901FFFF70470A4B0A4A10B55A600A4A5A600122DC681442BC
:2005C000FCD11A6101220180D9681142FCD12022DA6060321A6110BD002002402301674546
:2005E000AB89EFCDFF2370B53F4D2B804378C688102B00D075E0C478818880783B4B013828
:200600005A69082800D968E0FFF79CFF0567672B3D314B5363008A1E8E241D2A19D8344AB8
:200620005A60344A5A600122D8681042FCD102221A618022890212058918422259611A6129
:20064000C046413ADC681440FCD12022DA6060321A612C70284BAAB22D0CF0B25A819D81EC
:2006600070BD60001018FFF7A2FF0024F1E7002C35D10BB2002B32DB80231B05C8181F4900
:20068000FFF795FFE5E704226A705A69AA705A69120AEA705A69120C2A715B691B0E6B71A9
:2006A000E3E702236B701388AB7013881B0AEB70DBE7002C13D10BB2002B10DB80231B0537
:2006C000C91802236B700B88AB700B881B0AEB70BFE70B4B0B4ADA60C7E78B24B9E78E243E
:2006E000B7E780232B70B5E7F40600200020024023016745AB89EFCD00600040FFFF0000A8
:2007000000ED00E00400FA05FFFFFFFFFFFFFFFFFFFFFFFFFFFFFFFFFFFFFFFFFFFFFFFF21
:20072000FFFFFFFFFFFFFFFFFFFFFFFFFFFFFFFFFFFFFFFFFFFFFFFFFFFFFFFFFFFFFFFFD9
:20074000FFFFFFFFFFFFFFFFFFFFFFFFFFFFFFFFFFFFFFFFFFFFFFFFFFFFFFFFFFFFFFFFB9
:20076000FFFFFFFFFFFFFFFFFFFFFFFFFFFFFFFF164B174A9BB21382164B9BB253826846B4
:200780001C300F4A0F4B0430043001681140C91AFAD1094A094B043801681140C91AF2D147
:2007A0007B460A3303600438013303600CE00A4B0A4A1A60FBE7C0460000FFFF0000000808
:2007C000FFFFFF0F0000000100207047E505000800600040AD05000800300040AAAA000025
:2007E000FFFFFFFFFFFFFFFFFFFFFFFFFFFFFFFFFFFFFFFFFFFFFFFFFFFFFFFFFFFFFFFF19
:200800004156303309490A4A0A4B9B1A03DD043BC858D050FBDC0849084A0020521A02DDEA
:20082000043A8850FCDC02F051FC0000604D000800000020300400203004002014070020D3
:2008400070B50E4B1A68537A55685C18E4B2A3420ED1537A0A48CB1853720378591AC9B210
:2008600001700020814202D198230130D37070BD06780130EE540133DBB2E8E790040020C0
:2008800095040020FF23F7B5C04C020023808379009340780138102801D901F0C3FAFFF7EA
:2008A0006BFE1100BA04EE05C10A6409C10AAD0AF7079A08E5084509C10AC10AC10AC10A4C
:2008C000C10A48099078938819281BD8FFF754FE1E002600EC00B7015F02D1024E03D60317
:2008E000E703F203F90300040804100438044704550464048B048B048B041A001A001A00B6
:20090000490254028C23237000F0FBFCE023A04A1B0351690B4353610023F4E7152B01D92E
:2009200000F064FC1800FFF727FE160021002E003B00480055005F006C00760081008D00A8
:200940009A00610461046104610461046104A70061046104B40090234022DB051968914330
:200960001960D9680A43DA600023CCE79023DB051A6888490A401A608022D96852000A4334
:20098000DA600023BFE79023DB051A6882490A401A608022D968D2000A43DA600023B2E7B8
:2009A0009023DB051A687D490A401A608022D96852010A43DA600023A5E79023DB051A6817
:2009C00077490A401A608022D968D2010A43DA60002398E70122734B196891431960D968C4
:2009E0000A43DA6000238EE79023DB051A686E490A401A608022D96852030A43DA60002366
:200A000081E70422674B196891431960D9680A43DA60002377E790230122DB051968914374
:200A20001960D9680A43DA6000236CE75F4B60491A680A401A608022D968D2040A43DA6026
:200A4000002360E79023DB051A685A490A401A608022D968D2050A43DA60002353E790235F
:200A6000DB051A6852490A401A608022D968D2040A43DA60002346E79023DB051A684E4979
:200A80000A401A608022D96852050A43DA60002339E790230122DB05196891431960D968C9
:200AA0000A43DA6000232EE7152B00D9A1E31800FFF762FD160021002C00370042004D0044
:200AC0005700620084008F009900A4009F039F039F039F039F039F03AF009F039F03BA0094
:200AE00090234021DB051A688A431A60DA688A43DA60002307E79023DB051968254801401D
:200B00001960DA680240DA600023FCE69023DB051968214801401960DA680240DA60002381
:200B2000F1E69023DB0519681C4801401960DA680240DA600023E6E69023DB05196818488B
:200B400001401960DA680240DA600023DBE60121144B1A688A431A60DA688A43DA60002383
:200B6000D1E69023DB0519680F4801401960DA680240DA600023C6E604210A4B1A688A4343
:200B80001A60DA688A43DA600023BCE6FC06002000100240FFFEFFFFFFFBFFFFFFEFFFFF7A
:200BA000FFBFFFFF00040048FFFFEFFF00080048FFFFFFFBFFFFFFBFFFFFFFEF902301217C
:200BC000DB051A688A431A60DA688A43DA60002399E6C24BC248196801401960DA680240AB
:200BE000DA6000238FE69023DB051968BD4801401960DA680240DA60002384E69023DB0572
:200C00001968B74801401960DA680240DA60002379E69023DB051968B34801401960DA684F
:200C20000240DA6000236EE690230121DB051A688A431A60DA688A43DA60002363E6152B4E
:200C400000D9D9E21800FFF797FC16001E002700300039004200490052005900610069009B
:200C60007200D702D702D702D702D702D7027B00D702D702840090224023D20511680B4388
:200C8000136000233FE690228023D20511685B000B431360002336E690228023D2051168F4
:200CA000DB000B43136000232DE690228023D20511685B010B431360002324E6902280231E
:200CC000D2051168DB010B43136000231BE60123864A11680B431360002314E69022802363
:200CE000D20511685B030B43136000230BE604237E4A11680B431360002304E69022012365
:200D0000D20511680B4313600023FCE58023734ADB0411680B4313600023F4E590228023F4
:200D2000D2051168DB050B4313600023EBE590228023D2051168DB040B4313600023E2E5A0
:200D400090228023D20511685B050B4313600023D9E590220123D20511680B4313600023E2
:200D6000D1E5082B00D04AE29022D2055168073B0B4353600023C6E5082B00D042E2902262
:200D80000121D20553688B4353600023BBE5152B00D93AE21800FFF7EFFB16001C002200DA
:200DA00028002E0034003900400045004B00510058003802380238023802380238025F003C
:200DC00038023802660090230822DB059A62002399E590231022DB059A62002393E59023D0
:200DE0002022DB059A6200238DE590234022DB059A62002387E590238022DB059A6200236C
:200E000081E50122394B9A6200237CE590238022DB05D2009A62002375E50222334B9A6227
:200E2000002370E590230122DB059A6200236AE580222A4B92019A62002364E590238022AF
:200E4000DB0512029A6200235DE590238022DB0592019A62002356E590238022DB05D20113
:200E60009A6200234FE590230122DB059A62002349E5152B00D9CBE11800FFF77DFB1600BB
:200E80001C002200280039003F0044004B00500056005C006300C901C901C901C901C9018E
:200EA000C9016A00C901C901710090230822DB059A61002327E590231022DB059A6100232F
:200EC00021E590232022DB059A6100231BE590234022DB059A61002315E5C04600080048B6
:200EE000FFFFFFFBFFFFFFBFFFFFFFEF0004004890238022DB059A61002304E50122CC4B90
:200F00009A610023FFE490238022DB05D2009A610023F8E40222C64B9A610023F3E49023F2
:200F20000122DB059A610023EDE48022C14B92019A610023E7E490238022DB0512029A6151
:200F40000023E0E490238022DB0592019A610023D9E490238022DB05D2019A610023D2E42B
:200F600090230122DB059A610023CCE402226270152B00D97EE01800FFF7E4FA0B131B2338
:200F80002B333A434A525A627C7C7C7C7C7C6B7C7C7490230822DB051B69134063800023C5
:200FA000B1E490231022DB051B69134063800023A9E490232022DB051B69134063800023BB
:200FC000A1E490234022DB051B6913406380002399E490238022DB051B691340638000232B
:200FE00091E40122924B1B691340638000238AE490238022DB051B69D2001340638000234D
:2010000081E402228A4B1B691340638000237AE490230122DB051B6913406380002372E44E
:201020008022844B92011B691340638000236AE49023DB051B69DB0BDB036380002362E45A
:2010400090238022DB051B69920113406380002359E490238022DB051B69D20113406380EC
:20106000002350E490230122DB051B6913406380002348E4002363708D3344E480236E4A21
:20108000DB0251690B435361694B6C491A680A401A60D9686A4A0A43DA60002333E4644BA3
:2010A00066491A680A401A60D968654A0A43DA60002328E45E4A614913680B4013600023E7
:2010C00021E45B4A5E4B11680B43136000231AE457491B024A69D2B213434B61002312E453
:2010E000534B1B691B0AA3700123637000230AE48023514ADB02516950480B4353614C4B88
:20110000196801401960D8684D490143D960C0215069C90201435161042219680A431A6078
:20112000022290219A62A022C9050868D20202430A601968434A0A431A600023FFF7E3FB8F
:201140009022A023D205D168DB020B43D360384A3C4BD1680B43D3600023FFF7D4FB90224F
:20116000D205136838490B401360314A374913680B4013600023FFF7C6FB9022A023D20584
:201180001168DB020B431360294A2E4B11680B4313600023FFF7B7FB9020C00542692C49B2
:2011A0009D000A40C021890029400A434261204A284851691B0A0140FF2005402943516109
:2011C00015681F491B02294311605169084003435361022393619362136818490B4013608C
:2011E0000023FFF790FB0023FFF78DFB8D23FFF78AFB8D23FFF787FB8D23FFF784FB8D2382
:20120000FFF781FB8D23FFF77EFB8D23FFF77BFB8D23FFF778FB95789388032D00D1E0E01F
:201220001AD8002D67D0012D00D171E0962566E0000400480008004800100240FFFFAAAAC7
:201240000000555550550000FFFFFAFFAFAAFFFFFFFC000003FF0000042D00D101E1802D63
:20126000E4D190230122DB0562709A62196811431960C04618691968104091431960D96801
:201280009143D960F021002832D1196891431960D9681143D9601F691E69C0461D69C046C8
:2012A000C0461C69C046C046C04619698C46C046C046C046C0461969019119689143196043
:2012C000D9689143D9600100174211D1110016420ED1023115420BD10331144208D16346CA
:2012E0000431134204D1019BD631DB0700D5D139BF4B997073E0BF4A137001F073FCBC4CD1
:201300002570BD4BA2B2240C5A8100989C81FEBD01F068FC90221023D20593611168F033C0
:201320000B43136008239362116838330B4313602023936180231168DB000B431360802395
:20134000936180231168DB010B431360AB4BAC489D611968AB4C0D431D6080254169ED0275
:2013600029434161196821401960DE68A6490E43DE601E6826401E60DE680E43DE60466952
:20138000354345611D6825401D60DD680D43DD60C0254669ED023543456104201D68284341
:2013A00018600220A02598621668ED02354315601E68964D35431D605569954E3540556150
:2013C0005A69944D2A405A611A68114319605A69D2B25A61986198621A6814401C60002589
:2013E0008DE7DBB2022B23D00025032B00D186E79735012B00D082E7C023814ADB025169C5
:2014000004200B43536110227C4B196891431960D9681143D96059680143596098611968D9
:201420000A4302211A607C4A11707C4A1360D6E7E023734A1B0351690B4353619023012215
:20144000DB05196891431960D9681143D9605968114359609A6119680A431A6008216E4A1E
:20146000E2E7DBB29825012B00D048E7E023644A1B0351690B43536101F038FBAFE79678DB
:20148000D7789588112E00D141E155D8082E00D138E118D8042E00D111E10AD8012E00D19A
:2014A0009BE0002E00D18DE0022E00D19AE0A0236EE0062E00D18BE000D8FBE03900280035
:2014C00001F08AF982E00C2E00D125E109D80A2E00D103E100D8FCE03900280001F042F817
:2014E00074E00E2E00D1FEE000D206E10F2E00D1FEE0102EDBD1AA21494800F059FF552104
:20150000484800F055FFA021454800F051FF3900280000F04DFFA020434B0002197800F0FB
:2015200047FF280001F05CF80400C046280001F057F88442F5D149E0252E00D1B5E01BD825
:20154000202E00D1C0E00BD8132E00D1EEE000D2E7E0142EABD13900280001F013F935E03F
:20156000222E65D000D2B1E0232E00D148E12F4B242E9CD11D7029E0822E00D12CE10AD8F9
:20158000802E00D1D7E000D91FE10023262E8ED1174CFFF7B8F9852E00D123E108D8842E42
:2015A00000D084E701232800637000F0A7FD11E1862E00D11CE1872E00D078E701236370EE
:2015C0001A4B12E13900280001F070F90023DFE73900280001F028F9F8E73900280000F06C
:2015E000CDFDF3E73900280000F0E2FEEEE7C046FC06002004070020006000400004004802
:2016000000100240FFFFAAAA0000555550550000FFFC000003FF00000C0700200807002078
:20162000AAFA000055F50000880400209D0400209022D2055369D848A9000340C02080009E
:20164000084003435361D54BD54C58693F022040FF242140084358611868D24908431860BF
:201660005E69280A26400002304358610220986198621E68CC482DB206401E60202696624D
:201680001E6831431960596921400F435F61002D01DA10219162C046C046102191614918E6
:2016A00091611A681040186090E73900280000F033FE8BE73900280000F0DAFC86E73900B6
:2016C000280001F0E9FB81E7B84B53E7B84B1D807CE73900280001F061F977E739002800FA
:2016E00000F0F8FD72E73900280001F017FC6DE73900280001F0E2FB68E73900280001F023
:201700001BF963E73900280000F0C2FD5EE73900280000F0EDFE59E73900280000F0A2FEA9
:2017200054E73900280000F0F3FF4FE73900280000F0C8FF4AE7012190226170D2051368B5
:2017400008208B431360D36810248B43D360202390629461936153698F49AE000B40C02124
:20176000890031400B4353618C4B8D495F693940FF273E400E435E611E688A493143196085
:20178000290A81405E6937400F4302215F61996199621968844E31401960C046C0462DB2C5
:2017A0009061002D00DA9462C046C046C046C046C046C04690220821D2051B69916249188D
:2017C00091617C4A1B0A937000E701232800637000F006FFA070F9E601232800637000F030
:2017E00015FDF7E701236370704B1B78A370EDE6022363706E4B1B88A3701B0AE370E5E624
:201800006D4B9D4202D880231B021D43902700F015FC6B1CFF339BB20193FF057A695E4957
:20182000AB000A40C021890019405C4C0A437A6162695B4900020A40FF210B401A436261DA
:201840002268584B1A43226066692A0A0E401202324362610222A261A2622268524E324018
:20186000226022681343236063690B4018436061C0460123A36200F0E1FB01230135A361F7
:20188000019BADB29D42C9D123681E4026609DE69578D0789188112D00D195E007D8012DE3
:2018A0004ED0002D0DD0022D5CD0822646E0212D66D0222D6BD0122DF7D10223102063709A
:2018C00085E001273D4B04261B7810209F40FA433B4B01921D68AF626B6813406B6000F05A
:2018E000A2FBAF616B683B436B60FA20400000F09AFBFA20AF626B68019A400013406B6049
:2019000000F091FBAF616B68013E3B43B6B26B60002EEAD10436FA2000F085FBAF626B68E7
:20192000019AFA2013406B6000F07DFBAF616B68013E3B43B6B26B60002EECD12670E0E454
:201940001E4A1F4B12781E689540B56273681020AB43736000F067FBB56173682B43736069
:201960000026EBE70123154A6370127815499340134A9BB21268002002F0A2F8A070EFE7A8
:20198000012302000020637001F0F0FAF6E70123020063701020F7E7FFFC00000004004828
:2019A00003FF000000005555FFFFAAAA8804002036040020FC060020FF1F00000C070020B0
:2019C000080700200400020002230020637001F027FB6080C4E793789188042B1ED007D8FC
:2019E000022B20D025D8012B13D08723FEF78BFF072B27D004D8052BF7D1C14B197005E01E
:201A0000082B24D0802BF0D101F070F80023FEF77AFFBC4A1278A2706370F7E7BA4B1B785E
:201A2000A3700123F8E78322B64B1970B64B1A70ECE7B44BB44D197083232B7001F076F8DA
:201A40002B78EDE7B14B1970090A5970DEE7AF4B1A78A2705A78E2709A782271DA7862715D
:201A60001A79A2715B79E3710623D5E79078D578023891888A230A2801D9FEF744FFFEF725
:201A800061FD060B11161D24303C41495000A04B19800023FEF737FF9D4B1B881B040B435F
:201AA0009847F6E7FEF764FE0300FEF72CFF994803689AB20B0413430360EAE7954A136865
:201AC0001B0C1B040B431360E3E704236370914B1B681A0AA370E2701A0C1B0E227163719D
:201AE000D7E702238B4A637012684B00D3181A88A2701B881B0AE370CBE7864B6D001B6869
:201B0000E952C6E7834A4B001168CB18136002226270ECE77F4B6D001A6855191D602980E0
:201B2000B7E7012363700233A370B2E78823FEF7EAFE93789188022B09D0032B0ED0012B45
:201B400010D1754A090411600023FEF7DCFE724A13681B0C1B040B431360F5E701226E4B7F
:201B60001A60F1E78323FEF7CEFE91780B00303B2F2B1AD8D078032814D8FEF7E3FC161880
:201B80000211664B512900D17DE028D8312957D00FD8002937D030294BD0B423FEF7B3FE50
:201BA0005F4BEFE7B523FEF7AEFE5E4BEAE75E4BE8E7332952D04AD35029EED1C022D200B3
:201BC00022801A7AA270DA78E2705A7A22719A7A62719A78A2715B7CE371FFF792FB7F2950
:201BE00000D984E070295DD260293CD0612943D05229D2D180221B889200A3701B0A2280DF
:201C0000E370FFF77EFBFF22484BCA5401311029FBD10123434A5B425380434A53803F4AEF
:201C200053803F4A53800122414B1A700023FEF76AFE9288110AD9721A730023FEF763FE36
:201C40009288110A59739A730023FEF75CFE9288110AD9731A740023FEF755FE92885A74A2
:201C60000023FEF750FE80235B00238093882F4AD35CA370FFF745FB80235B0023802D4B38
:201C80001B68DB78F5E7C022D2002280DA7AA2701A7BE2705A7B22719A7B6271DA7BA27137
:201CA0001B7C99E71F4B15785C68224B1B68D8787F2D00D9B9E0204D009E2E7000280FD044
:201CC00000250095982800D1B5E004E000250095D02800D1AFE0164810350570FF2004E013
:201CE000164803609020D8706F300090A3E00720084003283BD8FEF725FC3D3F2338C046D9
:201D0000E1040020C0040020E2040020C10400203404002030040020980400206004002003
:201D200074040020380400204C040020E3040020A00400208C040020950400209004002057
:201D4000494B802901D2FFF7DCFA872916D97031C9B2072901D9FFF7D4FA00212170D17823
:201D6000997292881A80FFF7CCFA404BE9E7B523FEF7C9FD3E4BE4E73E4BE2E79088D178F3
:201D8000C6B28D19BE22102D2CDC0432002929D0DD78033AFF2D25D19D780132FF2D21D18E
:201DA0000022D7B28F4220D3334D0022AC464F01013F1F727701000A67449870DA705A72B4
:201DC0009A721A80DA721A735A739A73DA731A745A745F60294B9D19A8540132D3B28B4297
:201DE000FAD300222270FFF78CFA0132B718234D013FEF5DFF2FD4D0C122F3E79378002B23
:201E000004D0402B08D0D223FEF77DFD237092881B4B1A70FFF775FA80235B002380184B41
:201E20001B7826E78023FEF76EFDD82800D04DE780205C68D87000205872DB78902B01D086
:201E4000FFF75FFA712901D0FFF75BFA0D4B91881B685868017092885968120A4A705A7AD3
:201E600002325A72FFF74DFA6004002074040020380400204C040020F4040020E30400201E
:201E8000A004002090040020F0B585B001932A4B00901C6829482043186058690C02C0B246
:201EA000204358610220986198621868244C49B22040902418600820E405A061002901DA64
:201EC0001021A16265691F499000C0278C460D400100BF0039400D436561FF2459691A4D67
:201EE0002040294008435861C046039590250020ED050294C046C04666461969009C090A31
:201F0000215401326969D2B29400314026003E4031436961039E596901303140029EC0B2C5
:201F200034400C4301995C618842E3D90823AB62DB18AB6105B0F0BD000400480000555572
:201F4000FFFFAAAAFFFC000003FF0000F0B585B00193284B284C1D6800902C431C6027486E
:201F60005C691F2943D8802529430902E4B2214359610221996199621968214C084090216A
:201F800018608020C905886248699500C026A44620402C00B60034402043FF2448615869B5
:201FA000184F2540384005435D61C046002002960394C0461D69009C2D0A255464464D694A
:201FC00001322540D2B2029C9600344025434D61039C5D6926403D400130019C2E43C0B22E
:201FE0005E61A042E5D980238B6105B0F0BDE4B20902BCE70004004800005555FFFFAAAA05
:020000040800F2
:20200000FFFC000003FF0000002302000002002A04D1002B01D0802318437047DB43511E5F
:20202000DBB20A40F3E70023800080B2C046C04601339BB29842F9D17047FFFF30B5072226
:20204000012409490868450D43086B404340C50FDBB26B40013A23404000D2B21843002ADB
:20206000F1D10860C0B230BD98040020002070479022D205F0B553691B4C86002340C02426
:20208000A400344023435361184B194D5C69000A2C40FF252E4034435C611E68154C00025B
:2020A00026431E605E69144F2E4030435861022098619862186810263840186008209062A0
:2020C00096621868090204431C605869284001435961C04601219962C046996119680F40A0
:2020E0001F609661F0BDC046FFFC00000004004803FF000000005555FFFFAAAA9022D205E9
:202100005369194930B50B40C0218400890021400B435361154B164D5969000A2940FF2504
:202120002C40214359611C681249000221431960596908240D4002212843586199619962E0
:2021400019680D488025014019601021946191629562C046C046C0461869E0409561C0B21F
:202160009462916130BDC046FFFC00000004004803FF000000005555FFFFAAAA1D4B30B5F2
:20218000984202D880231B0218439025ED056B69194C82002340C024A400144023436B619D
:2021A000164B174D5C69000A2C40FF252A4014435C611C68134A000214431C605C690902F7
:2021C0002C40204358610220986198621C680E4804401C601C6822431A605A692A401143E4
:2021E0005961C04601229A62C0469A611A6802401A6030BDFF1F0000FFFC0000000400486F
:2022000003FF000000005555FFFFAAAA1A4B30B5984202D880231B0218439021C9054B6974
:20222000164A84001340C0229200224013434B61134B144D5A69000A2A40FF252C402243A4
:202240005A611C68104A000222431A605A6915400222284358619A619A621A680B48024096
:202260001A6080228A62C046C046C046C0461869000AC0B28A6130BDFF1F0000FFFC000050
:202280000004004803FF000000005555FFFFAAAA70B504000D000D48AA21FFF76FFF5521C4
:2022A0000B48FFF76BFFA0210848FFF767FF29002000FFF763FF2000FFF7A8FF0500C04695
:2022C0002000FFF7A3FFA842F5D170BD55150000AA1A000070B504000D000D48AA21FFF7EF
:2022E0004DFF55210B48FFF749FFA0210848FFF745FF29002000FFF741FF2000FFF786FF26
:202300000500C0462000FFF781FFA842F5D170BD55150000AA0A000090220823D205F0B5C8
:20232000936153691D4C85002340C024A4002C40234353611A4B1B4E5C6909023440FF2657
:2023400035402C435C611D68174C25431D605F69050A37402D023D435D6102259D619D6230
:202360001F68124D00B22F401F60202797621F683C431C605C69344021435961002801DABB
:2023800010219162C046C046102191614918916119680D401D6008239362F0BDFFFC000084
:2023A0000004004803FF000000005555FFFFAAAA9022F0B50124D20513688500A343136027
:2023C000D368234EA343D3605369224C09022340C024A4002C40234353611F4B5C693440EF
:2023E000FF2635402C435C611D681C4C25431D605F69050A37402D023D435D6102259D6165
:202400009D621F68164D00B22F401F60202797621F683C431C605C693440214359610028F2
:2024200001DA1021916208219161C046C046C046C046C046C046C046C046C04691624918F8
:202440009161103191611A6815401D60F0BDC04603FF0000FFFC000000040048000055555D
:20246000FFFFAAAAF7B505001C4B01911E781C4B74001F8820213C19A4B22000FFF798FFAF
:20248000AA211848FFF77AFEA01B80B21021FFF78FFF55211448FFF771FE20212000FFF773
:2024A00087FFA0210F48FFF769FE104B187846430101BE19C9B2B0B2FFF77AFF01992800C6
:2024C000FFF75CFE2800FFF7A1FE0400C0462800FFF79CFEA042F5D1F7BDC0469D0400200A
:2024E0003604002055150000AA0A00008804002070B50400B0200E0000020A21FFF758FF37
:20250000C0200A210002FFF753FFAA211248FFF735FE55211148FFF731FEA0210E48FFF717
:202520002DFEB0200E4B00021D782900FFF740FFC02029000002FFF73BFF31002000FFF7D0
:202540001DFE2000FFF762FE0500C0462000FFF75DFEA842F5D170BD55150000AA0A000073
:2025600088040020F8B505000E00194B02211C88A71CBFB23800FFF71BFFAA211548FFF72A
:20258000FDFD601C80B20121FFF712FF55211248FFF7F4FD02213800FFF70AFFA0210D4843
:2025A000FFF7ECFD0D4B19786418A0B2FFF700FF31002800FFF7E2FD2800FFF727FE04001B
:2025C000C0462800FFF722FEA042F5D1F8BDC0463604002055150000AA0A00008804002030
:2025E0009022D20553691A4970B50B40C021FF268500890029400B435361164B16495C69BF
:2026000035400C402C435C611C681449214319605C69010A26400902314359610221996183
:20262000996219680E4C00B221401960002801DA1021916208219161C046C046C046C046DE
:2026400018691023C8409162C0B2936170BDC046FFFC00000004004803FF0000000055553F
:20266000FFFFAAAA70B504000D00A021FFF754FE29002000FFF750FE2000FFF7B1FF050071
:20268000C0462000FFF7ACFFA842F5D170BD70B50400A0200D00C0015421FFF789FEA0212C
:2026A0002000FFF739FE29002000FFF735FE2000FFF796FF0500C0462000FFF791FFA84215
:2026C000F5D170BD70B50400A0200D000D4BC0011978FFF76DFEAA210B48FFF769FE552115
:2026E0000A48FFF765FEA0210748FFF761FE29002000FFF75DFE2000FFF772FFA842FAD1F4
:2027000070BDC0468804002055D50000AAAA000070B50400C0200D0000020121FFF748FEE6
:20272000AA211548FFF744FEC02000210002FFF73FFE55211148FFF73BFEC0200121000201
:20274000FFF736FEA0210C48FFF732FEC0200C4B00021978FFF72CFE29002000FFF728FEC5
:202760002000FFF73DFF0500C0462000FFF738FFA842F5D170BDC04655950000AAAA00008E
:202780008804002070B504000D001048AA21FFF70FFE55210E48FFF70BFEA0210B48FFF75C
:2027A00007FE29002000FFF703FEA020094B00021978FFF7FDFD2000FFF712FF0500C0460B
:2027C0002000FFF70DFFA842F5D170BD55D50000AAEA00008804002070B504000D00104802
:2027E000AA21FFF7E5FD55210E48FFF7E1FDA0210B48FFF7DDFD29002000FFF7D9FD8020FD
:2028000002210002FFF7D4FD2000FFF7E9FE0500C0462000FFF7E4FEA842F5D170BDC046E9
:2028200055D50000AAAA00009022D205536970B5194C86002340C024A4003440234353614C
:20284000164B174C5D69000A2540FF24264035435D611E68134D00022E431E605E69090217
:2028600026403043586102209861986218680E4E30401860186805431D6058692040014343
:2028800059610121106808431060916291611A6816401E6070BDC046FFFC00000004004874
:2028A00003FF000000005555FFFFAAAA9022D205536970B51B4C86002340C024A400344064
:2028C00023435361184B194D5C69000A2C40FF252E4034435C611E68154C000226431E6044
:2028E0005E6909022E40304358610220986198621E68104806401E601E6834431C605C6977
:20290000254029435961012114680C431460916214688C431460D4682143D1601A68104076
:20292000186070BDFFFC00000004004803FF000000005555FFFFAAAA70B505000E00134B17
:2029400000211C882000FFF733FDAA211048FFF7ADFF55210F48FFF7A9FFA0210C48FFF731
:20296000A5FF0D4B19786418A0B2FFF721FD31002800FFF79BFF2800FFF732FE0400C046A7
:202980002800FFF72DFEA042F5D170BD3604002055550000AA2A00008804002070B504006C
:2029A0000D000D48AA21FFF781FF55210B48FFF77DFFA0210848FFF779FF29002000FFF77B
:2029C00075FF2000FFF70CFE0500C0462000FFF707FEA842F5D170BD55550000AA2A0000E2
:2029E000F0B5284B85B01E78274B01901B78029100930392254B112840D0002290200025F3
:202A00001A70C0051C782A002B00012184460198202805D1009D1D410D4231D00C430D0034
:202A2000029820280ED1002B01D1174FBB54604607690F4206D01448875C080098400743BD
:202A4000114887540398013EF6B2002804D0002E02D102200D0004430133DBB2082B05D183
:202A60000132094BD2B29B5C00930023002ECED1002D01D0054B1C7005B0F0BD0122BDE7CE
:202A80008C43CCE7E1040020C104002094040020F0B5134B134D19780023112800D10223CC
:202AA0000027114E3A00B4463C0001262B702B7820280CD163461B5D370013410132334044
:202AC000D2B25B00082A02D100220134E4B20139C9B20029ECD1002F00D02B70F0BDC0463D
:202AE000E104002094040020C104002000230B4A012113709022D205106888431060D068A3
:202B00000143D1608021064A11701900054A1370054A99540133202BFBD1704794040020ED
:202B2000E2040020E1040020C104002010B52B4B1B78082B4ED013D8294C032B39D006D811
:202B4000012B28D0022B2AD0254BEE223AE0062B3AD03DD8042BF7D101222021112021E0B3
:202B60000F2B28D008D81E4C0D2B1FD000220E2BEAD12021102015E0802B06D0184CFF2B27
:202B800006D0102BE0D100221FE0FFF7AFFF10BDF0232370FBE72020FFF77AFF04E00122A3
:202BA00000212020FFF71CFF8223F2E700221100F7E70122DDE7002220211120FFF710FF94
:202BC0008222074B1A70E2E7012220210800E9E71020E1E71120FFF75BFFF1E7C00400203B
:202BE000E2040020BC235F49DB038A6AF0B513438B628B6A5C4A13408B62E0234A691B03DF
:202C000013434B61594B1A789023DB05102A03D100221A609A60DA6040221868544D9043B5
:202C20001860D86880260243DA601A685148F60402401A608022D86852000243DA601A68B1
:202C40004D48802702401A608022D868D2000243DA601A684948FF0202401A608022D86897
:202C6000D20102430120DA60454A146884431460D4680443D4601C682C401C608024DD688F
:202C800064032C43DC601C683E4D2C401C608024DD68E4052C43DC601C683B4D2C401C60BA
:202CA000DC683A4D3443DC601C68394E2C401C608024DD6864012C43DC6004241568A5431D
:202CC0001560D5682543D5601D6885431D60DD688543DD6048693843486110683040106064
:202CE000D5682C480543D560C0254F69ED023D434D6115682C4314600224A02594621C6827
:202D0000ED022C431C601768234C274317601F68224C27401F601768214C27401760DF681E
:202D20001D4C3D438027DD60D368FF021C43D4604B69154D3B434B61136833401360D3681B
:202D40000343D36013681E4016608026D368F6041843144BD0601A682A401A60DA683243C9
:202D6000DA60F0BD00100240FFFFA1FF04070020FFFFEFFFFFFEFFFFFFFBFFFFFFBFFFFFB6
:202D800000040048FFFFFFBFFFFFFFFBFFEFFFFFFFFFAAAA0000555550550000FFFFFAFFAF
:202DA000AFAAFFFF00080048F7B580270D0001924C7A000203B2A6B20093FF042B7AB34274
:202DC00002D26C720020FEBD00986B682043195D80B2019B98476B681A5D0B4B824206D03B
:202DE0001A683A431A60802292019A61E6E71A68064901340A401A60DA6801363A43DA6063
:202E0000E4B2B6B2DAE7C04600080048FFFFFFFBF7B50D001600FF27000203B24C7A01939F
:202E20002A7AE3B2A24202D26B720020FEBD20006A683840D15C019B0134184380B2B047FD
:202E4000A4B2EDE7022907D10F4B104A984218D0904209D1180007E0032906D10A4B0B4978
:202E60000B4A98420BD1080070470429FCD1064B064A984205D006499042F4D0054A884240
:202E8000E6D11000F0E7C046380400204C040020600400207404002070B506000D00052445
:202EA0003000013CFFF79CFBE4B229003000FFF77FFA6D08002CF3D170BDFFFF70B5040001
:202EC000A0200D0000020221FFF7E6FFAA211048FFF754F955210F48FFF750F9A0210C489E
:202EE000FFF74CF9A0200C4B00021978FFF7D4FF29002000FFF742F92000FFF787F905000F
:202F0000C0462000FFF782F9A842F5D170BDC04655150000AA0A00008804002070B5040044
:202F2000C0200D0000020521FFF7B6FFAA210D48FFF73EFA55210C48FFF73AFAA02109487D
:202F4000FFF736FA29002000FFF732FA2000FFF747FB0500C0462000FFF742FBA842F5D17A
:202F600070BDC04655550000AAAA0000F7B501230225294F01923A7800910543934004219B
:202F8000A020264E2D049BB229433268C00100F097FD040001283DD13B7809209C400543F9
:202FA0007830A3B232682900FF3000F089FD040001282FD13B7832689C402900A3B20020B8
:202FC00000F07EFD0400012824D1009B180AFFF71BF83B7832689C402900A3B200F070FD9A
:202FE0000400012816D16B461878FFF70DF822003B7829009A4093B2326800F061FD0198E3
:20300000FFF702F83B7832689C402900A3B200F057FD0400E0B2FEBD0C0700200807002022
:20302000F7B501230225274F00903A780191054393400421C020244E2D049BB22943326839
:20304000800100F03DFD0400012838D109231D433B78C0209C403268A3B22900400000F04C
:203060002FFD040001282AD13B7832689C402900A3B2002000F024FD040001281FD1019B6B
:20308000180AFEF7C1FF3B7832689C402900A3B200F016FD0400012811D16B461879FEF769
:2030A000B3FF22003B789A4093B2009A14430922E1B209041143326800F002FD0400A0B27B
:2030C000FEBDC0460C07002008070020DB4BDC4AF0B51A60DB4A89B01A6002225A60A022EA
:2030E00012019A600293029BDB68002BFBD19022029BD54912031960D44B186802431A60FE
:2031000080220791920219681142FCD0012259680A435A608022596852020A435A608022F6
:20312000596852030A435A608022196852040A431A608022920419681142FCD01121C44A1A
:20314000C44C11605A680E398A43110002220A435A608022196B0A431A638022D9691204F2
:203160000A43DA61BC4BE381BC231B689847BB4B6382BB4B238262B6FFF734FDF022B94B30
:203180001A70029B079AB84E1A603278202311009943D2291CD1B549B548C978C378022488
:2031A000FF2904D1FF3B1C00631E9C41E4B2B14BDB78FF2B00D00324AF4BDB78FF2B00D011
:2031C0000424AE4BAE4F1C703860D22A00D177E13378F22B05D10022023B3370A84B1B6872
:2031E000DA703578D02D20D1A54E3068C3780393802B1AD1A14B00271978FFF723FE3060AD
:20320000C570C37A058804004772EEB2212B00D1ECE100D96AE1112B00D18CE200D952E1BD
:20322000102B00D164E2C323E3708F4B1D78F02D01D000F012FC924E3468E378982B01D03D
:2032400000F00BFC8D4B20001978FFF7FBFD00233060C370E37AE5702678112B00D15FE37B
:20326000122B01D100F0EFFB102B01D000F0F3FBE37B002B06D130008038C0B2814A2100D5
:20328000FFF792FDE37B012B06D130008038C0B27D4A2100FFF7BCFDE37B022B06D13000C5
:2032A0008038C0B2794A2100FFF7B2FDE37B042B06D130008038C0B2754A2100FFF774FD56
:2032C000E37BFC2B06D130008038C0B2714A2100FFF76AFDE37B0A2B06D130008038C0B23B
:2032E0006D4A2100FFF760FDE37BFD2B15D13F20238830409B0903936B4680261B7B06434D
:203300000593677ABBB2019333021BB20693237A019A934200D37EE26772E37B1E2B06D101
:2033200030008038C0B25D4A2100FFF73DFDE37B0C2B17D11F20304080260643C020258893
:20334000A5216D09EDB2C001FFF732F829005448FFF72EF8677A35023D43237ABB4200D3CB
:20336000C1E26772E37B1C2B21D1AA214D48FEF7D3FF55214C48FEF7CFFF20214948FEF77F
:20338000CBFF30008038494A2100C0B2FFF70CFD802090210002FEF7BFFF8020002100028D
:2033A000FEF7BAFF8020F0210002FEF7B5FFE37B1F2B21D1AA213E48FEF7AEFF55213D487B
:2033C000FEF7AAFF20213A48FEF7A6FF30007038394A2100C0B2FFF7E7FC902090210002C8
:2033E000FEF79AFF902000210002FEF795FF9020F0210002FEF790FFE37B6F2B06D130009D
:203400008038C0B22D4A2100FFF7CEFCF4232288E370A37A9B1823801FE32100FFF712FD7B
:2034200001230135EDB2A542F7D3002B00D0386080223B68DA70D0233370C9E6003000400B
:20344000CCCC000055550000AAAA00000010024000200240006000403CA5FFFF4108000852
:2034600085080008E2040020A00400204C0400203804002060040020740400209C04002045
:203480008C0400209D2900081D2F000839290008D92700086D20000885270008112700085F
:2034A000FFFF0000AA8A0000558500008F260008AA9A00005595000065260008C52600088F
:2034C00000230125AFE7122B00D19EE1202B00D0A9E6C17B0F2900D99BE109012943037A1A
:2034E0008278C9B26068FEF7CFFC8BE0232B00D1FBE000D2F4E0312B00D185E0322B00D005
:2035000091E6C17B0F2900D983E143680901039383780D430193037AE14A0493E14B6DB2CF
:2035200019681E000A431A605A69E9B20902D2B20A435A6102229A619A621A68DA490A4026
:203540001A609022D205002D01DA1021916251690198D64D80002940C0250700AD002F40D5
:203560003943FF2751615A69D14938400A4010435861C046CD4A002305929022AC4606913A
:20358000D205F73F9761C046C046C046C046C046C046C046C046C04631690398090AC15493
:2035A000019997620131C9B2506901918D0005990133084061462940084350617169069855
:2035C000DBB20140FF2005400D43049975619942D8D21021976291616372B64B1B6819885B
:2035E0009A7A52181A80D822DA701EE63C23C17B0A009A4300D00CE1237AA2783143606839
:20360000FEF7A4FC6072E8E7C17B3C230A009A4300D0FEE04368A24A0193837831439C46C8
:20362000037AA14803939F4B1D682A431A605A691F2950D880260E433602D2B232435A6122
:2036400002229A619A621A68C025104018606046902280000600D2055169944FAD002E40B3
:203660003940314351615969914E31400491FF210840049908435861802090629061C04672
:20368000C046C04600210597069604959062C046C046C0461D69019E2D0A75546546013522
:2036A000EDB25669AF00AC46059D2E40049D3D402E4356615D69069E3540FF2637402F43C8
:2036C0005F619061C046C0460131039DC9B28D42DCD2617281E7D2B2090211435961AFE7F5
:2036E000037A8278C17B3143FCE6C17B3F237FE7C37B1E2B0BD1C020AD092233E9B20002D2
:203700009E43FEF755FE237AA2788021EBE71C2B00D062E7A0208121C001FEF749FE8020F7
:20372000ED09E9B20002FEF743FEA0203900C001FEF73EFE51E7C37BFE2B00D04DE76D09BC
:20374000E9B25D48FEF71AFD6368554A0493A37803980193237A019D0593524BAD00196834
:203760000A431F211A605A690E40E03136020A4032435A6102229A619A621A684A494B4EA5
:203780000A401A6090220821D20591614918916290625069B4463040C0262900B600314022
:2037A00008435061FF2259694148154001400D435D61C046902511000690ED050396C0460A
:2037C0001869049A000AD055019801370130C2B20192960062466869FFB21040039A324073
:2037E00010436861069A58690E401040059A06435E61BA42E3D290228023D2059361783B83
:203800009362083393616772E7E6037A8278602169E7C42308E500212848FEF7C9FDAA21AB
:203820002748FFF701F855212648FEF7FDFFA0212348FEF7F9FF6B46187B234B0599C01814
:2038400080B2FEF7B5FD069D63683D43ADB2D95D2800FEF7E9FFC0462800FEF7C1FE049091
:203860002800FEF7BDFE049B8342F4D163680499DA5D164B8A422DD1019A1549013292B20D
:2038800001921A6801370A401A608022D968D2040A43DA6080229201FFB29A6237E5C046D3
:2038A0000000555500040048FFFFAAAAFFFC000003FF00008C040020FF3F000069FD00006F
:2038C00055550000AA2A000069FDFFFF00080048FFFFFFFB80221968D2040A431A6080225C
:2038E00092019A6113E5AA216348FEF761FD55216248FEF75DFDA0215F48FEF759FD63688C
:203900002800D95DFEF754FDC0462800FEF768FE01902800FEF764FE019B8342F4D11CE543
:20392000E37B002B04D1564A21003000FFF770FAE37B012B04D1534A21003000FFF768FA33
:20394000E37B032B04D1504A21003000FFF760FAE37B042B04D14D4A21003000FFF758FA39
:20396000E37B0A2B04D14A4A21003000FFF750FAE37B0B2B04D1474A21003000FFF748FA37
:20398000E37BFE2B00D041E5218843484909C9B2FEF7F4FBAA214148657AFEF769FB5521C3
:2039A0003F48FEF765FB3D482021FEF761FB1F2030400302AFB20393237ABB420DD2657219
:2039C00090210020FEF754FB00210800FEF750FBF0210020FEF74CFB18E5039EA0212E432C
:2039E0003000FEF745FB63683000595DFEF740FBC0463000FEF782FB01903000FEF77EFBAA
:203A0000019B8342F4D1636801995A5D254B8A4210D11A68244901350A4080211A60DA687B
:203A2000C9040A43DA60802201379201EDB2BFB29A62C1E780211A68C9040A431A608022B8
:203A400092019A61B8E730006030184A2100C0B2FFF7DEF9DAE4C323E370154B1B78F02BB2
:203A600001D1FFF78EFB832B01D0FFF78AFBFFF75DF8FFF786FBC04655D50000AAAA0000B5
:203A8000D5220008BD2E00086525000891220008F124000865240008FF3F0000AA0A000047
:203AA0005505000000080048FFFFFFFBB1230008E2040020FFFFFFFFFFFFFFFFFFFFFFFF8E
:203AC000F0B5474680B4061C081C000C102801D5162700E004270007000F8046FF2001409C
:203AE0005468251C1D439C43F60313850AD5C046C046C046C046C046C046C0469480138346
:203B0000958002E0012000F081F801390AD4381C00F07CF8C046948013839580C046C04683
:203B20007600E2E7381C013800F070F8948013839580042000F06AF8108A184001D0FF204A
:203B400061E0C046C046C046C046C046C04694809580108A184055D001200226B04552D060
:203B60000921168A1E40FCD1012000F04FF89480C0469580C04603E0C046C046C046C046C8
:203B8000948095807600108A1840EFF300804000C00F0643381C023800F038F89480958003
:203BA000022000F033F80139EAD513859480012000F02CF813839580301C80210223994058
:203BC0000E401BD1002341085E4149085E4149085E4149085E4149085E4149085E4149089F
:203BE0005E4149085E4149085E41760808D34008FF21084048400002013004E00E2002E08E
:203C0000092000E0002080BCB846F0BD0138FDD17047C04603685A0003D45B005B08C0189E
:203C20007047802212061343F9E7C046F0B557464E46DE464546E0B5814683B092460029C2
:203C400025D04B1E9B46002701935B46FB18DC0FE4184B466410E5005E193000FFF7DAFF6F
:203C6000019B8046A3420BD0280008304844FFF7D1FFD04506D80138504509D2671CE4E786
:203C8000504505D9A74202D0631E9B46DDE70026300003B03CBC90469946A246AB46F0BD94
:203CA000012809D0022805D0002801D0002070470248FCE70248FAE70248F8E795430008D2
:203CC000AD430008A143000830B5234B83B005008C1E002B26D001A9200000E000BF002819
:203CE0001CD001992200FFF7A1FF041E16D0FFF791FF6368A864012B2AD0201D002B23DB95
:203D0000FFF788FF0023E8642B650368002B0FDBFFF780FF2861002003B030BD002309209D
:203D20002B61F9E70D480E49091AC9100191D9E71801000FFFF7B4FF2861431E984108235E
:203D4000404298430930E7E70123E8642B65DCE7002305202B61DFE700000000904C0008BE
:203D6000604D0008036810B50400DA0705D448309B070ED500F06CFC23685A070ED51A075B
:203D800013D5DB0604D42000D130FF3000F06CFC10BD00F059FC23685A07F0D42000D030F8
:203DA00000F05AFC23681A07EBD420005130FF3000F056FC2368E4E70368002B00D01B1851
:203DC00018007047092070477047C04670B504000D0008E02B6C2A00636121000120236906
:203DE0009847082807D1296C2000FFF76DFF0028F0D000F083FE0728FBD10020296CFFF7C6
:203E0000E3FF281D00F00AFCF0B5CE46474680B5C3682E4C9846A544836906001400043163
:203E2000402205A8994600F071FE002304AD049323E0F0222B6C5200736129007CA800F0BB
:203E400065FE7CAA31003369200098478A9B07006B6403934B46009501933200330021003C
:203E60000120C04700281FD1F0227CA95200280000F04CFE0024082F1FD1296C3000FFF711
:203E800023FF611E8C41070009340028D1D0AB6B10216B644B46214301930095330032000E
:203EA0000120C047002800D009273800F5239B009D440CBC90469946F0BD072FF4D12000A1
:203EC000296CFFF781FF05A800F0A8FB2CFCFFFF406C704770B5CB6BFAB00B6404000E0088
:203EE0004022043103A800F011FE01235B42029306E002AA210023699847050008280AD1FD
:203F0000129B200019000193FFF7DEFE0028F0D009207AB070BD02A8FFF724FF062DF7D12F
:203F200031002000FFF752FF10B58261DA6BC1601A6419000022FFF767FF10BD436970B528
:203F40000B64C36804000D00002B15D10A002369010002209847072807D0082803D12900DA
:203F60002000FFF733FF00F0C9FD0020296CFFF72BFF281D00F052FB0122FFF745FF00F09F
:203F8000BDFDC046C36810B5002B05D0CB6B00220B64FFF739FF10BDFFF79CFFFBE7C04636
:203FA0007047C046836810B5002B02D001000120984710BD012906D0002906D0033902206C
:203FC000012900D970470120FCE7002B08D10F2A06D8920082185268009B00201A60F1E715
:203FE0000220EFE700B585B003AB0A00009300210023FFF7DFFF039805B000BD012906D06F
:020000040800F2
:20400000002906D003390220012900D970470120FCE7002B08D10F2A06D8009B92001B68BA
:20402000821853600020F1E70220EFE700B585B003AB039200930A0000230021FFF7DEFF62
:2040400005B000BD70B51A4CD36BA544136406000D0019A8111D402200F058FD01235B425B
:20406000189314E00C2118A802AAFFF7DFFF290018A8B047002812D1069B18AA02A9083003
:2040800001939847040005280AD0092807D0289B02A819000193FFF717FE0028E2D009246E
:2040A00018A8FFF75FFE200090239B009D4470BDC0FDFFFFF0B5DE4657464E464546E0B59C
:2040C000160003220D0011008BB01F000193EB6C01401C1D009107A91B688B460894002F68
:2040E0006BD01A0C1B045946079302230B72FD3313409B004A72E418009B022B00D1AC6BDF
:204100002B6DDB0747D4002305930833034002932768002F00D112E1019B022B49D06388ED
:20412000278898460434012340469A469843AB6C0F21994681443000FFF754FF002181450A
:2041400006D8390053469943494488428941494243465A0002231340012217403B43012BA8
:204160003AD0002B30D0022B1BD12368009A5F007F08002A67D1002906D0029A002A00D1EE
:204180007CE0002F00D1A9E0002B00DA04340137BF00E419BCE75946300000F00BFB002879
:2041A00010D009200BB03CBC90469946A246AB46F0BD636808349846B5E71B0207935B462F
:2041C0001A8199E70820EDE7009B002B02D0002900D08DE004349BE7009B002B1AD1002936
:2041E00016D02368DF0F63689A1CDAD02A0058320692013300D1BDE0201DFFF7DDFD06AB89
:2042000001003A00280000E000BF002800D082E008347DE70D2130002F6AFFF7E3FE87420B
:20422000F6D1AB6A9C42F3D12000FFF7F3FC0F2102003000FFF7FAFE30002A000021FFF73A
:20424000F5FE0720AEE72B6A0D2130009846FFF7C9FE804501D0236896E7AB6A9C42FAD1C5
:204260000023EB6204332B63231DAF626B632368002B00DA86E00123059388E7002F2DD09D
:2042800058239C46AC4463460393231D99460023984606AB220004933B004C464746B246B6
:2042A00098462E00914603E004342F00454542D0039B20000693FFF77FFD049B01000022AA
:2042C00030007D1C00E000BF0028EDD04346B84635004C4656461F009845BCD10D213000C0
:2042E000FFF780FE069B28626B62AC62062059E72000FFF78FFC04340700AC63280000E0E7
:2043000000BF002800D14CE730003A000F21FFF78DFE072046E707000D213000FFF762FE88
:204320002862022F2BD1069BEB622B002C336B62AC62062036E735004C465646CEE7594679
:20434000300000F037FA002800D02AE7059B002B00D137E70F213000FFF744FE0E21020080
:204360003000FFF763FE3000094A0F21FFF75EFE072017E70D213000FFF734FE2862069BDB
:204380006B62D5E738000130800020184DE7C0460000000010B50023FFF78CFE10BDC046FE
:2043A00010B50123FFF786FE10BDC04610B50223FFF780FE10BDC046F0B5CE46474680B51B
:2043C0000500C3B014001E00012955D000294BD0032922D0042949D1002B47D1102A45D8A1
:2043E000102203681A4200D0F1E020AF380000F03DF900230120A96B02009A40144203D099
:204400000E689A00BE5004310133042BF4D13800A96300F029F9002029E0032B26D1140465
:20442000230C160C9846F318102B1FD8082203681A4200D098E020AF380000F013F942464C
:20444000AB6BF6001C00002A08D0D400F21A1C19BA181968D15004339C42FAD1AC63380082
:2044600000F0FEF8002002E0002B24D0022043B00CBC90469946F0BD130C14049846240CB1
:20448000012E2ED0052EF1D11B19202BEED842460F2A70D9A146002C7ED1AA6B4346AA639E
:2044A0000F2B00D89AE04B46002BDBD0684600F0D3F80020DBE700231004A96B000C013630
:2044C00032009A40104204D00F689A00AA18576004310133102BF3D10020A304C7D4A9634A
:2044E000C5E71B19102BC1D843460F2BBED82B681E4206D00322280093432B60483000F0D0
:20450000A5F820AF380000F0A1F8AA6B002C24D04346DB00FF180023994664000023A40091
:20452000D158F95004339C42FAD14B4612196F46002B0FD04046102800D210204B46D90084
:2045400000231038C0003818D458C45004339942FAD15218012EA1D120AF04323800AA636E
:2045600000F072F8002082E7934303605130FF3000F078F85FE7102B3BD9102252429146DD
:2045800099442B68194208D0022228008B4313432B60483000F05EF82B6804221A4221D1B8
:2045A00043460F2B03D820AF380000F053F86F46380000F053F810244346AA6BE41A002CF7
:2045C000B8DD434620AFDB006400FF18A6E793430360D130FF3000F049F806E720A800F0CC
:2045E00037F860E7280093432B60D03000F036F8D6E72B680B4207D0022228008B431343BA
:204600002B60483000F026F820AF380000F022F8A146AA6B002C00D07AE73FE7011C343177
:2046200038C9043B9C461D60A646011C20313CC990469946A246AB46011C0831FCC941682A
:204640000068E54600BDC0467047C0467047C0467047C0467047C0467047C0467047C04696
:204660007047C0467047C0467047C0467047C04601B401A801B585B0FFB408A841464A4683
:2046800053465C4665463EC001A83EC80F98009000230CB401A9FFF71DFC109B12B01847E8
:2046A00001B401A801B585B0FFB408A841464A4653465C4665463EC001A83EC80F9800906D
:2046C00000230CB401A9FFF739FC109B12B0184701B401A801B585B0FFB408A841464A4693
:2046E00053465C4665463EC001A83EC80F98009000230CB401A9FFF745FC109B12B0184760
:2047000001B401A801B585B0FFB408A841464A4653465C4665463EC001A83EC80F9800900C
:2047200000230CB401ABFFF7FFFB109B12B0184701B401A801B585B0FFB408A841464A466B
:2047400053465C4665463EC001A83EC80F98009000230CB401AAFFF775FC109B12B01847CE
:20476000027A0300002A0BD1427A002A0FD0013A42724268111D416003211268017202E094
:20478000013A02720268100E12021A607047B020FCE7C04600B585B003AB00930C22002368
:2047A0000021FFF707FC039805B000BD10B5FFF7F1FF10BDF0B557464E464546DE460023B2
:2047C000E0B587B003930F339846083B994680231B0306000F009A463800FFF7C1FF04008D
:2047E000B02800D1C3E003062AD5030042469343DBB2802B00D171E0902B3DD0A02B00D146
:2048000085E0B02B50D0C02B00D196E003004A469343DBB2D02B0AD15346024001321A43CF
:20482000052301213000FFF7C7FD0028D4D00924200007B03CBC90469946A246AB46F0BD41
:20484000FF23820013401D1D05AB9B4600930D22002300213000FFF7ADFB630620D4059BC5
:204860009C46654405955B460D220093002100233000FFF7C3FBAFE7833B03400D2BD6D013
:2048800005AD02400095002300213000FFF792FB009500230D2200213000FFF7AFFB9BE73E
:2048A000059B5D1B0595DEE7B12874D0B22800D1CFE0B32800D184E0FC230340B42BB6D033
:2048C0004A465346024001321A43012101233000FFF772FD002800D17EE7A8E704023800D7
:2048E000FFF73EFF802520432D02A8429FD004010005020C002300213000FFF75DFD0028F1
:2049000095D12C4200D167E70123039364E7FF234A461B011900824311410A001A40030733
:2049200002D58023DB011A43002300213000FFF743FD002800D14FE779E7C6284CD0C72892
:204940005ED003004A469343DBB2C02B6DD0C82872D0C92800D06AE73800FFF701FFF02386
:2049600002031B03134042460240013257E7039B0024002B00D05BE705AD00950E220021EF
:204980003000FFF717FB009500230F2200213000FFF734FB4CE73800FFF7E2FE002800D146
:2049A00045E7030042469343DBB2002B00D03EE7020000213000FFF7FFFC002800D10BE78E
:2049C00035E73800FFF7CCFEF02302031B03134042460240013277E73800FFF7C1FEF023DF
:2049E00002031B0313404246024001321A43032303213000FFF7E0FC002800D1ECE616E7D3
:204A00003800FFF7ADFE021E00D110E7030041468B43DBB2002B00D009E704213000FFF7BA
:204A2000CBFC002800D1D7E601E74346A0221C40013412032243DAE73800FFF791FE4346B4
:204A400002009A43D2B210321840120301300243E6E605AB00939B460D220023002130003B
:204A6000FFF7A8FA3800FFF77BFE030618D57F25B03C059B2840A0409C4660440590380036
:204A80000734FFF76DFE0306F3D481217F23890003408C46A340059A62449B180593E2E68D
:204AA0000224F2E7030000B5DB6C85B05A680800120201921A0001A908324A6003220A7209
:204AC000DB794B72FFF776FE05B000BD10B5FFF76DFE806C10BDC04610B5FFF767FEC26CB6
:204AE000D3799B000833D01810BDC04610B500F005F8C04610B5FFF7F9FFC04610B506207D
:204B000000F076F8012000F0A5F8C046F0B50F2A37D90D0005430C000300AD0735D1150062
:204B2000103D2D092E013618103627681F6067685F60A7689F60E7681034DF601033B3427B
:204B4000F3D10F2401352D01491914404519032C1DD90023CE58EE500433E61A032EF9D801
:204B60000323043CA4080134A4001A402D190919002A05D00023CC5CEC5401339342FAD12A
:204B8000F0BD0500002AF5D1FAE70500F2E72200F8E7C04670B505000C001F2922D8B7235B
:204BA0009B00C358002B0ED08A009B181A68002A09D0012A10D0511C10D000212000196062
:204BC0009047002070BD280000F030F822000100280000F017F8F5E70020F3E716230360B5
:204BE0000120EFE71623036001204042EAE7C04610B5034B01001868FFF7CCFF10BDC04680
:204C000000000020002370B5074C050008001100236000F017F8431C00D070BD2368002B27
:204C2000FBD02B60F9E7C0461007002010B500F001F810BD58220120014B40421A607047EC
:204C40001007002058220120014B40421A60704710070020FEE7C046F8B5C046F8B5C046FB
:204C600074B20181B0AB308000000000800A0181B0B0ABF0000000003F020181B0AB3080AC
:204C80000000000080060181B0B0ABF00000000030EEFF7FB0B0B0807CEFFF7F01000000FB
:204CA00028F0FF7FB0A90280BCF0FF7FB0B0A88008F1FF7F0100000014F1FF7FB0B0AA804C
:204CC00048F1FF7F9CFFFF7F08F2FF7F0100000004F2FF7FAA3F398050F2FF7FB0B0A8802D
:204CE0005CF2FF7FB0B0AA809CF2FF7FB0B0A880B0F2FF7F01000000ACF2FF7FB0B0A88005
:204D0000B4F2FF7F010000003CF3FF7FAA0FB280A4F3FF7F58FFFF7F7CF6FF7FB0B0A88074
:204D200098F6FF7F54FFFF7FF4F8FF7F0100000064FAFF7F0084048074FAFF7FB0B0A880D3
:204D400074FAFF7F40FFFF7F5CFDFF7F008404807CFDFF7FB0B0A88094FDFF7F010000003C
:204D6000080000200000000000000000F40200205C030020C403002000000000000000008F
:204D8000000000000000000000000000000000000000000000000000000000000000000013
:204DA0000000000000000000000000000000000000000000000000000000000000000000F3
:204DC0000000000000000000000000000000000000000000000000000000000000000000D3
:204DE0000000000000000000000000000000000000000000000000000000000000000000B3
:204E00000000000000000000000000000000000001000000000000000E33CDAB34126DE63F
:204E2000ECDE05000B00000000000000000000000000000000000000000000000000000098
:204E4000000000000000000000000000000000000000000000000000000000000000000052
:204E6000000000000000000000000000000000000000000000000000000000000000000032
:204E8000000000000000000000000000000000000000000000000000000000000000000012
:204EA0000000000000000000000000000000000000000000000000000000000000000000F2
:204EC0000000000000000000000000000000000000000000000000000000000000000000D2
:204EE0000000000000000000000000000000000000000000000000000000000000000000B2
:204F0000000000000000000000000000000000000000000000000000000000000000000091
:204F2000000000000000000000000000000000000000000000000000000000000000000071
:204F4000000000000000000000000000000000000000000000000000000000000000000051
:204F6000000000000000000000000000000000000000000000000000000000000000000031
:204F8000000000000000000000000000000000000000000000000000000000000000000011
:204FA0000000000000000000000000000000000000000000000000000000000000000000F1
:204FC0000000000000000000000000000000000000000000000000000000000000000000D1
:204FE0000000000000000000000000000000000000000000000000000000000000000000B1
:20500000000000000000000000000000000000000000000000000000000000000000000090
:20502000000000000000000000000000000000000000000000000000000000000000000070
:20504000000000000000000000000000000000000000000000000000000000000000000050
:20506000000000000000000000000000000000000000000000000000000000000000000030
:20508000000000000000000000000000000000000000000000000000000000000000000010
:2050A0000000000000000000000000000000000000000000000000000000000000000000F0
:2050C0000000000000000000000000000000000000000000000000000000000000000000D0
:2050E0000000000000000000000000000000000000000000000000000000000000000000B0
:2051000000000000000000000000000000000000000000000000000000000000000000008F
:2051200000000000000000000000000000000000000000000000000000000000000000006F
:2051400000000000000000000000000000000000000000000000000000000000000000004F
:2051600000000000000000000000000000000000000000000000000000000000000000002F
:10518000000000000000000000000000000000001F
:00000001FF
