:020000040800F2
:10000000001800200508000835050008390500081B
:1000100000000000000000000000000000000000E0
:10002000000000000000000000000000350500088E
:10003000000000000000000035050008350500083C
:1000400035050008350500083505000835050008A8
:100050003505000835050008350500083505000898
:100060003505000835050008350500083505000888
:100070003505000835050008350500083505000878
:100080003505000835050008350500083505000868
:100090003505000835050008350500083505000858
:1000A0003505000835050008350500083505000848
:1000B00035050008350500083505000899010008D8
:1000C000284B10B51A88284B12041B881A43274B5B
:1000D000198849084900885A254908801988023139
:1000E00089B21980198849084900885A214908802D
:1000F0001988023189B21980198849084900885A3B
:100100001D49088019881D48023189B21980198853
:1001100049084900895A1A4A11801A881949023235
:1001200092B21A801C880288944213D902881C88D3
:100130000832121B92B20A80028892B21A801249C7
:10014000124B0A881343124A1A40302353409BB281
:100150000B8010BD0F4804881A889442E6D3082308
:100160000B80ECE70C6000400A6000400460004037
:100170004C6000404E600040506000400260004013
:10018000526000401A600040005C00408080FFFF29
:10019000BF8FFFFF006000409449F8B50B88944C76
:1001A000002B3AD00A88934B9A4234D1002302257F
:1001B000914A924F1380924A1380924A1380924A36
:1001C0001380924A1380924AD08FA843D087D08F51
:1001D000013DA843D0878F481735FB8705808E489F
:1001E000343505808D480835058080258C486D01A3
:1001F000058080258B4805808020FB878A4B000680
:1002000023808A4B18608023D08FDB000343D38781
:10021000874B884A1A8000230B8023881BB2002B4F
:1002200000DBC4E02388844A774F134080221343C5
:10023000238023881B0500D49CE0804D7F232A78EF
:1002400011009943714B1980E9886B4B198000218B
:100250006C4B19803B88FF318B4313433B806023F9
:100260001A4208D08022764B12051B8828009B1862
:100270009847634B188060232A78134052B2002AB3
:100280004DDA002B14D16A78062A0FD16A88110A38
:1002900002291AD003291BD0012920D1694B12262B
:1002A000694A99B21180694A1B0C1380544B1E8015
:1002B0002288674B1343674A1A40C0239B0153406F
:1002C0009BB22380FFF7FCFE47E05E4B1233E6E76C
:1002D000D2B2012A0FD0002A03D0022A15D01E0064
:1002E000E4E7584B584A243399B21180574A1B0C03
:1002F00013800426DAE7534B534A283399B211800E
:10030000524A1B0C1380544ED0E74E4B4E4A7C335E
:1003100099B211804D4A1B0C1380504EC6E7002B3A
:1003200009D16B78052B06D13A886B88D2B21B02B3
:1003300013439BB23B8000212388494A1340494A1A
:1003400013439BB22380484B198023881A43474BA1
:100350001A40474B5A4092B22280284BDB8F5B05F4
:1003600007D580222F4B1A800023244AD3872E4B97
:100370002380F8BD60213B880B40402BEDD13B88AA
:100380001342EAD1264A3B4B2C481B881188802215
:1003900012059B18C9B298472288324B13432D4A45
:1003A0001A40C0239B0153409BB22380D5E7802293
:1003B00023881342D1D023882F490B408021090282
:1003C0000B432380114B1B88934200D17AE7FF2017
:1003D0000D4B19888143C0D01988090A0A43114975
:1003E0000A801A8802401A80B7E7C0460E600040B3
:1003F000005C00403CA5000000600040065C00403E
:100400000260004004600040066000400860004058
:10041000025C0040505C0040186000401C600040DE
:100420001E6000404C5C00402032000000E100E013
:10043000585C00400080FFFF8F0F000054600040B8
:10044000106000407C0400080A6000400C6000401E
:100450008081FFFF8FBFFFFF2A0300001E03000003
:100460008F8EFFFF8080FFFF1A600040BFBFFFFF3D
:1004700030300000126000400F8FFFFF12010002B9
:10048000FF000008C016DC0503020102000109029A
:100490001200010100803209040000000000000089
:1004A000040309042A0349006E00660069006E0017
:1004B0006900740065004E00650073004C0069001F
:1004C0007600650073002E0063006F006D00000071
:1004D000000000000000000000000000000000001C
:1004E000000000000000000000000000000000000C
:1004F00000000000000000001E0349004E004C00F8
:10050000200052006500740072006F002D00500042
:1005100072006F0067000000000000000000000093
:1005200000000000000000000000000000000000CB
:1005300000000000FEE7FFFF004801E02301ADDE00
:10054000FEE7C04602B4714649084900095C49000B
:100550008E4402BC7047C046411D000000616561C9
:1005600062690001130000000536532D4D00060C92
:10057000074D09011901FFFF03B471464908400006
:100580004900095A49008E4403BC7047411D0000D0
:100590000061656162690001130000000536532D9A
:1005A0004D00060C074D09011901FFFF70470A4B6A
:1005B0000A4A10B55A600A4A5A600122DC6814429D
:1005C000FCD11A6101220180D9681142FCD120229C
:1005D000DA6060321A6110BD0020024023016745D5
:1005E000AB89EFCDFF2370B53F4D2B804378C68894
:1005F000102B00D075E0C478818880783B4B01389F
:100600005A69082800D968E0FFF79CFF0567672B47
:100610003D314B5363008A1E8E241D2A19D8344A5B
:100620005A60344A5A600122D8681042FCD1022232
:100630001A618022890212058918422259611A61C1
:10064000C046413ADC681440FCD12022DA606032B6
:100650001A612C70284BAAB22D0CF0B25A819D81E0
:1006600070BD60001018FFF7A2FF0024F1E7002C16
:1006700035D10BB2002B32DB80231B05C8181F4974
:10068000FFF795FFE5E704226A705A69AA705A6974
:10069000120AEA705A69120C2A715B691B0E6B719F
:1006A000E3E702236B701388AB7013881B0AEB70AF
:1006B000DBE7002C13D10BB2002B10DB80231B05D2
:1006C000C91802236B700B88AB700B881B0AEB7088
:1006D000BFE70B4B0B4ADA60C7E78B24B9E78E24E0
:1006E000B7E780232B70B5E7F40600200020024016
:1006F00023016745AB89EFCD00600040FFFF00009C
:1007000000ED00E00400FA05FFFFFFFFFFFFFFFF21
:10071000FFFFFFFFFFFFFFFFFFFFFFFFFFFFFFFFE9
:10072000FFFFFFFFFFFFFFFFFFFFFFFFFFFFFFFFD9
:10073000FFFFFFFFFFFFFFFFFFFFFFFFFFFFFFFFC9
:10074000FFFFFFFFFFFFFFFFFFFFFFFFFFFFFFFFB9
:10075000FFFFFFFFFFFFFFFFFFFFFFFFFFFFFFFFA9
:10076000FFFFFFFFFFFFFFFFFFFFFFFFFFFFFFFF99
:10077000164B174A9BB21382164B9BB253826846A4
:100780001C300F4A0F4B0430043001681140C91A65
:10079000FAD1094A094B043801681140C91AF2D14B
:1007A0007B460A3303600438013303600CE00A4BD4
:1007B0000A4A1A60FBE7C0460000FFFF000000087D
:1007C000FFFFFF0F0000000100207047E505000853
:1007D00000600040AD05000800300040AAAA0000FB
:1007E000FFFFFFFFFFFFFFFFFFFFFFFFFFFFFFFF19
:1007F000FFFFFFFFFFFFFFFFFFFFFFFFFFFFFFFF09
:10080000FFFFFFFF09490A4A0A4B9B1A03DD043B1D
:10081000C858D050FBDC0849084A0020521A02DDB3
:10082000043A8850FCDC02F039FB0000B04A0008B2
:1008300000000020300400203004002014070020B5
:1008400070B50E4B1A68537A55685C18E4B2A3422F
:100850000ED1537A0A48CB1853720378591AC9B289
:1008600001700020814202D198230130D37070BD05
:1008700006780130EE540133DBB2E8E79004002043
:1008800095040020FF23F7B5C04C0700238083792F
:10089000009340780138102801D901F060FAFFF781
:1008A0006BFE1100BA04EF055E0A08095E0A4A0AE7
:1008B0009F0726088F08E9085E0A5E0A5E0A5E0A3C
:1008C0005E0AEC08B878BB8819281BD8FFF754FEDD
:1008D0001E002600EC00B7015F02D1024E03D603D2
:1008E000E703F203F9030004080410043804470482
:1008F000550464048B048B048B041A001A001A003C
:10090000490254028C23237000F0FBFCE023A04A30
:100910001B0351690B4353610023F4E7152B01D9E5
:1009200000F064FC1800FFF727FE160021002E00DF
:100930003B00480055005F006C00760081008D0090
:100940009A00610461046104610461046104A70008
:1009500061046104B40090234022DB0519689143CF
:100960001960D9680A43DA600023CCE79023DB05DD
:100970001A6888490A401A608022D96852000A43DE
:10098000DA600023BFE79023DB051A6882490A403A
:100990001A608022D968D2000A43DA600023B2E7E5
:1009A0009023DB051A687D490A401A608022D968C5
:1009B00052010A43DA600023A5E79023DB051A6899
:1009C00077490A401A608022D968D2010A43DA6066
:1009D000002398E70122734B196891431960D96885
:1009E0000A43DA6000238EE79023DB051A686E491C
:1009F0000A401A608022D96852030A43DA60002351
:100A000081E70422674B196891431960D9680A434A
:100A1000DA60002377E790230122DB051968914310
:100A20001960D9680A43DA6000236CE75F4B6049BC
:100A30001A680A401A608022D968D2040A43DA6030
:100A4000002360E79023DB051A685A490A401A60C0
:100A50008022D968D2050A43DA60002353E7902345
:100A6000DB051A6852490A401A608022D968D2040C
:100A70000A43DA60002346E79023DB051A684E49F3
:100A80000A401A608022D96852050A43DA600023BE
:100A900039E790230122DB05196891431960D96871
:100AA0000A43DA6000232EE7152B00D9A1E31800D2
:100AB000FFF762FD160021002C00370042004D00B8
:100AC0005700620084008F009900A4009F039F03D9
:100AD0009F039F039F039F03AF009F039F03BA00E1
:100AE00090234021DB051A688A431A60DA688A433A
:100AF000DA60002307E79023DB05196825480140E9
:100B00001960DA680240DA600023FCE69023DB0516
:100B10001968214801401960DA680240DA60002350
:100B2000F1E69023DB0519681C4801401960DA687A
:100B30000240DA600023E6E69023DB0519681848D6
:100B400001401960DA680240DA600023DBE6012127
:100B5000144B1A688A431A60DA688A43DA60002301
:100B6000D1E69023DB0519680F4801401960DA6867
:100B70000240DA600023C6E604210A4B1A688A4361
:100B80001A60DA688A43DA600023BCE6FC060020BB
:100B900000100240FFFEFFFFFFFBFFFFFFEFFFFF24
:100BA000FFBFFFFF00040048FFFFEFFF0008004801
:100BB000FFFFFFFBFFFFFFBFFFFFFFEF90230121C0
:100BC000DB051A688A431A60DA688A43DA60002310
:100BD00099E6C24BC248196801401960DA680240C0
:100BE000DA6000238FE69023DB051968BD480140D9
:100BF0001960DA680240DA60002384E69023DB059E
:100C00001968B74801401960DA680240DA600023C9
:100C100079E69023DB051968B34801401960DA686A
:100C20000240DA6000236EE690230121DB051A689A
:100C30008A431A60DA688A43DA60002363E6152B78
:100C400000D9D9E21800FFF797FC16001E00270014
:100C5000300039004200490052005900610069002B
:100C60007200D702D702D702D702D702D7027B0081
:100C7000D702D702840090224023D20511680B438B
:100C8000136000233FE690228023D20511685B00A9
:100C90000B431360002336E690228023D2051168AF
:100CA000DB000B43136000232DE690228023D20546
:100CB00011685B010B431360002324E6902280231C
:100CC000D2051168DB010B43136000231BE60123EF
:100CD000864A11680B431360002314E69022802398
:100CE000D20511685B030B43136000230BE604235A
:100CF0007E4A11680B431360002304E6902201230F
:100D0000D20511680B4313600023FCE58023734A6E
:100D1000DB0411680B4313600023F4E59022802369
:100D2000D2051168DB050B4313600023EBE590222D
:100D30008023D2051168DB040B4313600023E2E536
:100D400090228023D20511685B050B4313600023BA
:100D5000D9E590220123D20511680B4313600023CB
:100D6000D1E5082B00D04AE29022D2055168073B1A
:100D70000B4353600023C6E5082B00D042E29022CB
:100D80000121D20553688B4353600023BBE5152B2B
:100D900000D93AE21800FFF7EFFB16001C00220012
:100DA00028002E0034003900400045004B0051005F
:100DB00058003802380238023802380238025F0020
:100DC00038023802660090230822DB059A6200236D
:100DD00099E590231022DB059A62002393E5902386
:100DE0002022DB059A6200238DE590234022DB055B
:100DF0009A62002387E590238022DB059A62002314
:100E000081E50122394B9A6200237CE59023802200
:100E1000DB05D2009A62002375E50222334B9A6209
:100E2000002370E590230122DB059A6200236AE526
:100E300080222A4B92019A62002364E5902380224B
:100E4000DB0512029A6200235DE590238022DB0518
:100E500092019A62002356E590238022DB05D2019D
:100E60009A6200234FE590230122DB059A6200235A
:100E700049E5152B00D9CBE11800FFF77DFB1600E3
:100E80001C002200280039003F0044004B005000A5
:100E900056005C006300C901C901C901C901C9014B
:100EA000C9016A00C901C901710090230822DB054C
:100EB0009A61002327E590231022DB059A61002325
:100EC00021E590232022DB059A6100231BE5902376
:100ED0004022DB059A61002315E5C0460008004862
:100EE000FFFFFFFBFFFFFFBFFFFFFFEF0004004816
:100EF00090238022DB059A61002304E50122CC4B7C
:100F00009A610023FFE490238022DB05D2009A61DE
:100F10000023F8E40222C64B9A610023F3E49023F5
:100F20000122DB059A610023EDE48022C14B92018E
:100F30009A610023E7E490238022DB0512029A6184
:100F40000023E0E490238022DB0592019A610023D4
:100F5000D9E490238022DB05D2019A610023D2E4F8
:100F600090230122DB059A610023CCE40222627007
:100F7000152B00D97EE01800FFF7E4FA0B131B23B2
:100F80002B333A434A525A627C7C7C7C7C7C6B7C5F
:100F90007C7490230822DB051B69134063800023C7
:100FA000B1E490231022DB051B691340638000230A
:100FB000A9E490232022DB051B69134063800023F2
:100FC000A1E490234022DB051B69134063800023CA
:100FD00099E490238022DB051B6913406380002382
:100FE00091E40122924B1B691340638000238AE441
:100FF00090238022DB051B69D2001340638000230D
:1010000081E402228A4B1B691340638000237AE447
:1010100090230122DB051B6913406380002372E4E7
:101020008022844B92011B691340638000236AE491
:101030009023DB051B69DB0BDB036380002362E489
:1010400090238022DB051B699201134063800023FB
:1010500059E490238022DB051B69D2011340638091
:10106000002350E490230122DB051B6913406380B9
:10107000002348E4002363708D3344E480236E4AE8
:10108000DB0251690B435361694B6C491A680A4092
:101090001A60D9686A4A0A43DA60002333E4644B71
:1010A00066491A680A401A60D968654A0A43DA60D4
:1010B000002328E45E4A614913680B401360002353
:1010C00021E45B4A5E4B11680B43136000231AE472
:1010D00057491B024A69D2B213434B61002312E401
:1010E000534B1B691B0AA3700123637000230AE49E
:1010F0008023514ADB02516950480B4353614C4BEA
:10110000196801401960D8684D490143D960C02170
:101110005069C90201435161042219680A431A60E7
:10112000022290219A62A022C9050868D2020243D5
:101130000A601968434A0A431A600023FFF7E3FB79
:101140009022A023D205D168DB020B43D360384A3A
:101150003C4BD1680B43D3600023FFF7D4FB9022B4
:10116000D205136838490B401360314A3749136878
:101170000B4013600023FFF7C6FB9022A023D2058B
:101180001168DB020B431360294A2E4B11680B4395
:1011900013600023FFF7B7FB9020C00542692C497C
:1011A0009D000A40C021890029400A434261204A2B
:1011B000284851691B0A0140FF200540294351611D
:1011C00015681F491B0229431160516908400343F8
:1011D0005361022393619362136818490B401360B3
:1011E0000023FFF790FB0023FFF78DFB8D23FFF714
:1011F0008AFB8D23FFF787FB8D23FFF784FB8D236D
:10120000FFF781FB8D23FFF77EFB8D23FFF77BFB31
:101210008D23FFF778FBBD78BB88032D00D1E1E07B
:101220001AD8002D67D0012D00D171E0962566E017
:10123000000400480008004800100240FFFFAAAA6E
:101240000000555550550000FFFFFAFFAFAAFFFF01
:10125000FFFC000003FF0000042D00D102E1802DFF
:10126000E4D190230122DB0562709A621968114370
:101270001960C04618691968104091431960D9680F
:101280009143D960F021002832D119689143196047
:10129000D9681143D9601F691E69C0461D69C046DF
:1012A000C0461C69C046C046C04619698C46C04647
:1012B000C046C046C046196901911968914319603A
:1012C000D9689143D9600100174211D1110016422B
:1012D0000ED1023115420BD10331144208D16346BD
:1012E0000431134204D1019BD631DB0700D5D1393B
:1012F000C84B997074E0C84A137001F05BFBC54C91
:101300002570C64BA2B2240C5A8100989C81FEBD68
:1013100001F050FB90228023D20511685B000B4343
:10132000136010239361116830330B43136008235B
:10133000936280231168DB000B43136020239361C9
:1013400080231168DB010B43136080239361B44B4E
:10135000B4481968B44C294319609D6180254169DE
:10136000ED0229434161196821401960DE68AF49E7
:101370000E43DE601E6826401E60DE680E43DE609F
:101380004669354345611D6825401D60DD680D4394
:10139000DD60C0254669ED023543456104201D68C6
:1013A000284318600220A02598621668ED02354394
:1013B00015601E689E4D35431D6055699D4E354034
:1013C00055615A699C4D2A405A611A681143196047
:1013D0005A69D2B25A61986198621A6814401C60C6
:1013E00000258CE7DBB2022B23D00025032B00D194
:1013F00085E79735012B00D081E7C023894ADB02BE
:10140000516904200B4353611022854B19689143A5
:101410001960D9681143D9605968014359609861CE
:1014200019680A4302211A60844A1170844A1360C1
:10143000D6E7E0237B4A1B0351690B43536190239A
:101440000122DB05196891431960D9681143D960FD
:101450005968114359609A6119680A431A60082152
:10146000764AE2E7DBB29825012B00D047E7E0237C
:101470006C4A1B0351690B43536101F01FFAAFE73C
:10148000BE78F978BD880E2E00D128E130D8072E1D
:1014900000D130E116D8022E00D1B6E007D8002ED8
:1014A00000D1A3E0012E00D1ABE0A026A1E0052EE3
:1014B00000D106E100D99FE0042EF6D1280001F00A
:1014C000D3FB9CE00A2E00D105E108D8082E00D1FC
:1014D00015E1092EE9D1280001F048F98FE00C2E22
:1014E00000D114E100D802E1280001F00DF986E0F6
:1014F000222E00D1A8E017D8112E00D103E108D880
:101500000F2E00D1EFE0102ECFD1280001F022F8ED
:1015100075E0202E00D1D8E000D9D9E0122EC4D138
:10152000280000F0DDFF6AE0822E00D144E14ED8B1
:10153000802E00D1EFE000D937E1232EB5D1414B09
:101540009D4202D880231B021D43902700F00AFD14
:101550006B1CFF339BB20193FF057A693549AB00E1
:101560000A40C021890019402D4C0A437A61626902
:10157000314900020A40FF210B401A436261226890
:101580002A4B1A43226066692A0A0E40120232432D
:1015900062610222A261A2622268234E324022606E
:1015A00022681343236063690B4018436061C0469F
:1015B0000123A36200F0D6FC01230135A361019B46
:1015C000ADB29D42C9D123681E40266017E0852E2A
:1015D00000D1F7E0862E00D1FAE0842E00D064E737
:1015E00001232800637000F01BFDE3E0280001F0F8
:1015F00045F8084C267084E6280000F0FDFF002620
:10160000F7E7280000F04CFDF9E7280000F016FE8F
:10161000F5E7C046FC0600200407002000600040FB
:101620000004004800100240FFFFAAAA0000555520
:1016300050550000FFFC000003FF00000C070020D5
:1016400008070020FF1F00009022D2055369CD4CEF
:10165000A8002340C024A400044023435361CA4B84
:10166000CA4E5C6909023440FF26304004435C6185
:101670001C68C74804431C605F692C0A3740240279
:101680003C435C6102249C619C621F68C14C2DB28A
:1016900027401F60202797621F68384318605869E9
:1016A000304001435961002D01DA10219162C0469A
:1016B000C04610219161491891611A6814401C605C
:1016C0009DE7280000F066FC99E7B34B1D7096E794
:1016D000B24B1D8093E7280000F08EFD8FE72800B5
:1016E00001F004FB8BE7280001F0D0FA87E728001F
:1016F00000F074FE83E7280000F056FF7FE7280023
:1017000000F058FD7BE7280000F02EFE77E7280068
:1017100000F0E8FD73E7012190226170D2051368A3
:1017200008208B431360D36810248B43D36020239D
:1017300090629461936153699249AE000B40C0215D
:10174000890031400B4353618F4B90495F693940A9
:10175000FF273E400E435E611E688D49314319608C
:10176000290A81405E6937400F4302215F61996118
:1017700099621968874E31401960C046C0462DB243
:101780009061002D00DA9462C046C046C046C04653
:10179000C046C04690220821D2051B6991624918B3
:1017A00091617F4A1B0A937029E701232800637027
:1017B00000F052FEA07022E701232800637000F0C1
:1017C000B7FCF7E701236370734B1B78A37016E730
:1017D00002236370714B1B88A3701B0AE3700EE732
:1017E000BD78FA78B988112D7AD007D8012D4DD05F
:1017F000002D0DD0022D5BD08226FBE6212D65D079
:10180000222D69D0122DF7D10223102063706AE0D7
:101810000127644B04261B7810209F40FA43624B3B
:1018200001921D68AF626B6813406B6000F08FFB24
:10183000AF616B683B436B60FA20400000F087FBB0
:10184000FA20AF626B68019A400013406B6000F0B1
:101850007EFBAF616B68013E3B43B6B26B60002E0E
:10186000EAD10436FA2000F072FBAF626B68019A8D
:10187000FA2013406B6000F06AFBAF616B68013EB9
:101880003B43B6B26B60002EECD1B3E6454A464B03
:1018900012781E689540B56273681020AB43736080
:1018A00000F055FBB56173682B4373600026A1E619
:1018B00001233C4A637012783C4993403A4A9BB2F8
:1018C0001268002001F0A4FFA070EFE701230020C0
:1018D000637001F033FAF7E7012310206370F8E733
:1018E00002230020637001F083FA6080DEE7BB789A
:1018F000BA88042B1DD007D8022B1FD024D8012B67
:1019000012D08723FEF7FFFF072B26D003D8052B25
:10191000F7D1274B16E0082B24D0802BF1D100F013
:10192000CDFF0023FEF7EFFF224A1278A27063700A
:10193000F7E7214B1B78A3700123F8E71D4B1A70C2
:1019400083221D4B1A70ECE71A4B1B4D1A70832330
:101950002B7000F0D3FF2B78EDE7184B1A70120AAA
:101960005A70DEE7154B1A78A2705A78E2709A78AE
:101970002271DA7862711A79A2715B79E3710623B8
:10198000D5E7C046FFFC00000004004803FF00004C
:1019900000005555FFFFAAAA880400203604002045
:1019A000FC0600200C0700200807002004000200AD
:1019B000E1040020C0040020E2040020C104002053
:1019C000B878F9780238BA888A23092801D9FEF74D
:1019D0009AFFFEF7B7FD050A10151C232F3B404860
:1019E000C34B1A800023FEF78EFFC14B1B881B04DC
:1019F00013439847F6E7FEF7BBFE0300FEF783FFAD
:101A0000BC48036899B213040B430360EAE7B94981
:101A10000B681B0C1B0413430B60E3E70423637088
:101A2000B44B1B681A0AA370E2701A0C1B0E2271C9
:101A30006371D7E7022363705300AE4A1168CB1875
:101A40001A88A2701B881B0AE370CBE7A94B4900D8
:101A50001B68CA52C6E7A74953000A68D318022276
:101A60000B606270ECE7A34B4900186841181960DD
:101A70000A80B7E78823FEF746FFBB78BA88022BB7
:101A800009D0032B0ED0012B10D113049A4A1360F6
:101A90000023FEF738FF98490B681B0C1B04134307
:101AA0000B60F5E70122944B1A60F1E78323FEF700
:101AB0002AFFBA781300303B2F2B1AD8F878032866
:101AC00014D8FEF73FFD161802118C4B512A00D195
:101AD0007DE028D8312A57D00FD8002A37D0302AB5
:101AE0004BD0B423FEF70FFF854BEFE7B523FEF78E
:101AF0000AFF844BEAE7844BE8E7332A52D04AD303
:101B0000502AEED1C022D20022801A7AA270DA784E
:101B1000E2705A7A22719A7A62719A78A2715B7C29
:101B2000E371FFF7EEFB7F2A00D984E0702A5DD2D3
:101B3000602A3CD0612A43D0522AD2D180221B880D
:101B40009200A3701B0A2280E370FFF7DAFBFF21EB
:101B50006E4BD1540132102AFBD10123694A5B42FA
:101B60005380694A5380654A5380654A53800122F5
:101B7000674B1A700023FEF7C6FEBA88110AD972A5
:101B80001A730023FEF7BFFEBA88110A59739A73BD
:101B90000023FEF7B8FEBA88110AD9731A7400231D
:101BA000FEF7B1FEBA885A740023FEF7ACFE80231C
:101BB0005B002380BB88554AD35CA370FFF7A1FB71
:101BC00080235B002380534B1B68DB78F5E7C02242
:101BD000D2002280DA7AA2701A7BE2705A7B2271DC
:101BE0009A7B6271DA7BA2711B7C99E7454B38784E
:101BF0005C68484B1B68D9787F2800D9B2E046481A
:101C0000009D057000290FD000200090982900D178
:101C1000AEE004E000200090D02900D1A8E03C49CB
:101C200010300870FF2104E03C490B609021D9700E
:101C30006F3100919CE00720104003281AD8FEF76E
:101C400081FC1C1E02172D4B802A01D2FFF759FB85
:101C5000872A16D97032D2B2072A01D9FFF751FB71
:101C600000222270FA789A72BA881A80FFF749FB2C
:101C7000234BE9E7B523FEF746FE224BE4E7224B70
:101C8000E2E7B888F978C6B28D19BE22102D2CDC97
:101C90000432002929D0DD78033AFF2D25D19D7823
:101CA0000132FF2D21D10022D7B28F423AD31C4DF1
:101CB0000022AC464F01013F1F727701000A6744C2
:101CC0009870DA705A729A721A80DA721A735A73AA
:101CD0009A73DA731A745A745F600C4B9D19A85486
:101CE0000132D3B28B42FAD300222270FFF709FBF4
:101CF00034040020300400209804002060040020F8
:101D000074040020380400204C040020E304002068
:101D1000A00400208C0400209504002090040020E2
:101D2000F40400200132B7181E4D013FEF5DFF2F74
:101D3000BAD0C122D9E7BB78002B04D0402B08D001
:101D4000D223FEF7E0FD2370BA88174B1A70FFF715
:101D5000D8FA80235B002380134B1B782DE7802368
:101D6000FEF7D1FDD82900D054E780215C68D970F6
:101D700000215972DB78902B01D0FFF7C2FA712A4B
:101D800001D0FFF7BEFA094BBA881B6859680A7080
:101D9000BA885968120A4A705A7A02325A72FFF7A0
:101DA000B0FAC046E3040020A00400209004002004
:101DB000F0B585B001932A4B00901C682948204358
:101DC000186058690C02C0B2204358610220986123
:101DD00098621868244C49B220409024186008206A
:101DE000E405A061002901DA1021A16265691F499B
:101DF0009000C0278C460D400100BF0039400D43C4
:101E00006561FF2459691A4D2040294008435861F3
:101E1000C046039590250020ED050294C046664615
:101E20001969009C090A215401326969D2B29400EF
:101E3000314026003E4031436961039E59690130BB
:101E40003140029EC0B234400C4301995C6188422B
:101E5000E4D90823AB62DB18AB6105B0F0BDC04626
:101E60000004004800005555FFFFAAAAFFFC00002F
:101E700003FF0000F0B585B00193284B284C1D6886
:101E800000902C431C6027485C691F2943D880259B
:101E900029430902E4B221435961022199619962FF
:101EA0001968214C0840902118608020C90588627B
:101EB00048699500C026A44620402C00B600344056
:101EC0002043FF2448615869184F25403840054396
:101ED0005D61C046002002960394C0461D69009CC7
:101EE0002D0A255464464D6901322540D2B2029C28
:101EF0009600344025434D61039C5D6926403D407A
:101F00000130019C2E43C0B25E61A042E5D980231E
:101F10008B6105B0F0BDE4B20902BCE700040048E3
:101F200000005555FFFFAAAAFFFC000003FF0000B8
:101F3000002302000002002A04D1002B01D08023DC
:101F400018437047DB43511EDBB20A40F3E700231E
:101F5000800080B2C046C04601339BB29842F9D19E
:101F60007047FFFF30B50722012409490868450D75
:101F700043086B404340C50FDBB26B40013A23403E
:101F80004000D2B21843002AF1D10860C0B230BD7F
:101F9000980400209022D205F0B553691B4C8600AE
:101FA0002340C024A400344023435361184B194DEF
:101FB0005C69000A2C40FF252E4034435C611E689A
:101FC000154C000226431E605E69144F2E403043BC
:101FD000586102209861986218681026384018608D
:101FE0000820906296621868090204431C605869D0
:101FF000284001435961C04601219962C046996158
:1020000019680F401F609661F0BDC046FFFC0000DC
:102010000004004803FF000000005555FFFFAAAA76
:102020009022D2055369194930B50B40C021840074
:10203000890021400B435361154B164D5969000A25
:102040002940FF252C40214359611C681249000298
:1020500021431960596908240D4002212843586121
:102060009961996219680D48802501401960102115
:10207000946191629562C046C046C0461869E040CE
:102080009561C0B29462916130BDC046FFFC000012
:102090000004004803FF000000005555FFFFAAAAF6
:1020A0001D4B30B5984202D880231B02184390255F
:1020B000ED056B69194C82002340C024A400144034
:1020C00023436B61164B174D5C69000A2C40FF25BA
:1020D0002A4014435C611C68134A000214431C60CC
:1020E0005C6909022C402043586102209861986283
:1020F0001C680E4804401C601C6822431A605A6920
:102100002A4011435961C04601229A62C0469A6131
:102110001A6802401A6030BDFF1F0000FFFC00007B
:102120000004004803FF000000005555FFFFAAAA65
:102130001A4B30B5984202D880231B0218439021D5
:10214000C9054B69164A84001340C0229200224000
:1021500013434B61134B144D5A69000A2A40FF2563
:102160002C4022435A611C68104A000222431A6024
:102170005A6915400222284358619A619A621A6886
:102180000B4802401A6080228A62C046C046C046A0
:10219000C0461869000AC0B28A6130BDFF1F000046
:1021A000FFFC00000004004803FF0000000055553C
:1021B000FFFFAAAA70B504000D000D48AA21FFF781
:1021C0006FFF55210B48FFF76BFFA0210848FFF771
:1021D00067FF29002000FFF763FF2000FFF7A8FF3B
:1021E0000500C0462000FFF7A3FFA842F5D170BD4F
:1021F00055150000AA1A000070B504000D000D4826
:10220000AA21FFF74DFF55210B48FFF749FFA021F9
:102210000848FFF745FF29002000FFF741FF200095
:10222000FFF786FF0500C0462000FFF781FFA842A8
:10223000F5D170BD55150000AA0A00009022F0B536
:102240000124D20513688500A3431360D368204E90
:10225000A343D36053691F4C09022340C024A40048
:102260002C40234353611C4B5C693440FF263540AE
:102270002C435C611D68194C25431D605F69050A8C
:1022800037402D023D435D6102259D619D621F68BF
:10229000134D00B22F401F60202797621F683C43F8
:1022A0001C605C6934402143596108219161002818
:1022B00001DA49189162C046C04608219162491866
:1022C0009161103191611A6815401D60F0BDC046E2
:1022D00003FF0000FFFC000000040048000055550B
:1022E000FFFFAAAAF7B51C4B07001D781B4B0191F5
:1022F0001C88202126002036B6B23000FFF79EFF52
:10230000AA211748FFF7CCFE2000103080B2102120
:10231000FFF794FF2D0155211248FFF7C1FEEDB2E2
:1023200020213000FFF78AFF6419A0210C48FFF735
:10233000B7FEA0B22900FFF781FF01993800FFF72F
:10234000AFFE3800FFF7F4FE0400C0463800FFF788
:10235000EFFEA042F5D1F7BD88040020360400202E
:1023600055150000AA0A000070B50400B0200E0048
:1023700000020A21FFF762FFC0200A210002FFF7D6
:102380005DFFAA211248FFF78BFE55211148FFF788
:1023900087FEA0210E48FFF783FEB0200E4B0002FF
:1023A0001D782900FFF74AFFC02029000002FFF72F
:1023B00045FF31002000FFF773FE2000FFF7B8FE55
:1023C0000500C0462000FFF7B3FEA842F5D170BD5E
:1023D00055150000AA0A000088040020F8B5050081
:1023E0000E00194B02211C88A71CBFB23800FFF752
:1023F00025FFAA211548FFF753FE601C80B201217A
:10240000FFF71CFF55211248FFF74AFE0221380052
:10241000FFF714FFA0210D48FFF742FE0D4B19787E
:102420006418A0B2FFF70AFF31002800FFF738FE5A
:102430002800FFF77DFE0400C0462800FFF778FE65
:10244000A042F5D1F8BDC046360400205515000065
:10245000AA0A00008804002070B59024E40563698E
:102460001A4AFF261340C022850092002A401343D7
:102470006361174B174A5969354011402943596127
:102480001968154A0A431A605969020A0E40120275
:1024900032435A6102229A619A621A680F4900B265
:1024A0000A401A600822A261002801DA9218A2628A
:1024B000C046C046C046C046186990230822DB05C6
:1024C0009A62000A9218C0B29A6170BDFFFC0000C7
:1024D0000004004803FF000000005555FFFFAAAAB2
:1024E00070B50400C0200D0000020121FFF7A6FE18
:1024F000AA211548FFF7A2FEC02000210002FFF725
:102500009DFE55211148FFF799FEC02001210002D0
:10251000FFF794FEA0210C48FFF790FEC0200C4B63
:1025200000021978FFF78AFE29002000FFF786FED7
:102530002000FFF791FF0500C0462000FFF78CFF49
:10254000A842F5D170BDC04655950000AAAA00006A
:102550008804002070B504000D001048AA21FFF780
:102560006DFE55210E48FFF769FEA0210B48FFF7CD
:1025700065FE29002000FFF761FEA020094B000244
:102580001978FFF75BFE2000FFF766FF0500C046E5
:102590002000FFF761FFA842F5D170BDAAFA000044
:1025A00055F500008804002070B504000D001048A7
:1025B000AA21FFF743FE55210E48FFF73FFEA02159
:1025C0000B48FFF73BFE29002000FFF737FE802075
:1025D00000210002FFF732FE2000FFF73DFF05005B
:1025E000C0462000FFF738FFA842F5D170BDC046B5
:1025F00055D50000AAAA00009022D205536970B5F3
:10260000194C86002340C024A40034402343536166
:10261000164B174C5D69000A2540FF2426403543C0
:102620005D611E68134D00022E431E605E69090243
:1026300026403043586102209861986218680E4E17
:1026400030401860186805431D60586920400143F8
:1026500059610121106808431060916291611A6804
:1026600016401E6070BDC046FFFC0000000400481C
:1026700003FF000000005555FFFFAAAA9022D205D3
:10268000536970B51B4C86002340C024A40034401D
:1026900023435361184B194D5C69000A2C40FF25F8
:1026A0002E4034435C611E68154C000226431E60B8
:1026B0005E6909022E403043586102209861986299
:1026C0001E68104806401E601E6834431C605C692A
:1026D000254029435961012114680C43146091621B
:1026E00014688C431460D4682143D1601A68104088
:1026F000186070BDFFFC00000004004803FF0000EC
:1027000000005555FFFFAAAA70B505000E00134B37
:1027100000211C882000FFF791FDAA211048FFF737
:10272000ADFF55210F48FFF7A9FFA0210C48FFF787
:10273000A5FF0D4B19786418A0B2FFF77FFD31009B
:102740002800FFF79BFF2800FFF786FE0400C04625
:102750002800FFF781FEA042F5D170BD36040020AD
:1027600055550000AA2A00008804002070B5040016
:102770000D000D48AA21FFF781FF55210B48FFF7F7
:102780007DFFA0210848FFF779FF29002000FFF70F
:1027900075FF2000FFF760FE0500C0462000FFF730
:1027A0005BFEA842F5D170BD55550000AA2A000075
:1027B000F0B5284B85B01E78274B01901B7802910D
:1027C00000930392254B112840D000229020002531
:1027D0001A70C0051C782A002B000121844601983C
:1027E000202805D1009D1D410D4231D00C430D0024
:1027F000029820280ED1002B01D1174FBB54604600
:1028000007690F4206D01448875C080098400743C8
:10281000114887540398013EF6B2002804D0002ED8
:1028200002D102200D0004430133DBB2082B05D195
:102830000132094BD2B29B5C00930023002ECED113
:10284000002D01D0054B1C7005B0F0BD0122BDE785
:102850008C43CCE7E1040020C10400209404002054
:10286000F0B5134B134D19780023112800D1022322
:102870000027114E3A00B4463C0001262B702B78FD
:1028800020280CD163461B5D3700134101323340D1
:10289000D2B25B00082A02D100220134E4B201392D
:1028A000C9B20029ECD1002F00D02B70F0BDC0467A
:1028B000E104002094040020C104002000230B4AFE
:1028C000012113709022D205106888431060D068EF
:1028D0000143D1608021064A11701900054A137026
:1028E000054A99540133202BFBD1704794040020F2
:1028F000E2040020E1040020C104002010B52B4BAD
:102900001B78082B4ED013D8294C032B39D006D86E
:10291000012B28D0022B2AD0254BEE223AE0062BA1
:102920003AD03DD8042BF7D101222021112021E0FB
:102930000F2B28D008D81E4C0D2B1FD000220E2B99
:10294000EAD12021102015E0802B06D0184CFF2B57
:1029500006D0102BE0D100221FE0FFF7AFFF10BD23
:10296000F0232370FBE72020FFF77AFF04E0012229
:1029700000212020FFF71CFF8223F2E70022110034
:10298000F7E70122DDE7002220211120FFF710FFE9
:102990008222074B1A70E2E7012220210800E9E7B2
:1029A0001020E1E71120FFF75BFFF1E7C0040020F2
:1029B000E2040020BC235F49DB038A6AF0B51343BD
:1029C0008B628B6A5C4A13408B62E0234A691B036B
:1029D00013434B61594B1A789023DB05102A03D11E
:1029E00000221A609A60DA6040221868544D9043C1
:1029F0001860D86880260243DA601A685148F604E5
:102A000002401A608022D86852000243DA601A68D5
:102A10004D48802702401A608022D868D2000243C5
:102A2000DA601A684948FF0202401A608022D868BA
:102A3000D20102430120DA60454A146884431460DD
:102A4000D4680443D4601C682C401C608024DD687A
:102A500064032C43DC601C683E4D2C401C608024C9
:102A6000DD68E4052C43DC601C683B4D2C401C6099
:102A7000DC683A4D3443DC601C68394E2C401C60E5
:102A80008024DD6864012C43DC6004241568A543C0
:102A90001560D5682543D5601D6885431D60DD68D8
:102AA0008543DD60486938434861106830401060F4
:102AB000D5682C480543D560C0254F69ED023D43DC
:102AC0004D6115682C4314600224A02594621C6893
:102AD000ED022C431C601768234C274317601F68C6
:102AE000224C27401F601768214C27401760DF6881
:102AF0001D4C3D438027DD60D368FF021C43D4603A
:102B00004B69154D3B434B61136833401360D368E9
:102B10000343D36013681E4016608026D368F60412
:102B20001843144BD0601A682A401A60DA6832439E
:102B3000DA60F0BD00100240FFFFA1FF0407002093
:102B4000FFFFEFFFFFFEFFFFFFFBFFFFFFBFFFFFEA
:102B500000040048FFFFFFBFFFFFFFFBFFEFFFFF89
:102B6000FFFFAAAA0000555550550000FFFFFAFFCD
:102B7000AFAAFFFF00080048F7B580270D000192BB
:102B80004C7A000203B2A6B20093FF042B7AB34240
:102B900002D26C720020FEBD00986B682043195D64
:102BA00080B2019B98476B681A5D0B4B824206D03E
:102BB0001A683A431A60802292019A61E6E71A681D
:102BC000064901340A401A60DA6801363A43DA608D
:102BD000E4B2B6B2DAE7C04600080048FFFFFFFBE8
:102BE000F7B50D001600FF27000203B24C7A0193DF
:102BF0002A7AE3B2A24202D26B720020FEBD20000C
:102C00006A683840D15C019B0134184380B2B047F8
:102C1000A4B2EDE7022907D10F4B104A984218D011
:102C2000904209D1180007E0032906D10A4B0B494D
:102C30000B4A98420BD1080070470429FCD1064B7F
:102C4000064A984205D006499042F4D0054A884287
:102C5000E6D11000F0E7C046380400204C04002004
:102C6000600400207404002070B506000D000524E7
:102C70003000013CFFF7F0FBE4B229003000FFF721
:102C8000DDFA6D08002CF3D170BDFFFF70B50400B4
:102C9000A0200D0000020221FFF7E6FFAA21104844
:102CA000FFF7FEF955210F48FFF7FAF9A0210C486C
:102CB000FFF7F6F9A0200C4B00021978FFF7D4FFBC
:102CC00029002000FFF7ECF92000FFF731FA05009A
:102CD000C0462000FFF72CFAA842F5D170BDC046CF
:102CE00055150000AA0A00008804002070B50400F1
:102CF000C0200D0000020521FFF7B6FFAA210D48F4
:102D0000FFF79CFA55210C48FFF798FAA0210948D3
:102D1000FFF794FA29002000FFF790FA2000FFF750
:102D20009BFB0500C0462000FFF796FBA842F5D1AB
:102D300070BDC04655550000AAAA0000F7B5012392
:102D40000225294F01923A780091054393400421CE
:102D5000A020264E2D049BB229433268C00100F00A
:102D600057FD040001283DD13B7809209C400543D4
:102D70007830A3B232682900FF3000F049FD04002A
:102D800001282FD13B7832689C402900A3B2002053
:102D900000F03EFD0400012824D1009B180AFFF733
:102DA000C7F83B7832689C402900A3B200F030FDA0
:102DB0000400012816D16B461878FFF7B9F82200F5
:102DC0003B7829009A4093B2326800F021FD0198C7
:102DD000FFF7AEF83B7832689C402900A3B200F0C0
:102DE00017FD0400E0B2FEBD0C070020080700201C
:102DF000F7B501230225274F00903A78019105434A
:102E000093400421C020244E2D049BB229433268F4
:102E1000800100F0FDFC0400012838D109231D4386
:102E20003B78C0209C403268A3B22900400000F0EB
:102E3000EFFC040001282AD13B7832689C4029002D
:102E4000A3B2002000F0E4FC040001281FD1019B84
:102E5000180AFFF76DF83B7832689C402900A3B24E
:102E600000F0D6FC0400012811D16B461879FFF759
:102E70005FF822003B789A4093B2009A14430922EB
:102E8000E1B209041143326800F0C2FC0400A0B2B0
:102E9000FEBDC0460C07002008070020CF4BD04ADB
:102EA000F0B51A60CF4A89B01A6002225A60A02297
:102EB00012019A600293029BDB68002BFBD19022E7
:102EC000029BC94912031960C84B186802431A6073
:102ED00080220791920219681142FCD001225968A0
:102EE0000A435A608022596852020A435A6080227B
:102EF000596852030A435A608022196852040A43EF
:102F00001A608022920419681142FCD01121B84A3B
:102F1000B84C11605A680E398A43110002220A43E4
:102F20005A608022196B0A431A638022D9691204FD
:102F30000A43DA61B04BE381BC231B689847AF4B6F
:102F40006382AF4B238262B6FFF734FDF022AD4BB4
:102F50001A70029B079AAC4E1A6032782023110037
:102F60009943D2291BD1A949A948C978C378022419
:102F7000FF2904D1FF3B1C00631E9C41E4B2A54B1A
:102F8000DB78FF2B00D00324A34BDB78FF2B00D092
:102F90000424A24BA24F1C703860D22A49D0337847
:102FA000F22B05D10022023B33709D4B1B68DA7077
:102FB0003578D02D00D043E1994E3068C378802B0E
:102FC00000D03DE1954B1978FFF724FE00233060D7
:102FD000C570068804004372C07AF5B21038132811
:102FE00000D92BE1FDF7C8FA53008B00F5002A0148
:102FF0002A012A012A012A012A012A012A012A0179
:103000002A012A012A012A01280035004B0050001C
:103010002100FFF7FFFD01230135EDB2A542F7D3F3
:10302000002B00D0386080223B68DA70D0233370E8
:10303000B5E700230125F1E7E17B0F2900D908E27C
:1030400009013143237AA278C9B26068FEF7B0FE65
:103050000BE03C23E17B0A009A4300D0F9E1237A9C
:10306000A27829436068FEF705FF60726C4B1B680D
:1030700019889A7A52181A80D822DA70E0E0237AF6
:10308000A278E17B2943E0E7E17B3F23E3E7E37BB1
:103090001E2B0BD1C020B6092233F1B200029D4392
:1030A000FFF7CCF8237AA2788021EBE71C2B0FD115
:1030B000A0208121C001FFF7C1F88020F609F1B2FC
:1030C0000002FFF7BBF8A0200021C001FFF7B6F80F
:1030D0008023E27B5B421F2A05D01D43EDB2237A99
:1030E000A2782900B1E77022A02021889543090920
:1030F0001D43C9B2C001EDB2FFF7A0F8EFE7E37BD3
:10310000FE2BB3D17609F1B24648FEF7C9FF6368DA
:10311000454A0393A378FF260193237AC02704939B
:10312000424BBF0019680A431F211A605A690D40BB
:103130002D0232402A435A6102229A619A621A6829
:103140003B490A401A6090220821D2059161491832
:10315000916270319162019950698D0035498C46B8
:1031600008402900394008435061596932483540C8
:1031700001400D435D61C046002106900596C046A2
:103180001869039D000A685490250198ED050130E7
:10319000C0B201906869019D0131AE0065462840CA
:1031A00035003D4028439025ED0568615869069D2E
:1031B000C9B22840059D2E40064304985E618842AE
:1031C000DDD280239361783B93620833936161720F
:1031D0004CE7237AA278602154E7C04600300040D3
:1031E000CCCC000055550000AAAA000000100240F7
:1031F00000200240006000403CA5FFFF410800089D
:1032000085080008E2040020A00400204C040020EF
:103210003804002060040020740400209C04002076
:103220008C040020FF3F00000000555500040048BA
:10323000FFFFAAAAFFFC000003FF0000C323E37006
:10324000E04B1D78F02D00D0B8E2DF4E3468E37813
:10325000982B00D0B2E2DD4B20001978FFF7DAFCA2
:1032600000233060C370E37AE5702678112B00D11B
:1032700007E2122B00D197E2102B00D09CE2E37BF7
:10328000002B06D130008038C0B2D14A2100FFF7B0
:1032900073FCE37B012B06D130008038C0B2CD4AED
:1032A0002100FFF79DFCE37B032B06D13000803823
:1032B000C0B2C94A2100FFF793FCE37B042B06D17F
:1032C00030008038C0B2C54A2100FFF755FCE37BCF
:1032D0000A2B06D130008038C0B2C14A2100FFF766
:1032E0007FFCE37BFD2B15D13F20238830409B09D9
:1032F00003936B4680261B7B06430593677ABBB21C
:10330000019333021BB20693237A019A934200D3AE
:10331000A1E06772E37B1E2B06D130008038C0B27B
:10332000B04A2100FFF728FCE37B0C2B17D11F20AC
:10333000304080260643C0202588A5216D09EDB2C6
:10334000C001FEF77BFF2900A748FEF777FF677AE9
:1033500035023D43237ABB4200D3C9E06772E37B69
:103360001C2B3BD1A02023888121DB09DBB2C001CB
:103370000393FEF763FF802003990002FEF75EFFD0
:10338000A0205421C001FEF759FF677AAA21BBB2E1
:1033900096480193FEF752FF55219548FEF74EFFE0
:1033A00020219248FEF74AFF802333431B021BB2C1
:1033B0000593237A019A934200D3B6E080209021AE
:1033C00000026772FEF73AFF802000210002FEF73C
:1033D00035FF8020F0210002FEF730FFE37B1F2B3A
:1033E00030D1A0202188C0010909C9B2FEF726FF0B
:1033F000AA217E48657AFEF721FF55217C48FEF719
:103400001DFF7A482021FEF719FF702380209E437C
:103410004042304340B20302AFB20393237ABB422F
:1034200000D3F7E08020902100026572FEF706FFCE
:10343000802000210002FEF701FF8020F021000221
:10344000FEF7FCFEF4232288E370A37A9B18238006
:10345000B4E1C423F3E600216648FEF7EFFEAA219B
:103460006548FFF7C9F855216448FFF7C5F8A02162
:103470006148FFF7C1F86B46187B614B0599C0188E
:1034800080B2FEF7DBFE069D63683D43ADB2D95DB9
:103490002800FFF7B1F8C0462800FEF7DDFF0490D2
:1034A0002800FEF7D9FF049B8342F4D16368049996
:1034B000DA5D544B8A4212D1019A5349013292B2D9
:1034C00001921A6801370A401A608022D968D20432
:1034D0000A43DA6080229201FFB29A6214E78022E6
:1034E0001968D2040A431A60802292019A610BE79C
:1034F000AA214648FEF7A2FE55214548FEF79EFE4A
:10350000A0214248FEF79AFE63682800D95DFEF7C5
:1035100095FEC0462800FEF79FFF01902800FEF7A9
:103520009BFF019B8342F4D114E7A0205421C001EA
:10353000FEF784FE059DA0213D43ADB22800FEF7B5
:103540007DFE63682800D95DFEF778FEC04628003E
:10355000FEF782FF04902800FEF77EFF049B834263
:10356000F4D16368049ADB5D264D934212D1019B2E
:10357000254A01339BB201932B68013713402B601E
:103580008023EA68DB041343EB6080239B01FFB2D6
:10359000AB620EE7A0208121C001FEF74FFE802024
:1035A00003990002FEF74AFEA0205421C001FEF755
:1035B00045FE80232A68DB0413432B6080239B0194
:1035C000AB61F6E6A00400208C0400209C040020DF
:1035D0006D270008ED2C000809270008A925000820
:1035E00055250008E1240008FFFF0000AA8A00001A
:1035F0005585000069FD000055550000AA2A00000D
:1036000069FDFFFF00080048FFFFFFFB55D50000E4
:10361000AAAA0000039EA0212E43B6B23000FEF7F6
:103620000DFE63683000595DFEF708FEC0463000AD
:10363000FEF712FF01903000FEF70EFF019B834260
:10364000F4D1636801995A5D634B8A4210D11A68BC
:10365000624901350A4080211A60DA68C9040A43C8
:10366000DA60802201379201EDB2BFB29A62D5E6EC
:1036700080211A68C9040A431A60802292019A6163
:10368000CCE6E37B002B04D1554A21003000FFF744
:10369000A7FAE37B012B04D1524A21003000FFF747
:1036A0009FFAE37B022B04D14F4A21003000FFF741
:1036B00097FAE37B042B04D14C4A21003000FFF73A
:1036C0008FFAE37B0A2B04D1494A21003000FFF72F
:1036D00087FAE37B0B2B04D1464A21003000FFF729
:1036E0007FFAE37BFE2B00D0ACE6218842484909F3
:1036F000C9B2FEF7D5FCAA214048657AFEF74AFC1C
:1037000055213F48FEF746FC3C482021FEF742FC8D
:103710001F2030400302AFB20393237ABB420DD285
:10372000657290210020FEF735FC00210800FEF7AD
:1037300031FCF0210020FEF72DFC83E6039EA02142
:103740002E433000FEF726FC63683000595DFEF71B
:1037500021FCC0463000FEF763FC01903000FEF70C
:103760005FFC019B8342F4D1636801995A5D1A4B57
:103770008A4210D11A68194901350A4080211A601D
:10378000DA68C9040A43DA60802201379201EDB297
:10379000BFB29A62C1E780211A68C9040A431A605D
:1037A000802292019A61B8E730006030154A21000A
:1037B000C0B2FFF715FA45E6C323E370124B1B783E
:1037C000F02B01D1FFF7C5FB832B01D0FFF7C1FB25
:1037D000FFF794F8FFF7BDFB00080048FFFFFFFB71
:1037E000F92100088D2C0008DD230008B521000810
:1037F00069230008E5220008FF3F0000AA0A000034
:10380000550500003D220008E2040020FFFFFFFFF5
:10381000F0B5474680B4061C081C000C102801D5E2
:10382000162700E004270007000F8046FF20014014
:103830005468251C1D439C43F60313850AD5C046D6
:10384000C046C046C046C046C046C04694801383AA
:10385000958002E0012000F081F801390AD4381C7B
:1038600000F07CF8C046948013839580C046C04623
:103870007600E2E7381C013800F070F8948013837A
:103880009580042000F06AF8108A184001D0FF20CB
:1038900061E0C046C046C046C046C046C0469480AF
:1038A0009580108A184055D001200226B04552D08C
:1038B0000921168A1E40FCD1012000F04FF89480A7
:1038C000C0469580C04603E0C046C046C046C046DC
:1038D000948095807600108A1840EFF300804000B5
:1038E000C00F0643381C023800F038F894809580E9
:1038F000022000F033F80139EAD5138594800120C5
:1039000000F02CF813839580301C8021022399400D
:103910000E401BD1002341085E4149085E41490821
:103920005E4149085E4149085E4149085E414908D7
:103930005E4149085E4149085E41760808D3400867
:10394000FF21084048400002013004E00E2002E060
:10395000092000E0002080BCB846F0BD0138FDD150
:103960007047C04603685A0003D45B005B08C01868
:103970007047802212061343F9E7C046F0B5574658
:103980004E46DE464546E0B5814683B09246002964
:1039900025D04B1E9B46002701935B46FB18DC0F8E
:1039A000E4184B466410E5005E193000FFF7DAFFBB
:1039B000019B8046A3420BD0280008304844FFF703
:1039C000D1FFD04506D80138504509D2671CE4E73D
:1039D000504505D9A74202D0631E9B46DDE700266D
:1039E000300003B03CBC90469946A246AB46F0BDC1
:1039F000012809D0022805D0002801D000207047F6
:103A00000248FCE70248FAE70248F8E7E540000808
:103A1000FD400008F140000830B5234B83B005009D
:103A20008C1E002B26D001A9200000E000BF00283A
:103A30001CD001992200FFF7A1FF041E16D0FFF74A
:103A400091FF6368A864012B2AD0201D002B23DB83
:103A5000FFF788FF0023E8642B650368002B0FDB6A
:103A6000FFF780FF2861002003B030BD002309204C
:103A70002B61F9E70D480E49091AC9100191D9E7E0
:103A80001801000FFFF7B4FF2861431E9841082377
:103A9000404298430930E7E70123E8642B65DCE7FF
:103AA000002305202B61DFE700000000E04900084B
:103AB000B04A0008036810B50400DA0705D448309E
:103AC0009B070ED500F06CFC23685A070ED51A0729
:103AD00013D5DB0604D42000D130FF3000F06CFC9D
:103AE00010BD00F059FC23685A07F0D42000D030F4
:103AF00000F05AFC23681A07EBD420005130FF3045
:103B000000F056FC2368E4E70368002B00D01B1884
:103B100018007047092070477047C04670B5040010
:103B20000D0008E02B6C2A0063612100012023694D
:103B30009847082807D1296C2000FFF76DFF00285F
:103B4000F0D000F083FE0728FBD10020296CFFF79E
:103B5000E3FF281D00F00AFCF0B5CE46474680B5CD
:103B6000C3682E4C9846A5448369060014000431AE
:103B7000402205A8994600F071FE002304AD04938D
:103B800023E0F0222B6C5200736129007CA800F026
:103B900065FE7CAA31003369200098478A9B0700A4
:103BA0006B6403934B460095019332003300210070
:103BB0000120C04700281FD1F0227CA95200280014
:103BC00000F04CFE0024082F1FD1296C3000FFF7B5
:103BD00023FF611E8C41070009340028D1D0AB6B54
:103BE00010216B644B462143019300953300320052
:103BF0000120C047002800D009273800F5239B008A
:103C00009D440CBC90469946F0BD072FF4D120008E
:103C1000296CFFF781FF05A800F0A8FB2CFCFFFF33
:103C2000406C704770B5CB6BFAB00B6404000E00AB
:103C30004022043103A800F011FE01235B420293ED
:103C400006E002AA210023699847050008280AD146
:103C5000129B200019000193FFF7DEFE0028F0D030
:103C600009207AB070BD02A8FFF724FF062DF7D116
:103C700031002000FFF752FF10B58261DA6BC1609E
:103C80001A6419000022FFF767FF10BD436970B581
:103C90000B64C36804000D00002B15D10A002369D2
:103CA000010002209847072807D0082803D12900DF
:103CB0002000FFF733FF00F0C9FD0020296CFFF75B
:103CC0002BFF281D00F052FB0122FFF745FF00F0FB
:103CD000BDFDC046C36810B5002B05D0CB6B0022DC
:103CE0000B64FFF739FF10BDFFF79CFFFBE7C046F1
:103CF0007047C046836810B5002B02D00100012038
:103D0000984710BD012906D0002906D003390220AA
:103D1000012900D970470120FCE7002B08D10F2AA8
:103D200006D8920082185268009B00201A60F1E7C2
:103D30000220EFE700B585B003AB0A000093002135
:103D40000023FFF7DFFF039805B000BD012906D06F
:103D5000002906D003390220012900D9704701202B
:103D6000FCE7002B08D10F2A06D8009B92001B68A5
:103D7000821853600020F1E70220EFE700B585B01C
:103D800003AB039200930A0000230021FFF7DEFF3C
:103D900005B000BD70B51A4CD36BA5441364060082
:103DA0000D0019A8111D402200F058FD01235B42AF
:103DB000189314E00C2118A802AAFFF7DFFF2900CE
:103DC00018A8B047002812D1069B18AA02A90830EB
:103DD00001939847040005280AD0092807D0289B9A
:103DE00002A819000193FFF717FE0028E2D009246A
:103DF00018A8FFF75FFE200090239B009D4470BD34
:103E0000C0FDFFFFF0B5DE4657464E464546E0B5DD
:103E1000160003220D0011008BB01F000193EB6C04
:103E200001401C1D009107A91B688B460894002FB8
:103E30006BD01A0C1B045946079302230B72FD33F7
:103E400013409B004A72E418009B022B00D1AC6B1C
:103E50002B6DDB0747D400230593083303400293FF
:103E60002768002F00D112E1019B022B49D0638803
:103E7000278898460434012340469A469843AB6C01
:103E80000F21994681443000FFF754FF00218145FE
:103E900006D83900534699434944884289414942EA
:103EA00043465A0002231340012217403B43012B93
:103EB0003AD0002B30D0022B1BD12368009A5F0030
:103EC0007F08002A67D1002906D0029A002A00D173
:103ED0007CE0002F00D1A9E0002B00DA0434013788
:103EE000BF00E419BCE75946300000F00BFB002886
:103EF00010D009200BB03CBC90469946A246AB4678
:103F0000F0BD636808349846B5E71B0207935B462B
:103F10001A8199E70820EDE7009B002B02D00029C9
:103F200000D08DE004349BE7009B002B1AD10029C0
:103F300016D02368DF0F63689A1CDAD02A00583243
:103F40000692013300D1BDE0201DFFF7DDFD06AB79
:103F500001003A00280000E000BF002800D082E005
:103F600008347DE70D2130002F6AFFF7E3FE87421A
:103F7000F6D1AB6A9C42F3D12000FFF7F3FC0F218E
:103F800002003000FFF7FAFE30002A000021FFF7A0
:103F9000F5FE0720AEE72B6A0D2130009846FFF7AB
:103FA000C9FE804501D0236896E7AB6A9C42FAD1EE
:103FB0000023EB6204332B63231DAF626B63236822
:103FC000002B00DA86E00123059388E7002F2DD02F
:103FD00058239C46AC4463460393231D9946002313
:103FE000984606AB220004933B004C464746B24637
:103FF00098462E00914603E004342F00454542D0F8
:10400000039B20000693FFF77FFD049B0100002225
:1040100030007D1C00E000BF0028EDD04346B846CC
:1040200035004C4656461F009845BCD10D21300046
:10403000FFF780FE069B28626B62AC62062059E7A0
:104040002000FFF78FFC04340700AC63280000E079
:1040500000BF002800D14CE730003A000F21FFF7E5
:104060008DFE072046E707000D213000FFF762FEB6
:104070002862022F2BD1069BEB622B002C336B6244
:10408000AC62062036E735004C465646CEE7594628
:10409000300000F037FA002800D02AE7059B002BFB
:1040A00000D137E70F213000FFF744FE0E21020058
:1040B0003000FFF763FE3000094A0F21FFF75EFE74
:1040C000072017E70D213000FFF734FE2862069B1A
:1040D0006B62D5E738000130800020184DE7C046FC
:1040E0000000000010B50023FFF78CFE10BDC04695
:1040F00010B50123FFF786FE10BDC04610B50223A0
:10410000FFF780FE10BDC046F0B5CE46474680B5ED
:104110000500C3B014001E00012955D000294BD062
:10412000032922D0042949D1002B47D1102A45D890
:10413000102203681A4200D0F1E020AF380000F0EE
:104140003DF900230120A96B02009A40144203D0DC
:104150000E689A00BE5004310133042BF4D13800AC
:10416000A96300F029F9002029E0032B26D11404CB
:10417000230C160C9846F318102B1FD8082203683E
:104180001A4200D098E020AF380000F013F9424600
:10419000AB6BF6001C00002A08D0D400F21A1C19E0
:1041A000BA181968D15004339C42FAD1AC63380074
:1041B00000F0FEF8002002E0002B24D0022043B0E3
:1041C0000CBC90469946F0BD130C14049846240C80
:1041D000012E2ED0052EF1D11B19202BEED84246F0
:1041E0000F2A70D9A146002C7ED1AA6B4346AA6340
:1041F0000F2B00D89AE04B46002BDBD0684600F02E
:10420000D3F80020DBE700231004A96B000C013673
:1042100032009A40104204D00F689A00AA185760E2
:1042200004310133102BF3D10020A304C7D4A963B8
:10423000C5E71B19102BC1D843460F2BBED82B68DE
:104240001E4206D00322280093432B60483000F022
:10425000A5F820AF380000F0A1F8AA6B002C24D0FC
:104260004346DB00FF180023994664000023A400A6
:10427000D158F95004339C42FAD14B4612196F467B
:10428000002B0FD04046102800D210204B46D900FA
:1042900000231038C0003818D458C4500433994251
:1042A000FAD15218012EA1D120AF04323800AA63EE
:1042B00000F072F8002082E7934303605130FF3032
:1042C00000F078F85FE7102B3BD91022524291465C
:1042D00099442B68194208D0022228008B431343CB
:1042E0002B60483000F05EF82B6804221A4221D17E
:1042F00043460F2B03D820AF380000F053F86F4629
:10430000380000F053F810244346AA6BE41A002C3E
:10431000B8DD434620AFDB006400FF18A6E79343F7
:104320000360D130FF3000F049F806E720A800F024
:1043300037F860E7280093432B60D03000F036F860
:10434000D6E72B680B4207D0022228008B43134389
:104350002B60483000F026F820AF380000F022F83B
:10436000A146AA6B002C00D07AE73FE7011C34314C
:1043700038C9043B9C461D60A646011C20313CC93F
:1043800090469946A246AB46011C0831FCC94168DB
:104390000068E54600BDC0467047C0467047C0464D
:1043A0007047C0467047C0467047C0467047C04619
:1043B0007047C0467047C0467047C0467047C04609
:1043C00001B401A801B585B0FFB408A841464A462A
:1043D00053465C4665463EC001A83EC80F98009013
:1043E00000230CB401A9FFF71DFC109B12B0184765
:1043F00001B401A801B585B0FFB408A841464A46FA
:1044000053465C4665463EC001A83EC80F980090E2
:1044100000230CB401A9FFF739FC109B12B0184718
:1044200001B401A801B585B0FFB408A841464A46C9
:1044300053465C4665463EC001A83EC80F980090B2
:1044400000230CB401A9FFF745FC109B12B01847DC
:1044500001B401A801B585B0FFB408A841464A4699
:1044600053465C4665463EC001A83EC80F98009082
:1044700000230CB401ABFFF7FFFB109B12B01847F1
:1044800001B401A801B585B0FFB408A841464A4669
:1044900053465C4665463EC001A83EC80F98009052
:1044A00000230CB401AAFFF775FC109B12B018474B
:1044B000027A0300002A0BD1427A002A0FD0013A77
:1044C00042724268111D416003211268017202E0CC
:1044D000013A02720268100E12021A607047B02090
:1044E000FCE7C04600B585B003AB00930C22002367
:1044F0000021FFF707FC039805B000BD10B5FFF7DA
:10450000F1FF10BDF0B557464E464546DE46002346
:10451000E0B587B003930F339846083B9946802354
:104520001B0306000F009A463800FFF7C1FF040086
:10453000B02800D1C3E003062AD5030042469343C6
:10454000DBB2802B00D171E0902B3DD0A02B00D1AD
:1045500085E0B02B50D0C02B00D196E003004A4636
:104560009343DBB2D02B0AD15346024001321A43A7
:10457000052301213000FFF7C7FD0028D4D009240E
:10458000200007B03CBC90469946A246AB46F0BD21
:10459000FF23820013401D1D05AB9B4600930D2297
:1045A000002300213000FFF7ADFB630620D4059BFC
:1045B0009C46654405955B460D220093002100232F
:1045C0003000FFF7C3FBAFE7833B03400D2BD6D092
:1045D00005AD02400095002300213000FFF792FB5B
:1045E000009500230D2200213000FFF7AFFB9BE771
:1045F000059B5D1B0595DEE7B12874D0B22800D17C
:10460000CFE0B32800D184E0FC230340B42BB6D024
:104610004A465346024001321A4301210123300029
:10462000FFF772FD002800D17EE7A8E704023800FA
:10463000FFF73EFF802520432D02A8429FD00401B2
:104640000005020C002300213000FFF75DFD00286B
:1046500095D12C4200D167E70123039364E7FF2340
:104660004A461B011900824311410A001A40030700
:1046700002D58023DB011A43002300213000FFF71D
:1046800043FD002800D14FE779E7C6284CD0C72862
:104690005ED003004A469343DBB2C02B6DD0C828DE
:1046A00072D0C92800D06AE73800FFF701FFF02375
:1046B00002031B03134042460240013257E7039BAB
:1046C0000024002B00D05BE705AD00950E220021F1
:1046D0003000FFF717FB009500230F220021300068
:1046E000FFF734FB4CE73800FFF7E2FE002800D16B
:1046F00045E7030042469343DBB2002B00D03EE780
:10470000020000213000FFF7FFFC002800D10BE77A
:1047100035E73800FFF7CCFEF02302031B031340FC
:1047200042460240013277E73800FFF7C1FEF0232E
:1047300002031B0313404246024001321A43032383
:1047400003213000FFF7E0FC002800D1ECE616E77B
:104750003800FFF7ADFE021E00D110E7030041460E
:104760008B43DBB2002B00D009E704213000FFF7B8
:10477000CBFC002800D1D7E601E74346A0221C402D
:10478000013412032243DAE73800FFF791FE434673
:1047900002009A43D2B21032184012030130024391
:1047A000E6E605AB00939B460D2200230021300076
:1047B000FFF7A8FA3800FFF77BFE030618D57F2520
:1047C000B03C059B2840A0409C46604405903800C2
:1047D0000734FFF76DFE0306F3D481217F238900A0
:1047E00003408C46A340059A62449B180593E2E679
:1047F0000224F2E7030000B5DB6C85B05A680800BC
:10480000120201921A0001A908324A6003220A72B8
:10481000DB794B72FFF776FE05B000BD10B5FFF7F0
:104820006DFE806C10BDC04610B5FFF767FEC26C10
:10483000D3799B000833D01810BDC04610B500F0E6
:1048400005F8C04610B5FFF7F9FFC04610B50620C1
:1048500000F076F8012000F0A5F8C046F0B50F2A68
:1048600037D90D0005430C000300AD0735D1150005
:10487000103D2D092E013618103627681F60676815
:104880005F60A7689F60E7681034DF601033B34251
:10489000F3D10F2401352D01491914404519032C7A
:1048A0001DD90023CE58EE500433E61A032EF9D852
:1048B0000323043CA4080134A4001A402D1909194B
:1048C000002A05D00023CC5CEC5401339342FAD18A
:1048D000F0BD0500002AF5D1FAE70500F2E7220055
:1048E000F8E7C04670B505000C001F2922D8B72391
:1048F0009B00C358002B0ED08A009B181A68002A10
:1049000009D0012A10D0511C10D0002120001960BC
:104910009047002070BD280000F030F82200010010
:10492000280000F017F8F5E70020F3E716230360EE
:104930000120EFE71623036001204042EAE7C0466A
:1049400010B5034B01001868FFF7CCFF10BDC0463F
:1049500000000020002370B5074C0500080011007E
:10496000236000F017F8431C00D070BD2368002BB3
:10497000FBD02B60F9E7C0461007002010B500F00F
:1049800001F810BD58220120014B40421A607047C7
:104990001007002058220120014B40421A60704746
:1049A00010070020FEE7C046F8B5C046F8B5C0467F
:1049B00074B20181B0AB308000000000800A018138
:1049C000B0B0ABF0000000003F020181B0AB30801E
:1049D0000000000080060181B0B0ABF000000000D4
:1049E00030EEFF7FB0B0B0807CEFFF7F01000000B1
:1049F00028F0FF7FB0A90280BCF0FF7FB0B0A88094
:104A000008F1FF7F0100000014F1FF7FB0B0AA8021
:104A100048F1FF7F9CFFFF7F08F2FF7F010000004D
:104A200004F2FF7FAA3F398050F2FF7FB0B0A88028
:104A30005CF2FF7FB0B0AA809CF2FF7FB0B0A8808C
:104A4000B0F2FF7F01000000ACF2FF7FB0B0A880A1
:104A5000B4F2FF7F010000003CF3FF7FAA0FB28099
:104A6000A4F3FF7F58FFFF7F7CF6FF7FB0B0A880E4
:104A700098F6FF7F54FFFF7FF4F8FF7F01000000EE
:104A800064FAFF7F0084048074FAFF7FB0B0A880CE
:104A900074FAFF7F40FFFF7F5CFDFF7F008404808E
:104AA0007CFDFF7FB0B0A88094FDFF7F0100000077
:104AB000080000200000000000000000F4020020B8
:104AC0005C030020C4030020000000000000000080
:104AD00000000000000000000000000000000000D6
:104AE00000000000000000000000000000000000C6
:104AF00000000000000000000000000000000000B6
:104B000000000000000000000000000000000000A5
:104B10000000000000000000000000000000000095
:104B20000000000000000000000000000000000085
:104B30000000000000000000000000000000000075
:104B40000000000000000000000000000000000065
:104B50000000000000000000000000000000000055
:104B600001000000000000000E33CDAB34126DE6F2
:104B7000ECDE05000B00000000000000000000005B
:104B80000000000000000000000000000000000025
:104B90000000000000000000000000000000000015
:104BA0000000000000000000000000000000000005
:104BB00000000000000000000000000000000000F5
:0400000508000805E2
:00000001FF
