:100000000C9476000C94D4190C9493000C949300E7
:100010000C9493000C9493000C9493000C94930014
:100020000C9493000C9493000C9493000C94930004
:100030000C9493000C9493000C9493000C949300F4
:100040000C9493000C9493000C9493000C949300E4
:100050000C9493000C9493000C9493000C949300D4
:100060000C9493000C9493000C9493000C949300C4
:100070000C9493000C9493000C94930009021200CA
:10008000010100806409040000000000000012016A
:100090001001FF000008C016DC050102010200018A
:1000A0001E0349004E004C00200052006500740001
:1000B00072006F002D00500072006F0067002A036D
:1000C00049006E00660069006E00690074006500FA
:1000D0004E00650073004C006900760065007300F7
:1000E0002E0063006F006D000403090411241FBE7D
:1000F000CFEFD4E0DEBFCDBF11E0A0E0B1E0E6E39A
:10010000F6E302C005900D92A630B107D9F723E0BF
:10011000A6E0B1E001C01D92A63EB207E1F70E9441
:10012000E81A0C94191B0C9400008C3039F481E00F
:10013000F901808383E0818380E008958AE808954F
:100140000F931F93CF93DF93EC01FB01D901009133
:100150004D0110914E01888187FF09C08E818C93DB
:10016000442399F00481158180E883831DC08FEFBB
:100170008C938E8180933801442309F44BC0709393
:100180006A036093690380E9F0CFE0912501F09163
:1001900026018381883DA1F50481158180E8838350
:1001A000E0912501F09126011782E0912501F0915F
:1001B000260183818039F1F48A81813711F08034FE
:1001C000C9F4E0916903F0916A030480F581E02DA0
:1001D0008C818083E0916903F0916A030480F5814A
:1001E000E02D8D818183E0916903F0916A0387811D
:1001F0008E5F8783C801DF91CF911F910F91089582
:10020000803D11F41C92CCCF8FEF8C9380E10E9443
:100210005013C6CFE0912501F09126018381811111
:1002200006C0F0936A03E093690380E9B8CF883988
:1002300069F7E8CFE9E5F1E08FEF819391E0E936E6
:10024000F907D9F780934C0180932B0180934B01E0
:1002500080932A0180933C018093180180933B0195
:100260008093170181E00C945013CF93DF93FC012E
:1002700050E0CA01820F911D4197E4F52223E1F17C
:1002800083818F3FD9F582818F3FD1F5DA01A75A5B
:10029000BE4FED0180E099919F3FA1F58F5F28133C
:1002A000FACF62831382982F9295990F907E915086
:1002B0009683178210861182108211861286138609
:1002C000148615861686178695E0440F551F9A9555
:1002D000E1F72091000130910101420F531F558336
:1002E000448390E06D939F5F8913FCCF80E0DF91A2
:1002F000CF9108958EEBFBCF82ECF9CF8FEBF7CF48
:1003000080ECF5CF81ECF3CFCF93DF93DC01EB01F1
:100310009A0112969C91129780ED890F803318F5FF
:1003200013968C911397813041F0E8F08230A9F058
:100330008330B1F085EB888346C0E8E2F1E0913587
:1003400009F476C048F5913309F449C078F499234B
:10035000B9F19033E1F184EBEECFE9E3F1E0EFCFD7
:10036000E5E1F1E0ECCFE9E4F1E0E9CF933309F422
:1003700046C0E8F1903579F7188286E08983868156
:100380008A8383818B8387818C8380858D8382811F
:100390008E8387858F8317C0903808F05FC09037B1
:1003A00008F055C0903679F19136C9F1923599F639
:1003B000188282E0898380818A8381818B8303C054
:1003C0000E941A011882CE01DF91CF9108951496F0
:1003D0008C91149715969C9191878287F3CF1496F0
:1003E0008C91149715969C9193878487EBCF1496E4
:1003F0008C91149715969C9195878687E3CF1496D8
:100400008C918787DFCF188281E089831496ED91E4
:10041000FC911597E75AFE4F80818A83D4CF1882CA
:1004200081E08983E0912501F09126018381F5CF58
:10043000188286E0898381858A8382858B83838580
:100440008C8384858D8385858E838685A3CF40E0CC
:10045000BF01CD01DF91CF910C94A000892F87704F
:10046000813049F0F8F0823001F1833009F062CF39
:10047000E5E1F1E002C0E8E2F1E0903808F4A3CF52
:100480009838B0F09059983008F09DCF18821396A4
:100490008C911397808714968D919C9115979183D9
:1004A000808391CFE9E4F1E0E8CFE9E3F1E0E5CF43
:1004B00014964C91149715966C91159713962C9150
:1004C000CF010E94350137CF90914C0180912B01D3
:1004D0008F3F79F481E09F3F09F480E090913C01E7
:1004E0009F3F09F083E0909118019F3F09F084E05D
:1004F000089582E0F3CF623059F421E08934920705
:1005000049F121E08832920789F489E491E00EC034
:10051000633069F421E089349207E1F021E0883208
:100520009207D9F021E08933920779F30895643076
:10053000E9F721E08934920769F021E088329207D7
:1005400061F021E08933920759F021E0853192076B
:1005500069F7DBCF88E291E0089589E391E008959F
:1005600085E191E008951F93CF93DF930E94561386
:10057000823D09F071C00E9464028093060189E403
:1005800091E090932601809325010E945613823DAD
:10059000A1F4D09106018091250190912601C1E03E
:1005A000CD1708F45FC0909326018093250120E8C1
:1005B000FC01238380ED0E9450130E945613823F5A
:1005C00041F480EF0E945013E0912501F091260143
:1005D00013820E945613C82F803DE1F480912501BB
:1005E00090912601FC0123812038A1F4609106013D
:1005F0000E947B029093260180932501FC011782C3
:10060000C3830E944C03E0912501F09126018823C9
:1006100071F183830E945613182F803FC9F4C09153
:100620002501D09126018B81883991F460910601D2
:10063000CE010E947B029093260180932501FC014C
:1006400013821B83CE010E947F088823C9F08B830D
:10065000DF91CF911F9108950E945613823F09F0B8
:1006600094CF89CF6D2F0E947B02CF5F99CF2085D9
:1006700080819181820F911D9183808388EDC9CF04
:1006800084EF8B83288588819981820F911D9983BE
:100690008883DECF88E80895CF92DF92EF920F93A0
:1006A0001F93CF93DF931F92CDB7DEB76C01DC01B0
:1006B0000D911C911197302F1996EC918E2F90E08F
:1006C000FC017097E332F10508F013C1E659FC4FC5
:1006D0000C94131B030430044A044F047904790476
:1006E0007904790479047904790479047904790422
:1006F000790479048D03BF03DD03E803ED03FA03F6
:100700007904790479047904790479047904790401
:10071000790479047904CE03A803F6016585603174
:1007200008F0F1C0F0E16F9FB0011124602B0FEFD2
:10073000D60116962C91169712964C9112971496F4
:100740008D919C9115970E94A40DF601878386C018
:10075000D6011D966C91603108F0D5C0B0E16B9F59
:10076000B0011124602B0FEFF601268142818481B4
:1007700095810E94DD0DD60117968C936FC0F6010E
:100780006585862F837C8111BEC0602B0FEF26818B
:100790004281848195810E941E0EEDCFF601658510
:1007A000862F837C09F0AFC0602B0FEF268142813A
:1007B000848195810E94560EDECFF6016585602BFF
:1007C0000FEF26814281848195810E94A40DD3CFB1
:1007D000F6016585862F807CD6CFF6016585602B76
:1007E000EE24EA940681228140E0848195810E9472
:1007F0007716C1CFF6016585602BEE24EA94068159
:10080000228141E0F2CFF60185858E3189F4202FD7
:100810002F7BB80136E0769567953A95E1F780E051
:1008200090EC29830E94150D2981622F60687FCF8B
:100830008C31A1F461E880E090E50E94150DB801CB
:10084000660F672F661F770B719580E090E80E9416
:10085000150D60E080E090E50E94150D80E04AC033
:10086000D6011D968C918E3FC9F7B80195E076951B
:1008700067959A95E1F78FEF9FE30E946C0D602FCB
:100880006F710FEFF60126814281848195810E946C
:10089000BE0E71CF602F60660FEFF60192CFF601AA
:1008A0008585811120C0302F3068B801660F672F11
:1008B000661F770B71958FEF84B965B95F9A5F9862
:1008C00014B8EE24EA94D60116960C911697129657
:1008D0002C91129740E0632F14968D919C9115975F
:1008E0000E94771632CF813031F7612F6F736064C9
:1008F000E2CF83EC0F90DF91CF911F910F91EF909A
:10090000DF90CF90089584ECF5CFCF92DF92EF92F5
:10091000FF920F931F93CF93DF937B016A01DB015B
:100920001796CC91D0E0082F10E0102F0027D701A8
:1009300016968C91169790E08C179D0760F4179689
:10094000CC9380E0DF91CF911F910F91FF90EF90BA
:10095000DF90CF900895CE019927D7011496ED919D
:10096000FC911597E80FF91F6081802B912BF60100
:1009700009952196DCCF8F929F92AF92BF92CF9232
:10098000DF92EF92FF921F93CF93DF93EB015A0117
:100990001F81812E912CE82EF12CFE2CEE248E81CD
:1009A00090E08815990570F41F8380E0DF91CF9166
:1009B0001F91FF90EF90DF90CF90BF90AF909F90EE
:1009C0008F900895C12ED12CEC81FD81EC0DFD1D81
:1009D0006081C6018E299F29F50109952C813D81F1
:1009E000C20ED31EF6019081891719F0519A599AB7
:1009F000D6CF5198599A1F5FFFEF8F1A9F0ACFCF1A
:100A00004F925F926F927F928F929F92AF92BF921E
:100A1000CF92DF92EF92FF920F931F93CF93DF93CA
:100A20004A013901E8015F80A52CB12C8501162B04
:100A30008E81851598F45F8280E0DF91CF911F91C0
:100A40000F91FF90EF90DF90CF90BF90AF909F906D
:100A50008F907F906F905F904F9008956AEAC401E5
:100A6000F701099565E5C301F701099560EAC4013D
:100A7000F7010995EC81FD81EA0DFB1D6081C8013C
:100A8000F70109950E94B518C801F6010995482E8D
:100A9000C801F60109954812F5CFCACF2F923F92AF
:100AA0004F925F926F927F928F929F92AF92BF927E
:100AB000CF92DF92EF92FF920F931F93CF93DF932A
:100AC000CDB7DEB727970FB6F894DEBF0FBECDBF08
:100AD000582E4A013C832B831F830E83D80117961F
:100AE0004C90042D10E070E0F62FEE27FA83E98396
:100AF000252C312CF7E92F1AF2E03F0AAE81BF8195
:100B000016968C91169790E080179107E0F417964F
:100B10004C9280E027960FB6F894DEBF0FBECDBF93
:100B2000DF91CF911F910F91FF90EF90DF90CF90C9
:100B3000BF90AF909F908F907F906F905F904F90FD
:100B40003F902F90089560E089E69DEF0E94150D7B
:100B50006AEAC401F701099565E58B819C81F7017B
:100B6000099560EAC401F7010995652DC1010E944C
:100B7000150D642C712CA980BA80A628B728AE81E7
:100B8000BF811496ED91FC911597E60DF71D6081DC
:100B9000C501F70109950E94B518C501F60109952F
:100BA000282FC5012D83F60109952D812813F3CF38
:100BB000AE81BF8114968D919C911597680E791E18
:100BC000F3018081281307C043940F5F1F4F519892
:100BD000599A599893CF519A599A90CF3F924F92E0
:100BE0005F926F927F928F929F92AF92BF92CF92BD
:100BF000DF92EF92FF920F931F93CF93DF93482ED4
:100C0000662E7A01E901DA0117965C90A52CB12CC9
:100C10006AEA8AEA9AE8F901099565E585E595E8C1
:100C2000FE01099560E28AEA9AE8FE010995712CB5
:100C3000762C6624D70116968C91169790E08A152B
:100C40009B0520F517965C9260E980E090E8FE0134
:100C5000099560E080E090E8FE01099560EF80E092
:100C600090E8FE01099580E0DF91CF911F910F91EF
:100C7000FF90EF90DF90CF90BF90AF909F908F90BC
:100C80007F906F905F904F903F90089564E580E073
:100C900090E50E94150D852C912C6401C628D7285B
:100CA00060EAC601FE010995D7011496ED91FC9109
:100CB0001597E80DF91D6081C601FE0109950E9496
:100CC000B518C601F8010995382EC601F801099535
:100CD0003812F5CFD70114968D919C911597880EF7
:100CE000991EF4018081381208C05394FFEFAF1AA7
:100CF000BF0A5198599A59989DCF61E880E090E5D4
:100D00000E94150D642D80E090E80E94150D64E5A9
:100D100080E090E50E94150D519A599A8BCF4F9221
:100D20005F926F927F928F929F92AF92BF92CF927B
:100D3000DF92EF92FF920F931F93CF93DF93662E74
:100D40007A01E901DA0117965C90A52CB12C6AEAC8
:100D50008AEA9AE8F901099565E585E595E8FE01D5
:100D6000099560E28AEA9AE8FE010995712C762CD1
:100D70006624D70116968C91169790E08A159B05EC
:100D800018F517965C9260E980E090E8FE010995FD
:100D900060E080E090E8FE01099560EF80E090E877
:100DA000FE01099580E0DF91CF911F910F91FF9097
:100DB000EF90DF90CF90BF90AF909F908F907F90FB
:100DC0006F905F904F900895852C912C6401C628F8
:100DD000D72860EAC601FE010995D7011496ED9166
:100DE000FC911597E80DF91D6081C601FE0109957A
:100DF0000E94B518C601F8010995482EC601F801F0
:100E000009954812F5CFD70114968D919C911597AD
:100E1000880E991EF4018081481208C05394FFEF98
:100E2000AF1ABF0A5198599A5998A3CF519A599A13
:100E3000A0CF4F925F926F927F928F929F92AF92CC
:100E4000BF92CF92DF92EF92FF920F931F93CF93B7
:100E5000DF93662E7A01E901DA0117965C90A52CE2
:100E6000B12C6AEA8AEA9AE0F901099565E585E517
:100E700095E0FE01099560E28AEA9AE0FE01099593
:100E8000712C762C6624D70116968C91169790E0DB
:100E90008A159B0518F517965C9260E980E090E052
:100EA000FE01099560E080E090E0FE01099560EFA9
:100EB00080E090E0FE01099580E0DF91CF911F91E5
:100EC0000F91FF90EF90DF90CF90BF90AF909F90E9
:100ED0008F907F906F905F904F900895852C912C0C
:100EE0006401C628D72860EAC601FE010995D7012A
:100EF0001496ED91FC911597E80DF91D6081C601DE
:100F0000FE0109950E94B518C601F8010995482E01
:100F1000C601F80109954812F5CFD70114968D91B5
:100F20009C911597880E991EF4018081481208C083
:100F30005394FFEFAF1ABF0A5198599A5998A3CF0B
:100F4000519A599AA0CF4F925F927F928F929F921F
:100F5000AF92BF92CF92DF92EF92FF920F931F93C7
:100F6000CF93DF93A62E6A01E901DA011796EC9080
:100F7000F12CA89500000000000000000000000017
:100F800000000000000040E06AEA8AEA9AE8F901FD
:100F9000099540E065E585E595E8FE01099540E0A5
:100FA00060E28AEA9AE8FE010995B12CBA2CAA24DB
:100FB000D60116968C91169790E08E159F0530F508
:100FC0001796EC9240E060E980E090E8FE01099518
:100FD00040E060E080E090E8FE01099540E060EFCD
:100FE00080E090E8FE010995000080E0DF91CF915C
:100FF0001F910F91FF90EF90DF90CF90BF90AF9037
:101000009F908F907F905F904F90089560E080EA6E
:101010000E9468162701552442018A289B28D60180
:101020001496ED91FC911597E40DF51D40E060815B
:10103000C401FE010995000000000000000000004E
:101040000000000000000000A8950E94B51860E0B4
:10105000C401F8010995782E00000000000000008E
:1010600000000000000000000000D6011496ED9181
:10107000FC911597E40DF51D80817816C1F00000F4
:101080000000000000000000000000000000000060
:1010900060E0C401F801099578120DC0000000005D
:1010A0000000000000000000000000000000FFEF52
:1010B000EF1AFF0A7DCF00000000000000000000D2
:1010C0000000000000000000000000000000000020
:1010D0000000000000000000000000000000000010
:1010E0000000000000000000000000000000000000
:1010F000000060E0C401F8010995782EC9CFBF92C5
:10110000CF92DF92EF92FF920F931F93CF93DF93D3
:10111000EC01B8808985823109F450C138F48031FE
:10112000A9F0813109F4FAC083EC06C0833109F4D7
:101130004DC18431C9F780E0DF91CF911F910F91AC
:10114000FF90EF90DF90CF90BF9008958D85811133
:1011500007C048E15FE0BE0180E88B0D0E94BB0440
:101160008D85813039F447E65FE0BE0180E88B0D64
:101170000E9485048D85823039F448EC5FE0BE0121
:1011800080E88B0D0E9485048D85843039F44FE40E
:1011900050E1BE0180E88B0D0E94BB048D858C3F21
:1011A00039F44CE750E1BE0180E88B0D0E94BB048E
:1011B0008D858A3039F442ED50E1BE0180E88B0D17
:1011C0000E94BB048D858D3FD1F46B2D6F736068D9
:1011D000B62E8881998176E0969587957A95E1F784
:1011E000E3E0CE2EEDE0DE2EFAEDEF2EFCE0FF2E5A
:1011F0008E012AEA3AE245E555E50E944E058D85C5
:101200008E3139F44EE951E1BE0180E88B0D0E9428
:10121000BB048D858C3031F56B2D6F716068B62EF7
:101220000881198145E0169507954A95E1F765EA29
:1012300080E090E60E94150D602F8FEF9FEF0E94D7
:10124000150D53E0C52E5DE0D52E65E1E62E6DE06F
:10125000F62E8E012AEA3AEA45E555ED6B2D80E03F
:101260000E9400058D858C3129F56AEA8AEA9AE8A0
:101270000E94440D65E585E595E80E94440D60E215
:101280008AEA9AE80E94440D4FEE52E1BE0180E8DE
:101290008B0D0E94BB0460E980E090E80E94440D41
:1012A00060E080E090E80E94440D60EF80E090E80C
:1012B0000E94440D8D858F3129F56AEA8AEA9AE900
:1012C0000E94440D65E585E595E90E94440D60E2C4
:1012D0008AEA9AE90E94440D41E153E1BE0180E9A6
:1012E0008B0D0E94BB0460E980E090E90E94440DF0
:1012F00060E080E090E90E94440D60EF80E090E9BA
:101300000E94440D8D858F3609F015CF4BED51E1CC
:10131000BE0180E88B0D0E94BB040DCF8D8581112D
:1013200006C040E45FE0BE018B2D0E9485048D85E0
:10133000813031F444E95FE0BE018B2D0E948504C9
:101340008D85833031F443E050E1BE018B2D0E9446
:1013500085048D85843031F44EE750E1BE018B2D3C
:101360000E9485048D858A3031F440E051E1BE0150
:101370008B2D0E9485048D858B3031F44DE351E136
:10138000BE018B2D0E9485048D858E3F09F0D3CE42
:101390006881798135E0769567953A95E1F78FEF29
:1013A0009FE30E946C0D6B2D6F7100E81DE022E938
:1013B0003DE0AE0180E00E941907BDCE45E15DE051
:1013C000BE0180E68B0D0E948504B5CE8D858430EC
:1013D00039F448EB56E1BE0180E88B0D0E9485048C
:1013E0008D85853031F448EB56E1BE018B2D0E948E
:1013F00085048D85863039F445EE56E1BE0180E8DE
:101400008B0D0E9485048D85873031F445EE56E1C1
:10141000BE018B2D0E9485048D85811119C08B2DF5
:101420008068B82E88819981880F892F881F990B31
:1014300091959FEF94B985B95F9A5F9814B803E3CB
:1014400016E12FE436E1AE016B2D80E00E94A30788
:101450008D85813009F06FCE89818F7380649FEF15
:1014600094B985B95F9A5F9814B803E316E12FE445
:1014700036E1AE016B2D80E00E94A3075CCE389868
:10148000409A3998419A3A98429A3C98449A3D98A1
:10149000459A3E98469A53985B9A55985D9A3B9820
:1014A000439A3F98479A57985F9A5098589814B81B
:1014B0008FEF85B93F9A479881B911B882B914B8AE
:1014C00085B914B885B95198599A08950E943F0A70
:1014D000419A399A4098389A429A3A9A449A3C9A50
:1014E000459A3D9A14B88FEF85B914B885B914B8E8
:1014F00085B93F9A479881B912B884B915B8479A07
:10150000479814B808950E943F0A399A419A3C9A24
:10151000449A3D9A459A589A509A14B88FEF85B9D3
:1015200014B885B914B885B93F9A479881B912B8EB
:1015300084B915B8479A479814B814B885B9579A1A
:101540005F9884B915B85F9A5F9814B80895813090
:1015500049F414B88FEF85B9579A5F980E94220B0F
:1015600080E0089588E908955898509A000089B15C
:101570005098589880FD22C05098589A59B149B156
:10158000000039B10000000029B100000000000097
:1015900099B1000000000000000089B150985898EF
:1015A00050FD0EC040FD0EC030FD0EC020FD0EC02F
:1015B00090FD0EC080FD0EC080EE089580EF08956E
:1015C00080E0089581E0089583E0089586E008951D
:1015D0008AE008958FE008950F931F93CF93DF93D0
:1015E0001F92CDB7DEB78901823009F130F488232C
:1015F00081F08130C1F086E910C08430D9F08038A4
:10160000D1F781E0F90180830E94B40AF801818357
:101610000CC089830E943F0A89810F90DF91CF918E
:101620001F910F9108950E94660A80E0F6CF0E94F4
:10163000830AFBCF842F0F90DF91CF911F910F91E1
:101640000C94A70A109214018FEF84B915B85F9A11
:101650005F9814B85098589A80E880936C03109261
:101660007A03EBE7F3E0119283E0EB39F807D9F75F
:10167000089560917A03813109F441C010921401F8
:101680009FEF94B99091140195B95F9A5F9814B83F
:1016900020E070E03FEF8032C9F4E72FF0E0E5583A
:1016A000FC4F408150E0022E02C0559547950A94A8
:1016B000E2F740FF28C092E034B995B95F9A5F988D
:1016C00014B82F5F283011F47F5F20E0492F446069
:1016D00034B945B95F9A5F9814B8615034B995B977
:1016E0005F9A5F9814B86111D6CF9093140140931C
:1016F000270134B915B85F9A5F9814B8089592E03D
:1017000090931401BDCF90E0D7CF0F931F93CF9349
:10171000DF9350917A03B0917B03813109F46BC060
:10172000109214019FEF94B99091140195B95F9AAA
:101730005F9814B820E030E07FEFC1E0D0E0803265
:1017400081F4EB2FF0E0022E02C0F595E7950A94A4
:10175000E2F7E0FF54C0916074B995B95F9A5F9861
:1017600014B86032B1F4211105C0E32FF0E0E55860
:10177000FC4F1082489B0DC0E32FF0E0E558FC4F72
:10178000A0818E01022E01C0000F0A94EAF7A02B5F
:10179000A0835150442341F0511106C0926074B9A6
:1017A00095B95F9A5F9814B8A92FA46074B9A5B9C8
:1017B0005F9A5F9814B874B995B95F9A5F9814B836
:1017C0002F5F283039F43F5FE32FF0E0E558FC4FFE
:1017D000B08120E05111B3CF90931401A093270161
:1017E0008FEF84B915B85F9A5F9814B8DF91CF91E5
:1017F0001F910F91089591E09093140193CF9E7FD4
:10180000ABCF80916C038338D1F580916D03883024
:1018100009F463C0C0F4833009F445C030F481306A
:1018200079F18230A1F18EEE28C0863009F44AC0E9
:1018300008F04EC08430B9F781E880936C0341E032
:1018400060E281E136C08F30C1F148F48D3031F172
:101850008E3049F781E880936C0340E028C08038DF
:1018600049F08F3F49F08031F1F681E880936C03B5
:1018700040E02CC00C94220B80EF80936C03089501
:1018800081E880936C0380E20E94390B14C081E8E8
:1018900080936C0341E060E080E20BC081E88093BC
:1018A0006C0340E0F8CF81E880936C0341E060E294
:1018B00080E10E94850B82E8E0CF81E880936C0391
:1018C00040E0BECF81E880936C0341E060E2E4CF6A
:1018D00081E880936C0380E1D7CF81E880936C032B
:1018E00081E1D2CFCF93DF93E901843061F138F405
:1018F0008230E1F008F58130A1F087E80FC0873031
:1019000039F128F48530C9F740937A0306C088304E
:1019100021F1803891F70E94220B80E0DF91CF9176
:10192000089590916D0399838883F7CF40936D0359
:1019300083E880936C03F1CF40936D0383E8809339
:101940006C030E94010C80916C03898381E0ECCFD1
:1019500040937B0350937C03E0CF80917B0389838A
:1019600080917C038A8380917D038B8380917E03A9
:101970008C8380917F038D83809180038E8386E0AA
:10198000D3CF84B7877F84BFE0E6F0E080818861B1
:1019900080831082089582B98FEF84B995B9479AF0
:1019A000479814B884B965B9509A58985098589A7D
:1019B00014B8089582B98FEF84B995B9479A4798BA
:1019C00014B884B965B9509A5898589A14B80895BB
:1019D000509858984098419A429A82B92FEF24B96A
:1019E00095B9479A479814B800000000409A97FDAF
:1019F000419800000000000000000000000083B1DA
:101A00004098419A089582B92FEF24B995B9479A21
:101A1000479814B897FD4198409A000000000000D4
:101A2000000083B14098419A08955098589882B91F
:101A30002FEF24B995B9479A479814B8429824B91A
:101A400065B997FD4198409A000000000000000031
:101A5000000000000000000000004098419A429AF7
:101A600014B8089582B92FEF24B995B9479A4798C9
:101A700014B8429824B965B997FD41980000000058
:101A8000419A429A14B80895409A82B92FEF24B926
:101A900095B9479A479814B8429824B965B997FD03
:101AA000419800000000419A429A14B84098089565
:101AB000811520E2920708F4906882B98FEF84B90B
:101AC00095B9479A479814B8449800000000000060
:101AD000000083B1449A0895811520E2920708F42A
:101AE000906882B98FEF84B995B9479A479814B82E
:101AF00084B965B9000045980000459A14B8089566
:101B000082B98FEF84B995B9479A479814B8409A2B
:101B10004198449800000000000083B1449A409826
:101B2000419A089582B98FEF84B995B9479A479839
:101B300014B84098419884B965B9000045980000F0
:101B4000459A14B8419A0895EF92FF920F93CF935C
:101B5000DF9300D01F92CDB7DEB77C018FEF84B941
:101B600065B9479A479814B8409A67FD419842B9B9
:101B7000000080E0011118C000000000000093B1D7
:101B8000F701E80FF11D90834F5F42B98F5F28176F
:101B900088F74098419A0F900F900F90DF91CF9166
:101BA0000F91FF90EF9008952B834A8389830E94C1
:101BB000B51889814A812B81E1CFEF92FF920F9373
:101BC000CF93DF9300D01F92CDB7DEB77C018FEFAC
:101BD00084B965B9479A479814B867FD419842B9E6
:101BE000000080E0409A011120C0000000000000C9
:101BF000000000000000000000000000000093B1A1
:101C0000F701E80FF11D908340984F5F42B98F5F55
:101C1000281740F74098419A0F900F900F90DF914E
:101C2000CF910F91FF90EF9008952B834A83898382
:101C30000E94B51889814A812B81D9CFEF92FF92FA
:101C40000F93CF93DF9300D01F92CDB7DEB77C0107
:101C5000603208F460688FEF84B965B9479A479895
:101C600014B8449842B9000080E0011116C0000089
:101C7000000093B1F701E80FF11D90834F5F42B967
:101C80008F5F281790F7449A0F900F900F90DF9175
:101C9000CF910F91FF90EF9008952B834A83898312
:101CA0000E94B51889814A812B81E3CFEF92FF9280
:101CB0000F93CF93DF9300D01F92CDB7DEB77C0197
:101CC000603208F460688FEF84B965B9479A479825
:101CD00014B842B94498449A00000000000080E023
:101CE000449800000000011118C00000000093B1EA
:101CF000F701E80FF11D90834F5F42B9449A00004D
:101D000000008F5F281760F70F900F900F90DF9102
:101D1000CF910F91FF90EF9008952B834A83898391
:101D20000E94B51889814A812B81E1CFEF92FF9201
:101D30001F93CF93DF93EC01C11580E2D80708F41D
:101D4000D0680E948E177E01F3941FEFC2B914B9B8
:101D5000D5B9479A479814B814B985B90000459881
:101D60000E948E172196459AEC16FD0679F714B855
:101D7000DF91CF911F91FF90EF900895EF92FF9226
:101D80000F93CF93DF9300D01F92CDB7DEB77C01C6
:101D90008FEF84B965B9479A479814B8409A41982B
:101DA000449842B9000080E0011118C00000000012
:101DB00093B1F701E80FF11D90834F5F42B98F5F38
:101DC000281790F7449A4098419A0F900F900F90DF
:101DD000DF91CF910F91FF90EF9008952B834A836D
:101DE00089830E94B51889814A812B81E1CF0F93A5
:101DF0001F93CF93DF938C01D62F442349F080E0CB
:101E000090E80E94030D60E880E090E80E94150DC4
:101E1000C5E0C8010E94030D6D2FC8010E94150D79
:101E2000D695C150B1F7DF91CF911F910F910895D1
:101E30001F93CF93DF93EC01162F6AEA85E595E5B2
:101E40000E94CB0C65E58AEA9AE20E94CB0C60EA1C
:101E500085E595E50E94CB0C612FCE010E94CB0C4D
:101E6000CE010E94030D182F0E94B518CE010E94CA
:101E7000030D1813F5CF812FDF91CF911F91089596
:101E80001F93CF93DF93EC01162F6AEA85E595E166
:101E90000E946C0D65E58AEA9AE00E946C0D60EA8A
:101EA00085E595E10E946C0D612FCE010E946C0DBD
:101EB000CE010E94580D182F0E94B518CE010E9425
:101EC000580D1813F5CFDF91CF911F9108951F93EF
:101ED000CF93DF93EC01162F40E065E080E090ECBB
:101EE0000E94F70E6AEA85E595E50E94150D65E505
:101EF0008AEA9AEA0E94150D60EA85E595E50E9456
:101F0000150D612FCE010E94150DCE010E94030D0B
:101F1000182F0E94B518CE010E94030D1813F5CF9B
:101F2000DF91CF911F9108951F93CF93DF93EC0121
:101F3000162F40E062E080E090EA0E94F70E6AEA25
:101F400085E595E10E946C0D65E58AEA9AE00E94BC
:101F50006C0D60EA85E595E10E946C0D40E06091B2
:101F60009E0380E090EA0E94F70E612FCE010E944E
:101F70006C0DCE010E94580D182F0E94B518CE018D
:101F80000E94580D1813F5CFDF91CF911F9108953E
:101F90001F93CF93DF93EC01162F60E080919B039A
:101FA00090919C030E94150D6AEA85E595E50E94D3
:101FB000CB0C65E58AEA9AE20E94CB0C60EA85E5E3
:101FC00095E50E94CB0C90919E0320919B0330914C
:101FD0009C03692FA901490F511DCA010E94150DCB
:101FE000612FCE010E94CB0CCE010E94030D182F51
:101FF0000E94B518CE010E94030D1813F5CFDF9192
:10200000CF911F9108951F93CF93DF93EC01162F6B
:1020100080919B0390919C0362E002960E94150DB3
:102020006AEA85E595E10E946C0D80919B03909191
:102030009C0361E001960E94150D65E58AEA9AE02D
:102040000E946C0D80919B0390919C0362E002962C
:102050000E94150D60EA85E595E10E946C0D909156
:102060009E0320919B0330919C03692FA901490F86
:10207000511DCA010E94150D612FCE010E946C0DE9
:10208000CE010E94580D182F0E94B518CE010E9453
:10209000580D1813F5CFDF91CF911F9108951F931D
:1020A000CF93DF93EC01162F6AEA85E595ED0E9448
:1020B000150D65E58AEA9AEA0E94150D60EA85E544
:1020C00095ED0E94150D612FCE010E94150D62E065
:1020D00080E090E80E94150DCE010E94030D182F9C
:1020E0000E94B518CE010E94030D1813F5CF812F61
:1020F000DF91CF911F91089580E008951F93CF93B2
:10210000DF93EC01162F6AEA85E595E10E946C0DDC
:1021100065E58AEA9AE10E946C0D60EA85E595E141
:102120000E946C0D612FCE010E946C0DCE010E94A9
:10213000580D182F0E94B518CE010E94580D181383
:10214000F5CFDF91CF911F9108951F93CF93DF9328
:10215000EC01162F6AEA8AEA9AEF0E94150D65E5EE
:1021600085E595EF0E94150D60EA8AEA9AEF0E94D4
:10217000150D612FCE010E94150D60919E0380E028
:1021800090EA0E94150DCE010E94030D182F0E94A7
:10219000B518CE010E94030D1813F5CFDF91CF9132
:1021A0001F9108951F93CF93DF93EC01162F6AEAD6
:1021B00085E595ED0E94150D65E58AEA9AEE0E9487
:1021C000150D60EA85E595ED0E94150D612FCE0194
:1021D0000E94150D60919E0380E090EA0E94150D0B
:1021E000CE010E94030D182F0E94B518CE010E9447
:1021F000030D1813F5CF812FDF91CF911F91089513
:102200001F93CF93DF93EC01162F6AE080E090EBF1
:102210000E94150D6AE080E090EC0E94150D6AEABC
:1022200085E595E10E946C0D65E58AEA9AE00E94D9
:102230006C0D60EA85E595E10E946C0D60919E034E
:1022400080E090EB0E94150D60919E0380E090EC81
:102250000E94150D612FCE010E946C0DCE010E94CF
:10226000580D182F0E94B518CE010E94580D181352
:10227000F5CFDF91CF911F9108951F93CF93DF93F7
:10228000EC01162F80919D0390E0880F991F2091FB
:102290009B0330919C0360E2820F931F0E94150DF7
:1022A0006AEA85E595E10E946C0D20919D0380917D
:1022B0009B0390919C0360E1820F911D0E94150D7C
:1022C00065E58AEA9AE00E946C0D80919D0390E09A
:1022D000880F991F20919B0330919C0360E2820F2D
:1022E000931F0E94150D60EA85E595E10E946C0D33
:1022F00090919E03692F6295607F80919D0320914C
:102300009B0330919C03A901989F400D511D1124FE
:10231000CA010E94150D612FCE010E946C0DCE01E5
:102320000E94580D182F0E94B518CE010E94580D1A
:102330001813F5CFDF91CF911F9108951F93CF937D
:10234000DF93EC01162F61E080E090EC0E94150D08
:102350006AEA85E595E90E94150D60E080E090EC61
:102360000E94150D65E58AEA9AEA0E94150D61E062
:1023700080E090EC0E94150D60EA85E595E90E94E9
:10238000150D60919E0380E090EC0E94150D612F69
:10239000CE010E94150DCE010E94030D182F0E9440
:1023A000B518CE010E94030D1813F5CF812FDF91D0
:1023B000CF911F9108951F93CF93DF93EC01162FB8
:1023C00060919E0380E090E50E94150D6AEA85E524
:1023D00095ED0E94150D65E58AEA9AEA0E94150DB1
:1023E00060EA85E595ED0E94150D612FCE010E94F2
:1023F000150DCE010E94030D8113FBCFDF91CF910C
:102400001F9108950F931F93CF93C82FCA0189017D
:10241000C13109F4B1C098F5C83009F4AAC0B0F4CC
:10242000C43009F48BC050F4C13009F478C008F40A
:102430006CC0C23009F476C0C0EA69C0C63009F485
:102440006BC008F478C00E944F1044C0CC3009F42F
:1024500096C040F4CA3009F480C008F47BC00E94E2
:10246000031038C0CE3009F47BC008F47FC0CF30F1
:1024700009F479C0C03101F70E94A5102BC0C53204
:1024800009F456C0D8F4C03209F45CC050F4C3312A
:1024900009F47BC008F476C0C43171F60E94D210F2
:1024A00019C0C23209F441C008F44FC0C33209F464
:1024B00093C0C43209F640939D030CC0C23809F49E
:1024C00075C050F4C03809F463C008F069C0C63262
:1024D00009F0B2CFC0E01BC0C53809F46DC048F4A4
:1024E000C43809F0A9CF21E0F80120830E94800DB3
:1024F00054C0C63809F466C0C73809F09DCF81E0E2
:10250000F901808380919D0349C00E94CB0C8C2FE0
:10251000CF911F910F9108950E94DA0CDBCF0E949A
:102520006C0DD8CF0E94150DD5CF0E94320DD2CFA1
:102530000E94440DCFCF0E94920DCCCF40E00E946C
:10254000F70EC8CF40939E03C5CF40939B03909353
:102550009C03C0CF0E94180FBDCF0E94400FBACF7E
:102560000E94670FB7CF0E94940FB4CF0E94C80F8C
:10257000B1CF0E947E10AECF0E940011ABCF0E945F
:102580003D11A8CF0E949E11A5CF0E94DB11A2CFC2
:1025900021E0F80120830E94E80CF80181839ACFA2
:1025A00021E0F80120830E94030DF7CF21E0F8011C
:1025B00020830E94580DF1CF81E0F9018083809142
:1025C0009E03ECCF82E0F901808380919B0381839D
:1025D00080919C0382837ECF0E94960E7BCF1F93B7
:1025E000CF93DF93EC01162F64E580E090E50E9425
:1025F000150D60EACE010E94440D612FCE010E94AC
:10260000440DCE010E94030D182F0E94B518CE0173
:102610000E94030D1813F5CF812FDF91CF911F91E9
:1026200008951F93CF93DF93EC01162F60EA0E9469
:10263000440D612FCE010E94440DCE010E94030D76
:10264000182F0E94B518CE010E94030D1813F5CF64
:10265000812FDF91CF911F910895CF93DF93FB01DD
:10266000DC0112962C91222329F0203479F082ED9E
:10267000808308C01082A0910201B0910301EC0197
:102680008C818C93CF01DF91CF910895108281E0EE
:102690008183A0910201B09103018C918283F2CFDA
:1026A000E0910201F091030180830895E09102011D
:1026B000F0910301808108950F931F93D901082F92
:1026C00010E00831110508F0C2C2F801E659FC4ECD
:1026D0000C94131BA4138213DF133A148614D21420
:1026E0001E15C915CE15D315D615DA15DD15E51548
:1026F000ED15F115F415F815011608160C1614163B
:102700001B161F164631510508F0A3C2FA01E55702
:10271000FC4E0C94131BA113A713AB13AF13B313ED
:10272000B713BB13BF13C313C713CB13CF13D313E9
:10273000D7132916291629162916291629162916F6
:10274000DB133898409A80E01F910F9108953998D3
:10275000419A80E0F9CF3A98429A80E0F5CF3B98D1
:10276000439A80E0F1CF3C98449A80E0EDCF3D98C9
:10277000459A80E0E9CF3E98469A80E0E5CF3F98C1
:10278000479A80E0E1CF5098589A80E0DDCF519889
:10279000599A80E0D9CF53985B9A80E0D5CF55986D
:1027A0005D9A80E0D1CF56985E9A80E0CDCF579861
:1027B0005F9A80E0C9CF5098589A80E0C5CF4631E3
:1027C000510508F048C2FA01E851FC4E0C94131B65
:1027D000FE13021406140A140E14121416141A14FA
:1027E0001E14221426142A142E1432142B162B16FF
:1027F0002B162B162B162B162B16361438984098A2
:1028000080E0A2CF3998419880E09ECF3A984298D4
:1028100080E09ACF3B98439880E096CF3C984498CC
:1028200080E092CF3D98459880E08ECF3E984698C4
:1028300080E08ACF3F98479880E086CF509858989C
:1028400080E082CF5198599880E07ECF53985B9872
:1028500080E07ACF55985D9880E076CF56985E9864
:1028600080E072CF57985F9880E06ECF509858986C
:1028700080E06ACF4631510508F0EFC1FA01ED5B07
:10288000FB4E0C94131B59145C145F1462146514F2
:1028900068146B146E147114741477147A147D1404
:1028A00080142D162D162D162D162D162D162D16BF
:1028B0008314389A80E048CF399A80E045CF3A9A1D
:1028C00080E042CF3B9A80E03FCF3C9A80E03CCF13
:1028D0003D9A80E039CF3E9A80E036CF3F9A80E043
:1028E00033CF509A80E030CF519A80E02DCF539A69
:1028F00080E02ACF559A80E027CF569A80E024CFF7
:10290000579A80E021CF509A80E01ECF4631510582
:1029100008F0A5C1FA01E157FB4E0C94131BA51456
:10292000A814AB14AE14B114B414B714BA14BD1473
:10293000C014C314C614C914CC142F162F162F1686
:102940002F162F162F162F16CF14409880E0FCCE8E
:10295000419880E0F9CE429880E0F6CE439880E03E
:10296000F3CE449880E0F0CE459880E0EDCE4698D6
:1029700080E0EACE479880E0E7CE589880E0E4CE49
:10298000599880E0E1CE5B9880E0DECE5D9880E0F3
:10299000DBCE5E9880E0D8CE5F9880E0D5CE5898A8
:1029A00080E0D2CE4631510508F05BC1FA01E55214
:1029B000FB4E0C94131BF114F414F714FA14FD14C9
:1029C00000150315061509150C150F15121515150B
:1029D00018153116311631163116311631163116D9
:1029E0001B15409A80E0B0CE419A80E0ADCE429A6D
:1029F00080E0AACE439A80E0A7CE449A80E0A4CE9D
:102A0000459A80E0A1CE469A80E09ECE479A80E02B
:102A10009BCE589A80E098CE599A80E095CE5B9AEA
:102A200080E092CE5D9A80E08FCE5E9A80E08CCE80
:102A30005F9A80E089CE589A80E086CE82E08C93BF
:102A40004631510508F0A2C0FA01E75DFA4E0C9438
:102A5000131B3F15481551155A1563156C1575153F
:102A60007E15871590159915A215AB15B415C615C9
:102A7000C615C615C615C615C615C615BD1586B12B
:102A8000817011968C93119712961C9280E05CCE07
:102A900086B1827090E012969C938E93119780E09D
:102AA00053CE86B1847090E012969C938E931197CA
:102AB00080E04ACE86B1887090E012969C938E9307
:102AC000119780E041CE86B1807190E012969C9380
:102AD0008E93119780E038CE86B1807290E0129686
:102AE0009C938E93119780E02FCE86B1807490E0F6
:102AF00012969C938E93119780E026CE86B18078B3
:102B000090E012969C938E93119780E01DCE89B130
:102B1000817011968C93119712961C9280E014CEBE
:102B200089B1827090E012969C938E93119780E009
:102B30000BCE89B1887090E012969C938E9311977A
:102B400080E002CE89B1807290E012969C938E93C1
:102B5000119780E0F9CD89B1807490E012969C9332
:102B60008E93119780E0F0CD89B1807890E0129635
:102B70009C938E93119780E0E7CD89B18170119677
:102B80008C93119712961C9280E0DECD1C928DE8FA
:102B9000DBCD14B88FEF85B980E0D6CD14B88FEFB8
:102BA00085B980E0D1CD14B880E0CECD8FEF84B967
:102BB00080E0CACD45B980E0C7CD83B111968C9332
:102BC000119781E08C9380E0BFCD14B88FEF85B969
:102BD0003F9A479881B980E0B7CD8FEF82B980E006
:102BE000B3CD11B880E0B0CD8FEF81B980E0ACCD2E
:102BF00042B98FEF84B955B9479A479814B880E025
:102C0000A3CD14B88FEF85B9579A5F9880E09CCD1B
:102C100057985F9A80E098CD8FEF84B945B95F9A55
:102C20005F9814B880E090CD14B88FEF85B9579AAB
:102C30005F9880E089CD57985F9A80E085CD8FEFCF
:102C400084B945B95F9A5F9814B880E07DCD8CE86F
:102C50007BCD8DE879CD8DE877CD8DE875CD8DE88C
:102C600073CD8DE871CD82B98FEF84B995B9479A4C
:102C7000479814B8611101C04198449800000000C1
:102C80000000000000000000000000000000000044
:102C900000000000000083B1449A419A089582B96F
:102CA0008FEF84B995B9479A479814B884B965B934
:102CB0004598411101C0419800000000000000004B
:102CC0000000000000000000459A419A14B80895E1
:102CD0009FEF94B985B94598611101C041980000F2
:102CE000000000000000459A419A14B80895CF9260
:102CF000DF92EF920F93CF93DF9300D0CDB7DEB783
:102D00006C018FEF84B965B9479A479814B8449815
:102D1000411101C0419822B980E0E1101FC00000BC
:102D200000000000000000000000000000000000A3
:102D3000000093B1F601E80FF11D90832F5F22B9D7
:102D40008F5F081750F7449A419A0F900F90DF91C8
:102D5000CF910F91EF90DF90CF9008952A838983D0
:102D60000E94B51800000000000089812A81DBCF95
:102D70001F93CF93DF93EC01162F40E06AEA85E5BD
:102D800095E50E944F1640E065E58AEA9AE20E94C6
:102D90004F1640E060EA85E595E50E944F1640E059
:102DA000612FCE010E944F1660E0CE010E943316C3
:102DB000182F0E94B51860E0CE010E943316181338
:102DC000F3CFDF91CF911F9108951F93CF93DF939E
:102DD000EC01162F40E06AEA8AEA9AE80E944F1650
:102DE00040E065E585E595E80E944F1640E060EA21
:102DF0008AEA9AE80E944F1640E0612FCE010E94B5
:102E00004F1660E0CE010E943316182F0E94B518AD
:102E100060E0CE010E9433161813F3CFDF91CF91FB
:102E20001F9108950F931F93CF93DF93782FCA01BB
:102E3000E901072F10E00730110580F5F801ED5D7D
:102E4000F84E0C94131B2A17431736173D174017DB
:102E50004A173B179FEF94B985B95F9A5F9814B8EA
:102E6000872FDF91CF911F910F91089540E00E942D
:102E70004F1670E0F5CF41E0FACF0E94B816F9CFB7
:102E80000E94E516F6CF21E0288360E00E94331609
:102E90008983EFCF21E0288361E0F8CF7AEAE0CFA1
:102EA000823099F0833051F1813069F560E070E053
:102EB000BA01552744274093B8035093B903609350
:102EC000BA037093BB0380E008958091B80390919A
:102ED000B903A091BA03B091BB038827992760E09A
:102EE00070E0842B952BA62BB72B8093B80390937F
:102EF000B903A093BA03B093BB03E5CF81E090E0A0
:102F0000A0E0B0E0F2CF83E808956093B803709337
:102F1000B9038093BA039093BB030895CF92DF92D5
:102F2000EF92FF928091B8039091B903A091BA03F8
:102F3000B091BB0327E0AC01BD017695679557952D
:102F400047956C017D0155E1F694E794D794C794B9
:102F50005A95D1F74C2548276C017D01CC24F7FC0C
:102F6000C394DD24EE24FF244C254170880F991F63
:102F7000AA1FBB1F842B2150F1F68093B8039093B6
:102F8000B903A093BA03B093BB03FF90EF90DF9017
:102F9000CF900895CF93DF931F92CDB7DEB7DC01BA
:102FA0008FEF809307011092080187E091E09093E2
:102FB000CB038093CA0316968C911697898311963A
:102FC000EC9111974E2F50E0FA013197E131F10564
:102FD00008F0A1C0E251F84E0C94131BFF170F1814
:102FE0001D182B1871188B1882188B183918471850
:102FF00055188B188B188B188B188B186318149610
:103000004D915C91159728E031E013966C911397E0
:1030100012968C910E945C13809307016EC01496E7
:103020004D915C91159728E031E013966C911397C0
:1030300012968C910E94EC0AEFCF14964D915C9100
:10304000159728E031E013966C91139712968C91A6
:103050000E940212E1CF14964D915C91159728E0E1
:1030600031E013966C91139712968C910E9412176F
:10307000D3CF14964D915C91159728E031E01396CB
:103080006C91139712968C910E94720CC5CF149676
:103090004D915C91159728E031E013966C91139750
:1030A00012968C910E949500B7CF14964D915C9129
:1030B000159728E031E013966C91139712968C9136
:1030C0000E944A03A9CF14964D915C91159728E070
:1030D00031E013966C91139712968C910E945017C1
:1030E0009BCFAE014F5F5F4F67E071E0CD010E9463
:1030F00084019093CB038093CA0389810F90DF9161
:10310000CF910895AE014F5F5F4F67E071E0CD0151
:103110000E942D13EECF80E87FCFE0916903F091FC
:103120006A03278144815581322F360F231312C041
:10313000E0916903F0916A038781860F878380910C
:103140003801861B8093380181110DC088E9838383
:1031500081E00895FC017191CF01FA01E20FF11DA8
:1031600070832F5FE3CF80E00895CF93DF9360916A
:10317000CC03635067FD91C08091C903CCE0D0E0DF
:10318000C81BD109C053DC4F8091C8038D3209F0B0
:10319000CFC0683009F07FC083EC8093BC038AE520
:1031A0008093050110920F018881807679F0CE011D
:1031B0000E94CA178F3F09F466C09F81911169C0B0
:1031C0009E81981708F065C0892F63C02A811092EC
:1031D000C503998191110AC01092C60325EC33E012
:1031E00082E03093CB032093CA03E7CF953029F4D4
:1031F0002093CD0325EC33E0F4CF963099F59B81F5
:10320000913059F48EE890E09093CB038093CA03F9
:1032100082E190E490930F01D0CF923019F48CE7C3
:1032200090E0F2CF9330A9F7211108C088EE90E02A
:103230009093CB038093CA0384E0EBCF213041F419
:103240008EEB90E09093CB038093CA038AE2E1CFA8
:103250002230F9F680EA90E09093CB038093CA0382
:103260008EE1D7CF983059F0993019F42093CF03DD
:10327000C1CF81E09A3009F4BDCF80E0BBCF2FEC05
:1032800033E081E0AECF988197FD8E8190E89093F6
:103290000F01809304011092CC038091050184FFFB
:1032A0003AC0809104018F3FB1F1C82F893008F0F6
:1032B000C8E08C1B809304018091BC0398E88927A7
:1032C0008093BC03CC23D1F08091CA039091CB03AF
:1032D00020910F0126FF3FC0ADEBB3E0FC012C2F86
:1032E00034913D9331962150D9F701962FEF2C0F51
:1032F000820F911D9093CB038093CA036C2F8DEBAB
:1033000093E00E94D019CC5FCC3019F08FEF8093FE
:103310000401C093050184E199B1947131F48150A5
:10332000D9F71092CD031092C703DF91CF91089582
:1033300080910F0187FFAFCFCE010E948D188F3F84
:1033400021F48EE180930501A6CF882309F4A3CF51
:1033500010920401A0CFEDEBF3E0DC012C2F3D91A6
:1033600031932150E1F7C1CFE9E6F0E0808182603E
:103370008083E89A0895A82FB92F80E090E041E07B
:1033800050EA609530E009C02D9182279795879586
:1033900010F084279527305EC8F36F5FA8F3089577
:1033A000EADF8D939D930895CF93CFB7CF93DF93AB
:1033B000C3954C9BE9F74C9B0BC04C9B09C04C9BA5
:1033C00007C04C9B05C04C9B03C04C9B01C089C0EF
:1033D0006F93C091C903DD27C053DC4F2F9365E580
:1033E0004C9B03C02F916F91E6CF0F931F934F9388
:1033F00020E040E15F9309B1047104FB27F93F939A
:1034000050E03BE039C0147140642F77012F5F5FBB
:103410001EC0406819B114712F7752501FC040640C
:1034200009B12F770471D1F15F5F00C023C0406202
:1034300019B12F77147191F15F5F00C025C004713D
:103440001027515012F45D5F0000115027952C3F5A
:1034500019B1C8F614710127015027952C3FC8F601
:103460004227499309B1047110274F7311502795D2
:103470002C3FA8F64695469519B1147179F00127AD
:10348000015027952C3F98F66B5A60F3315009B1E3
:10349000B0F600C011E01CBB002717C03B503195AF
:1034A000C31BD04011E01CBB0881033CF9F00B3476
:1034B000E9F02091C7031981110F1213EDCF0936DE
:1034C00051F10D3211F0013E39F70093CE033F91D7
:1034D0005F914F911F910F912F916F91CCB3C0FDD0
:1034E00067CFDF91CF91CFBFCF9118952091CE03B9
:1034F000222369F31091CC03112339F534303AF1CA
:103500003093CC032093C8031091C9033BE0311BD7
:103510003093C9031CC00091CC030130B4F40AE518
:103520003091050134FD14C000930501CCEBD3E0CC
:1035300013C0052710E000C000000BB91AC0052712
:1035400010E0221F1DC010E021C04AE502C032ED8C
:10355000432FC4E1D0E032E01AB114615C9A0BB1A0
:103560001AB954E120E865E320FF05270BB9279538
:1035700017951C3FF0F66695B8F7B1F720FF0527C1
:103580000BB9279517951C3FD0F62795179517FF70
:10359000052700001C3F0BB9B0F629913A9519F7A1
:1035A0000B7E1091CD03110FC651D0400BB911F015
:1035B0001093C70311E01CBB00611AB11B7E402FA2
:1035C0004B7E54E05A95F1F70BB91AB94BB97FCF3E
:1035D0009EE088E10FB6F894A895809360000FBE36
:1035E000909360000E94B419549A80E0815099F43D
:1035F000549878940E943F0A80EF80936C03A895BA
:103600000E94B5180E94B30280916C03803FB9F309
:103610000E94010CF4CFA895EFE9FFE03197F1F794
:1036200000C00000E3CFEE0FFF1F0590F491E02DE6
:063630000994F894FFCF9D
:0636360069019F03FF5A29
:00000001FF
