:100000000C9476000C94E0180C9493000C949300DC
:100010000C9493000C9493000C9493000C94930014
:100020000C9493000C9493000C9493000C94930004
:100030000C9493000C9493000C9493000C949300F4
:100040000C9493000C9493000C9493000C949300E4
:100050000C9493000C9493000C9493000C949300D4
:100060000C9493000C9493000C9493000C949300C4
:100070000C9493000C9493000C94930009021200CA
:10008000010100806409040000000000000012016A
:100090001001FF000008C016DC050102010200018A
:1000A0001E0349004E004C00200052006500740001
:1000B00072006F002D00500072006F0067002A036D
:1000C00049006E00660069006E00690074006500FA
:1000D0004E00650073004C006900760065007300F7
:1000E0002E0063006F006D000403090411241FBE7D
:1000F000CFEFD4E0DEBFCDBF11E0A0E0B1E0EEE491
:10010000F4E302C005900D92A630B107D9F723E0C1
:10011000A6E0B1E001C01D92A83EB207E1F70E943F
:10012000F4190C94251A0C94000080E008950F93A4
:100130001F93CF93DF93EC01FB01D90100914D0197
:1001400010914E01888187FF09C08E818C934423D2
:1001500099F00481158180E883831DC08FEF8C9313
:100160008E8180933801442309F44BC070936A0355
:100170006093690380E9F0CFE0912501F0912601B9
:100180008381883DA1F50481158180E88383E09116
:100190002501F09126011782E0912501F0912601B9
:1001A00083818039F1F48A81813711F08034C9F478
:1001B000E0916903F0916A030480F581E02D8C8160
:1001C0008083E0916903F0916A030480F581E02D5A
:1001D0008D818183E0916903F0916A0387818E5F4D
:1001E0008783C801DF91CF911F910F910895803DC2
:1001F00011F41C92CCCF8FEF8C9380E10E94CC1134
:10020000C6CFE0912501F09126018381811106C0BE
:10021000F0936A03E093690380E9B8CF883969F7FE
:10022000E8CFE9E5F1E08FEF819391E0E936F90756
:10023000D9F780934C0180932B0180934B018093DD
:100240002A0180933C018093180180933B018093A5
:10025000170181E00C94CC11CF93DF93FC0150E0A7
:10026000CA01820F911D4197E4F52223E1F18381B8
:100270008F3FD9F582818F3FD1F5DA01A75ABE4F62
:10028000ED0180E099919F3FA1F58F5F2813FACF90
:1002900062831382982F9295990F907E9150968346
:1002A0001782108611821082118612861386148698
:1002B00015861686178695E0440F551F9A95E1F727
:1002C0002091000130910101420F531F5583448357
:1002D00090E06D939F5F8913FCCF80E0DF91CF9119
:1002E00008958EEBFBCF82ECF9CF8FEBF7CF80EC4C
:1002F000F5CF81ECF3CFCF93DF93DC01EB019A01D3
:1003000012969C91129780ED890F803318F5139601
:100310008C911397813041F0E8F08230A9F083305E
:10032000B1F085EB888346C0E8E2F1E0913509F44D
:1003300076C048F5913309F449C078F49923B9F1AE
:100340009033E1F184EBEECFE9E3F1E0EFCFE5E1CB
:10035000F1E0ECCFE9E4F1E0E9CF933309F446C0F2
:10036000E8F1903579F7188286E0898386818A835F
:1003700083818B8387818C8380858D8382818E832B
:1003800087858F8317C0903808F05FC0903708F0DA
:1003900055C0903679F19136C9F1923599F61882A7
:1003A00082E0898380818A8381818B8303C00E945C
:1003B00011011882CE01DF91CF91089514968C918E
:1003C000149715969C9191878287F3CF14968C9100
:1003D000149715969C9193878487EBCF14968C91F4
:1003E000149715969C9195878687E3CF14968C91E8
:1003F0008787DFCF188281E089831496ED91FC9185
:100400001597E75AFE4F80818A83D4CF188281E006
:100410008983E0912501F09126018381F5CF18822F
:1004200086E0898381858A8382858B8383858C831B
:1004300084858D8385858E838685A3CF40E0BF012B
:10044000CD01DF91CF910C949700892F8770813077
:1004500049F0F8F0823001F1833009F062CFE5E134
:10046000F1E002C0E8E2F1E0903808F4A3CF983858
:10047000B0F09059983008F09DCF188213968C9167
:100480001397808714968D919C9115979183808303
:1004900091CFE9E4F1E0E8CFE9E3F1E0E5CF1496AC
:1004A0004C91149715966C91159713962C91CF013A
:1004B0000E942C0137CF90914C0180912B018F3FEE
:1004C00079F481E09F3F09F480E090913C019F3FE7
:1004D00009F083E0909118019F3F09F084E00895AE
:1004E00082E0F3CF623059F421E08934920749F178
:1004F00021E08832920789F489E491E00EC06330EC
:1005000069F421E089349207E1F021E08832920712
:10051000D9F021E08933920779F308956430E9F73F
:1005200021E08934920769F021E08832920761F076
:1005300021E08933920759F021E08531920769F76C
:10054000DBCF88E291E0089589E391E0089585E1A9
:1005500091E008951F93CF93DF930E94D211823DC3
:1005600009F071C00E945B028093060189E491E06A
:1005700090932601809325010E94D211823DA1F41F
:10058000D09106018091250190912601C1E0CD17FF
:1005900008F45FC0909326018093250120E8FC01B8
:1005A000238380ED0E94CC110E94D211823F41F43E
:1005B00080EF0E94CC11E0912501F0912601138279
:1005C0000E94D211C82F803DE1F4809125019091C5
:1005D0002601FC0123812038A1F4609106010E94CC
:1005E00072029093260180932501FC011782C38338
:1005F0000E944303E0912501F0912601882371F1C7
:1006000083830E94D211182F803FC9F4C091250125
:10061000D09126018B81883991F460910601CE0139
:100620000E9472029093260180932501FC0113829F
:100630001B83CE010E947A088823C9F08B83DF9147
:10064000CF911F9108950E94D211823F09F094CF5B
:1006500089CF6D2F0E947202CF5F99CF2085808154
:100660009181820F911D9183808388EDC9CF84EFA2
:100670008B83288588819981820F911D9983888336
:10068000DECF88E80895CF92DF92EF920F931F9309
:10069000CF93DF931F92CDB7DEB76C01DC010D91D4
:1006A0001C911197602F1996EC918E2F90E0FC0110
:1006B0007097E631F10508F017C1EF59FC4F0C9423
:1006C0001F1ADC032D044D045004740474047404D4
:1006D000740474047404740474047404740474045A
:1006E0007404770384039E03B103B803CD03F601BA
:1006F0006585603108F002C1F0E16F9FB0011124FF
:10070000602B0FEFD60120C0D6011D966C911D976E
:10071000862F837C8111F2C0602B0FEF16962C91EF
:10072000169712964C91129714968D919C9115974D
:100730000E94A50DF601878380E0D7C0D6011D96E3
:100740006C911D97602B0FEF16962C9116971296B1
:100750004C91129714968D919C9115970E946D0D56
:10076000E9CFD6011D966C911D97862F807CD2CF44
:10077000D6011D966C911D97602BEE24EA94169677
:100780000C91169712962C91129740E014968D9129
:100790009C9115970E94F314CDCFD6011D966C91B4
:1007A0001D97602BEE24EA9416960C9116971296DC
:1007B0002C91129741E0EACFD6011D968C918E3193
:1007C000E1F4202F2F7BB80146E0769567954A9596
:1007D000E1F780E090EC29830E94F90C2981622FD7
:1007E00060680FEFF60126814281848195810E9425
:1007F0006D0DD60117968C939FCF8C31A1F461E8D3
:1008000080E090E50E94F90CB801660F672F661F23
:10081000770B719580E090E80E94F90C60E080E031
:1008200090E50E94F90CF6018585102F8F3139F083
:1008300010680FEFF60126814281612FD6CF1F7815
:1008400010686081718124E0769567952A95E1F7BB
:1008500080E090E50E94F90CECCFF60185858E3F93
:1008600009F06ACFB80195E0769567959A95E1F71A
:100870008FEF9FE30E94350D602F6F710FEFD60150
:1008800016962C91169712964C91129714968D915C
:100890009C9115970E94050E4DCF602F606631CF59
:1008A000D6011D968C91811119C0602F6068000FD0
:1008B000012F001F110B1195202F8FEF84B925B93F
:1008C0005F9A5F9814B8EE24EA94F60106812281BB
:1008D00040E0848195810E94F3148BCF813069F7C9
:1008E000212F2F732064E9CF83EC0F90DF91CF91FC
:1008F0001F910F91EF90DF90CF90089584ECF5CF8A
:10090000CF92DF92EF92FF920F931F93CF93DF93DB
:100910007B016A01DB011796CC91D0E0082F10E033
:10092000102F0027D70116968C91169790E08C1700
:100930009D0760F41796CC9380E0DF91CF911F91D3
:100940000F91FF90EF90DF90CF900895CE019927FF
:10095000D7011496ED91FC911597E80FF91F60816E
:10096000802B912BF60109952196DCCF8F929F92D7
:10097000AF92BF92CF92DF92EF92FF921F93CF93ED
:10098000DF93EB015A011F81812E912CE82EF12C6F
:10099000FE2CEE248E8190E08815990570F41F835B
:1009A00080E0DF91CF911F91FF90EF90DF90CF908B
:1009B000BF90AF909F908F900895C12ED12CEC8165
:1009C000FD81EC0DFD1D6081C6018E299F29F50179
:1009D00009952C813D81C20ED31EF60190818917A5
:1009E00019F0519A599AD6CF5198599A1F5FFFEF33
:1009F0008F1A9F0ACFCF4F925F926F927F928F9202
:100A00009F92AF92BF92CF92DF92EF92FF920F939D
:100A10001F93CF93DF934A013901E8015F80A52C32
:100A2000B12C8501162B8E81851598F45F8280E0AC
:100A3000DF91CF911F910F91FF90EF90DF90CF90BA
:100A4000BF90AF909F908F907F906F905F904F90EE
:100A500008956AEAC401F701099565E5C301F70144
:100A6000099560EAC401F7010995EC81FD81EA0D61
:100A7000FB1D6081C801F70109950E94C117C801DB
:100A8000F6010995482EC801F60109954812F5CFDF
:100A9000CACF2F923F924F925F926F927F928F9226
:100AA0009F92AF92BF92CF92DF92EF92FF920F93FD
:100AB0001F93CF93DF93CDB7DEB727970FB6F89488
:100AC000DEBF0FBECDBF582E4A013C832B831F8350
:100AD0000E83D80117964C90042D10E070E0F62F8D
:100AE000EE27FA83E983252C312CF7E92F1AF2E05F
:100AF0003F0AAE81BF8116968C91169790E08017C1
:100B00009107E0F417964C9280E027960FB6F89480
:100B1000DEBF0FBECDBFDF91CF911F910F91FF9030
:100B2000EF90DF90CF90BF90AF909F908F907F908D
:100B30006F905F904F903F902F90089560E089E60E
:100B40009DEF0E94F90C6AEAC401F701099565E579
:100B50008B819C81F701099560EAC401F701099531
:100B6000652DC1010E94F90C642C712CA980BA80FA
:100B7000A628B728AE81BF811496ED91FC911597F8
:100B8000E60DF71D6081C501F70109950E94C117A7
:100B9000C501F6010995282FC5012D83F601099598
:100BA0002D812813F3CFAE81BF8114968D919C9136
:100BB0001597680E791EF3018081281307C04394AE
:100BC0000F5F1F4F5198599A599893CF519A599A3C
:100BD00090CF3F924F925F926F927F928F929F92AF
:100BE000AF92BF92CF92DF92EF92FF920F931F933B
:100BF000CF93DF93482E662E7A01E901DA0117962A
:100C00005C90A52CB12C6AEA8AEA9AE8F901099568
:100C100065E585E595E8FE01099560E28AEA9AE8CE
:100C2000FE010995712C762C6624D70116968C91BD
:100C3000169790E08A159B0520F517965C9260E95F
:100C400080E090E8FE01099560E080E090E8FE0118
:100C5000099560EF80E090E8FE01099580E0DF9162
:100C6000CF911F910F91FF90EF90DF90CF90BF90A9
:100C7000AF909F908F907F906F905F904F903F903C
:100C8000089564E580E090E50E94F90C852C912C94
:100C90006401C628D72860EAC601FE010995D7017C
:100CA0001496ED91FC911597E80DF91D6081C60130
:100CB000FE0109950E94C117C601F8010995382E59
:100CC000C601F80109953812F5CFD70114968D9118
:100CD0009C911597880E991EF4018081381208C0E6
:100CE0005394FFEFAF1ABF0A5198599A59989DCF64
:100CF00061E880E090E50E94F90C642D80E090E8C6
:100D00000E94F90C64E580E090E50E94F90C519A8C
:100D1000599A8BCF4F925F926F927F928F929F9250
:100D2000AF92BF92CF92DF92EF92FF920F931F93F9
:100D3000CF93DF93662E7A01E901DA0117965C9072
:100D4000A52CB12C6AEA8AEA9AE8F901099565E5C9
:100D500085E595E8FE01099560E28AEA9AE8FE01D8
:100D60000995712C762C6624D70116968C911697CE
:100D700090E08A159B0518F517965C9260E980E073
:100D800090E8FE01099560E080E090E8FE01099599
:100D900060EF80E090E8FE01099580E0DF91CF915F
:100DA0001F910F91FF90EF90DF90CF90BF90AF9089
:100DB0009F908F907F906F905F904F900895852CBB
:100DC000912C6401C628D72860EAC601FE01099566
:100DD000D7011496ED91FC911597E80DF91D6081EE
:100DE000C601FE0109950E94C117C601F8010995C7
:100DF000482EC601F80109954812F5CFD70114967F
:100E00008D919C911597880E991EF401808148124E
:100E100008C05394FFEFAF1ABF0A5198599A5998D6
:100E2000A3CF519A599AA0CF4F925F926F927F921F
:100E30008F929F92AF92BF92CF92DF92EF92FF92EA
:100E40000F931F93CF93DF93662E7A01E901DA01A6
:100E500017965C90A52CB12C6AEA8AEA9AE0F9010F
:100E6000099565E585E595E0FE01099560E28AEA68
:100E70009AE0FE010995712C762C6624D70116960E
:100E80008C91169790E08A159B0518F517965C9241
:100E900060E980E090E0FE01099560E080E090E08C
:100EA000FE01099560EF80E090E0FE01099580E089
:100EB000DF91CF911F910F91FF90EF90DF90CF9036
:100EC000BF90AF909F908F907F906F905F904F906A
:100ED0000895852C912C6401C628D72860EAC601A4
:100EE000FE010995D7011496ED91FC911597E80D37
:100EF000F91D6081C601FE0109950E94C117C60156
:100F0000F8010995482EC601F80109954812F5CF58
:100F1000D70114968D919C911597880E991EF40116
:100F20008081481208C05394FFEFAF1ABF0A51984E
:100F3000599A5998A3CF519A599AA0CF4F925F923C
:100F40007F928F929F92AF92BF92CF92DF92EF9259
:100F5000FF920F931F93CF93DF93A62E6A01E901AF
:100F6000DA011796EC90F12CA89500000000000023
:100F700000000000000000000000000040E06AEAFD
:100F80008AEA9AE8F901099540E065E585E595E882
:100F9000FE01099540E060E28AEA9AE8FE010995BF
:100FA000B12CBA2CAA24D60116968C91169790E0F3
:100FB0008E159F0530F51796EC9240E060E980E0D1
:100FC00090E8FE01099540E060E080E090E8FE01D5
:100FD000099540E060EF80E090E8FE01099500008F
:100FE00080E0DF91CF911F910F91FF90EF90DF9004
:100FF000CF90BF90AF909F908F907F905F904F90D9
:10100000089560E080EA0E94E4142701552442011B
:101010008A289B28D6011496ED91FC911597E40D32
:10102000F51D40E06081C401FE010995000000004B
:101030000000000000000000000000000000A89573
:101040000E94C11760E0C401F8010995782E0000E4
:101050000000000000000000000000000000000090
:10106000D6011496ED91FC911597E40DF51D808144
:101070007816C1F000000000000000000000000031
:1010800000000000000060E0C401F801099578123A
:101090000DC0000000000000000000000000000083
:1010A00000000000FFEFEF1AFF0A7DCF00000000F4
:1010B0000000000000000000000000000000000030
:1010C0000000000000000000000000000000000020
:1010D0000000000000000000000000000000000010
:1010E000000000000000000060E0C401F801099564
:1010F000782EC9CFBF92CF92DF92EF92FF920F93DB
:101100001F93CF93DF93EC01B8808985823109F476
:1011100029C138F48031A9F0813109F4D3C083ECBE
:1011200006C0833109F426C18431C9F780E0DF911C
:10113000CF911F910F91FF90EF90DF90CF90BF90D4
:1011400008958D85811107C04FE55EE0BE0180E8FE
:101150008B0D0E94B6048D85813039F44EEA5EE035
:10116000BE0180E88B0D0E9480048D85833039F4A8
:101170004FE05FE0BE0180E88B0D0E9480048D850A
:10118000843039F446E95FE0BE0180E88B0D0E94AF
:10119000B6048D858A3039F44AEE5FE0BE0180E8FE
:1011A0008B0D0E9480048D858D3FD1F46B2D6F7364
:1011B0006068B62E88819981F6E096958795FA95B4
:1011C000E1F7A7EECA2EACE0DA2EBEEBEB2EBCE0C8
:1011D000FB2E8E012AEA3AE245E555E50E944905D3
:1011E0008D858E3139F442EA50E1BE0180E88B0DE5
:1011F0000E94B6048D858C3031F56B2D6F7160685F
:10120000B62EE880F98065E0F694E7946A95E1F7F8
:1012100065EA80E090E60E94F90C6E2D8FEF9FEF5B
:101220000E94F90C77EEC72E7CE0D72EE9EFEE2E68
:10123000ECE0FE2E8E012AEA3AEA45E555ED6B2DEB
:1012400080E00E94FB048D858C3101F5E880F980F7
:10125000EE0CEF2CEE1CFF08F19461E880E090E5C5
:101260000E94F90C6E2D80E090E80E94F90C64E574
:1012700080E090E50E94F90C07EE1CE029EF3CE0CD
:10128000AE016B2D60688E2D0E94E9058D858F3132
:1012900009F04CCFE880F98044E0F694E7944A9551
:1012A000E1F76E2D80E090E50E94F90C6B2D6F78D0
:1012B000606807EE1CE029EF3CE0AE018E2D0E9435
:1012C0008A0634CF8D85811106C047E85EE0BE01F5
:1012D0008B2D0E9480048D85813031F44BED5EE0D2
:1012E000BE018B2D0E9480048D85823031F44AE44A
:1012F0005FE0BE018B2D0E9480048D85843031F427
:1013000043EC5FE0BE018B2D0E9480048D858A3006
:1013100031F447E150E1BE018B2D0E9480048D85A0
:101320008B3031F444E550E1BE018B2D0E948004E6
:101330008D858E3F09F0FACE6881798135E076950A
:1013400067953A95E1F78FEF9FE30E94350D6B2D7E
:101350006F7109E41DE02BE53DE0AE0180E00E94E5
:101360001407E4CE49EF5CE0BE0180E68B0D0E94DD
:101370008004DCCE8D85843039F444E355E1BE0130
:1013800080E88B0D0E9480048D85853031F444E324
:1013900055E1BE018B2D0E9480048D85863039F485
:1013A00041E655E1BE0180E88B0D0E9480048D85E9
:1013B000873031F441E655E1BE018B2D0E94800457
:1013C0008D85811119C08B2D8068B82E88819981F7
:1013D000880F892F881F990B91959FEF94B985B934
:1013E0005F9A5F9814B80FEA14E12BEC34E1AE0178
:1013F0006B2D80E00E949E078D85813009F096CE8E
:1014000089818F7380649FEF94B985B95F9A5F98E3
:1014100014B80FEA14E12BEC34E1AE016B2D80E03F
:101420000E949E0783CE3898409A3998419A3A98FC
:10143000429A3C98449A3D98459A3E98469A5398C9
:101440005B9A55985D9A3B98439A3F98479A57986C
:101450005F9A5098589814B88FEF85B93F9A47987B
:1014600081B911B882B914B885B914B885B9519841
:10147000599A08950E94130A399A419A389A4098C5
:101480003A9A429A3C9A449A3D9A459A14B88FEFF8
:1014900085B914B885B914B885B93F9A479881B908
:1014A00012B884B915B8479A479814B808950E949D
:1014B000130A399A419A3C9A449A3D9A459A589A05
:1014C000509A14B88FEF85B914B885B914B885B996
:1014D0003F9A479881B912B884B915B8479A479886
:1014E00014B814B885B9579A5F9884B915B85F9A3B
:1014F0005F9814B80895823081F0833061F08130B4
:10150000A1F40898109A1092BD0380E290E09093A5
:10151000BC038093BB0380E008955098589A88E0FC
:101520008093BD0389E290E0F2CF87E9089581308E
:1015300049F414B88FEF85B9579A5F980E94100B41
:1015400080E0089588E908955898509A000089B17C
:101550005098589880FD22C05098589A59B149B176
:10156000000039B10000000029B1000000000000B7
:1015700099B1000000000000000089B1509858980F
:1015800050FD0EC040FD0EC030FD0EC020FD0EC04F
:1015900090FD0EC080FD0EC080EE089580EF08958E
:1015A00080E0089581E0089583E0089586E008953D
:1015B0008AE008958FE008950F931F93CF93C82F6B
:1015C000842F8901C230F9F030F4CC2389F0C13086
:1015D000B1F0C6E90FC0C430F1F0C0F0C038C9F7AF
:1015E00081E0F90180830E94A40AF801818309C087
:1015F0000E94130A8C2FCF911F910F9108950E9482
:101600003A0AC0E0F7CF0E94570AFBCFCF911F9153
:101610000F910C947B0ACF911F910F910C94970A14
:10162000109214018FEF84B915B85F9A5F9814B8BF
:101630005098589A80E880936C0310927A03EBE7F5
:10164000F3E0119283E0EB39F807D9F70895609140
:101650007A03813109F441C0109214019FEF94B9CB
:101660009091140195B95F9A5F9814B820E070E0EA
:101670003FEF8032C9F4E72FF0E0E558FC4F40819E
:1016800050E0022E02C0559547950A94E2F740FFBC
:1016900028C092E034B995B95F9A5F9814B82F5F6B
:1016A000283011F47F5F20E0492F446034B945B9F8
:1016B0005F9A5F9814B8615034B995B95F9A5F9892
:1016C00014B86111D6CF909314014093270134B917
:1016D00015B85F9A5F9814B8089592E0909314013A
:1016E000BDCF90E0D7CF0F931F93CF93DF9350914F
:1016F0007A03B0917B03813109F46BC0109214011D
:101700009FEF94B99091140195B95F9A5F9814B8BE
:1017100020E030E07FEFC1E0D0E0803281F4EB2FB9
:10172000F0E0022E02C0F595E7950A94E2F7E0FF9B
:1017300054C0916074B995B95F9A5F9814B86032DB
:10174000B1F4211105C0E32FF0E0E558FC4F108201
:10175000489B0DC0E32FF0E0E558FC4FA0818E01BF
:10176000022E01C0000F0A94EAF7A02BA08351506B
:10177000442341F0511106C0926074B995B95F9A43
:101780005F9814B8A92FA46074B9A5B95F9A5F983F
:1017900014B874B995B95F9A5F9814B82F5F283060
:1017A00039F43F5FE32FF0E0E558FC4FB08120E0D3
:1017B0005111B3CF90931401A09327018FEF84B9F7
:1017C00015B85F9A5F9814B8DF91CF911F910F9170
:1017D000089591E09093140193CF9E7FABCF8091B9
:1017E0006C038338D1F580916D03883009F463C0B0
:1017F000C0F4833009F445C030F4813079F182308F
:10180000A1F18EEE28C0863009F44AC008F04EC01F
:101810008430B9F781E880936C0341E060E281E1B4
:1018200036C08F30C1F148F48D3031F18E3049F738
:1018300081E880936C0340E028C0803849F08F3FF6
:1018400049F08031F1F681E880936C0340E02CC0D0
:101850000C94100B80EF80936C03089581E88093C3
:101860006C0380E20E94270B14C081E880936C0314
:1018700041E060E080E20BC081E880936C0340E0CF
:10188000F8CF81E880936C0341E060E280E10E9440
:10189000730B82E8E0CF81E880936C0340E0BECF19
:1018A00081E880936C0341E060E2E4CF81E88093BB
:1018B0006C0380E1D7CF81E880936C0381E1D2CFC4
:1018C000CF93DF93E901843061F138F48230E1F0A5
:1018D00008F58130A1F087E80FC0873039F128F48E
:1018E0008530C9F740937A0306C0883021F18038EB
:1018F00091F70E94100B80E0DF91CF9108959091B5
:101900006D0399838883F7CF40936D0383E88093B9
:101910006C03F1CF40936D0383E880936C030E94C6
:10192000EF0B80916C03898381E0ECCF40937B03C4
:1019300050937C03E0CF80917B03898380917C036B
:101940008A8380917D038B8380917E038C83809139
:101950007F038D83809180038E8386E0D3CF82B90D
:101960008FEF84B995B9479A479814B884B965B987
:10197000509A58985098589A14B8089582B98FEF91
:1019800084B995B9479A479814B884B965B9509AFB
:101990005898589A14B80895509858984098419A71
:1019A000429A82B92FEF24B995B9479A479814B84B
:1019B00000000000409A97FD4198000000000000E0
:1019C00000000000000083B14098419A089582B958
:1019D0002FEF24B995B9479A479814B8409A97FDC4
:1019E0004198000000000000000083B14098419A37
:1019F00008955098589882B92FEF24B995B9479A0D
:101A0000479814B8429824B965B9409A97FD41980F
:101A1000000000004098419A429A14B8089582B993
:101A20002FEF24B995B9479A479814B8429824B92A
:101A300065B997FD419800000000419A429A14B898
:101A40000895811520E2920708F4906882B98FEF1B
:101A500084B995B9479A479814B844980000000093
:101A60000000000083B1449A0895811520E2920796
:101A700008F4906882B98FEF84B995B9479A47986E
:101A800014B884B965B9000045980000459A14B8A7
:101A9000089582B98FEF84B995B9479A479814B8D9
:101AA000409A4198449800000000000083B1449A95
:101AB0004098419A089582B98FEF84B995B9479AB1
:101AC000479814B84098419884B965B90000459882
:101AD0000000459A14B8419A0895EF92FF920F932F
:101AE000CF93DF9300D01F92CDB7DEB77C018FEF8D
:101AF00084B965B9479A479814B8409A67FD4198E8
:101B000042B9000080E0011117C00000000093B14D
:101B1000F701E80FF11D90834F5F42B98F5F2817DF
:101B200090F74098419A0F900F900F90DF91CF91CE
:101B30000F91FF90EF9008952B834A8389830E9431
:101B4000C11789814A812B81E2CFEF92FF920F93D7
:101B5000CF93DF9300D01F92CDB7DEB77C01603208
:101B600008F460688FEF84B965B9479A479814B84C
:101B7000449842B9000080E0011116C00000000046
:101B800093B1F701E80FF11D90834F5F42B98F5F6A
:101B9000281790F7449A0F900F900F90DF91CF91F4
:101BA0000F91FF90EF9008952B834A8389830E94C1
:101BB000C11789814A812B81E3CFEF92FF921F9356
:101BC000CF93DF93EC01C11580E2D80708F4D06809
:101BD0000E940A167E01F3941FEFC2B914B9D5B959
:101BE000479A479814B814B985B9000045980E94DF
:101BF0000A162196459AEC16FD0679F714B8DF917E
:101C0000CF911F91FF90EF900895EF92FF920F9365
:101C1000CF93DF9300D01F92CDB7DEB77C018FEF5B
:101C200084B965B9479A479814B8409A419844983E
:101C300042B9000080E0011118C00000000093B11B
:101C4000F701E80FF11D90834F5F42B98F5F2817AE
:101C500090F7449A4098419A0F900F900F90DF911F
:101C6000CF910F91FF90EF9008952B834A83898342
:101C70000E94C11789814A812B81E1CF0F931F9365
:101C8000CF93DF938C01D62F442349F080E090E876
:101C90000E94E70C60E880E090E80E94F90CC5E043
:101CA000C8010E94E70C6D2FC8010E94F90CD6955F
:101CB000C150B1F7DF91CF911F910F9108951F93FC
:101CC000CF93DF93EC01162F6AEA85E595E50E9434
:101CD000AF0C65E58AEA9AE20E94AF0C60EA85E5FE
:101CE00095E50E94AF0C612FCE010E94AF0CCE0192
:101CF0000E94E70C182F0E94C117CE010E94E70C2A
:101D00001813F5CF812FDF91CF911F9108951F9365
:101D1000CF93DF93EC01162F6AEA85E595E10E94E7
:101D2000350D65E58AEA9AE00E94350D60EA85E5A1
:101D300095E10E94350D612FCE010E94350DCE0137
:101D40000E94210D182F0E94C117CE010E94210D63
:101D50001813F5CFDF91CF911F9108951F93CF9363
:101D6000DF93EC01162F40E065E080E090EC0E94EC
:101D70003E0E6AEA85E595E50E94F90C65E58AEA7A
:101D80009AEA0E94F90C60EA85E595E50E94F90C53
:101D9000612FCE010E94F90CCE010E94E70C182F92
:101DA0000E94C117CE010E94E70C1813F5CFDF91F6
:101DB000CF911F9108951F93CF93DF93EC01162FBE
:101DC00040E062E080E090EA0E943E0E6AEA85E52B
:101DD00095E10E94350D65E58AEA9AE00E94350D8D
:101DE00060EA85E595E10E94350D40E060919D0334
:101DF00080E090EA0E943E0E612FCE010E94350DD8
:101E0000CE010E94210D182F0E94C117CE010E9401
:101E1000210D1813F5CFDF91CF911F9108951F93D6
:101E2000CF93DF93EC01162F60E080919B0390919C
:101E30009C030E94F90C6AEA85E595E50E94AF0CC7
:101E400065E58AEA9AE20E94AF0C60EA85E595E5CD
:101E50000E94AF0C90919D0320919B0330919C03B5
:101E6000692FA901490F511DCA010E94F90C612F68
:101E7000CE010E94AF0CCE010E94E70C182F0E94E9
:101E8000C117CE010E94E70C1813F5CFDF91CF9157
:101E90001F9108951F93CF93DF93EC01162F80912C
:101EA0009B0390919C0362E002960E94F90C6AEAFF
:101EB00085E595E10E94350D80919B0390919C03EF
:101EC00061E001960E94F90C65E58AEA9AE00E94B9
:101ED000350D80919B0390919C0362E002960E94D5
:101EE000F90C60EA85E595E10E94350D90919D031E
:101EF00020919B0330919C03692FA901490F511D2B
:101F0000CA010E94F90C612FCE010E94350DCE014D
:101F10000E94210D182F0E94C117CE010E94210D91
:101F20001813F5CFDF91CF911F9108951F93CF9391
:101F3000DF93EC01162F6AEA85E595ED0E94F90C16
:101F400065E58AEA9AEA0E94F90C60EA85E595ED72
:101F50000E94F90C612FCE010E94F90C60E080E034
:101F600090E80E94F90CCE010E94E70C182F0E9405
:101F7000C117CE010E94E70C1813F5CF812FDF9116
:101F8000CF911F9108951F93CF93DF93EC01162FEC
:101F90006AEA85E595E10E94350D65E58AEA9AE1F0
:101FA0000E94350D60EA85E595E10E94350D612FAF
:101FB000CE010E94350DCE010E94210D182F0E94E6
:101FC000C117CE010E94210D1813F5CFDF91CF91DB
:101FD0001F9108951F93CF93DF93EC01162F6AEAA8
:101FE0008AEA9AEF0E94F90C65E585E595EF0E9473
:101FF000F90C60EA8AEA9AEF0E94F90C612FCE018F
:102000000E94F90C60919D0380E090EA0E94F90C17
:10201000CE010E94E70C182F0E94C117CE010E942A
:10202000E70C1813F5CFDF91CF911F9108951F93FF
:10203000CF93DF93EC01162F6AE080E090EB0E94D3
:10204000F90C6AE080E090EC0E94F90C6AEA85E500
:1020500095E10E94350D65E58AEA9AE00E94350D0A
:1020600060EA85E595E10E94350D60919D0380E071
:1020700090EB0E94F90C60919D0380E090EC0E942F
:10208000F90C612FCE010E94350DCE010E94210D69
:10209000182F0E94C117CE010E94210D1813F5CFF1
:1020A000DF91CF911F9108950F931F93CF93DF93EB
:1020B0008C01D62FC0919D03C295C07F80919B0358
:1020C00090919C0360E280960E94F90C6AEA85E593
:1020D00095E10E94350D80919B0390919C0360E1F6
:1020E00040960E94F90C65E58AEA9AE00E94350D57
:1020F00080919B0390919C0360E280960E94F90C72
:1021000060EA85E595E10E94350D80919B039091F1
:102110009C036C2F8C0F911D0E94F90C6D2FC80130
:102120000E94350DC8010E94210DC82F0E94C117C1
:10213000C8010E94210DC813F5CFDF91CF911F91E7
:102140000F9108951F93CF93DF93EC01162F61E059
:1021500080E090EC0E94F90C6AEA85E595E90E941E
:10216000F90C60E080E090EC0E94F90C65E58AEAE9
:102170009AEA0E94F90C61E080E090EC0E94F90C70
:1021800060EA85E595E90E94F90C60919D0380E085
:1021900090EC0E94F90C612FCE010E94F90CCE0147
:1021A0000E94E70C182F0E94C117CE010E94E70C75
:1021B0001813F5CF812FDF91CF911F9108950F93C1
:1021C0001F93CF93C82FCA018901CE3009F488C06C
:1021D00078F5C73009F48DC0B8F4C23009F46CC08A
:1021E00040F4CC2309F45AC0C13009F462C0C0EAFB
:1021F00057C0C53009F466C008F057C0C430B9F7FD
:1022000040E00E943E0E53C0CA3009F466C040F45C
:10221000C83009F471C0C93051F70E945F0E47C041
:10222000CC3009F46FC008F461C00E940F0F3FC0AA
:10223000C23209F444C0A0F4C13109F460C040F4D2
:10224000CF3009F450C0C03191F60E94EA0F2FC080
:10225000C032D9F1E8F5C23151F60E94A21027C070
:10226000C23809F460C058F4C03809F44EC008F010
:1022700054C0C33209F0BBCF0E94DD0D18C0C53871
:1022800009F457C0C63809F45AC0C43809F0AFCFB2
:1022900021E0F80120830E94490D3CC00E94AF0C50
:1022A0008C2FCF911F910F9108950E94BE0CC0E01A
:1022B000F7CF0E94350DFBCF0E94F90CF8CF0E949A
:1022C0000F0DF5CF0E945B0DF2CF40939D03EFCF32
:1022D00040939B0390939C03EACF0E94870EE7CF25
:1022E0000E94AE0EE4CF0E94DB0EE1CF0E944A0FA7
:1022F000DECF0E94960FDBCF0E94C30FD8CF0E9483
:102300001710D5CF0E945410D2CF21E0F8012083BE
:102310000E94CC0CF8018183CACF21E0F801208310
:102320000E94E70CF7CF21E0F80120830E94210DE5
:10233000F1CF81E0F901808380919D03ECCF82E0B1
:10234000F901808380919B03818380919C03828328
:10235000AECFCF93DF93FB01DC0112962C912223A9
:1023600029F0203479F082ED808308C01082A0919A
:102370000201B0910301EC018C818C93CF01DF91BC
:10238000CF910895108281E08183A0910201B091E4
:1023900003018C918283F2CFE0910201F09103015D
:1023A00080830895E0910201F091030180810895F6
:1023B0000F931F93D901082F10E00831110508F081
:1023C000C2C2F801EA51FE4E0C941F1A2012FE11EF
:1023D0005B12B61202134E139A1345144A144F148B
:1023E000521456145914611469146D147014741431
:1023F0007D1484148814901497149B14463151054D
:1024000008F0A3C2FA01E95FFD4E0C941F1A1D12D9
:10241000231227122B122F12331237123B123F12A4
:10242000431247124B124F125312A514A514A514B0
:10243000A514A514A514A51457123898409A80E045
:102440001F910F9108953998419A80E0F9CF3A98F9
:10245000429A80E0F5CF3B98439A80E0F1CF3C98D8
:10246000449A80E0EDCF3D98459A80E0E9CF3E98D0
:10247000469A80E0E5CF3F98479A80E0E1CF5098B8
:10248000589A80E0DDCF5198599A80E0D9CF53987F
:102490005B9A80E0D5CF55985D9A80E0D1CF569871
:1024A0005E9A80E0CDCF57985F9A80E0C9CF509870
:1024B000589A80E0C5CF4631510508F048C2FA016C
:1024C000EC59FD4E0C941F1A7A127E12821286125B
:1024D0008A128E12921296129A129E12A212A612AC
:1024E000AA12AE12A714A714A714A714A714A7140E
:1024F000A714B2123898409880E0A2CF399841983A
:1025000080E09ECF3A98429880E09ACF3B984398DB
:1025100080E096CF3C98449880E092CF3D984598D3
:1025200080E08ECF3E98469880E08ACF3F984798CB
:1025300080E086CF5098589880E082CF5198599883
:1025400080E07ECF53985B9880E07ACF55985D9875
:1025500080E076CF56985E9880E072CF57985F986B
:1025600080E06ECF5098589880E06ACF4631510590
:1025700008F0EFC1FA01E154FD4E0C941F1AD51278
:10258000D812DB12DE12E112E412E712EA12ED12A7
:10259000F012F312F612F912FC12A914A914A914DC
:1025A000A914A914A914A914FF12389A80E048CFDD
:1025B000399A80E045CF3A9A80E042CF3B9A80E05A
:1025C0003FCF3C9A80E03CCF3D9A80E039CF3E9AA5
:1025D00080E036CF3F9A80E033CF509A80E030CF12
:1025E000519A80E02DCF539A80E02ACF559A80E00F
:1025F00027CF569A80E024CF579A80E021CF509A77
:1026000080E01ECF4631510508F0A5C1FA01E55F13
:10261000FC4E0C941F1A2113241327132A132D1375
:1026200030133313361339133C133F13421345133E
:102630004813AB14AB14AB14AB14AB14AB14AB1406
:102640004B13409880E0FCCE419880E0F9CE429850
:1026500080E0F6CE439880E0F3CE449880E0F0CE60
:10266000459880E0EDCE469880E0EACE479880E03D
:10267000E7CE589880E0E4CE599880E0E1CE5B98B0
:1026800080E0DECE5D9880E0DBCE5E9880E0D8CE44
:102690005F9880E0D5CE589880E0D2CE4631510583
:1026A00008F05BC1FA01E95AFC4E0C941F1A6D1335
:1026B00070137313761379137C137F1382138513AE
:1026C00088138B138E1391139413AD14AD14AD14A2
:1026D000AD14AD14AD14AD149713409A80E0B0CE94
:1026E000419A80E0ADCE429A80E0AACE439A80E043
:1026F000A7CE449A80E0A4CE459A80E0A1CE469A27
:1027000080E09ECE479A80E09BCE589A80E098CE9B
:10271000599A80E095CE5B9A80E092CE5D9A80E0F7
:102720008FCE5E9A80E08CCE5F9A80E089CE589AF8
:1027300080E086CE82E08C934631510508F0A2C03D
:10274000FA01EB55FC4E0C941F1ABB13C413CD13A6
:10275000D613DF13E813F113FA1303140C14151432
:102760001E1427143014421442144214421442140A
:1027700042144214391486B1817011968C931197CA
:1027800012961C9280E05CCE86B1827090E0129628
:102790009C938E93119780E053CE86B1847090E025
:1027A00012969C938E93119780E04ACE86B18870E2
:1027B00090E012969C938E93119780E041CE86B163
:1027C000807190E012969C938E93119780E038CEA2
:1027D00086B1807290E012969C938E93119780E060
:1027E0002FCE86B1807490E012969C938E931197B1
:1027F00080E026CE86B1807890E012969C938E93EE
:10280000119780E01DCE89B1817011968C9311973C
:1028100012961C9280E014CE89B1827090E01296DC
:102820009C938E93119780E00BCE89B1887090E0D5
:1028300012969C938E93119780E002CE89B180729C
:1028400090E012969C938E93119780E0F9CD89B118
:10285000807490E012969C938E93119780E0F0CD57
:1028600089B1807890E012969C938E93119780E0C6
:10287000E7CD89B1817011968C93119712961C92B5
:1028800080E0DECD1C928DE8DBCD14B88FEF85B9EA
:1028900080E0D6CD14B88FEF85B980E0D1CD14B8E3
:1028A00080E0CECD8FEF84B980E0CACD45B980E01D
:1028B000C7CD83B111968C93119781E08C9380E002
:1028C000BFCD14B88FEF85B93F9A479881B980E0A2
:1028D000B7CD8FEF82B980E0B3CD11B880E0B0CD35
:1028E0008FEF81B980E0ACCD42B98FEF84B955B993
:1028F000479A479814B880E0A3CD14B88FEF85B9F4
:10290000579A5F9880E09CCD57985F9A80E098CD69
:102910008FEF84B945B95F9A5F9814B880E090CD85
:1029200014B88FEF85B9579A5F9880E089CD579892
:102930005F9A80E085CD8FEF84B945B95F9A5F9843
:1029400014B880E07DCD8CE87BCD8DE879CD8DE825
:1029500077CD8DE875CD8DE873CD8DE871CD82B9D9
:102960008FEF84B995B9479A479814B8611101C09F
:1029700041984498000000000000000000000000A2
:10298000000000000000000000000000000083B113
:10299000449A419A089582B98FEF84B995B9479ABC
:1029A000479814B884B965B94598411101C0419858
:1029B0000000000000000000000000000000000017
:1029C000459A419A14B808959FEF94B985B94598EE
:1029D000611101C041980000000000000000459A0C
:1029E000419A14B80895CF92DF92EF920F93CF934C
:1029F000DF9300D0CDB7DEB76C018FEF84B965B936
:102A0000479A479814B84498411101C0419822B997
:102A100080E0E1101FC00000000000000000000086
:102A20000000000000000000000093B1F601E80F74
:102A3000F11D90832F5F22B98F5F081750F7449ADA
:102A4000419A0F900F90DF91CF910F91EF90DF900F
:102A5000CF9008952A8389830E94C1170000000047
:102A6000000089812A81DBCF1F93CF93DF93EC0194
:102A7000162F40E06AEA85E595E50E94CB1440E018
:102A800065E58AEA9AE20E94CB1440E060EA85E5B7
:102A900095E50E94CB1440E0612FCE010E94CB143B
:102AA00060E0CE010E94AF14182F0E94C11760E0B1
:102AB000CE010E94AF141813F3CFDF91CF911F9175
:102AC00008951F93CF93DF93EC01162F40E06AEA3D
:102AD0008AEA9AE80E94CB1440E065E585E595E82E
:102AE0000E94CB1440E060EA8AEA9AE80E94CB1484
:102AF00040E0612FCE010E94CB1460E0CE010E9425
:102B0000AF14182F0E94C11760E0CE010E94AF14CD
:102B10001813F3CFDF91CF911F9108950F931F9357
:102B2000CF93DF93782FCA01E901072F10E0073018
:102B3000110580F5F801E156FA4E0C941F1AA615FE
:102B4000BF15B215B915BC15C615B7159FEF94B9C9
:102B500085B95F9A5F9814B8872FDF91CF911F9145
:102B60000F91089540E00E94CB1470E0F5CF41E052
:102B7000FACF0E943415F9CF0E946115F6CF21E0FB
:102B8000288360E00E94AF148983EFCF21E028837F
:102B900061E0F8CF7AEAE0CF823099F0833051F1EA
:102BA000813069F560E070E0BA0155274427409311
:102BB000B7035093B8036093B9037093BA0380E0EE
:102BC00008958091B7039091B803A091B903B09193
:102BD000BA038827992760E070E0842B952BA62BF9
:102BE000B72B8093B7039093B803A093B903B09326
:102BF000BA03E5CF81E090E0A0E0B0E0F2CF83E857
:102C000008956093B7037093B8038093B9039093CA
:102C1000BA030895CF92DF92EF92FF928091B703AB
:102C20009091B803A091B903B091BA0327E0AC0129
:102C3000BD0176956795579547956C017D0155E1E6
:102C4000F694E794D794C7945A95D1F74C25482722
:102C50006C017D01CC24F7FCC394DD24EE24FF2419
:102C60004C254170880F991FAA1FBB1F842B215030
:102C7000F1F68093B7039093B803A093B903B09390
:102C8000BA03FF90EF90DF90CF900895880F991FBF
:102C9000880F991F20E030E02817390709F40895BC
:102CA000000000002F5F3F4FF7CF20E030E02817F3
:102CB000390709F40895000000002F5F3F4FF7CF58
:102CC000CF93DF9380E190E00E944616C4E0D0E00D
:102CD00084EF91E00E94461684EF91E00E94461630
:102CE0002197B1F7C4E0D0E08AEF90E00E94461649
:102CF0008AEF90E00E9446162197B1F7DF91CF91BD
:102D0000089580E190E00C944616CF93DF931F92D4
:102D1000CDB7DEB7F901813171F038F48130C1F0FF
:102D200078F08230C9F082E80FC08132A9F0823297
:102D300099F08231C1F782E08083128211820AC049
:102D400089830E94601689810F90DF91CF91089549
:102D50000E94811680E0F8CF81E080831182FACF53
:102D6000482F90E0982F882720E0411103C02111BF
:102D70008068089520953FEF340F4323F6CF80E01D
:102D800090E0089580E0089560E070E0CB01089540
:102D9000CF93DF931F92CDB7DEB7DC018FEF809327
:102DA00007011092080187E091E09093CD03809392
:102DB000CC0316968C91169789831196EC911197F6
:102DC0004E2F50E0FA013197E131F10508F0AFC024
:102DD000E451F94E0C941F1AFD160D171B172917F5
:102DE0007D1797178E1737174517531761179717C2
:102DF00097179717971797176F1714964D915C9120
:102E0000159728E031E013966C91139712968C91E8
:102E10000E94D811809307017CC014964D915C915B
:102E2000159728E031E013966C91139712968C91C8
:102E30000E94DC0AEFCF14964D915C91159728E023
:102E400031E013966C91139712968C910E94DF10CB
:102E5000E1CF14964D915C91159728E031E01396DF
:102E60006C91139712968C910E948E15D3CF149665
:102E70004D915C91159728E031E013966C91139772
:102E800012968C910E948516C5CF14964D915C9137
:102E9000159728E031E013966C91139712968C9158
:102EA0000E94600CB7CF14964D915C91159728E065
:102EB00031E013966C91139712968C910E949500B5
:102EC000A9CF14964D915C91159728E031E01396A7
:102ED0006C91139712968C910E9441039BCF14968C
:102EE0004D915C91159728E031E013966C91139702
:102EF00012968C910E94CC158DCFAE014F5F5F4F23
:102F000067E071E0CD010E947B019093CD03809337
:102F1000CC0389810F90DF91CF910895AE014F5F6F
:102F20005F4F67E071E0CD010E94A911EECF80E80C
:102F300071CFE0916903F0916A0327814481558143
:102F4000322F360F231312C0E0916903F0916A0308
:102F50008781860F878380913801861B8093380193
:102F600081110DC088E9838381E00895FC0171918E
:102F7000CF01FA01E20FF11D70832F5FE3CF80E0F4
:102F80000895CF93DF936091CE03635067FD91C0A6
:102F90008091CB03CCE0D0E0C81BD109CE52DC4FEE
:102FA0008091CA038D3209F0CFC0683009F07FC02C
:102FB00083EC8093BE038AE58093050110920F0194
:102FC0008881807679F0CE010E94C8168F3F09F47F
:102FD00066C09F81911169C09E81981708F065C0F5
:102FE000892F63C02A811092C703998191110AC069
:102FF0001092C80327EC33E082E03093CD03209396
:10300000CC03E7CF953029F42093CF0327EC33E0AE
:10301000F4CF963099F59B81913059F48EE890E089
:103020009093CD038093CC0382E190E490930F01C1
:10303000D0CF923019F48CE790E0F2CF9330A9F71B
:10304000211108C088EE90E09093CD038093CC03CB
:1030500084E0EBCF213041F48EEB90E09093CD03F0
:103060008093CC038AE2E1CF2230F9F680EA90E047
:103070009093CD038093CC038EE1D7CF983059F055
:10308000993019F42093D103C1CF81E09A3009F42B
:10309000BDCF80E0BBCF21ED33E081E0AECF9881A2
:1030A00097FD8E8190E890930F0180930401109218
:1030B000CE038091050184FF3AC0809104018F3FC7
:1030C000B1F1C82F893008F0C8E08C1B809304014F
:1030D0008091BE0398E889278093BE03CC23D1F06A
:1030E0008091CC039091CD0320910F0126FF3FC02A
:1030F000AFEBB3E0FC012C2F34913D93319621507E
:10310000D9F701962FEF2C0F820F911D9093CD03CD
:103110008093CC036C2F8FEB93E00E94DC18CC5F84
:10312000CC3019F08FEF80930401C093050184E146
:1031300099B1947131F48150D9F71092CF03109264
:10314000C903DF91CF91089580910F0187FFAFCF21
:10315000CE010E9499178F3F21F48EE180930501E3
:10316000A6CF882309F4A3CF10920401A0CFEFEBE0
:10317000F3E0DC012C2F3D9131932150E1F7C1CFD9
:10318000E9E6F0E0808182608083E89A0895A82FC4
:10319000B92F80E090E041E050EA609530E009C04E
:1031A0002D9182279795879510F084279527305E7B
:1031B000C8F36F5FA8F30895EADF8D939D93089598
:1031C000CF93CFB7CF93DF93C3954C9BE9F74C9B3D
:1031D0000BC04C9B09C04C9B07C04C9B05C04C9B33
:1031E00003C04C9B01C089C06F93C091CB03DD2706
:1031F000CE52DC4F2F9365E54C9B03C02F916F910E
:10320000E6CF0F931F934F9320E040E15F9309B106
:10321000047104FB27F93F9350E03BE039C014717F
:1032200040642F77012F5F5F1EC0406819B1147191
:103230002F7752501FC0406409B12F770471D1F12C
:103240005F5F00C023C0406219B12F77147191F104
:103250005F5F00C025C004711027515012F45D5FFC
:103260000000115027952C3F19B1C8F614710127A1
:10327000015027952C3FC8F64227499309B10471A4
:1032800010274F73115027952C3FA8F64695469569
:1032900019B1147179F00127015027952C3F98F648
:1032A0006B5A60F3315009B1B0F600C011E01CBB9D
:1032B000002717C03B503195C31BD04011E01CBB09
:1032C0000881033CF9F00B34E9F02091C90319811E
:1032D000110F1213EDCF093651F10D3211F0013EED
:1032E00039F70093D0033F915F914F911F910F9158
:1032F0002F916F91CCB3C0FD67CFDF91CF91CFBF3E
:10330000CF9118952091D003222369F31091CE0319
:10331000112339F534303AF13093CE032093CA03A8
:103320001091CB033BE0311B3093CB031CC00091C9
:10333000CE030130B4F40AE53091050134FD14C028
:1033400000930501CEEBD3E013C0052710E000C0C9
:1033500000000BB91AC0052710E0221F1DC010E0A5
:1033600021C04AE502C032ED432FC4E1D0E032E093
:103370001AB114615C9A0BB11AB954E120E865E303
:1033800020FF05270BB9279517951C3FF0F666958A
:10339000B8F7B1F720FF05270BB9279517951C3F04
:1033A000D0F62795179517FF052700001C3F0BB98E
:1033B000B0F629913A9519F70B7E1091CF03110FB2
:1033C000C651D0400BB911F01093C90311E01CBBDA
:1033D00000611AB11B7E402F4B7E54E05A95F1F7E5
:1033E0000BB91AB94BB97FCF9EE088E10FB6F894BC
:1033F000A895809360000FBE909360000E94C01853
:10340000549A80E0815099F4549878940E94130A59
:1034100080EF80936C03A8950E94C1170E94AA02B6
:1034200080916C03803FB9F30E94EF0BF4CFA89515
:10343000EFE9FFE03197F1F700C00000E3CFEE0FB6
:0E344000FF1F0590F491E02D0994F894FFCF42
:06344E0069019E03FF5A14
:00000001FF
