:100000000C9476000C942D190C9493000C9493008E
:100010000C9493000C9493000C9493000C94930014
:100020000C9493000C9493000C9493000C94930004
:100030000C9493000C9493000C9493000C949300F4
:100040000C9493000C9493000C9493000C949300E4
:100050000C9493000C9493000C9493000C949300D4
:100060000C9493000C9493000C9493000C949300C4
:100070000C9493000C9493000C94930009021200CA
:10008000010100806409040000000000000012016A
:100090001001FF000008C016DC050102010200018A
:1000A0001E0349004E004C00200052006500740001
:1000B00072006F002D00500072006F0067002A036D
:1000C00049006E00660069006E00690074006500FA
:1000D0004E00650073004C006900760065007300F7
:1000E0002E0063006F006D000403090411241FBE7D
:1000F000CFEFD4E0DEBFCDBF11E0A0E0B1E0E8EE8D
:10010000F4E302C005900D92A630B107D9F723E0C1
:10011000A6E0B1E001C01D92A93EB207E1F70E943E
:10012000411A0C94721A0C94000080E008950F9309
:100130001F93CF93DF93EC01FB01D90100914D0197
:1001400010914E01888187FF09C08E818C934423D2
:1001500099F00481158180E883831DC08FEF8C9313
:100160008E8180933801442309F44BC070936A0355
:100170006093690380E9F0CFE0912501F0912601B9
:100180008381883DA1F50481158180E88383E09116
:100190002501F09126011782E0912501F0912601B9
:1001A00083818039F1F48A81813711F08034C9F478
:1001B000E0916903F0916A030480F581E02D8C8160
:1001C0008083E0916903F0916A030480F581E02D5A
:1001D0008D818183E0916903F0916A0387818E5F4D
:1001E0008783C801DF91CF911F910F910895803DC2
:1001F00011F41C92CCCF8FEF8C9380E10E942412DB
:10020000C6CFE0912501F09126018381811106C0BE
:10021000F0936A03E093690380E9B8CF883969F7FE
:10022000E8CFE9E5F1E08FEF819391E0E936F90756
:10023000D9F780934C0180932B0180934B018093DD
:100240002A0180933C018093180180933B018093A5
:10025000170181E00C942412CF93DF93FC0150E04E
:10026000CA01820F911D4197E4F52223E1F18381B8
:100270008F3FD9F582818F3FD1F5DA01A75ABE4F62
:10028000ED0180E099919F3FA1F58F5F2813FACF90
:1002900062831382982F9295990F907E9150968346
:1002A0001782108611821082118612861386148698
:1002B00015861686178695E0440F551F9A95E1F727
:1002C0002091000130910101420F531F5583448357
:1002D00090E06D939F5F8913FCCF80E0DF91CF9119
:1002E00008958EEBFBCF82ECF9CF8FEBF7CF80EC4C
:1002F000F5CF81ECF3CFCF93DF93DC01EB019A01D3
:1003000012969C91129780ED890F803318F5139601
:100310008C911397813041F0E8F08230A9F083305E
:10032000B1F085EB888346C0E8E2F1E0913509F44D
:1003300076C048F5913309F449C078F49923B9F1AE
:100340009033E1F184EBEECFE9E3F1E0EFCFE5E1CB
:10035000F1E0ECCFE9E4F1E0E9CF933309F446C0F2
:10036000E8F1903579F7188286E0898386818A835F
:1003700083818B8387818C8380858D8382818E832B
:1003800087858F8317C0903808F05FC0903708F0DA
:1003900055C0903679F19136C9F1923599F61882A7
:1003A00082E0898380818A8381818B8303C00E945C
:1003B00011011882CE01DF91CF91089514968C918E
:1003C000149715969C9191878287F3CF14968C9100
:1003D000149715969C9193878487EBCF14968C91F4
:1003E000149715969C9195878687E3CF14968C91E8
:1003F0008787DFCF188281E089831496ED91FC9185
:100400001597E75AFE4F80818A83D4CF188281E006
:100410008983E0912501F09126018381F5CF18822F
:1004200086E0898381858A8382858B8383858C831B
:1004300084858D8385858E838685A3CF40E0BF012B
:10044000CD01DF91CF910C949700892F8770813077
:1004500049F0F8F0823001F1833009F062CFE5E134
:10046000F1E002C0E8E2F1E0903808F4A3CF983858
:10047000B0F09059983008F09DCF188213968C9167
:100480001397808714968D919C9115979183808303
:1004900091CFE9E4F1E0E8CFE9E3F1E0E5CF1496AC
:1004A0004C91149715966C91159713962C91CF013A
:1004B0000E942C0137CF90914C0180912B018F3FEE
:1004C00079F481E09F3F09F480E090913C019F3FE7
:1004D00009F083E0909118019F3F09F084E00895AE
:1004E00082E0F3CF623059F421E08934920749F178
:1004F00021E08832920789F489E491E00EC06330EC
:1005000069F421E089349207E1F021E08832920712
:10051000D9F021E08933920779F308956430E9F73F
:1005200021E08934920769F021E08832920761F076
:1005300021E08933920759F021E08531920769F76C
:10054000DBCF88E291E0089589E391E0089585E1A9
:1005500091E008951F93CF93DF930E942A12823D6A
:1005600009F071C00E945B028093060189E491E06A
:1005700090932601809325010E942A12823DA1F4C6
:10058000D09106018091250190912601C1E0CD17FF
:1005900008F45FC0909326018093250120E8FC01B8
:1005A000238380ED0E9424120E942A12823F41F48C
:1005B00080EF0E942412E0912501F0912601138220
:1005C0000E942A12C82F803DE1F48091250190916C
:1005D0002601FC0123812038A1F4609106010E94CC
:1005E00072029093260180932501FC011782C38338
:1005F0000E944303E0912501F0912601882371F1C7
:1006000083830E942A12182F803FC9F4C0912501CC
:10061000D09126018B81883991F460910601CE0139
:100620000E9472029093260180932501FC0113829F
:100630001B83CE010E947A088823C9F08B83DF9147
:10064000CF911F9108950E942A12823F09F094CF02
:1006500089CF6D2F0E947202CF5F99CF2085808154
:100660009181820F911D9183808388EDC9CF84EFA2
:100670008B83288588819981820F911D9983888336
:10068000DECF88E80895CF92DF92EF920F931F9309
:10069000CF93DF931F92CDB7DEB76C01DC010D91D4
:1006A0001C911197602F1996EC918E2F90E0FC0110
:1006B0007097E631F10508F017C1EF59FC4F0C9423
:1006C0006C1ADC032D044D04500474047404740487
:1006D000740474047404740474047404740474045A
:1006E0007404770384039E03B103B803CD03F601BA
:1006F0006585603108F002C1F0E16F9FB0011124FF
:10070000602B0FEFD60120C0D6011D966C911D976E
:10071000862F837C8111F2C0602B0FEF16962C91EF
:10072000169712964C91129714968D919C9115974D
:100730000E94B50DF601878380E0D7C0D6011D96D3
:100740006C911D97602B0FEF16962C9116971296B1
:100750004C91129714968D919C9115970E947D0D46
:10076000E9CFD6011D966C911D97862F807CD2CF44
:10077000D6011D966C911D97602BEE24EA94169677
:100780000C91169712962C91129740E014968D9129
:100790009C9115970E944015CDCFD6011D966C9166
:1007A0001D97602BEE24EA9416960C9116971296DC
:1007B0002C91129741E0EACFD6011D968C918E3193
:1007C000E1F4202F2F7BB80146E0769567954A9596
:1007D000E1F780E090EC29830E94090D2981622FC6
:1007E00060680FEFF60126814281848195810E9425
:1007F0007D0DD60117968C939FCF8C31A1F461E8C3
:1008000080E090E50E94090DB801660F672F661F12
:10081000770B719580E090E80E94090D60E080E020
:1008200090E50E94090DF6018585102F8F3139F072
:1008300010680FEFF60126814281612FD6CF1F7815
:1008400010686081718124E0769567952A95E1F7BB
:1008500080E090E50E94090DECCFF60185858E3F82
:1008600009F06ACFB80195E0769567959A95E1F71A
:100870008FEF9FE30E94450D602F6F710FEFD60140
:1008800016962C91169712964C91129714968D915C
:100890009C9115970E94150E4DCF602F606631CF49
:1008A000D6011D968C91811119C0602F6068000FD0
:1008B000012F001F110B1195202F8FEF84B925B93F
:1008C000439A439814B8EE24EA94F60106812281F3
:1008D00040E0848195810E9440158BCF813069F77B
:1008E000212F2F732064E9CF83EC0F90DF91CF91FC
:1008F0001F910F91EF90DF90CF90089584ECF5CF8A
:10090000CF92DF92EF92FF920F931F93CF93DF93DB
:100910007B016A01DB011796CC91D0E0082F10E033
:10092000102F0027D70116968C91169790E08C1700
:100930009D0760F41796CC9380E0DF91CF911F91D3
:100940000F91FF90EF90DF90CF900895CE019927FF
:10095000D7011496ED91FC911597E80FF91F60816E
:10096000802B912BF60109952196DCCF8F929F92D7
:10097000AF92BF92CF92DF92EF92FF921F93CF93ED
:10098000DF93EB015A011F81812E912CE82EF12C6F
:10099000FE2CEE248E8190E08815990570F41F835B
:1009A00080E0DF91CF911F91FF90EF90DF90CF908B
:1009B000BF90AF909F908F900895C12ED12CEC8165
:1009C000FD81EC0DFD1D6081C6018E299F29F50179
:1009D00009952C813D81C20ED31EF60190818917A5
:1009E00019F0519A599AD6CF5198599A1F5FFFEF33
:1009F0008F1A9F0ACFCF4F925F926F927F928F9202
:100A00009F92AF92BF92CF92DF92EF92FF920F939D
:100A10001F93CF93DF934A013901E8015F80A52C32
:100A2000B12C8501162B8E81851598F45F8280E0AC
:100A3000DF91CF911F910F91FF90EF90DF90CF90BA
:100A4000BF90AF909F908F907F906F905F904F90EE
:100A500008956AEAC401F701099565E5C301F70144
:100A6000099560EAC401F7010995EC81FD81EA0D61
:100A7000FB1D6081C801F70109950E940E18C8018D
:100A8000F6010995482EC801F60109954812F5CFDF
:100A9000CACF2F923F924F925F926F927F928F9226
:100AA0009F92AF92BF92CF92DF92EF92FF920F93FD
:100AB0001F93CF93DF93CDB7DEB727970FB6F89488
:100AC000DEBF0FBECDBF582E4A013C832B831F8350
:100AD0000E83D80117964C90042D10E070E0F62F8D
:100AE000EE27FA83E983252C312CF7E92F1AF2E05F
:100AF0003F0AAE81BF8116968C91169790E08017C1
:100B00009107E0F417964C9280E027960FB6F89480
:100B1000DEBF0FBECDBFDF91CF911F910F91FF9030
:100B2000EF90DF90CF90BF90AF909F908F907F908D
:100B30006F905F904F903F902F90089560E089E60E
:100B40009DEF0E94090D6AEAC401F701099565E568
:100B50008B819C81F701099560EAC401F701099531
:100B6000652DC1010E94090D642C712CA980BA80E9
:100B7000A628B728AE81BF811496ED91FC911597F8
:100B8000E60DF71D6081C501F70109950E940E1859
:100B9000C501F6010995282FC5012D83F601099598
:100BA0002D812813F3CFAE81BF8114968D919C9136
:100BB0001597680E791EF3018081281307C04394AE
:100BC0000F5F1F4F5198599A599893CF519A599A3C
:100BD00090CF3F924F925F926F927F928F929F92AF
:100BE000AF92BF92CF92DF92EF92FF920F931F933B
:100BF000CF93DF93482E662E7A01E901DA0117962A
:100C00005C90A52CB12C6AEA8AEA9AE8F901099568
:100C100065E585E595E8FE01099560E28AEA9AE8CE
:100C2000FE010995712C762C6624D70116968C91BD
:100C3000169790E08A159B0520F517965C9260E95F
:100C400080E090E8FE01099560E080E090E8FE0118
:100C5000099560EF80E090E8FE01099580E0DF9162
:100C6000CF911F910F91FF90EF90DF90CF90BF90A9
:100C7000AF909F908F907F906F905F904F903F903C
:100C8000089564E580E090E50E94090D852C912C83
:100C90006401C628D72860EAC601FE010995D7017C
:100CA0001496ED91FC911597E80DF91D6081C60130
:100CB000FE0109950E940E18C601F8010995382E0B
:100CC000C601F80109953812F5CFD70114968D9118
:100CD0009C911597880E991EF4018081381208C0E6
:100CE0005394FFEFAF1ABF0A5198599A59989DCF64
:100CF00061E880E090E50E94090D642D80E090E8B5
:100D00000E94090D64E580E090E50E94090D519A6A
:100D1000599A8BCF4F925F926F927F928F929F9250
:100D2000AF92BF92CF92DF92EF92FF920F931F93F9
:100D3000CF93DF93662E7A01E901DA0117965C9072
:100D4000A52CB12C6AEA8AEA9AE8F901099565E5C9
:100D500085E595E8FE01099560E28AEA9AE8FE01D8
:100D60000995712C762C6624D70116968C911697CE
:100D700090E08A159B0518F517965C9260E980E073
:100D800090E8FE01099560E080E090E8FE01099599
:100D900060EF80E090E8FE01099580E0DF91CF915F
:100DA0001F910F91FF90EF90DF90CF90BF90AF9089
:100DB0009F908F907F906F905F904F900895852CBB
:100DC000912C6401C628D72860EAC601FE01099566
:100DD000D7011496ED91FC911597E80DF91D6081EE
:100DE000C601FE0109950E940E18C601F801099579
:100DF000482EC601F80109954812F5CFD70114967F
:100E00008D919C911597880E991EF401808148124E
:100E100008C05394FFEFAF1ABF0A5198599A5998D6
:100E2000A3CF519A599AA0CF4F925F926F927F921F
:100E30008F929F92AF92BF92CF92DF92EF92FF92EA
:100E40000F931F93CF93DF93662E7A01E901DA01A6
:100E500017965C90A52CB12C6AEA8AEA9AE0F9010F
:100E6000099565E585E595E0FE01099560E28AEA68
:100E70009AE0FE010995712C762C6624D70116960E
:100E80008C91169790E08A159B0518F517965C9241
:100E900060E980E090E0FE01099560E080E090E08C
:100EA000FE01099560EF80E090E0FE01099580E089
:100EB000DF91CF911F910F91FF90EF90DF90CF9036
:100EC000BF90AF909F908F907F906F905F904F906A
:100ED0000895852C912C6401C628D72860EAC601A4
:100EE000FE010995D7011496ED91FC911597E80D37
:100EF000F91D6081C601FE0109950E940E18C60108
:100F0000F8010995482EC601F80109954812F5CF58
:100F1000D70114968D919C911597880E991EF40116
:100F20008081481208C05394FFEFAF1ABF0A51984E
:100F3000599A5998A3CF519A599AA0CF4F925F923C
:100F40007F928F929F92AF92BF92CF92DF92EF9259
:100F5000FF920F931F93CF93DF93A62E6A01E901AF
:100F6000DA011796EC90F12CA89500000000000023
:100F700000000000000000000000000040E06AEAFD
:100F80008AEA9AE8F901099540E065E585E595E882
:100F9000FE01099540E060E28AEA9AE8FE010995BF
:100FA000B12CBA2CAA24D60116968C91169790E0F3
:100FB0008E159F0530F51796EC9240E060E980E0D1
:100FC00090E8FE01099540E060E080E090E8FE01D5
:100FD000099540E060EF80E090E8FE01099500008F
:100FE00080E0DF91CF911F910F91FF90EF90DF9004
:100FF000CF90BF90AF909F908F907F905F904F90D9
:10100000089560E080EA0E943115270155244201CD
:101010008A289B28D6011496ED91FC911597E40D32
:10102000F51D40E06081C401FE010995000000004B
:101030000000000000000000000000000000A89573
:101040000E940E1860E0C401F8010995782E000096
:101050000000000000000000000000000000000090
:10106000D6011496ED91FC911597E40DF51D808144
:101070007816C1F000000000000000000000000031
:1010800000000000000060E0C401F801099578123A
:101090000DC0000000000000000000000000000083
:1010A00000000000FFEFEF1AFF0A7DCF00000000F4
:1010B0000000000000000000000000000000000030
:1010C0000000000000000000000000000000000020
:1010D0000000000000000000000000000000000010
:1010E000000000000000000060E0C401F801099564
:1010F000782EC9CFBF92CF92DF92EF92FF920F93DB
:101100001F93CF93DF93EC01B8808985823109F476
:1011100035C138F48031A9F0813109F4DFC083ECA6
:1011200006C0833109F432C18431C9F780E0DF9110
:10113000CF911F910F91FF90EF90DF90CF90BF90D4
:1011400008958D85811107C04FE65EE0BE0180E8FD
:101150008B0D0E94B6048D85813039F44EEB5EE034
:10116000BE0180E88B0D0E9480048D85833039F4A8
:101170004FE15FE0BE0180E88B0D0E9480048D8509
:10118000843039F446EA5FE0BE0180E88B0D0E94AE
:10119000B6048D858A3039F44AEF5FE0BE0180E8FD
:1011A0008B0D0E9480048D858D3FD1F46B2D6F7364
:1011B0006068B62E88819981F6E096958795FA95B4
:1011C000E1F7A7EFCA2EACE0DA2EBEECEB2EBCE0C6
:1011D000FB2E8E012AEA3AE245E555E50E944905D3
:1011E0008D858E3139F445EC50E1BE0180E88B0DE0
:1011F0000E94B6048D858C3031F56B2D6F7160685F
:10120000B62EE880F98065E0F694E7946A95E1F7F8
:1012100065EA80E090E60E94090D6E2D8FEF9FEF4A
:101220000E94090D77EFC72E7CE0D72EE9E0EE2E65
:10123000EDE0FE2E8E012AEA3AEA45E555ED6B2DEA
:1012400080E00E94FB048D858C3101F5E880F980F7
:10125000EE0CEF2CEE1CFF08F19461E880E090E5C5
:101260000E94090D6E2D80E090E80E94090D64E552
:1012700080E090E50E94090D07EF1CE029E03DE0C9
:10128000AE016B2D60688E2D0E94E9058D858F3132
:10129000C9F48B2D8F78B82EE880F98044E0F6945D
:1012A000E7944A95E1F76E2D80E090E50E94090DE4
:1012B0006B2D606807EF1CE029E03DE0AE018E2D4C
:1012C0000E948A068D858F3609F030CF42E051E1C9
:1012D000BE0180E88B0D0E94B60428CF8D85811158
:1012E00006C047E95EE0BE018B2D0E9480048D851B
:1012F000813031F44BEE5EE0BE018B2D0E94800404
:101300008D85823031F44AE55FE0BE018B2D0E946D
:1013100080048D85843031F443ED5FE0BE018B2D78
:101320000E9480048D858A3031F447E250E1BE018D
:101330008B2D0E9480048D858B3031F444E650E182
:10134000BE018B2D0E9480048D858E3F09F0EECE6C
:101350006881798135E0769567953A95E1F78FEF69
:101360009FE30E94450D6B2D6F7109E51DE02BE693
:101370003DE0AE0180E00E941407D8CE49E05DE078
:10138000BE0180E68B0D0E948004D0CE8D85843016
:1013900039F441E855E1BE0180E88B0D0E948004DC
:1013A0008D85853031F441E855E1BE018B2D0E94D9
:1013B00080048D85863039F44EEA55E1BE0180E81F
:1013C0008B0D0E9480048D85873031F44EEA55E103
:1013D000BE018B2D0E9480048D85811119C08B2D3B
:1013E0008068B82E88819981880F892F881F990B72
:1013F00091959FEF94B985B9439A439814B80CEF2F
:1014000014E128E135E1AE016B2D80E00E949E07DA
:101410008D85813009F08ACE89818F7380649FEF3A
:1014200094B985B9439A439814B80CEF14E128E1B4
:1014300035E1AE016B2D80E00E949E0777CE389893
:10144000409A3998419A3A98429A3C98449A3D98E1
:10145000459A3E98469A53985B9A55985D9A3F985C
:10146000479A57985F9A3B98439A5098589814B85F
:101470008FEF85B93F9A479881B911B882B914B8EE
:1014800085B914B885B95198599A08950E941F0AD0
:10149000399A419A389A40983A9A429A3C9A449A90
:1014A0003D9A459A14B88FEF85B914B885B914B828
:1014B00085B93F9A479881B912B884B915B8479A47
:1014C000479814B808950E941F0A399A419A3C9A85
:1014D000449A3D9A459A589A509A14B88FEF85B914
:1014E00014B885B914B885B93F9A479881B912B82C
:1014F00084B915B8479A479814B814B885B9579A5B
:101500005F983B9A439884B915B8439A439814B8A6
:101510000895823081F0833061F08130A1F4089821
:10152000109A1092BE0380E290E09093BD038093E6
:10153000BC0380E008955098589A88E08093BE03D9
:1015400089E290E0F2CF87E90895813059F414B828
:101550008FEF85B9579A5F983B9A43980E94200B6A
:1015600080E0089588E908955898509A000089B15C
:101570005098589880FD22C05098589A59B149B156
:10158000000039B10000000029B100000000000097
:1015900099B1000000000000000089B150985898EF
:1015A00050FD0EC040FD0EC030FD0EC020FD0EC02F
:1015B00090FD0EC080FD0EC080EE089580EF08956E
:1015C00080E0089581E0089583E0089586E008951D
:1015D0008AE008958FE008950F931F93CF93C82F4B
:1015E000842F8901C230F9F030F4CC2389F0C13066
:1015F000B1F0C6E90FC0C430F1F0C0F0C038C9F78F
:1016000081E0F90180830E94B40AF801818309C056
:101610000E941F0A8C2FCF911F910F9108950E9455
:10162000460AC0E0F7CF0E94630AFBCFCF911F911B
:101630000F910C94890ACF911F910F910C94A50AD8
:10164000109214018FEF84B915B8439A439814B8D7
:101650005098589A80E880936C0310927A03EBE7D5
:10166000F3E0119283E0EB39F807D9F70895609120
:101670007A03813109F441C0109214019FEF94B9AB
:101680009091140195B9439A439814B820E070E002
:101690003FEF8032C9F4E72FF0E0E558FC4F40817E
:1016A00050E0022E02C0559547950A94E2F740FF9C
:1016B00028C092E034B995B9439A439814B82F5F83
:1016C000283011F47F5F20E0492F446034B945B9D8
:1016D000439A439814B8615034B995B9439A4398E2
:1016E00014B86111D6CF909314014093270134B9F7
:1016F00015B8439A439814B8089592E09093140152
:10170000BDCF90E0D7CF0F931F93CF93DF9350912E
:101710007A03B0917B03813109F46BC010921401FC
:101720009FEF94B99091140195B9439A439814B8D6
:1017300020E030E07FEFC1E0D0E0803281F4EB2F99
:10174000F0E0022E02C0F595E7950A94E2F7E0FF7B
:1017500054C0916074B995B9439A439814B86032F3
:10176000B1F4211105C0E32FF0E0E558FC4F1082E1
:10177000489B0DC0E32FF0E0E558FC4FA0818E019F
:10178000022E01C0000F0A94EAF7A02BA08351504B
:10179000442341F0511106C0926074B995B9439A3F
:1017A000439814B8A92FA46074B9A5B9439A439873
:1017B00014B874B995B9439A439814B82F5F283078
:1017C00039F43F5FE32FF0E0E558FC4FB08120E0B3
:1017D0005111B3CF90931401A09327018FEF84B9D7
:1017E00015B8439A439814B8DF91CF911F910F9188
:1017F000089591E09093140193CF9E7FABCF809199
:101800006C038338D1F580916D03883009F463C08F
:10181000C0F4833009F445C030F4813079F182306E
:10182000A1F18EEE28C0863009F44AC008F04EC0FF
:101830008430B9F781E880936C0341E060E281E194
:1018400036C08F30C1F148F48D3031F18E3049F718
:1018500081E880936C0340E028C0803849F08F3FD6
:1018600049F08031F1F681E880936C0340E02CC0B0
:101870000C94200B80EF80936C03089581E8809393
:101880006C0380E20E94370B14C081E880936C03E4
:1018900041E060E080E20BC081E880936C0340E0AF
:1018A000F8CF81E880936C0341E060E280E10E9420
:1018B000830B82E8E0CF81E880936C0340E0BECFE9
:1018C00081E880936C0341E060E2E4CF81E880939B
:1018D0006C0380E1D7CF81E880936C0381E1D2CFA4
:1018E000CF93DF93E901843061F138F48230E1F085
:1018F00008F58130A1F087E80FC0873039F128F46E
:101900008530C9F740937A0306C0883021F18038CA
:1019100091F70E94200B80E0DF91CF910895909184
:101920006D0399838883F7CF40936D0383E8809399
:101930006C03F1CF40936D0383E880936C030E94A6
:10194000FF0B80916C03898381E0ECCF40937B0394
:1019500050937C03E0CF80917B03898380917C034B
:101960008A8380917D038B8380917E038C83809119
:101970007F038D83809180038E8386E0D3CF82B9ED
:101980008FEF84B995B9479A479814B884B965B967
:10199000509A58985098589A14B8089582B98FEF71
:1019A00084B995B9479A479814B884B965B9509ADB
:1019B0005898589A14B80895509858984098419A51
:1019C000429A82B92FEF24B995B9479A479814B82B
:1019D00000000000409A97FD4198000000000000C0
:1019E00000000000000083B14098419A089582B938
:1019F0002FEF24B995B9479A479814B8409A97FDA4
:101A00004198000000000000000083B14098419A16
:101A100008955098589882B92FEF24B995B9479AEC
:101A2000479814B8429824B965B9409A97FD4198EF
:101A3000000000004098419A429A14B8089582B973
:101A40002FEF24B995B9479A479814B8429824B90A
:101A500065B997FD419800000000419A429A14B878
:101A60000895811520E2920708F4906882B98FEFFB
:101A700084B995B9479A479814B844980000000073
:101A80000000000083B1449A0895811520E2920776
:101A900008F4906882B98FEF84B995B9479A47984E
:101AA00014B884B965B9000045980000459A14B887
:101AB000089582B98FEF84B995B9479A479814B8B9
:101AC000409A4198449800000000000083B1449A75
:101AD0004098419A089582B98FEF84B995B9479A91
:101AE000479814B84098419884B965B90000459862
:101AF0000000459A14B8419A0895EF92FF920F930F
:101B0000CF93DF9300D01F92CDB7DEB77C018FEF6C
:101B100084B965B9479A479814B8409A67FD4198C7
:101B200042B9000080E0011117C00000000093B12D
:101B3000F701E80FF11D90834F5F42B98F5F2817BF
:101B400090F74098419A0F900F900F90DF91CF91AE
:101B50000F91FF90EF9008952B834A8389830E9411
:101B60000E1889814A812B81E2CFEF92FF920F9369
:101B7000CF93DF9300D01F92CDB7DEB77C016032E8
:101B800008F460688FEF84B965B9479A479814B82C
:101B9000449842B9000080E0011116C00000000026
:101BA00093B1F701E80FF11D90834F5F42B98F5F4A
:101BB000281790F7449A0F900F900F90DF91CF91D4
:101BC0000F91FF90EF9008952B834A8389830E94A1
:101BD0000E1889814A812B81E3CFEF92FF921F93E8
:101BE000CF93DF93EC01C11580E2D80708F4D068E9
:101BF0000E9457167E01F3941FEFC2B914B9D5B9EC
:101C0000479A479814B814B985B9000045980E94BE
:101C100057162196459AEC16FD0679F714B8DF9110
:101C2000CF911F91FF90EF900895EF92FF920F9345
:101C3000CF93DF9300D01F92CDB7DEB77C018FEF3B
:101C400084B965B9479A479814B8409A419844981E
:101C500042B9000080E0011118C00000000093B1FB
:101C6000F701E80FF11D90834F5F42B98F5F28178E
:101C700090F7449A4098419A0F900F900F90DF91FF
:101C8000CF910F91FF90EF9008952B834A83898322
:101C90000E940E1889814A812B81E1CF0F931F93F7
:101CA000CF93DF938C01D62F442349F080E090E856
:101CB0000E94F70C60E880E090E80E94090DC5E002
:101CC000C8010E94F70C6D2FC8010E94090DD6951E
:101CD000C150B1F7DF91CF911F910F9108951F93DC
:101CE000CF93DF93EC01162F6AEA85E595E50E9414
:101CF000BF0C65E58AEA9AE20E94BF0C60EA85E5BE
:101D000095E50E94BF0C612FCE010E94BF0CCE0151
:101D10000E94F70C182F0E940E18CE010E94F70C9B
:101D20001813F5CF812FDF91CF911F9108951F9345
:101D3000CF93DF93EC01162F6AEA85E595E10E94C7
:101D4000450D65E58AEA9AE00E94450D60EA85E561
:101D500095E10E94450D612FCE010E94450DCE01F7
:101D60000E94310D182F0E940E18CE010E94310DD5
:101D70001813F5CFDF91CF911F9108951F93CF9343
:101D8000DF93EC01162F40E065E080E090EC0E94CC
:101D90004E0E6AEA85E595E50E94090D65E58AEA39
:101DA0009AEA0E94090D60EA85E595E50E94090D11
:101DB000612FCE010E94090DCE010E94F70C182F51
:101DC0000E940E18CE010E94F70C1813F5CFDF9178
:101DD000CF911F9108951F93CF93DF93EC01162F9E
:101DE00040E062E080E090EA0E944E0E6AEA85E5FB
:101DF00095E10E94450D65E58AEA9AE00E94450D4D
:101E000060EA85E595E10E94450D40E060919E0302
:101E100080E090EA0E944E0E612FCE010E94450D97
:101E2000CE010E94310D182F0E940E18CE010E9483
:101E3000310D1813F5CFDF91CF911F9108951F93A6
:101E4000CF93DF93EC01162F60E080919B0390917C
:101E50009C030E94090D6AEA85E595E50E94BF0C86
:101E600065E58AEA9AE20E94BF0C60EA85E595E59D
:101E70000E94BF0C90919E0320919B0330919C0384
:101E8000692FA901490F511DCA010E94090D612F37
:101E9000CE010E94BF0CCE010E94F70C182F0E94A9
:101EA0000E18CE010E94F70C1813F5CFDF91CF91D9
:101EB0001F9108951F93CF93DF93EC01162F80910C
:101EC0009B0390919C0362E002960E94090D6AEACE
:101ED00085E595E10E94450D80919B0390919C03BF
:101EE00061E001960E94090D65E58AEA9AE00E9488
:101EF000450D80919B0390919C0362E002960E94A5
:101F0000090D60EA85E595E10E94450D90919E03DB
:101F100020919B0330919C03692FA901490F511D0A
:101F2000CA010E94090D612FCE010E94450DCE010C
:101F30000E94310D182F0E940E18CE010E94310D03
:101F40001813F5CFDF91CF911F9108951F93CF9371
:101F5000DF93EC01162F6AEA85E595ED0E94090DE5
:101F600065E58AEA9AEA0E94090D60EA85E595ED41
:101F70000E94090D612FCE010E94090D60E080E0F2
:101F800090E80E94090DCE010E94F70C182F0E94C4
:101F90000E18CE010E94F70C1813F5CF812FDF9198
:101FA000CF911F9108951F93CF93DF93EC01162FCC
:101FB0006AEA85E595E10E94450D65E58AEA9AE1C0
:101FC0000E94450D60EA85E595E10E94450D612F6F
:101FD000CE010E94450DCE010E94310D182F0E94A6
:101FE0000E18CE010E94310D1813F5CFDF91CF915D
:101FF0001F9108951F93CF93DF93EC01162F6AEA88
:102000008AEA9AEF0E94090D65E585E595EF0E9441
:10201000090D60EA8AEA9AEF0E94090D612FCE014C
:102020000E94090D60919E0380E090EA0E94090DD4
:10203000CE010E94F70C182F0E940E18CE010E94AC
:10204000F70C1813F5CFDF91CF911F9108951F93CF
:10205000CF93DF93EC01162F6AE080E090EB0E94B3
:10206000090D6AE080E090EC0E94090D6AEA85E5BE
:1020700095E10E94450D65E58AEA9AE00E94450DCA
:1020800060EA85E595E10E94450D60919E0380E040
:1020900090EB0E94090D60919E0380E090EC0E94FD
:1020A000090D612FCE010E94450DCE010E94310D18
:1020B000182F0E940E18CE010E94310D1813F5CF73
:1020C000DF91CF911F9108951F93CF93DF93EC0180
:1020D000162F80919D0390E0880F991F20919B03FC
:1020E00030919C0360E2820F931F0E94090D6AEAFF
:1020F00085E595E10E94450D20919D0380919B030C
:1021000090919C0360E1820F911D0E94090D65E58D
:102110008AEA9AE00E94450D80919D0390E0880F25
:10212000991F20919B0330919C0360E2820F931FC3
:102130000E94090D60EA85E595E10E94450D9091A8
:102140009E03692F6295607F80919D0320919B0380
:1021500030919C03A901989F400D511D1124CA0183
:102160000E94090D612FCE010E94450DCE010E94F3
:10217000310D182F0E940E18CE010E94310D181338
:10218000F5CFDF91CF911F9108951F93CF93DF93E8
:10219000EC01162F61E080E090EC0E94090D6AEAE4
:1021A00085E595E90E94090D60E080E090EC0E94D1
:1021B000090D65E58AEA9AEA0E94090D61E080E06E
:1021C00090EC0E94090D60EA85E595E90E94090DF1
:1021D00060919E0380E090EC0E94090D612FCE017A
:1021E0000E94090DCE010E94F70C182F0E940E18B4
:1021F000CE010E94F70C1813F5CF812FDF91CF91FC
:102200001F9108951F93CF93DF93EC01162F6AEA75
:1022100085E595ED0E94090D65E58AEA9AEA0E9436
:10222000090D60EA85E595ED0E94090D612FCE014B
:102230000E94090DCE010E94F70C182F0E940E1863
:10224000CE010E94F70C1813F5CF812FDF91CF91AB
:102250001F9108950F931F93CF93C82FCA0189012F
:10226000C03109F4A0C070F5C83009F499C0B0F4C9
:10227000C43009F47AC050F4C13009F46AC008F4DB
:102280005DC0C23009F468C0C0EA5AC0C63009F463
:102290005CC008F467C00E94A60F59C0CC3009F496
:1022A00088C040F4CA3009F472C008F46DC00E94BE
:1022B0005A0F4DC0CE3009F46DC008F46EC00E94B4
:1022C000EB0E45C0C43209F45CC0A8F4C03209F476
:1022D00050C050F4C23109F46FC008F467C0C33174
:1022E00099F60E94021133C0C232C9F108F444C009
:1022F0000E94ED0D2CC0C43809F46DC088F4C138BB
:1023000009F45DC0C23809F460C0C03809F0BCCF20
:1023100021E0F80120830E94DC0CF801818317C0C2
:10232000C63809F464C008F45CC0C73809F0ACCF03
:1023300081E0F901808380919D03F0CF0E94BF0C62
:102340008C2FCF911F910F9108950E94CE0CC0E069
:10235000F7CF0E94450DFBCF0E94090DF8CF0E94D8
:102360001F0DF5CF0E946B0DF2CF40E00E944E0E84
:10237000EECF40939E03EBCF40939B0390939C033F
:10238000E6CF40939D03E3CF0E946F0EE0CF0E9403
:10239000970EDDCF0E94BE0EDACF0E941F0FD7CF5F
:1023A0000E94D30FD4CF0E94FA0FD1CF0E942710E2
:1023B000CECF0E946410CBCF0E94C510C8CF21E0C1
:1023C000F80120830E94F70CA8CF21E0F8012083B8
:1023D0000E94310DA2CF21E0F80120830E94590D07
:1023E0009CCF81E0F901808380919E0397CF82E0AA
:1023F000F901808380919B03818380919C03828378
:10240000A6CFCF93DF93FB01DC0112962C91222300
:1024100029F0203479F082ED808308C01082A091E9
:102420000201B0910301EC018C818C93CF01DF910B
:10243000CF910895108281E08183A0910201B09133
:1024400003018C918283F2CFE0910201F0910301AC
:1024500080830895E0910201F09103018081089545
:102460000F931F93D901082F10E00831110508F0D0
:10247000B7C2F801E25CFD4E0C946C1A7812561249
:10248000B1120A1354139E13E8138A148F14941470
:1024900097149B149E14A614AE14B214B514B91458
:1024A000C214CB14D114D914E214E81446315105E6
:1024B00008F098C2FA01E15AFD4E0C946C1A75129C
:1024C0007B127F12F214831287128B128F129312D7
:1024D00097129B129F12A312A712F214F214F21475
:1024E000F214F214F214F214AD123898409A80E00B
:1024F0001F910F9108953998419A80E0F9CF3A9849
:10250000429A80E0F5CF3C98449A80E0F1CF3D9824
:10251000459A80E0EDCF3E98469A80E0E9CF3F981B
:10252000479A80E0E5CF5098589A80E0E1CF5198E3
:10253000599A80E0DDCF53985B9A80E0D9CF5598C7
:102540005D9A80E0D5CF56985E9A80E0D1CF5798BB
:102550005F9A3B98439A80E0CBCF5098589A80E09E
:10256000C7CF4631510508F03FC2FA01E654FD4E8F
:102570000C946C1AD012D412D812F414DC12E0129B
:10258000E412E812EC12F012F412F812FC1200132A
:10259000F414F414F414F414F414F414F4140613EA
:1025A0003898409880E0A4CF3998419880E0A0CF37
:1025B0003A98429880E09CCF3C98449880E098CF2D
:1025C0003D98459880E094CF3E98469880E090CF23
:1025D0003F98479880E08CCF5098589880E088CFFB
:1025E0005198599880E084CF53985B9880E080CFD1
:1025F00055985D9880E07CCF56985E9880E078CFC3
:1026000057985F983B98439880E072CF50985898BD
:1026100080E06ECF4631510508F0E8C1FA01ED5E69
:10262000FC4E0C946C1A29132C132F13F61432132E
:10263000351338133B133E134113441347134A1306
:102640004D13F614F614F614F614F614F614F614E4
:102650005113389A80E04CCF399A80E049CF3A9AAA
:1026600080E046CF3C9A80E043CF3D9A80E040CF67
:102670003E9A80E03DCF3F9A80E03ACF509A80E08A
:1026800037CF519A80E034CF539A80E031CF559ABA
:1026900080E02ECF569A80E02BCF579A3B9A80E06D
:1026A00027CF509A80E024CF4631510508F0A0C1D1
:1026B000FA01E35AFC4E0C946C1A731376137913D7
:1026C000F8147C137F138213851388138B138E13D6
:1026D000911394139713F814F814F814F814F814C9
:1026E000F814F8149B13409880E002CF419880E0E2
:1026F000FFCE429880E0FCCE449880E0F9CE459829
:1027000080E0F6CE469880E0F3CE479880E0F0CEA9
:10271000589880E0EDCE599880E0EACE5B9880E052
:10272000E7CE5D9880E0E4CE5E9880E0E1CE5F98F1
:10273000439880E0DDCE589880E0DACE46315105EE
:1027400008F058C1FA01E955FC4E0C946C1ABD13FF
:10275000C013C313FA14C613C913CC13CF13D21367
:10276000D513D813DB13DE13E113FA14FA14FA1499
:10277000FA14FA14FA14FA14E513409A80E0B8CE69
:10278000419A80E0B5CE429A80E0B2CE449A80E091
:10279000AFCE459A80E0ACCE469A80E0A9CE479A6B
:1027A00080E0A6CE589A80E0A3CE599A80E0A0CED1
:1027B0005B9A80E09DCE5D9A80E09ACE5E9A80E042
:1027C00097CE5F9A439A80E093CE589A80E090CE5D
:1027D00082E08C934631510508F099C0FA01ED5022
:1027E000FC4E0C946C1A091412141B148714241434
:1027F0002D1436143F14481451145A1463146C14D5
:102800007514871487148714871487148714871402
:102810007E1486B1817011968C93119712961C923A
:1028200080E066CE86B1827090E012969C938E9383
:10283000119780E05DCE86B1847090E012969C93F3
:102840008E93119780E054CE86B1807190E01296FD
:102850009C938E93119780E04BCE86B1807290E06E
:1028600012969C938E93119780E042CE86B180742D
:1028700090E012969C938E93119780E039CE86B1AA
:10288000807890E012969C938E93119780E030CEE2
:1028900089B1817011968C93119712961C9280E0E9
:1028A00027CE89B1827090E012969C938E931197F7
:1028B00080E01ECE89B1887090E012969C938E9332
:1028C000119780E015CE89B1807290E012969C93AA
:1028D0008E93119780E00CCE89B1807490E01296AF
:1028E0009C938E93119780E003CE89B1807890E01D
:1028F00012969C938E93119780E0FACD89B18170E6
:1029000011968C93119712961C9280E0F1CD1C9237
:102910008DE8EECD14B88FEF85B980E0E9CD14B81D
:102920008FEF85B980E0E4CD14B880E0E1CD8FEF82
:1029300084B980E0DDCD45B980E0DACD83B1119670
:102940008C93119781E08C9380E0D2CD14B88FEFF7
:1029500085B93F9A479881B980E0CACD8FEF82B997
:1029600080E0C6CD11B880E0C3CD8FEF81B980E0A3
:10297000BFCD42B98FEF84B955B9479A479814B87B
:1029800080E0B6CD14B88FEF85B9579A5F983B9A1F
:10299000439880E0ADCD57985F9A3B98439A80E08A
:1029A000A7CD8FEF84B945B9439A439814B880E016
:1029B0009FCD14B88FEF85B9579A5F983B9A43988B
:1029C00080E096CD57985F9A3B98439A80E090CDEF
:1029D0008FEF84B945B9439A439814B880E088CD05
:1029E0008CE886CD8DE884CD8DE882CD8DE880CDD4
:1029F0008DE87ECD8DE87CCD82B98FEF84B995B915
:102A0000479A479814B8611101C041984498000052
:102A100000000000000000000000000000000000B6
:102A2000000000000000000083B1449A419A08951C
:102A300082B98FEF84B995B9479A479814B884B989
:102A400065B94598411101C041980000000000009F
:102A500000000000000000000000459A419A14B8F0
:102A600008959FEF94B985B94598611101C04198C7
:102A70000000000000000000459A419A14B8089533
:102A8000CF92DF92EF920F93CF93DF9300D0CDB729
:102A9000DEB76C018FEF84B965B9479A479814B8CF
:102AA0004498411101C0419822B980E0E1101FC053
:102AB0000000000000000000000000000000000016
:102AC0000000000093B1F601E80FF11D90832F5F25
:102AD00022B98F5F081750F7449A419A0F900F90D0
:102AE000DF91CF910F91EF90DF90CF9008952A83DF
:102AF00089830E940E1800000000000089812A814D
:102B0000DBCF1F93CF93DF93EC01162F40E06AEAEF
:102B100085E595E50E94181540E065E58AEA9AE2A8
:102B20000E94181540E060EA85E595E50E941815B9
:102B300040E0612FCE010E94181560E0CE010E9496
:102B4000FC14182F0E940E1860E0CE010E94FC14A5
:102B50001813F3CFDF91CF911F9108951F93CF9357
:102B6000DF93EC01162F40E06AEA8AEA9AE80E94B5
:102B7000181540E065E585E595E80E94181540E0E8
:102B800060EA8AEA9AE80E94181540E0612FCE01B7
:102B90000E94181560E0CE010E94FC14182F0E94BC
:102BA0000E1860E0CE010E94FC141813F3CFDF91E1
:102BB000CF911F9108950F931F93CF93DF93782F99
:102BC000CA01E901072F10E00730110580F5F8016F
:102BD000E451FA4E0C946C1AF3150C16FF150616F8
:102BE0000916131604169FEF94B985B9439A4398B2
:102BF00014B8872FDF91CF911F910F91089540E076
:102C00000E94181570E0F5CF41E0FACF0E948115BF
:102C1000F9CF0E94AE15F6CF21E0288360E00E9434
:102C2000FC148983EFCF21E0288361E0F8CF7AEAB2
:102C3000E0CF823099F0833051F1813069F560E066
:102C400070E0BA01552744274093B8035093B90365
:102C50006093BA037093BB0380E008958091B8033A
:102C60009091B903A091BA03B091BB03882799272B
:102C700060E070E0842B952BA62BB72B8093B803D4
:102C80009093B903A093BA03B093BB03E5CF81E05F
:102C900090E0A0E0B0E0F2CF83E808956093B8033D
:102CA0007093B9038093BA039093BB030895CF92B6
:102CB000DF92EF92FF928091B8039091B903A091B7
:102CC000BA03B091BB0327E0AC01BD0176956795CF
:102CD000579547956C017D0155E1F694E794D7949B
:102CE000C7945A95D1F74C2548276C017D01CC2417
:102CF000F7FCC394DD24EE24FF244C254170880F9B
:102D0000991FAA1FBB1F842B2150F1F68093B80393
:102D10009093B903A093BA03B093BB03FF90EF90D5
:102D2000DF90CF900895880F991F880F991F20E09A
:102D300030E02817390709F40895000000002F5FDC
:102D40003F4FF7CF20E030E02817390709F4089506
:102D5000000000002F5F3F4FF7CFCF93DF9380E15C
:102D600090E00E949316C4E0D0E084EF91E00E94CE
:102D7000931684EF91E00E9493162197B1F7C4E077
:102D8000D0E08AEF90E00E9493168AEF90E00E94D4
:102D900093162197B1F7DF91CF91089580E190E0EC
:102DA0000C949316CF93DF931F92CDB7DEB7F90142
:102DB000813171F038F48130C1F078F08230C9F09F
:102DC00082E80FC08132A9F0823299F08231C1F7D6
:102DD00082E08083128211820AC089830E94AD162C
:102DE00089810F90DF91CF9108950E94CE1680E0E7
:102DF000F8CF81E080831182FACF482F90E0982F9E
:102E0000882720E0411103C0211180680895209592
:102E10003FEF340F4323F6CF80E090E0089580E049
:102E2000089560E070E0CB010895CF93DF931F9287
:102E3000CDB7DEB7DC018FEF809307011092080158
:102E400087E091E09093CE038093CD0316968C910A
:102E5000169789831196EC9111974E2F50E0FA0145
:102E60003197E131F10508F0AFC0E75CF84E0C9402
:102E70006C1A4A175A1768177617CA17E417DB1720
:102E800084179217A017AE17E417E417E417E41796
:102E9000E417BC1714964D915C91159728E031E02A
:102EA00013966C91139712968C910E943012809316
:102EB00007017CC014964D915C91159728E031E094
:102EC00013966C91139712968C910E94EC0AEFCF97
:102ED00014964D915C91159728E031E013966C9112
:102EE000139712968C910E942A11E1CF14964D915E
:102EF0005C91159728E031E013966C911397129628
:102F00008C910E94DB15D3CF14964D915C9115974F
:102F100028E031E013966C91139712968C910E94E1
:102F2000D216C5CF14964D915C91159728E031E0EB
:102F300013966C91139712968C910E94700CB7CFD8
:102F400014964D915C91159728E031E013966C91A1
:102F5000139712968C910E949500A9CF14964D91CB
:102F60005C91159728E031E013966C9113971296B7
:102F70008C910E9441039BCF14964D915C911597C3
:102F800028E031E013966C91139712968C910E9471
:102F900019168DCFAE014F5F5F4F67E071E0CD0135
:102FA0000E947B019093CE038093CD0389810F9083
:102FB000DF91CF910895AE014F5F5F4F67E071E001
:102FC000CD010E940112EECF80E871CFE09169033C
:102FD000F0916A03278144815581322F360F2313E4
:102FE00012C0E0916903F0916A038781860F87839D
:102FF00080913801861B8093380181110DC088E9CA
:10300000838381E00895FC017191CF01FA01E20F01
:10301000F11D70832F5FE3CF80E00895CF93DF939E
:103020006091CF03635067FD91C08091CC03CCE0E9
:10303000D0E0C81BD109CD52DC4F8091CB038D323B
:1030400009F0CFC0683009F07FC083EC8093BF03E4
:103050008AE58093050110920F018881807679F0CE
:10306000CE010E9415178F3F09F466C09F81911110
:1030700069C09E81981708F065C0892F63C02A81B6
:103080001092C803998191110AC01092C90328ECCB
:1030900033E082E03093CE032093CD03E7CF953029
:1030A00029F42093D00328EC33E0F4CF963099F53F
:1030B0009B81913059F48EE890E09093CE038093F9
:1030C000CD0382E190E490930F01D0CF923019F4B8
:1030D0008CE790E0F2CF9330A9F7211108C088EE79
:1030E00090E09093CE038093CD0384E0EBCF21302A
:1030F00041F48EEB90E09093CE038093CD038AE26F
:10310000E1CF2230F9F680EA90E09093CE038093ED
:10311000CD038EE1D7CF983059F0993019F4209330
:10312000D203C1CF81E09A3009F4BDCF80E0BBCF9C
:1031300022ED33E081E0AECF988197FD8E8190E85B
:1031400090930F01809304011092CF0380910501A9
:1031500084FF3AC0809104018F3FB1F1C82F8930BC
:1031600008F0C8E08C1B809304018091BF0398E8AD
:1031700089278093BF03CC23D1F08091CD03909118
:10318000CE0320910F0126FF3FC0A0ECB3E0FC016D
:103190002C2F34913D9331962150D9F701962FEF82
:1031A0002C0F820F911D9093CE038093CD036C2F33
:1031B00080EC93E00E942919CC5FCC3019F08FEF9E
:1031C00080930401C093050184E199B1947131F4B5
:1031D0008150D9F71092D0031092CA03DF91CF919A
:1031E000089580910F0187FFAFCFCE010E94E617AF
:1031F0008F3F21F48EE180930501A6CF882309F447
:10320000A3CF10920401A0CFE0ECF3E0DC012C2F5F
:103210003D9131932150E1F7C1CFE9E6F0E08081A3
:1032200082608083E89A0895A82FB92F80E090E00B
:1032300041E050EA609530E009C02D9182279795D2
:10324000879510F084279527305EC8F36F5FA8F349
:103250000895EADF8D939D930895CF93CFB7CF93D1
:10326000DF93C3954C9BE9F74C9B0BC04C9B09C06B
:103270004C9B07C04C9B05C04C9B03C04C9B01C0A2
:1032800089C06F93C091CC03DD27CD52DC4F2F93C3
:1032900065E54C9B03C02F916F91E6CF0F931F9371
:1032A0004F9320E040E15F9309B1047104FB27F9DB
:1032B0003F9350E03BE039C0147140642F77012FF9
:1032C0005F5F1EC0406819B114712F7752501FC044
:1032D000406409B12F770471D1F15F5F00C023C052
:1032E000406219B12F77147191F15F5F00C025C062
:1032F00004711027515012F45D5F000011502795A2
:103300002C3F19B1C8F614710127015027952C3FA5
:10331000C8F64227499309B1047110274F73115021
:1033200027952C3FA8F64695469519B1147179F06A
:103330000127015027952C3F98F66B5A60F33150C6
:1033400009B1B0F600C011E01CBB002717C03B500C
:103350003195C31BD04011E01CBB0881033CF9F040
:103360000B34E9F02091CA031981110F1213EDCF2C
:10337000093651F10D3211F0013E39F70093D103B6
:103380003F915F914F911F910F912F916F91CCB30E
:10339000C0FD67CFDF91CF91CFBFCF91189520911E
:1033A000D103222369F31091CF03112339F534306F
:1033B0003AF13093CF032093CB031091CC033BE041
:1033C000311B3093CC031CC00091CF030130B4F407
:1033D0000AE53091050134FD14C000930501CFEBDF
:1033E000D3E013C0052710E000C000000BB91AC0DD
:1033F000052710E0221F1DC010E021C04AE502C0D1
:1034000032ED432FC4E1D0E032E01AB114615C9A8E
:103410000BB11AB954E120E865E320FF05270BB989
:10342000279517951C3FF0F66695B8F7B1F720FF82
:1034300005270BB9279517951C3FD0F627951795AB
:1034400017FF052700001C3F0BB9B0F629913A95EC
:1034500019F70B7E1091D003110FC651D0400BB954
:1034600011F01093CA0311E01CBB00611AB11B7E5E
:10347000402F4B7E54E05A95F1F70BB91AB94BB96E
:103480007FCF9EE088E10FB6F894A8958093600006
:103490000FBE909360000E940D19549A80E08150F5
:1034A00099F4549878940E941F0A80EF80936C03DB
:1034B000A8950E940E180E94AA0280916C03803F7A
:1034C000B9F30E94FF0BF4CFA895EFE9FFE0319725
:1034D000F1F700C00000E3CFEE0FFF1F0590F4915D
:0834E000E02D0994F894FFCFE0
:0634E80069019F03FF5A79
:00000001FF
